Archive member included to satisfy reference by file (symbol)

c:/nxp/mcuxpressoide_11.6.1_8255/ide/plugins/com.nxp.mcuxpresso.tools.win32_11.6.1.202207200623/tools/bin/../lib/gcc/arm-none-eabi/10.3.1/../../../../arm-none-eabi/lib/thumb/v7e-m+dp/hard\libcr_nohost_nf.a(_cr__main.o)
                              ./startup/startup_mimxrt106s.o (__main)
c:/nxp/mcuxpressoide_11.6.1_8255/ide/plugins/com.nxp.mcuxpresso.tools.win32_11.6.1.202207200623/tools/bin/../lib/gcc/arm-none-eabi/10.3.1/../../../../arm-none-eabi/lib/thumb/v7e-m+dp/hard\libcr_c.a(memcpy.o)
                              ./wiced/43xxx_Wi-Fi/app/dhcp_server.o (memcpy)
c:/nxp/mcuxpressoide_11.6.1_8255/ide/plugins/com.nxp.mcuxpresso.tools.win32_11.6.1.202207200623/tools/bin/../lib/gcc/arm-none-eabi/10.3.1/../../../../arm-none-eabi/lib/thumb/v7e-m+dp/hard\libcr_c.a(memmove.o)
                              ./wiced/43xxx_Wi-Fi/WICED/WWD/internal/wwd_sdpcm.o (memmove)
c:/nxp/mcuxpressoide_11.6.1_8255/ide/plugins/com.nxp.mcuxpresso.tools.win32_11.6.1.202207200623/tools/bin/../lib/gcc/arm-none-eabi/10.3.1/../../../../arm-none-eabi/lib/thumb/v7e-m+dp/hard\libcr_c.a(memset.o)
                              ./wiced/43xxx_Wi-Fi/app/dhcp_server.o (memset)
c:/nxp/mcuxpressoide_11.6.1_8255/ide/plugins/com.nxp.mcuxpresso.tools.win32_11.6.1.202207200623/tools/bin/../lib/gcc/arm-none-eabi/10.3.1/../../../../arm-none-eabi/lib/thumb/v7e-m+dp/hard\libcr_c.a(alloc.o)
                              ./drivers/fsl_common.o (malloc)
c:/nxp/mcuxpressoide_11.6.1_8255/ide/plugins/com.nxp.mcuxpresso.tools.win32_11.6.1.202207200623/tools/bin/../lib/gcc/arm-none-eabi/10.3.1/../../../../arm-none-eabi/lib/thumb/v7e-m+dp/hard\libcr_c.a(ctype.o)
                              ./lwip/src/core/dns.o (tolower)
c:/nxp/mcuxpressoide_11.6.1_8255/ide/plugins/com.nxp.mcuxpresso.tools.win32_11.6.1.202207200623/tools/bin/../lib/gcc/arm-none-eabi/10.3.1/../../../../arm-none-eabi/lib/thumb/v7e-m+dp/hard\libcr_c.a(initio.o)
                              c:/nxp/mcuxpressoide_11.6.1_8255/ide/plugins/com.nxp.mcuxpresso.tools.win32_11.6.1.202207200623/tools/bin/../lib/gcc/arm-none-eabi/10.3.1/../../../../arm-none-eabi/lib/thumb/v7e-m+dp/hard\libcr_nohost_nf.a(_cr__main.o) (_initio)
c:/nxp/mcuxpressoide_11.6.1_8255/ide/plugins/com.nxp.mcuxpresso.tools.win32_11.6.1.202207200623/tools/bin/../lib/gcc/arm-none-eabi/10.3.1/../../../../arm-none-eabi/lib/thumb/v7e-m+dp/hard\libcr_c.a(memcmp.o)
                              ./wiced/43xxx_Wi-Fi/WICED/WWD/internal/wwd_sdpcm.o (memcmp)
c:/nxp/mcuxpressoide_11.6.1_8255/ide/plugins/com.nxp.mcuxpresso.tools.win32_11.6.1.202207200623/tools/bin/../lib/gcc/arm-none-eabi/10.3.1/../../../../arm-none-eabi/lib/thumb/v7e-m+dp/hard\libcr_c.a(printf.o)
                              ./cjson/src/cJSON.o (_sprintf)
c:/nxp/mcuxpressoide_11.6.1_8255/ide/plugins/com.nxp.mcuxpresso.tools.win32_11.6.1.202207200623/tools/bin/../lib/gcc/arm-none-eabi/10.3.1/../../../../arm-none-eabi/lib/thumb/v7e-m+dp/hard\libcr_c.a(scanf.o)
                              ./cjson/src/cJSON.o (strtod)
c:/nxp/mcuxpressoide_11.6.1_8255/ide/plugins/com.nxp.mcuxpresso.tools.win32_11.6.1.202207200623/tools/bin/../lib/gcc/arm-none-eabi/10.3.1/../../../../arm-none-eabi/lib/thumb/v7e-m+dp/hard\libcr_c.a(setvbuf.o)
                              c:/nxp/mcuxpressoide_11.6.1_8255/ide/plugins/com.nxp.mcuxpresso.tools.win32_11.6.1.202207200623/tools/bin/../lib/gcc/arm-none-eabi/10.3.1/../../../../arm-none-eabi/lib/thumb/v7e-m+dp/hard\libcr_c.a(initio.o) (setvbuf)
c:/nxp/mcuxpressoide_11.6.1_8255/ide/plugins/com.nxp.mcuxpresso.tools.win32_11.6.1.202207200623/tools/bin/../lib/gcc/arm-none-eabi/10.3.1/../../../../arm-none-eabi/lib/thumb/v7e-m+dp/hard\libcr_c.a(stdlib.o)
                              ./mbedtls/library/rsa.o (rand)
c:/nxp/mcuxpressoide_11.6.1_8255/ide/plugins/com.nxp.mcuxpresso.tools.win32_11.6.1.202207200623/tools/bin/../lib/gcc/arm-none-eabi/10.3.1/../../../../arm-none-eabi/lib/thumb/v7e-m+dp/hard\libcr_c.a(strcat.o)
                              ./cjson/src/cJSON_Utils.o (strcat)
c:/nxp/mcuxpressoide_11.6.1_8255/ide/plugins/com.nxp.mcuxpresso.tools.win32_11.6.1.202207200623/tools/bin/../lib/gcc/arm-none-eabi/10.3.1/../../../../arm-none-eabi/lib/thumb/v7e-m+dp/hard\libcr_c.a(strchr.o)
                              ./wiced/43xxx_Wi-Fi/WICED/WWD/internal/wwd_wifi.o (strchr)
c:/nxp/mcuxpressoide_11.6.1_8255/ide/plugins/com.nxp.mcuxpresso.tools.win32_11.6.1.202207200623/tools/bin/../lib/gcc/arm-none-eabi/10.3.1/../../../../arm-none-eabi/lib/thumb/v7e-m+dp/hard\libcr_c.a(strcmp.o)
                              ./source/iot_logging_task_dynamic_buffers.o (strcmp)
c:/nxp/mcuxpressoide_11.6.1_8255/ide/plugins/com.nxp.mcuxpresso.tools.win32_11.6.1.202207200623/tools/bin/../lib/gcc/arm-none-eabi/10.3.1/../../../../arm-none-eabi/lib/thumb/v7e-m+dp/hard\libcr_c.a(strcpy.o)
                              ./wiced/43xxx_Wi-Fi/app/test_apsta.o (strcpy)
c:/nxp/mcuxpressoide_11.6.1_8255/ide/plugins/com.nxp.mcuxpresso.tools.win32_11.6.1.202207200623/tools/bin/../lib/gcc/arm-none-eabi/10.3.1/../../../../arm-none-eabi/lib/thumb/v7e-m+dp/hard\libcr_c.a(strlen.o)
                              ./wiced/43xxx_Wi-Fi/app/test_apsta.o (strlen)
c:/nxp/mcuxpressoide_11.6.1_8255/ide/plugins/com.nxp.mcuxpresso.tools.win32_11.6.1.202207200623/tools/bin/../lib/gcc/arm-none-eabi/10.3.1/../../../../arm-none-eabi/lib/thumb/v7e-m+dp/hard\libcr_c.a(strncmp.o)
                              ./wiced/43xxx_Wi-Fi/WICED/WWD/internal/wwd_wifi.o (strncmp)
c:/nxp/mcuxpressoide_11.6.1_8255/ide/plugins/com.nxp.mcuxpresso.tools.win32_11.6.1.202207200623/tools/bin/../lib/gcc/arm-none-eabi/10.3.1/../../../../arm-none-eabi/lib/thumb/v7e-m+dp/hard\libcr_c.a(strncpy.o)
                              ./source/iot_logging_task_dynamic_buffers.o (strncpy)
c:/nxp/mcuxpressoide_11.6.1_8255/ide/plugins/com.nxp.mcuxpresso.tools.win32_11.6.1.202207200623/tools/bin/../lib/gcc/arm-none-eabi/10.3.1/../../../../arm-none-eabi/lib/thumb/v7e-m+dp/hard\libcr_c.a(strrchr.o)
                              ./cjson/src/cJSON_Utils.o (strrchr)
c:/nxp/mcuxpressoide_11.6.1_8255/ide/plugins/com.nxp.mcuxpresso.tools.win32_11.6.1.202207200623/tools/bin/../lib/gcc/arm-none-eabi/10.3.1/../../../../arm-none-eabi/lib/thumb/v7e-m+dp/hard\libcr_c.a(strstr.o)
                              ./mbedtls/library/pem.o (strstr)
c:/nxp/mcuxpressoide_11.6.1_8255/ide/plugins/com.nxp.mcuxpresso.tools.win32_11.6.1.202207200623/tools/bin/../lib/gcc/arm-none-eabi/10.3.1/../../../../arm-none-eabi/lib/thumb/v7e-m+dp/hard\libcr_c.a(ungetc.o)
                              c:/nxp/mcuxpressoide_11.6.1_8255/ide/plugins/com.nxp.mcuxpresso.tools.win32_11.6.1.202207200623/tools/bin/../lib/gcc/arm-none-eabi/10.3.1/../../../../arm-none-eabi/lib/thumb/v7e-m+dp/hard\libcr_c.a(scanf.o) (ungetc)
c:/nxp/mcuxpressoide_11.6.1_8255/ide/plugins/com.nxp.mcuxpresso.tools.win32_11.6.1.202207200623/tools/bin/../lib/gcc/arm-none-eabi/10.3.1/../../../../arm-none-eabi/lib/thumb/v7e-m+dp/hard\libcr_c.a(__fillbuf.o)
                              c:/nxp/mcuxpressoide_11.6.1_8255/ide/plugins/com.nxp.mcuxpresso.tools.win32_11.6.1.202207200623/tools/bin/../lib/gcc/arm-none-eabi/10.3.1/../../../../arm-none-eabi/lib/thumb/v7e-m+dp/hard\libcr_c.a(scanf.o) (__filbuf)
c:/nxp/mcuxpressoide_11.6.1_8255/ide/plugins/com.nxp.mcuxpresso.tools.win32_11.6.1.202207200623/tools/bin/../lib/gcc/arm-none-eabi/10.3.1/../../../../arm-none-eabi/lib/thumb/v7e-m+dp/hard\libcr_c.a(__init_alloc.o)
                              c:/nxp/mcuxpressoide_11.6.1_8255/ide/plugins/com.nxp.mcuxpresso.tools.win32_11.6.1.202207200623/tools/bin/../lib/gcc/arm-none-eabi/10.3.1/../../../../arm-none-eabi/lib/thumb/v7e-m+dp/hard\libcr_c.a(alloc.o) (__heaps)
c:/nxp/mcuxpressoide_11.6.1_8255/ide/plugins/com.nxp.mcuxpresso.tools.win32_11.6.1.202207200623/tools/bin/../lib/gcc/arm-none-eabi/10.3.1/../../../../arm-none-eabi/lib/thumb/v7e-m+dp/hard\libcr_c.a(_cr_sbrk.o)
                              c:/nxp/mcuxpressoide_11.6.1_8255/ide/plugins/com.nxp.mcuxpresso.tools.win32_11.6.1.202207200623/tools/bin/../lib/gcc/arm-none-eabi/10.3.1/../../../../arm-none-eabi/lib/thumb/v7e-m+dp/hard\libcr_c.a(alloc.o) (_sbrk)
c:/nxp/mcuxpressoide_11.6.1_8255/ide/plugins/com.nxp.mcuxpresso.tools.win32_11.6.1.202207200623/tools/bin/../lib/gcc/arm-none-eabi/10.3.1/../../../../arm-none-eabi/lib/thumb/v7e-m+dp/hard\libcr_c.a(_deferredlazyseek.o)
                              c:/nxp/mcuxpressoide_11.6.1_8255/ide/plugins/com.nxp.mcuxpresso.tools.win32_11.6.1.202207200623/tools/bin/../lib/gcc/arm-none-eabi/10.3.1/../../../../arm-none-eabi/lib/thumb/v7e-m+dp/hard\libcr_c.a(__fillbuf.o) (_deferredlazyseek)
c:/nxp/mcuxpressoide_11.6.1_8255/ide/plugins/com.nxp.mcuxpresso.tools.win32_11.6.1.202207200623/tools/bin/../lib/gcc/arm-none-eabi/10.3.1/../../../../arm-none-eabi/lib/thumb/v7e-m+dp/hard\libcr_c.a(_fdopen.o)
                              c:/nxp/mcuxpressoide_11.6.1_8255/ide/plugins/com.nxp.mcuxpresso.tools.win32_11.6.1.202207200623/tools/bin/../lib/gcc/arm-none-eabi/10.3.1/../../../../arm-none-eabi/lib/thumb/v7e-m+dp/hard\libcr_c.a(initio.o) (_fdopen)
c:/nxp/mcuxpressoide_11.6.1_8255/ide/plugins/com.nxp.mcuxpresso.tools.win32_11.6.1.202207200623/tools/bin/../lib/gcc/arm-none-eabi/10.3.1/../../../../arm-none-eabi/lib/thumb/v7e-m+dp/hard\libcr_c.a(_fflush.o)
                              c:/nxp/mcuxpressoide_11.6.1_8255/ide/plugins/com.nxp.mcuxpresso.tools.win32_11.6.1.202207200623/tools/bin/../lib/gcc/arm-none-eabi/10.3.1/../../../../arm-none-eabi/lib/thumb/v7e-m+dp/hard\libcr_c.a(__fillbuf.o) (_fflush)
c:/nxp/mcuxpressoide_11.6.1_8255/ide/plugins/com.nxp.mcuxpresso.tools.win32_11.6.1.202207200623/tools/bin/../lib/gcc/arm-none-eabi/10.3.1/../../../../arm-none-eabi/lib/thumb/v7e-m+dp/hard\libcr_c.a(_frexpl.o)
                              c:/nxp/mcuxpressoide_11.6.1_8255/ide/plugins/com.nxp.mcuxpresso.tools.win32_11.6.1.202207200623/tools/bin/../lib/gcc/arm-none-eabi/10.3.1/../../../../arm-none-eabi/lib/thumb/v7e-m+dp/hard\libcr_c.a(scanf.o) (_frexpl)
c:/nxp/mcuxpressoide_11.6.1_8255/ide/plugins/com.nxp.mcuxpresso.tools.win32_11.6.1.202207200623/tools/bin/../lib/gcc/arm-none-eabi/10.3.1/../../../../arm-none-eabi/lib/thumb/v7e-m+dp/hard\libcr_c.a(_ldexpl.o)
                              c:/nxp/mcuxpressoide_11.6.1_8255/ide/plugins/com.nxp.mcuxpresso.tools.win32_11.6.1.202207200623/tools/bin/../lib/gcc/arm-none-eabi/10.3.1/../../../../arm-none-eabi/lib/thumb/v7e-m+dp/hard\libcr_c.a(scanf.o) (_ldexpl)
c:/nxp/mcuxpressoide_11.6.1_8255/ide/plugins/com.nxp.mcuxpresso.tools.win32_11.6.1.202207200623/tools/bin/../lib/gcc/arm-none-eabi/10.3.1/../../../../arm-none-eabi/lib/thumb/v7e-m+dp/hard\libcr_c.a(_writebuf.o)
                              c:/nxp/mcuxpressoide_11.6.1_8255/ide/plugins/com.nxp.mcuxpresso.tools.win32_11.6.1.202207200623/tools/bin/../lib/gcc/arm-none-eabi/10.3.1/../../../../arm-none-eabi/lib/thumb/v7e-m+dp/hard\libcr_c.a(_deferredlazyseek.o) (_Cwritebuf)
c:/nxp/mcuxpressoide_11.6.1_8255/ide/plugins/com.nxp.mcuxpresso.tools.win32_11.6.1.202207200623/tools/bin/../lib/gcc/arm-none-eabi/10.3.1/../../../../arm-none-eabi/lib/thumb/v7e-m+dp/hard\libcr_c.a(fclose.o)
                              c:/nxp/mcuxpressoide_11.6.1_8255/ide/plugins/com.nxp.mcuxpresso.tools.win32_11.6.1.202207200623/tools/bin/../lib/gcc/arm-none-eabi/10.3.1/../../../../arm-none-eabi/lib/thumb/v7e-m+dp/hard\libcr_c.a(initio.o) (fclose)
c:/nxp/mcuxpressoide_11.6.1_8255/ide/plugins/com.nxp.mcuxpresso.tools.win32_11.6.1.202207200623/tools/bin/../lib/gcc/arm-none-eabi/10.3.1/../../../../arm-none-eabi/lib/thumb/v7e-m+dp/hard\libcr_c.a(fflush.o)
                              c:/nxp/mcuxpressoide_11.6.1_8255/ide/plugins/com.nxp.mcuxpresso.tools.win32_11.6.1.202207200623/tools/bin/../lib/gcc/arm-none-eabi/10.3.1/../../../../arm-none-eabi/lib/thumb/v7e-m+dp/hard\libcr_c.a(fclose.o) (fflush)
c:/nxp/mcuxpressoide_11.6.1_8255/ide/plugins/com.nxp.mcuxpresso.tools.win32_11.6.1.202207200623/tools/bin/../lib/gcc/arm-none-eabi/10.3.1/../../../../arm-none-eabi/lib/thumb/v7e-m+dp/hard\libcr_c.a(fseek.o)
                              c:/nxp/mcuxpressoide_11.6.1_8255/ide/plugins/com.nxp.mcuxpresso.tools.win32_11.6.1.202207200623/tools/bin/../lib/gcc/arm-none-eabi/10.3.1/../../../../arm-none-eabi/lib/thumb/v7e-m+dp/hard\libcr_c.a(_deferredlazyseek.o) (fseek)
c:/nxp/mcuxpressoide_11.6.1_8255/ide/plugins/com.nxp.mcuxpresso.tools.win32_11.6.1.202207200623/tools/bin/../lib/gcc/arm-none-eabi/10.3.1/../../../../arm-none-eabi/lib/thumb/v7e-m+dp/hard\libcr_c.a(ftell.o)
                              c:/nxp/mcuxpressoide_11.6.1_8255/ide/plugins/com.nxp.mcuxpresso.tools.win32_11.6.1.202207200623/tools/bin/../lib/gcc/arm-none-eabi/10.3.1/../../../../arm-none-eabi/lib/thumb/v7e-m+dp/hard\libcr_c.a(fseek.o) (ftell)
c:/nxp/mcuxpressoide_11.6.1_8255/ide/plugins/com.nxp.mcuxpresso.tools.win32_11.6.1.202207200623/tools/bin/../lib/gcc/arm-none-eabi/10.3.1/../../../../arm-none-eabi/lib/thumb/v7e-m+dp/hard\libcr_c.a(raise.o)
                              c:/nxp/mcuxpressoide_11.6.1_8255/ide/plugins/com.nxp.mcuxpresso.tools.win32_11.6.1.202207200623/tools/bin/../lib/gcc/arm-none-eabi/10.3.1/../../../../arm-none-eabi/lib/thumb/v7e-m+dp/hard\libcr_c.a(stdlib.o) (raise)
c:/nxp/mcuxpressoide_11.6.1_8255/ide/plugins/com.nxp.mcuxpresso.tools.win32_11.6.1.202207200623/tools/bin/../lib/gcc/arm-none-eabi/10.3.1/../../../../arm-none-eabi/lib/thumb/v7e-m+dp/hard\libcr_c.a(remove.o)
                              c:/nxp/mcuxpressoide_11.6.1_8255/ide/plugins/com.nxp.mcuxpresso.tools.win32_11.6.1.202207200623/tools/bin/../lib/gcc/arm-none-eabi/10.3.1/../../../../arm-none-eabi/lib/thumb/v7e-m+dp/hard\libcr_c.a(fclose.o) (remove)
c:/nxp/mcuxpressoide_11.6.1_8255/ide/plugins/com.nxp.mcuxpresso.tools.win32_11.6.1.202207200623/tools/bin/../lib/gcc/arm-none-eabi/10.3.1/../../../../arm-none-eabi/lib/thumb/v7e-m+dp/hard\libcr_c.a(_cr_check_heap.o)
                              c:/nxp/mcuxpressoide_11.6.1_8255/ide/plugins/com.nxp.mcuxpresso.tools.win32_11.6.1.202207200623/tools/bin/../lib/gcc/arm-none-eabi/10.3.1/../../../../arm-none-eabi/lib/thumb/v7e-m+dp/hard\libcr_c.a(_cr_sbrk.o) (__check_heap_overflow)
c:/nxp/mcuxpressoide_11.6.1_8255/ide/plugins/com.nxp.mcuxpresso.tools.win32_11.6.1.202207200623/tools/bin/../lib/gcc/arm-none-eabi/10.3.1/../../../../arm-none-eabi/lib/thumb/v7e-m+dp/hard\libcr_c.a(_do_fflush.o)
                              c:/nxp/mcuxpressoide_11.6.1_8255/ide/plugins/com.nxp.mcuxpresso.tools.win32_11.6.1.202207200623/tools/bin/../lib/gcc/arm-none-eabi/10.3.1/../../../../arm-none-eabi/lib/thumb/v7e-m+dp/hard\libcr_c.a(fflush.o) (_do_fflush)
c:/nxp/mcuxpressoide_11.6.1_8255/ide/plugins/com.nxp.mcuxpresso.tools.win32_11.6.1.202207200623/tools/bin/../lib/gcc/arm-none-eabi/10.3.1/thumb/v7e-m+dp/hard\libcr_eabihelpers.a(division_64.o)
                              ./source/sln_RT10xx_RGB_LED_driver_pwm.o (__aeabi_uldivmod)
c:/nxp/mcuxpressoide_11.6.1_8255/ide/plugins/com.nxp.mcuxpresso.tools.win32_11.6.1.202207200623/tools/bin/../lib/gcc/arm-none-eabi/10.3.1/thumb/v7e-m+dp/hard\libcr_eabihelpers.a(division_idiv0.o)
                              c:/nxp/mcuxpressoide_11.6.1_8255/ide/plugins/com.nxp.mcuxpresso.tools.win32_11.6.1.202207200623/tools/bin/../lib/gcc/arm-none-eabi/10.3.1/thumb/v7e-m+dp/hard\libcr_eabihelpers.a(division_64.o) (__aeabi_idiv0)
c:/nxp/mcuxpressoide_11.6.1_8255/ide/plugins/com.nxp.mcuxpresso.tools.win32_11.6.1.202207200623/tools/bin/../lib/gcc/arm-none-eabi/10.3.1/thumb/v7e-m+dp/hard\libcr_eabihelpers.a(memcpy.o)
                              c:/nxp/mcuxpressoide_11.6.1_8255/ide/plugins/com.nxp.mcuxpresso.tools.win32_11.6.1.202207200623/tools/bin/../lib/gcc/arm-none-eabi/10.3.1/../../../../arm-none-eabi/lib/thumb/v7e-m+dp/hard\libcr_c.a(memcpy.o) (__aeabi_memcpy)
c:/nxp/mcuxpressoide_11.6.1_8255/ide/plugins/com.nxp.mcuxpresso.tools.win32_11.6.1.202207200623/tools/bin/../lib/gcc/arm-none-eabi/10.3.1/../../../../arm-none-eabi/lib/thumb/v7e-m+dp/hard\libcr_nohost_nf.a(__ciob.o)
                              c:/nxp/mcuxpressoide_11.6.1_8255/ide/plugins/com.nxp.mcuxpresso.tools.win32_11.6.1.202207200623/tools/bin/../lib/gcc/arm-none-eabi/10.3.1/../../../../arm-none-eabi/lib/thumb/v7e-m+dp/hard\libcr_c.a(initio.o) (__Ciob)
c:/nxp/mcuxpressoide_11.6.1_8255/ide/plugins/com.nxp.mcuxpresso.tools.win32_11.6.1.202207200623/tools/bin/../lib/gcc/arm-none-eabi/10.3.1/../../../../arm-none-eabi/lib/thumb/v7e-m+dp/hard\libcr_nohost_nf.a(__sys_appexit.o)
                              c:/nxp/mcuxpressoide_11.6.1_8255/ide/plugins/com.nxp.mcuxpresso.tools.win32_11.6.1.202207200623/tools/bin/../lib/gcc/arm-none-eabi/10.3.1/../../../../arm-none-eabi/lib/thumb/v7e-m+dp/hard\libcr_c.a(alloc.o) (__sys_appexit)
c:/nxp/mcuxpressoide_11.6.1_8255/ide/plugins/com.nxp.mcuxpresso.tools.win32_11.6.1.202207200623/tools/bin/../lib/gcc/arm-none-eabi/10.3.1/../../../../arm-none-eabi/lib/thumb/v7e-m+dp/hard\libcr_nohost_nf.a(__sys_close.o)
                              c:/nxp/mcuxpressoide_11.6.1_8255/ide/plugins/com.nxp.mcuxpresso.tools.win32_11.6.1.202207200623/tools/bin/../lib/gcc/arm-none-eabi/10.3.1/../../../../arm-none-eabi/lib/thumb/v7e-m+dp/hard\libcr_c.a(fclose.o) (__sys_close)
c:/nxp/mcuxpressoide_11.6.1_8255/ide/plugins/com.nxp.mcuxpresso.tools.win32_11.6.1.202207200623/tools/bin/../lib/gcc/arm-none-eabi/10.3.1/../../../../arm-none-eabi/lib/thumb/v7e-m+dp/hard\libcr_nohost_nf.a(__sys_flen.o)
                              c:/nxp/mcuxpressoide_11.6.1_8255/ide/plugins/com.nxp.mcuxpresso.tools.win32_11.6.1.202207200623/tools/bin/../lib/gcc/arm-none-eabi/10.3.1/../../../../arm-none-eabi/lib/thumb/v7e-m+dp/hard\libcr_c.a(_writebuf.o) (__sys_flen)
c:/nxp/mcuxpressoide_11.6.1_8255/ide/plugins/com.nxp.mcuxpresso.tools.win32_11.6.1.202207200623/tools/bin/../lib/gcc/arm-none-eabi/10.3.1/../../../../arm-none-eabi/lib/thumb/v7e-m+dp/hard\libcr_nohost_nf.a(__sys_istty.o)
                              c:/nxp/mcuxpressoide_11.6.1_8255/ide/plugins/com.nxp.mcuxpresso.tools.win32_11.6.1.202207200623/tools/bin/../lib/gcc/arm-none-eabi/10.3.1/../../../../arm-none-eabi/lib/thumb/v7e-m+dp/hard\libcr_c.a(_deferredlazyseek.o) (__sys_istty)
c:/nxp/mcuxpressoide_11.6.1_8255/ide/plugins/com.nxp.mcuxpresso.tools.win32_11.6.1.202207200623/tools/bin/../lib/gcc/arm-none-eabi/10.3.1/../../../../arm-none-eabi/lib/thumb/v7e-m+dp/hard\libcr_nohost_nf.a(__sys_read.o)
                              c:/nxp/mcuxpressoide_11.6.1_8255/ide/plugins/com.nxp.mcuxpresso.tools.win32_11.6.1.202207200623/tools/bin/../lib/gcc/arm-none-eabi/10.3.1/../../../../arm-none-eabi/lib/thumb/v7e-m+dp/hard\libcr_c.a(__fillbuf.o) (__sys_read)
c:/nxp/mcuxpressoide_11.6.1_8255/ide/plugins/com.nxp.mcuxpresso.tools.win32_11.6.1.202207200623/tools/bin/../lib/gcc/arm-none-eabi/10.3.1/../../../../arm-none-eabi/lib/thumb/v7e-m+dp/hard\libcr_nohost_nf.a(__sys_remove.o)
                              c:/nxp/mcuxpressoide_11.6.1_8255/ide/plugins/com.nxp.mcuxpresso.tools.win32_11.6.1.202207200623/tools/bin/../lib/gcc/arm-none-eabi/10.3.1/../../../../arm-none-eabi/lib/thumb/v7e-m+dp/hard\libcr_c.a(remove.o) (__sys_remove)
c:/nxp/mcuxpressoide_11.6.1_8255/ide/plugins/com.nxp.mcuxpresso.tools.win32_11.6.1.202207200623/tools/bin/../lib/gcc/arm-none-eabi/10.3.1/../../../../arm-none-eabi/lib/thumb/v7e-m+dp/hard\libcr_nohost_nf.a(__sys_rename.o)
                              c:/nxp/mcuxpressoide_11.6.1_8255/ide/plugins/com.nxp.mcuxpresso.tools.win32_11.6.1.202207200623/tools/bin/../lib/gcc/arm-none-eabi/10.3.1/../../../../arm-none-eabi/lib/thumb/v7e-m+dp/hard\libcr_c.a(remove.o) (__sys_rename)
c:/nxp/mcuxpressoide_11.6.1_8255/ide/plugins/com.nxp.mcuxpresso.tools.win32_11.6.1.202207200623/tools/bin/../lib/gcc/arm-none-eabi/10.3.1/../../../../arm-none-eabi/lib/thumb/v7e-m+dp/hard\libcr_nohost_nf.a(__sys_seek.o)
                              c:/nxp/mcuxpressoide_11.6.1_8255/ide/plugins/com.nxp.mcuxpresso.tools.win32_11.6.1.202207200623/tools/bin/../lib/gcc/arm-none-eabi/10.3.1/../../../../arm-none-eabi/lib/thumb/v7e-m+dp/hard\libcr_c.a(__fillbuf.o) (__sys_seek)
c:/nxp/mcuxpressoide_11.6.1_8255/ide/plugins/com.nxp.mcuxpresso.tools.win32_11.6.1.202207200623/tools/bin/../lib/gcc/arm-none-eabi/10.3.1/../../../../arm-none-eabi/lib/thumb/v7e-m+dp/hard\libcr_nohost_nf.a(__sys_tmpnam.o)
                              c:/nxp/mcuxpressoide_11.6.1_8255/ide/plugins/com.nxp.mcuxpresso.tools.win32_11.6.1.202207200623/tools/bin/../lib/gcc/arm-none-eabi/10.3.1/../../../../arm-none-eabi/lib/thumb/v7e-m+dp/hard\libcr_c.a(fclose.o) (__sys_tmpnam)

Discarded input sections

 .text          0x00000000        0x0 ./xip/fsl_flexspi_nor_boot.o
 .data          0x00000000        0x0 ./xip/fsl_flexspi_nor_boot.o
 .bss           0x00000000        0x0 ./xip/fsl_flexspi_nor_boot.o
 .boot_hdr.boot_data
                0x00000000       0x10 ./xip/fsl_flexspi_nor_boot.o
 .boot_hdr.ivt  0x00000000       0x20 ./xip/fsl_flexspi_nor_boot.o
 .debug_info    0x00000000      0x436 ./xip/fsl_flexspi_nor_boot.o
 .debug_abbrev  0x00000000       0xd0 ./xip/fsl_flexspi_nor_boot.o
 .debug_aranges
                0x00000000       0x18 ./xip/fsl_flexspi_nor_boot.o
 .debug_line    0x00000000      0x15d ./xip/fsl_flexspi_nor_boot.o
 .debug_str     0x00000000      0xad1 ./xip/fsl_flexspi_nor_boot.o
 .comment       0x00000000       0x4a ./xip/fsl_flexspi_nor_boot.o
 .ARM.attributes
                0x00000000       0x32 ./xip/fsl_flexspi_nor_boot.o
 .text          0x00000000        0x0 ./xip/sln_local2_iot_flexspi_nor_config.o
 .data          0x00000000        0x0 ./xip/sln_local2_iot_flexspi_nor_config.o
 .bss           0x00000000        0x0 ./xip/sln_local2_iot_flexspi_nor_config.o
Memory Configuration

Name             Origin             Length             Attributes
BOARD_FLASH      0x60040000         0x001c0000         xr
SRAM_DTC         0x20000000         0x00060000         xrw
SRAM_ITC         0x00000000         0x00020000         xrw
SRAM_OC_NON_CACHEABLE 0x20200000         0x00080000         xrw
SRAM_OC_CACHEABLE 0x20280000         0x00000000         xrw
*default*        0x00000000         0xffffffff

Linker script and memory map

LOAD ./xip/fsl_flexspi_nor_boot.o
LOAD ./xip/sln_local2_iot_flexspi_nor_config.o
LOAD ./wiced/43xxx_Wi-Fi/app/dhcp_server.o
LOAD ./wiced/43xxx_Wi-Fi/app/test_apsta.o
LOAD ./wiced/43xxx_Wi-Fi/app/test_scan.o
LOAD ./wiced/43xxx_Wi-Fi/app/wlanif_add.o
LOAD ./wiced/43xxx_Wi-Fi/WICED/platform/MCU/LPC/WWD/wwd_SDIO.o
LOAD ./wiced/43xxx_Wi-Fi/WICED/platform/MCU/LPC/WWD/wwd_platform.o
LOAD ./wiced/43xxx_Wi-Fi/WICED/platform/MCU/wwd_platform_separate_mcu.o
LOAD ./wiced/43xxx_Wi-Fi/WICED/platform/MCU/wwd_resources.o
LOAD ./wiced/43xxx_Wi-Fi/WICED/network/LwIP/WWD/wwd_buffer.o
LOAD ./wiced/43xxx_Wi-Fi/WICED/network/LwIP/WWD/wwd_network.o
LOAD ./wiced/43xxx_Wi-Fi/WICED/internal/wifi.o
LOAD ./wiced/43xxx_Wi-Fi/WICED/WWD/internal/chips/4343W/resources.o
LOAD ./wiced/43xxx_Wi-Fi/WICED/WWD/internal/chips/4343W/wwd_ap.o
LOAD ./wiced/43xxx_Wi-Fi/WICED/WWD/internal/chips/4343W/wwd_chip_specific_functions.o
LOAD ./wiced/43xxx_Wi-Fi/WICED/WWD/internal/bus_protocols/SDIO/wwd_bus_protocol.o
LOAD ./wiced/43xxx_Wi-Fi/WICED/WWD/internal/bus_protocols/wwd_bus_common.o
LOAD ./wiced/43xxx_Wi-Fi/WICED/WWD/internal/tlv.o
LOAD ./wiced/43xxx_Wi-Fi/WICED/WWD/internal/wwd_ap_common.o
LOAD ./wiced/43xxx_Wi-Fi/WICED/WWD/internal/wwd_clm.o
LOAD ./wiced/43xxx_Wi-Fi/WICED/WWD/internal/wwd_debug.o
LOAD ./wiced/43xxx_Wi-Fi/WICED/WWD/internal/wwd_eapol.o
LOAD ./wiced/43xxx_Wi-Fi/WICED/WWD/internal/wwd_internal.o
LOAD ./wiced/43xxx_Wi-Fi/WICED/WWD/internal/wwd_management.o
LOAD ./wiced/43xxx_Wi-Fi/WICED/WWD/internal/wwd_rtos_interface.o
LOAD ./wiced/43xxx_Wi-Fi/WICED/WWD/internal/wwd_sdpcm.o
LOAD ./wiced/43xxx_Wi-Fi/WICED/WWD/internal/wwd_thread.o
LOAD ./wiced/43xxx_Wi-Fi/WICED/WWD/internal/wwd_thread_internal.o
LOAD ./wiced/43xxx_Wi-Fi/WICED/WWD/internal/wwd_wifi.o
LOAD ./wiced/43xxx_Wi-Fi/WICED/WWD/internal/wwd_wifi_chip_common.o
LOAD ./wiced/43xxx_Wi-Fi/WICED/WWD/internal/wwd_wifi_sleep.o
LOAD ./wiced/43xxx_Wi-Fi/WICED/RTOS/FreeRTOS/WWD/wwd_rtos.o
LOAD ./utilities/fsl_assert.o
LOAD ./utilities/fsl_debug_console.o
LOAD ./utilities/fsl_str.o
LOAD ./usb/phy/usb_phy.o
LOAD ./usb/device/source/ehci/usb_device_ehci.o
LOAD ./usb/device/source/usb_device_ch9.o
LOAD ./usb/device/source/usb_device_dci.o
LOAD ./usb/device/class/msc/usb_device_msc.o
LOAD ./usb/device/class/msc/usb_device_msc_ufi.o
LOAD ./usb/device/class/cdc/usb_device_cdc_acm.o
LOAD ./usb/device/class/usb_device_class.o
LOAD ./startup/startup_mimxrt106s.o
LOAD ./source/bootloader.o
LOAD ./source/device_utils.o
LOAD ./source/disk.o
LOAD ./source/flash_ica_driver.o
LOAD ./source/fsl_dcp_ext.o
LOAD ./source/iot_logging_task_dynamic_buffers.o
LOAD ./source/main.o
LOAD ./source/network_connection.o
LOAD ./source/nor_encrypt_bee.o
LOAD ./source/os_hooks.o
LOAD ./source/semihost_hardfault.o
LOAD ./source/sln_RT10xx_RGB_LED_driver.o
LOAD ./source/sln_RT10xx_RGB_LED_driver_pwm.o
LOAD ./source/sln_auth.o
LOAD ./source/sln_encrypt.o
LOAD ./source/sln_flash.o
LOAD ./source/sln_flash_config.o
LOAD ./source/sln_flash_mgmt.o
LOAD ./source/sln_fwupdate.o
LOAD ./source/sln_msc_vfs.o
LOAD ./source/usb_device_descriptor.o
LOAD ./source/wifi_credentials.o
LOAD ./sdmmc/src/fsl_sdio.o
LOAD ./sdmmc/src/fsl_sdmmc_common.o
LOAD ./sdmmc/osa/fsl_sdmmc_osa.o
LOAD ./sdmmc/host/fsl_sdmmc_host.o
LOAD ./mbedtls/port/ksdk/aes_alt.o
LOAD ./mbedtls/port/ksdk/des_alt.o
LOAD ./mbedtls/port/ksdk/ecp_alt.o
LOAD ./mbedtls/port/ksdk/ecp_alt_ksdk.o
LOAD ./mbedtls/port/ksdk/ecp_curves_alt.o
LOAD ./mbedtls/port/ksdk/ksdk_mbedtls.o
LOAD ./mbedtls/library/aes.o
LOAD ./mbedtls/library/aesni.o
LOAD ./mbedtls/library/arc4.o
LOAD ./mbedtls/library/aria.o
LOAD ./mbedtls/library/asn1parse.o
LOAD ./mbedtls/library/asn1write.o
LOAD ./mbedtls/library/base64.o
LOAD ./mbedtls/library/bignum.o
LOAD ./mbedtls/library/blowfish.o
LOAD ./mbedtls/library/camellia.o
LOAD ./mbedtls/library/ccm.o
LOAD ./mbedtls/library/certs.o
LOAD ./mbedtls/library/chacha20.o
LOAD ./mbedtls/library/chachapoly.o
LOAD ./mbedtls/library/cipher.o
LOAD ./mbedtls/library/cipher_wrap.o
LOAD ./mbedtls/library/cmac.o
LOAD ./mbedtls/library/ctr_drbg.o
LOAD ./mbedtls/library/debug.o
LOAD ./mbedtls/library/des.o
LOAD ./mbedtls/library/dhm.o
LOAD ./mbedtls/library/ecdh.o
LOAD ./mbedtls/library/ecdsa.o
LOAD ./mbedtls/library/ecjpake.o
LOAD ./mbedtls/library/ecp.o
LOAD ./mbedtls/library/ecp_curves.o
LOAD ./mbedtls/library/entropy.o
LOAD ./mbedtls/library/entropy_poll.o
LOAD ./mbedtls/library/error.o
LOAD ./mbedtls/library/gcm.o
LOAD ./mbedtls/library/havege.o
LOAD ./mbedtls/library/hkdf.o
LOAD ./mbedtls/library/hmac_drbg.o
LOAD ./mbedtls/library/md.o
LOAD ./mbedtls/library/md2.o
LOAD ./mbedtls/library/md4.o
LOAD ./mbedtls/library/md5.o
LOAD ./mbedtls/library/md_wrap.o
LOAD ./mbedtls/library/memory_buffer_alloc.o
LOAD ./mbedtls/library/net_sockets.o
LOAD ./mbedtls/library/nist_kw.o
LOAD ./mbedtls/library/oid.o
LOAD ./mbedtls/library/padlock.o
LOAD ./mbedtls/library/pem.o
LOAD ./mbedtls/library/pk.o
LOAD ./mbedtls/library/pk_wrap.o
LOAD ./mbedtls/library/pkcs11.o
LOAD ./mbedtls/library/pkcs12.o
LOAD ./mbedtls/library/pkcs5.o
LOAD ./mbedtls/library/pkparse.o
LOAD ./mbedtls/library/pkwrite.o
LOAD ./mbedtls/library/platform.o
LOAD ./mbedtls/library/platform_util.o
LOAD ./mbedtls/library/poly1305.o
LOAD ./mbedtls/library/ripemd160.o
LOAD ./mbedtls/library/rsa.o
LOAD ./mbedtls/library/rsa_internal.o
LOAD ./mbedtls/library/sha1.o
LOAD ./mbedtls/library/sha256.o
LOAD ./mbedtls/library/sha512.o
LOAD ./mbedtls/library/ssl_cache.o
LOAD ./mbedtls/library/ssl_ciphersuites.o
LOAD ./mbedtls/library/ssl_cli.o
LOAD ./mbedtls/library/ssl_cookie.o
LOAD ./mbedtls/library/ssl_srv.o
LOAD ./mbedtls/library/ssl_ticket.o
LOAD ./mbedtls/library/ssl_tls.o
LOAD ./mbedtls/library/threading.o
LOAD ./mbedtls/library/timing.o
LOAD ./mbedtls/library/version.o
LOAD ./mbedtls/library/version_features.o
LOAD ./mbedtls/library/x509.o
LOAD ./mbedtls/library/x509_create.o
LOAD ./mbedtls/library/x509_crl.o
LOAD ./mbedtls/library/x509_crt.o
LOAD ./mbedtls/library/x509_csr.o
LOAD ./mbedtls/library/x509write_crt.o
LOAD ./mbedtls/library/x509write_csr.o
LOAD ./mbedtls/library/xtea.o
LOAD ./lwip/src/netif/ppp/auth.o
LOAD ./lwip/src/netif/ppp/ccp.o
LOAD ./lwip/src/netif/ppp/chap-md5.o
LOAD ./lwip/src/netif/ppp/chap-new.o
LOAD ./lwip/src/netif/ppp/chap_ms.o
LOAD ./lwip/src/netif/ppp/demand.o
LOAD ./lwip/src/netif/ppp/eap.o
LOAD ./lwip/src/netif/ppp/eui64.o
LOAD ./lwip/src/netif/ppp/fsm.o
LOAD ./lwip/src/netif/ppp/ipcp.o
LOAD ./lwip/src/netif/ppp/ipv6cp.o
LOAD ./lwip/src/netif/ppp/lcp.o
LOAD ./lwip/src/netif/ppp/lwip_ecp.o
LOAD ./lwip/src/netif/ppp/magic.o
LOAD ./lwip/src/netif/ppp/mppe.o
LOAD ./lwip/src/netif/ppp/multilink.o
LOAD ./lwip/src/netif/ppp/ppp.o
LOAD ./lwip/src/netif/ppp/pppapi.o
LOAD ./lwip/src/netif/ppp/pppcrypt.o
LOAD ./lwip/src/netif/ppp/pppoe.o
LOAD ./lwip/src/netif/ppp/pppol2tp.o
LOAD ./lwip/src/netif/ppp/pppos.o
LOAD ./lwip/src/netif/ppp/upap.o
LOAD ./lwip/src/netif/ppp/utils.o
LOAD ./lwip/src/netif/ppp/vj.o
LOAD ./lwip/src/netif/bridgeif.o
LOAD ./lwip/src/netif/bridgeif_fdb.o
LOAD ./lwip/src/netif/ethernet.o
LOAD ./lwip/src/netif/lowpan6.o
LOAD ./lwip/src/netif/lowpan6_ble.o
LOAD ./lwip/src/netif/lowpan6_common.o
LOAD ./lwip/src/netif/slipif.o
LOAD ./lwip/src/netif/zepif.o
LOAD ./lwip/src/core/ipv6/dhcp6.o
LOAD ./lwip/src/core/ipv6/ethip6.o
LOAD ./lwip/src/core/ipv6/icmp6.o
LOAD ./lwip/src/core/ipv6/inet6.o
LOAD ./lwip/src/core/ipv6/ip6.o
LOAD ./lwip/src/core/ipv6/ip6_addr.o
LOAD ./lwip/src/core/ipv6/ip6_frag.o
LOAD ./lwip/src/core/ipv6/mld6.o
LOAD ./lwip/src/core/ipv6/nd6.o
LOAD ./lwip/src/core/ipv4/acd.o
LOAD ./lwip/src/core/ipv4/autoip.o
LOAD ./lwip/src/core/ipv4/dhcp.o
LOAD ./lwip/src/core/ipv4/etharp.o
LOAD ./lwip/src/core/ipv4/icmp.o
LOAD ./lwip/src/core/ipv4/igmp.o
LOAD ./lwip/src/core/ipv4/ip4.o
LOAD ./lwip/src/core/ipv4/ip4_addr.o
LOAD ./lwip/src/core/ipv4/ip4_frag.o
LOAD ./lwip/src/core/altcp.o
LOAD ./lwip/src/core/altcp_alloc.o
LOAD ./lwip/src/core/altcp_tcp.o
LOAD ./lwip/src/core/def.o
LOAD ./lwip/src/core/dns.o
LOAD ./lwip/src/core/inet_chksum.o
LOAD ./lwip/src/core/init.o
LOAD ./lwip/src/core/ip.o
LOAD ./lwip/src/core/mem.o
LOAD ./lwip/src/core/memp.o
LOAD ./lwip/src/core/netif.o
LOAD ./lwip/src/core/pbuf.o
LOAD ./lwip/src/core/raw.o
LOAD ./lwip/src/core/stats.o
LOAD ./lwip/src/core/sys.o
LOAD ./lwip/src/core/tcp.o
LOAD ./lwip/src/core/tcp_in.o
LOAD ./lwip/src/core/tcp_out.o
LOAD ./lwip/src/core/timeouts.o
LOAD ./lwip/src/core/udp.o
LOAD ./lwip/src/api/api_lib.o
LOAD ./lwip/src/api/api_msg.o
LOAD ./lwip/src/api/err.o
LOAD ./lwip/src/api/if_api.o
LOAD ./lwip/src/api/netbuf.o
LOAD ./lwip/src/api/netdb.o
LOAD ./lwip/src/api/netifapi.o
LOAD ./lwip/src/api/sockets.o
LOAD ./lwip/src/api/tcpip.o
LOAD ./lwip/port/sys_arch.o
LOAD ./freertos/freertos_kernel/portable/MemMang/heap_4.o
LOAD ./freertos/freertos_kernel/portable/GCC/ARM_CM4F/port.o
LOAD ./freertos/freertos_kernel/croutine.o
LOAD ./freertos/freertos_kernel/event_groups.o
LOAD ./freertos/freertos_kernel/list.o
LOAD ./freertos/freertos_kernel/queue.o
LOAD ./freertos/freertos_kernel/stream_buffer.o
LOAD ./freertos/freertos_kernel/tasks.o
LOAD ./freertos/freertos_kernel/timers.o
LOAD ./drivers/flexspi_hyper_flash_ops.o
LOAD ./drivers/fsl_clock.o
LOAD ./drivers/fsl_common.o
LOAD ./drivers/fsl_dcp.o
LOAD ./drivers/fsl_flexram.o
LOAD ./drivers/fsl_flexram_allocate.o
LOAD ./drivers/fsl_flexspi.o
LOAD ./drivers/fsl_gpio.o
LOAD ./drivers/fsl_gpt.o
LOAD ./drivers/fsl_lpi2c.o
LOAD ./drivers/fsl_lpuart.o
LOAD ./drivers/fsl_pit.o
LOAD ./drivers/fsl_pwm.o
LOAD ./drivers/fsl_trng.o
LOAD ./drivers/fsl_usdhc.o
LOAD ./drivers/fsl_xbara.o
LOAD ./device/system_MIMXRT106S.o
LOAD ./component/uart/lpuart_adapter.o
LOAD ./component/serial_manager/serial_manager.o
LOAD ./component/serial_manager/serial_port_uart.o
LOAD ./component/osa/fsl_os_abstraction_free_rtos.o
LOAD ./component/lists/generic_list.o
LOAD ./common/comms_handler/comms_message_handler.o
LOAD ./common/comms_handler/comms_message_handler_fwupdate_common.o
LOAD ./common/comms_handler/comms_message_handler_fwupdate_server.o
LOAD ./common/comms/common_connection_handler.o
LOAD ./common/comms/tcp_connection_handler.o
LOAD ./common/comms/uart_connection_handler.o
LOAD ./cjson/src/cJSON.o
LOAD ./cjson/src/cJSON_Utils.o
LOAD ./board/board.o
LOAD ./board/clock_config.o
LOAD ./board/dcd.o
LOAD ./board/pin_mux.o
LOAD ./board/sdmmc_config.o
START GROUP
LOAD c:/nxp/mcuxpressoide_11.6.1_8255/ide/plugins/com.nxp.mcuxpresso.tools.win32_11.6.1.202207200623/tools/bin/../lib/gcc/arm-none-eabi/10.3.1/../../../../arm-none-eabi/lib/thumb/v7e-m+dp/hard\libcr_nohost_nf.a
LOAD c:/nxp/mcuxpressoide_11.6.1_8255/ide/plugins/com.nxp.mcuxpresso.tools.win32_11.6.1.202207200623/tools/bin/../lib/gcc/arm-none-eabi/10.3.1/../../../../arm-none-eabi/lib/thumb/v7e-m+dp/hard\libcr_c.a
LOAD c:/nxp/mcuxpressoide_11.6.1_8255/ide/plugins/com.nxp.mcuxpresso.tools.win32_11.6.1.202207200623/tools/bin/../lib/gcc/arm-none-eabi/10.3.1/thumb/v7e-m+dp/hard\libcr_eabihelpers.a
LOAD c:/nxp/mcuxpressoide_11.6.1_8255/ide/plugins/com.nxp.mcuxpresso.tools.win32_11.6.1.202207200623/tools/bin/../lib/gcc/arm-none-eabi/10.3.1/thumb/v7e-m+dp/hard\libgcc.a
END GROUP
                0x60040000                __base_BOARD_FLASH = 0x60040000
                0x60040000                __base_Flash = 0x60040000
                0x60200000                __top_BOARD_FLASH = 0x60200000
                0x60200000                __top_Flash = 0x60200000
                0x20000000                __base_SRAM_DTC = 0x20000000
                0x20000000                __base_RAM = 0x20000000
                0x20060000                __top_SRAM_DTC = 0x20060000
                0x20060000                __top_RAM = 0x20060000
                0x00000000                __base_SRAM_ITC = 0x0
                0x00000000                __base_RAM2 = 0x0
                0x00020000                __top_SRAM_ITC = 0x20000
                0x00020000                __top_RAM2 = 0x20000
                0x20200000                __base_SRAM_OC_NON_CACHEABLE = 0x20200000
                0x20200000                __base_RAM3 = 0x20200000
                0x20280000                __top_SRAM_OC_NON_CACHEABLE = 0x20280000
                0x20280000                __top_RAM3 = 0x20280000
                0x20280000                __base_SRAM_OC_CACHEABLE = 0x20280000
                0x20280000                __base_RAM4 = 0x20280000
                0x20280000                __top_SRAM_OC_CACHEABLE = 0x20280000
                0x20280000                __top_RAM4 = 0x20280000

.text           0x60040000    0xa8c30
 FILL mask 0xff
                0x60040000                __vectors_start__ = ABSOLUTE (.)
 *(SORT_BY_ALIGNMENT(.isr_vector))
 .isr_vector    0x60040000      0x400 ./startup/startup_mimxrt106s.o
                0x60040000                g_pfnVectors
                0x60040000                __Vectors
                0x60040400                . = ALIGN (0x4)
                0x60040400                __section_table_start = .
                0x60040400                __data_section_table = .
                0x60040400        0x4 LONG 0x600eaf60 LOADADDR (.data)
                0x60040404        0x4 LONG 0x20000000 ADDR (.data)
                0x60040408        0x4 LONG 0x390 SIZEOF (.data)
                0x6004040c        0x4 LONG 0x600e8c30 LOADADDR (.data_RAM2)
                0x60040410        0x4 LONG 0x0 ADDR (.data_RAM2)
                0x60040414        0x4 LONG 0x15b8 SIZEOF (.data_RAM2)
                0x60040418        0x4 LONG 0x600ea1e8 LOADADDR (.data_RAM3)
                0x6004041c        0x4 LONG 0x20200000 ADDR (.data_RAM3)
                0x60040420        0x4 LONG 0xd78 SIZEOF (.data_RAM3)
                0x60040424        0x4 LONG 0x600eaf60 LOADADDR (.data_RAM4)
                0x60040428        0x4 LONG 0x20280000 ADDR (.data_RAM4)
                0x6004042c        0x4 LONG 0x0 SIZEOF (.data_RAM4)
                0x60040430                __data_section_table_end = .
                0x60040430                __bss_section_table = .
                0x60040430        0x4 LONG 0x20000800 ADDR (.bss)
                0x60040434        0x4 LONG 0x50bdc SIZEOF (.bss)
                0x60040438        0x4 LONG 0x15b8 ADDR (.bss_RAM2)
                0x6004043c        0x4 LONG 0x0 SIZEOF (.bss_RAM2)
                0x60040440        0x4 LONG 0x20200d78 ADDR (.bss_RAM3)
                0x60040444        0x4 LONG 0x40000 SIZEOF (.bss_RAM3)
                0x60040448        0x4 LONG 0x20280000 ADDR (.bss_RAM4)
                0x6004044c        0x4 LONG 0x0 SIZEOF (.bss_RAM4)
                0x60040450                __bss_section_table_end = .
                0x60040450                __section_table_end = .
 *(SORT_BY_ALIGNMENT(.after_vectors*))
 .after_vectors.reset
                0x60040450       0xcc ./startup/startup_mimxrt106s.o
                0x60040450                ResetISR
 .after_vectors.init_data
                0x6004051c       0x1e ./startup/startup_mimxrt106s.o
                0x6004051c                data_init
 .after_vectors.init_bss
                0x6004053a       0x12 ./startup/startup_mimxrt106s.o
                0x6004053a                bss_init
 .after_vectors
                0x6004054c       0x14 ./startup/startup_mimxrt106s.o
                0x6004054c                NMI_Handler
                0x60040550                MemManage_Handler
                0x60040554                UsageFault_Handler
                0x60040558                DebugMon_Handler
                0x6004055e                LPSPI2_DriverIRQHandler
                0x6004055e                FLEXSPI2_DriverIRQHandler
                0x6004055e                LCDIF_DriverIRQHandler
                0x6004055e                SAI3_RX_DriverIRQHandler
                0x6004055e                CCM_2_DriverIRQHandler
                0x6004055e                PIT_DriverIRQHandler
                0x6004055e                PMU_EVENT_DriverIRQHandler
                0x6004055e                PWM4_FAULT_DriverIRQHandler
                0x6004055e                DMA13_DMA29_DriverIRQHandler
                0x6004055e                FLEXRAM_DriverIRQHandler
                0x6004055e                LPSPI4_DriverIRQHandler
                0x6004055e                SEMC_DriverIRQHandler
                0x6004055e                SPDIF_DriverIRQHandler
                0x6004055e                PWM4_3_DriverIRQHandler
                0x6004055e                ENET2_DriverIRQHandler
                0x6004055e                Reserved87_DriverIRQHandler
                0x6004055e                USB_PHY1_DriverIRQHandler
                0x6004055e                GPIO3_Combined_0_15_DriverIRQHandler
                0x6004055e                CAN3_DriverIRQHandler
                0x6004055e                Reserved171_DriverIRQHandler
                0x6004055e                DMA7_DMA23_DriverIRQHandler
                0x6004055e                BEE_DriverIRQHandler
                0x6004055e                GPR_IRQ_DriverIRQHandler
                0x6004055e                PWM2_FAULT_DriverIRQHandler
                0x6004055e                PWM3_1_DriverIRQHandler
                0x6004055e                DMA14_DMA30_DriverIRQHandler
                0x6004055e                TMR1_DriverIRQHandler
                0x6004055e                TRNG_DriverIRQHandler
                0x6004055e                PWM3_2_DriverIRQHandler
                0x6004055e                ENET_1588_Timer_DriverIRQHandler
                0x6004055e                FLEXIO2_DriverIRQHandler
                0x6004055e                GPIO2_Combined_16_31_DriverIRQHandler
                0x6004055e                Reserved143_DriverIRQHandler
                0x6004055e                KPP_DriverIRQHandler
                0x6004055e                PWM4_1_DriverIRQHandler
                0x6004055e                PWM3_3_DriverIRQHandler
                0x6004055e                DMA0_DMA16_DriverIRQHandler
                0x6004055e                IntDefaultHandler
                0x6004055e                DMA2_DMA18_DriverIRQHandler
                0x6004055e                SRC_DriverIRQHandler
                0x6004055e                GPIO1_INT4_DriverIRQHandler
                0x6004055e                Reserved144_DriverIRQHandler
                0x6004055e                ENC3_DriverIRQHandler
                0x6004055e                PWM3_FAULT_DriverIRQHandler
                0x6004055e                EWM_DriverIRQHandler
                0x6004055e                TSC_DIG_DriverIRQHandler
                0x6004055e                WDOG1_DriverIRQHandler
                0x6004055e                FLEXIO1_DriverIRQHandler
                0x6004055e                ENET_DriverIRQHandler
                0x6004055e                Reserved78_DriverIRQHandler
                0x6004055e                TMR4_DriverIRQHandler
                0x6004055e                ENC2_DriverIRQHandler
                0x6004055e                ADC_ETC_IRQ2_DriverIRQHandler
                0x6004055e                GPIO1_Combined_16_31_DriverIRQHandler
                0x6004055e                GPIO1_INT7_DriverIRQHandler
                0x6004055e                SAI1_DriverIRQHandler
                0x6004055e                DCDC_DriverIRQHandler
                0x6004055e                DMA12_DMA28_DriverIRQHandler
                0x6004055e                PWM4_0_DriverIRQHandler
                0x6004055e                ADC_ETC_ERROR_IRQ_DriverIRQHandler
                0x6004055e                ACMP2_DriverIRQHandler
                0x6004055e                GPIO5_Combined_0_15_DriverIRQHandler
                0x6004055e                GPIO1_INT0_DriverIRQHandler
                0x6004055e                GPIO1_INT2_DriverIRQHandler
                0x6004055e                RTWDOG_DriverIRQHandler
                0x6004055e                GPT2_DriverIRQHandler
                0x6004055e                USB_PHY2_DriverIRQHandler
                0x6004055e                DMA10_DMA26_DriverIRQHandler
                0x6004055e                PWM2_1_DriverIRQHandler
                0x6004055e                PWM1_1_DriverIRQHandler
                0x6004055e                PXP_DriverIRQHandler
                0x6004055e                ADC1_DriverIRQHandler
                0x6004055e                PWM1_0_DriverIRQHandler
                0x6004055e                SJC_DriverIRQHandler
                0x6004055e                DMA1_DMA17_DriverIRQHandler
                0x6004055e                ENC1_DriverIRQHandler
                0x6004055e                ENC4_DriverIRQHandler
                0x6004055e                CAN2_DriverIRQHandler
                0x6004055e                DCP_DriverIRQHandler
                0x6004055e                CTI0_ERROR_DriverIRQHandler
                0x6004055e                DMA8_DMA24_DriverIRQHandler
                0x6004055e                GPT1_DriverIRQHandler
                0x6004055e                ACMP3_DriverIRQHandler
                0x6004055e                DMA6_DMA22_DriverIRQHandler
                0x6004055e                CSU_DriverIRQHandler
                0x6004055e                GPIO1_INT5_DriverIRQHandler
                0x6004055e                TMR3_DriverIRQHandler
                0x6004055e                TMR2_DriverIRQHandler
                0x6004055e                CTI1_ERROR_DriverIRQHandler
                0x6004055e                GPIO1_Combined_0_15_DriverIRQHandler
                0x6004055e                PWM4_2_DriverIRQHandler
                0x6004055e                ACMP4_DriverIRQHandler
                0x6004055e                SAI2_DriverIRQHandler
                0x6004055e                CORE_DriverIRQHandler
                0x6004055e                DMA11_DMA27_DriverIRQHandler
                0x6004055e                CSI_DriverIRQHandler
                0x6004055e                PWM2_3_DriverIRQHandler
                0x6004055e                XBAR1_IRQ_2_3_DriverIRQHandler
                0x6004055e                SNVS_HP_WRAPPER_TZ_DriverIRQHandler
                0x6004055e                GPIO3_Combined_16_31_DriverIRQHandler
                0x6004055e                PWM1_FAULT_DriverIRQHandler
                0x6004055e                ENET2_1588_Timer_DriverIRQHandler
                0x6004055e                PWM2_2_DriverIRQHandler
                0x6004055e                DMA4_DMA20_DriverIRQHandler
                0x6004055e                DMA9_DMA25_DriverIRQHandler
                0x6004055e                SNVS_HP_WRAPPER_DriverIRQHandler
                0x6004055e                XBAR1_IRQ_0_1_DriverIRQHandler
                0x6004055e                ADC_ETC_IRQ1_DriverIRQHandler
                0x6004055e                LPSPI1_DriverIRQHandler
                0x6004055e                DMA3_DMA19_DriverIRQHandler
                0x6004055e                GPIO1_INT3_DriverIRQHandler
                0x6004055e                DCP_VMI_DriverIRQHandler
                0x6004055e                GPC_DriverIRQHandler
                0x6004055e                GPIO2_Combined_0_15_DriverIRQHandler
                0x6004055e                PWM1_2_DriverIRQHandler
                0x6004055e                USB_OTG1_DriverIRQHandler
                0x6004055e                TEMP_LOW_HIGH_DriverIRQHandler
                0x6004055e                SAI3_TX_DriverIRQHandler
                0x6004055e                FLEXIO3_DriverIRQHandler
                0x6004055e                WDOG2_DriverIRQHandler
                0x6004055e                Reserved68_DriverIRQHandler
                0x6004055e                PWM3_0_DriverIRQHandler
                0x6004055e                GPIO4_Combined_0_15_DriverIRQHandler
                0x6004055e                GPIO4_Combined_16_31_DriverIRQHandler
                0x6004055e                GPIO6_7_8_9_DriverIRQHandler
                0x6004055e                GPIO5_Combined_16_31_DriverIRQHandler
                0x6004055e                DMA5_DMA21_DriverIRQHandler
                0x6004055e                CCM_1_DriverIRQHandler
                0x6004055e                ADC2_DriverIRQHandler
                0x6004055e                Reserved115_DriverIRQHandler
                0x6004055e                TEMP_PANIC_DriverIRQHandler
                0x6004055e                DMA15_DMA31_DriverIRQHandler
                0x6004055e                LPSPI3_DriverIRQHandler
                0x6004055e                PWM1_3_DriverIRQHandler
                0x6004055e                ACMP1_DriverIRQHandler
                0x6004055e                Reserved86_DriverIRQHandler
                0x6004055e                DMA_ERROR_DriverIRQHandler
                0x6004055e                ADC_ETC_IRQ0_DriverIRQHandler
                0x6004055e                CAN1_DriverIRQHandler
                0x6004055e                GPIO1_INT6_DriverIRQHandler
                0x6004055e                GPIO1_INT1_DriverIRQHandler
                0x6004055e                PWM2_0_DriverIRQHandler
                0x6004055e                SNVS_LP_WRAPPER_DriverIRQHandler
                0x6004055e                USB_OTG2_DriverIRQHandler
 *(SORT_BY_ALIGNMENT(EXCLUDE_FILE(*sln_flash.o *fsl_flexspi.o *flexspi_hyper_flash_ops.o) .text*))
 .text.SVC_Handler
                0x60040560       0x28 ./freertos/freertos_kernel/portable/GCC/ARM_CM4F/port.o
                0x60040560                SVC_Handler
 *fill*         0x60040588        0x8 ff
 .text.PendSV_Handler
                0x60040590       0x68 ./freertos/freertos_kernel/portable/GCC/ARM_CM4F/port.o
                0x60040590                PendSV_Handler
 .text.RGB_LED_Init
                0x600405f8      0x1e0 ./source/sln_RT10xx_RGB_LED_driver_pwm.o
                0x600405f8                RGB_LED_Init
 .text.parse_number
                0x600407d8      0x1d0 ./cjson/src/cJSON.o
 .text.cJSON_CreateNumber
                0x600409a8       0x8c ./cjson/src/cJSON.o
                0x600409a8                cJSON_CreateNumber
 *fill*         0x60040a34        0x4 ff
 .text.vfscanf  0x60040a38      0x88c c:/nxp/mcuxpressoide_11.6.1_8255/ide/plugins/com.nxp.mcuxpresso.tools.win32_11.6.1.202207200623/tools/bin/../lib/gcc/arm-none-eabi/10.3.1/../../../../arm-none-eabi/lib/thumb/v7e-m+dp/hard\libcr_c.a(scanf.o)
                0x60040a38                vfscanf
 *fill*         0x600412c4        0x4 ff
 .text.strtod   0x600412c8       0x3c c:/nxp/mcuxpressoide_11.6.1_8255/ide/plugins/com.nxp.mcuxpresso.tools.win32_11.6.1.202207200623/tools/bin/../lib/gcc/arm-none-eabi/10.3.1/../../../../arm-none-eabi/lib/thumb/v7e-m+dp/hard\libcr_c.a(scanf.o)
                0x600412c8                strtod
 *fill*         0x60041304        0x4 ff
 .text._frexpl  0x60041308       0x60 c:/nxp/mcuxpressoide_11.6.1_8255/ide/plugins/com.nxp.mcuxpresso.tools.win32_11.6.1.202207200623/tools/bin/../lib/gcc/arm-none-eabi/10.3.1/../../../../arm-none-eabi/lib/thumb/v7e-m+dp/hard\libcr_c.a(_frexpl.o)
                0x60041308                _frexpl
 .text._ldexpl  0x60041368       0x54 c:/nxp/mcuxpressoide_11.6.1_8255/ide/plugins/com.nxp.mcuxpresso.tools.win32_11.6.1.202207200623/tools/bin/../lib/gcc/arm-none-eabi/10.3.1/../../../../arm-none-eabi/lib/thumb/v7e-m+dp/hard\libcr_c.a(_ldexpl.o)
                0x60041368                _ldexpl
 .text.SDIOCARD_DetectCallBack
                0x600413bc       0x1c ./wiced/43xxx_Wi-Fi/WICED/platform/MCU/LPC/WWD/wwd_SDIO.o
 .text.host_platform_unmask_sdio_interrupt
                0x600413d8       0x2c ./wiced/43xxx_Wi-Fi/WICED/platform/MCU/LPC/WWD/wwd_SDIO.o
                0x600413d8                host_platform_unmask_sdio_interrupt
 .text.host_platform_bus_init
                0x60041404       0x90 ./wiced/43xxx_Wi-Fi/WICED/platform/MCU/LPC/WWD/wwd_SDIO.o
                0x60041404                host_platform_bus_init
 .text.host_platform_sdio_enumerate
                0x60041494      0x13c ./wiced/43xxx_Wi-Fi/WICED/platform/MCU/LPC/WWD/wwd_SDIO.o
                0x60041494                host_platform_sdio_enumerate
 .text.host_platform_sdio_transfer
                0x600415d0      0x124 ./wiced/43xxx_Wi-Fi/WICED/platform/MCU/LPC/WWD/wwd_SDIO.o
                0x600415d0                host_platform_sdio_transfer
 .text.host_platform_enable_high_speed_sdio
                0x600416f4       0xa0 ./wiced/43xxx_Wi-Fi/WICED/platform/MCU/LPC/WWD/wwd_SDIO.o
                0x600416f4                host_platform_enable_high_speed_sdio
 .text.host_platform_bus_enable_interrupt
                0x60041794       0x1c ./wiced/43xxx_Wi-Fi/WICED/platform/MCU/LPC/WWD/wwd_SDIO.o
                0x60041794                host_platform_bus_enable_interrupt
 .text.host_platform_sdio_irq_callback
                0x600417b0       0x38 ./wiced/43xxx_Wi-Fi/WICED/platform/MCU/LPC/WWD/wwd_SDIO.o
                0x600417b0                host_platform_sdio_irq_callback
 .text.host_platform_reset_wifi
                0x600417e8       0x44 ./wiced/43xxx_Wi-Fi/WICED/platform/MCU/LPC/WWD/wwd_platform.o
                0x600417e8                host_platform_reset_wifi
 .text.host_platform_resource_size
                0x6004182c       0x30 ./wiced/43xxx_Wi-Fi/WICED/platform/MCU/wwd_resources.o
                0x6004182c                host_platform_resource_size
 .text.host_platform_resource_read_indirect
                0x6004185c       0x64 ./wiced/43xxx_Wi-Fi/WICED/platform/MCU/wwd_resources.o
                0x6004185c                host_platform_resource_read_indirect
 .text.low_level_output
                0x600418c0       0xd4 ./wiced/43xxx_Wi-Fi/WICED/network/LwIP/WWD/wwd_network.o
 .text.host_network_process_ethernet_data
                0x60041994      0x138 ./wiced/43xxx_Wi-Fi/WICED/network/LwIP/WWD/wwd_network.o
                0x60041994                host_network_process_ethernet_data
 .text.wlanif_init
                0x60041acc       0x58 ./wiced/43xxx_Wi-Fi/WICED/network/LwIP/WWD/wwd_network.o
                0x60041acc                wlanif_init
 .text.wiced_wlan_connectivity_init
                0x60041b24       0xfc ./wiced/43xxx_Wi-Fi/WICED/internal/wifi.o
                0x60041b24                wiced_wlan_connectivity_init
 .text.wiced_link_events_handler
                0x60041c20      0x20c ./wiced/43xxx_Wi-Fi/WICED/internal/wifi.o
 .text.register_link_events
                0x60041e2c       0x3c ./wiced/43xxx_Wi-Fi/WICED/internal/wifi.o
                0x60041e2c                register_link_events
 .text.wwd_bus_is_up
                0x60041e68        0xc ./wiced/43xxx_Wi-Fi/WICED/WWD/internal/chips/4343W/wwd_chip_specific_functions.o
                0x60041e68                wwd_bus_is_up
 .text.wwd_chip_specific_socsram_init
                0x60041e74       0x54 ./wiced/43xxx_Wi-Fi/WICED/WWD/internal/chips/4343W/wwd_chip_specific_functions.o
                0x60041e74                wwd_chip_specific_socsram_init
 .text.wwd_ensure_wlan_bus_is_up
                0x60041ec8       0xc8 ./wiced/43xxx_Wi-Fi/WICED/WWD/internal/chips/4343W/wwd_chip_specific_functions.o
                0x60041ec8                wwd_ensure_wlan_bus_is_up
 .text.wwd_allow_wlan_bus_to_sleep
                0x60041f90       0x44 ./wiced/43xxx_Wi-Fi/WICED/WWD/internal/chips/4343W/wwd_chip_specific_functions.o
                0x60041f90                wwd_allow_wlan_bus_to_sleep
 .text.wwd_enable_save_restore
                0x60041fd4      0x140 ./wiced/43xxx_Wi-Fi/WICED/WWD/internal/chips/4343W/wwd_chip_specific_functions.o
 .text.wwd_is_fw_sr_capable
                0x60042114       0x38 ./wiced/43xxx_Wi-Fi/WICED/WWD/internal/chips/4343W/wwd_chip_specific_functions.o
 .text.wwd_kso_enable
                0x6004214c       0xdc ./wiced/43xxx_Wi-Fi/WICED/WWD/internal/chips/4343W/wwd_chip_specific_functions.o
 .text.wwd_bus_init
                0x60042228      0x4e8 ./wiced/43xxx_Wi-Fi/WICED/WWD/internal/bus_protocols/SDIO/wwd_bus_protocol.o
                0x60042228                wwd_bus_init
 .text.wwd_bus_wake_interrupt_present
                0x60042710       0x6c ./wiced/43xxx_Wi-Fi/WICED/WWD/internal/bus_protocols/SDIO/wwd_bus_protocol.o
                0x60042710                wwd_bus_wake_interrupt_present
 .text.wwd_bus_packet_available_to_read
                0x6004277c       0x78 ./wiced/43xxx_Wi-Fi/WICED/WWD/internal/bus_protocols/SDIO/wwd_bus_protocol.o
                0x6004277c                wwd_bus_packet_available_to_read
 .text.wwd_bus_read_frame
                0x600427f4      0x1d8 ./wiced/43xxx_Wi-Fi/WICED/WWD/internal/bus_protocols/SDIO/wwd_bus_protocol.o
                0x600427f4                wwd_bus_read_frame
 .text.wwd_bus_sdio_download_firmware
                0x600429cc      0x1c4 ./wiced/43xxx_Wi-Fi/WICED/WWD/internal/bus_protocols/SDIO/wwd_bus_protocol.o
 .text.wwd_bus_sdio_abort_read
                0x60042b90       0x84 ./wiced/43xxx_Wi-Fi/WICED/WWD/internal/bus_protocols/SDIO/wwd_bus_protocol.o
 .text.wwd_bus_poke_wlan
                0x60042c14       0x18 ./wiced/43xxx_Wi-Fi/WICED/WWD/internal/bus_protocols/SDIO/wwd_bus_protocol.o
                0x60042c14                wwd_bus_poke_wlan
 .text.wwd_bus_set_flow_control
                0x60042c2c       0x2c ./wiced/43xxx_Wi-Fi/WICED/WWD/internal/bus_protocols/SDIO/wwd_bus_protocol.o
                0x60042c2c                wwd_bus_set_flow_control
 .text.wwd_bus_is_flow_controlled
                0x60042c58        0xc ./wiced/43xxx_Wi-Fi/WICED/WWD/internal/bus_protocols/SDIO/wwd_bus_protocol.o
                0x60042c58                wwd_bus_is_flow_controlled
 .text.wwd_bus_sdio_set_oob_interrupt
                0x60042c64       0xac ./wiced/43xxx_Wi-Fi/WICED/WWD/internal/bus_protocols/SDIO/wwd_bus_protocol.o
 .text.wwd_bus_reinit
                0x60042d10      0x4b4 ./wiced/43xxx_Wi-Fi/WICED/WWD/internal/bus_protocols/SDIO/wwd_bus_protocol.o
                0x60042d10                wwd_bus_reinit
 .text.wwd_delayed_bus_release_schedule_update
                0x600431c4       0x24 ./wiced/43xxx_Wi-Fi/WICED/WWD/internal/bus_protocols/wwd_bus_common.o
                0x600431c4                wwd_delayed_bus_release_schedule_update
 .text.wwd_bus_handle_delayed_release
                0x600431e8       0xe8 ./wiced/43xxx_Wi-Fi/WICED/WWD/internal/bus_protocols/wwd_bus_common.o
                0x600431e8                wwd_bus_handle_delayed_release
 .text.wwd_bus_init_backplane_window
                0x600432d0       0x10 ./wiced/43xxx_Wi-Fi/WICED/WWD/internal/bus_protocols/wwd_bus_common.o
                0x600432d0                wwd_bus_init_backplane_window
 .text.wwd_bus_write_wifi_nvram_image
                0x600432e0       0x8c ./wiced/43xxx_Wi-Fi/WICED/WWD/internal/bus_protocols/wwd_bus_common.o
                0x600432e0                wwd_bus_write_wifi_nvram_image
 .text.download_resource
                0x6004336c      0x184 ./wiced/43xxx_Wi-Fi/WICED/WWD/internal/bus_protocols/wwd_bus_common.o
 .text.wwd_bus_set_backplane_window
                0x600434f0       0xe0 ./wiced/43xxx_Wi-Fi/WICED/WWD/internal/bus_protocols/wwd_bus_common.o
                0x600434f0                wwd_bus_set_backplane_window
 .text.wwd_wifi_get_ap_is_up
                0x600435d0        0xc ./wiced/43xxx_Wi-Fi/WICED/WWD/internal/wwd_ap_common.o
                0x600435d0                wwd_wifi_get_ap_is_up
 .text.wwd_wifi_set_block_ack_window_size_common
                0x600435dc       0x5c ./wiced/43xxx_Wi-Fi/WICED/WWD/internal/wwd_ap_common.o
                0x600435dc                wwd_wifi_set_block_ack_window_size_common
 .text.wwd_wifi_set_ampdu_parameters_common
                0x60043638       0xa4 ./wiced/43xxx_Wi-Fi/WICED/WWD/internal/wwd_ap_common.o
                0x60043638                wwd_wifi_set_ampdu_parameters_common
 .text.wwd_process_clm_data
                0x600436dc      0x170 ./wiced/43xxx_Wi-Fi/WICED/WWD/internal/wwd_clm.o
                0x600436dc                wwd_process_clm_data
 .text.wwd_get_core_address
                0x6004384c       0x1c ./wiced/43xxx_Wi-Fi/WICED/WWD/internal/wwd_internal.o
 .text.wwd_management_wifi_platform_init
                0x60043868       0xc4 ./wiced/43xxx_Wi-Fi/WICED/WWD/internal/wwd_management.o
                0x60043868                wwd_management_wifi_platform_init
 .text.wwd_management_wifi_on
                0x6004392c      0x23c ./wiced/43xxx_Wi-Fi/WICED/WWD/internal/wwd_management.o
                0x6004392c                wwd_management_wifi_on
 .text.wwd_sdpcm_init
                0x60043b68       0xe8 ./wiced/43xxx_Wi-Fi/WICED/WWD/internal/wwd_sdpcm.o
                0x60043b68                wwd_sdpcm_init
 .text.wwd_sdpcm_bus_vars_init
                0x60043c50       0x2c ./wiced/43xxx_Wi-Fi/WICED/WWD/internal/wwd_sdpcm.o
                0x60043c50                wwd_sdpcm_bus_vars_init
 .text.wwd_sdpcm_quit
                0x60043c7c       0x64 ./wiced/43xxx_Wi-Fi/WICED/WWD/internal/wwd_sdpcm.o
                0x60043c7c                wwd_sdpcm_quit
 .text.wwd_network_send_ethernet_data
                0x60043ce0      0x124 ./wiced/43xxx_Wi-Fi/WICED/WWD/internal/wwd_sdpcm.o
                0x60043ce0                wwd_network_send_ethernet_data
 .text.wwd_sdpcm_update_credit
                0x60043e04       0x6c ./wiced/43xxx_Wi-Fi/WICED/WWD/internal/wwd_sdpcm.o
                0x60043e04                wwd_sdpcm_update_credit
 .text.wwd_sdpcm_process_rx_packet
                0x60043e70      0x4d8 ./wiced/43xxx_Wi-Fi/WICED/WWD/internal/wwd_sdpcm.o
                0x60043e70                wwd_sdpcm_process_rx_packet
 .text.wwd_sdpcm_notify_client_ioctl_finished
                0x60044348       0x34 ./wiced/43xxx_Wi-Fi/WICED/WWD/internal/wwd_sdpcm.o
 .text.wwd_sdpcm_notify_client_ioctl_start
                0x6004437c       0x18 ./wiced/43xxx_Wi-Fi/WICED/WWD/internal/wwd_sdpcm.o
 .text.wwd_sdpcm_notify_client_ioctl_end_registered
                0x60044394       0x18 ./wiced/43xxx_Wi-Fi/WICED/WWD/internal/wwd_sdpcm.o
 .text.wwd_sdpcm_send_ioctl
                0x600443ac      0x21c ./wiced/43xxx_Wi-Fi/WICED/WWD/internal/wwd_sdpcm.o
                0x600443ac                wwd_sdpcm_send_ioctl
 .text.wwd_management_set_event_handler_locally
                0x600445c8      0x14c ./wiced/43xxx_Wi-Fi/WICED/WWD/internal/wwd_sdpcm.o
                0x600445c8                wwd_management_set_event_handler_locally
 .text.wwd_management_alloc_event_msgs_buffer
                0x60044714      0x158 ./wiced/43xxx_Wi-Fi/WICED/WWD/internal/wwd_sdpcm.o
 .text.wwd_management_set_event_handler
                0x6004486c      0x1cc ./wiced/43xxx_Wi-Fi/WICED/WWD/internal/wwd_sdpcm.o
                0x6004486c                wwd_management_set_event_handler
 .text.wwd_sdpcm_has_tx_packet
                0x60044a38       0x18 ./wiced/43xxx_Wi-Fi/WICED/WWD/internal/wwd_sdpcm.o
                0x60044a38                wwd_sdpcm_has_tx_packet
 .text.wwd_sdpcm_get_packet_to_send
                0x60044a50       0xbc ./wiced/43xxx_Wi-Fi/WICED/WWD/internal/wwd_sdpcm.o
                0x60044a50                wwd_sdpcm_get_packet_to_send
 .text.wwd_sdpcm_get_available_credits
                0x60044b0c       0x18 ./wiced/43xxx_Wi-Fi/WICED/WWD/internal/wwd_sdpcm.o
                0x60044b0c                wwd_sdpcm_get_available_credits
 .text.wwd_get_bss_index
                0x60044b24       0x20 ./wiced/43xxx_Wi-Fi/WICED/WWD/internal/wwd_sdpcm.o
                0x60044b24                wwd_get_bss_index
 .text.wwd_sdpcm_send_common
                0x60044b44       0xd8 ./wiced/43xxx_Wi-Fi/WICED/WWD/internal/wwd_sdpcm.o
 .text.wwd_map_dscp_to_priority
                0x60044c1c       0x24 ./wiced/43xxx_Wi-Fi/WICED/WWD/internal/wwd_sdpcm.o
 .text.wwd_wifi_get_source_interface
                0x60044c40       0x30 ./wiced/43xxx_Wi-Fi/WICED/WWD/internal/wwd_sdpcm.o
 .text.wwd_thread_init
                0x60044c70       0x84 ./wiced/43xxx_Wi-Fi/WICED/WWD/internal/wwd_thread.o
                0x60044c70                wwd_thread_init
 .text.wwd_thread_notify_irq
                0x60044cf4       0x2c ./wiced/43xxx_Wi-Fi/WICED/WWD/internal/wwd_thread.o
                0x60044cf4                wwd_thread_notify_irq
 .text.wwd_thread_notify
                0x60044d20       0x20 ./wiced/43xxx_Wi-Fi/WICED/WWD/internal/wwd_thread.o
                0x60044d20                wwd_thread_notify
 .text.wwd_thread_func
                0x60044d40       0xa0 ./wiced/43xxx_Wi-Fi/WICED/WWD/internal/wwd_thread.o
 .text.wwd_wifi_p2p_is_go_up
                0x60044de0        0xc ./wiced/43xxx_Wi-Fi/WICED/WWD/internal/wwd_wifi.o
                0x60044de0                wwd_wifi_p2p_is_go_up
 .text.wwd_wifi_active_join_init
                0x60044dec       0xa8 ./wiced/43xxx_Wi-Fi/WICED/WWD/internal/wwd_wifi.o
 .text.wwd_wifi_active_join_deinit
                0x60044e94       0x78 ./wiced/43xxx_Wi-Fi/WICED/WWD/internal/wwd_wifi.o
 .text.wwd_wifi_join
                0x60044f0c      0x18c ./wiced/43xxx_Wi-Fi/WICED/WWD/internal/wwd_wifi.o
                0x60044f0c                wwd_wifi_join
 .text.wwd_wifi_prepare_join
                0x60045098      0x78c ./wiced/43xxx_Wi-Fi/WICED/WWD/internal/wwd_wifi.o
 .text.wwd_wifi_leave
                0x60045824       0x5c ./wiced/43xxx_Wi-Fi/WICED/WWD/internal/wwd_wifi.o
                0x60045824                wwd_wifi_leave
 .text.wiced_join_events_handler
                0x60045880      0x368 ./wiced/43xxx_Wi-Fi/WICED/WWD/internal/wwd_wifi.o
 .text.wwd_wifi_get_mac_address
                0x60045be8       0x8c ./wiced/43xxx_Wi-Fi/WICED/WWD/internal/wwd_wifi.o
                0x60045be8                wwd_wifi_get_mac_address
 .text.wwd_wifi_get_and_cache_mac_address
                0x60045c74       0x48 ./wiced/43xxx_Wi-Fi/WICED/WWD/internal/wwd_wifi.o
                0x60045c74                wwd_wifi_get_and_cache_mac_address
 .text.wwd_wifi_link_update
                0x60045cbc       0x18 ./wiced/43xxx_Wi-Fi/WICED/WWD/internal/wwd_wifi.o
                0x60045cbc                wwd_wifi_link_update
 .text.wwd_wifi_monitor_mode_is_enabled
                0x60045cd4        0xc ./wiced/43xxx_Wi-Fi/WICED/WWD/internal/wwd_wifi.o
                0x60045cd4                wwd_wifi_monitor_mode_is_enabled
 .text.wwd_wifi_set_up
                0x60045ce0       0x4c ./wiced/43xxx_Wi-Fi/WICED/WWD/internal/wwd_wifi.o
                0x60045ce0                wwd_wifi_set_up
 .text.wwd_wifi_set_supplicant_eapol_key_timeout
                0x60045d2c       0x6c ./wiced/43xxx_Wi-Fi/WICED/WWD/internal/wwd_wifi.o
                0x60045d2c                wwd_wifi_set_supplicant_eapol_key_timeout
 .text.wwd_wifi_get_wifi_version
                0x60045d98       0x60 ./wiced/43xxx_Wi-Fi/WICED/WWD/internal/wwd_wifi.o
                0x60045d98                wwd_wifi_get_wifi_version
 .text.wwd_wifi_get_clm_version
                0x60045df8       0x7c ./wiced/43xxx_Wi-Fi/WICED/WWD/internal/wwd_wifi.o
                0x60045df8                wwd_wifi_get_clm_version
 .text.wwd_wifi_check_join_status
                0x60045e74      0x160 ./wiced/43xxx_Wi-Fi/WICED/WWD/internal/wwd_wifi.o
 .text.wwd_wifi_is_mesh_enabled
                0x60045fd4       0x1c ./wiced/43xxx_Wi-Fi/WICED/WWD/internal/wwd_wifi.o
                0x60045fd4                wwd_wifi_is_mesh_enabled
 .text.ds_state_set
                0x60045ff0       0x3c ./wiced/43xxx_Wi-Fi/WICED/WWD/internal/wwd_wifi_sleep.o
 .text.wwd_wifi_ds1_wake_handle
                0x6004602c       0x68 ./wiced/43xxx_Wi-Fi/WICED/WWD/internal/wwd_wifi_sleep.o
                0x6004602c                wwd_wifi_ds1_wake_handle
 .text.wwd_wifi_ds1_finish_wake
                0x60046094       0xac ./wiced/43xxx_Wi-Fi/WICED/WWD/internal/wwd_wifi_sleep.o
 .text.host_rtos_set_semaphore
                0x60046140       0x68 ./wiced/43xxx_Wi-Fi/WICED/RTOS/FreeRTOS/WWD/wwd_rtos.o
                0x60046140                host_rtos_set_semaphore
 .text.host_rtos_delay_milliseconds
                0x600461a8       0x5c ./wiced/43xxx_Wi-Fi/WICED/RTOS/FreeRTOS/WWD/wwd_rtos.o
                0x600461a8                host_rtos_delay_milliseconds
 .text.__assertion_failed
                0x60046204       0x18 ./utilities/fsl_assert.o
                0x60046204                __assertion_failed
 .text.DbgConsole_SerialManagerRxCallback
                0x6004621c       0x48 ./utilities/fsl_debug_console.o
 .text.DbgConsole_ReadOneCharacter
                0x60046264       0x58 ./utilities/fsl_debug_console.o
                0x60046264                DbgConsole_ReadOneCharacter
 .text.DbgConsole_SendData
                0x600462bc      0x160 ./utilities/fsl_debug_console.o
                0x600462bc                DbgConsole_SendData
 .text.DbgConsole_SendDataReliable
                0x6004641c      0x104 ./utilities/fsl_debug_console.o
                0x6004641c                DbgConsole_SendDataReliable
 .text.DbgConsole_ReadCharacter
                0x60046520       0x84 ./utilities/fsl_debug_console.o
                0x60046520                DbgConsole_ReadCharacter
 .text.DbgConsole_Init
                0x600465a4      0x1a8 ./utilities/fsl_debug_console.o
                0x600465a4                DbgConsole_Init
 .text.DbgConsole_Deinit
                0x6004674c       0x9c ./utilities/fsl_debug_console.o
                0x6004674c                DbgConsole_Deinit
 .text.DbgConsole_Flush
                0x600467e8       0x48 ./utilities/fsl_debug_console.o
                0x600467e8                DbgConsole_Flush
 .text.DbgConsole_Printf
                0x60046830       0x64 ./utilities/fsl_debug_console.o
                0x60046830                DbgConsole_Printf
 .text.USB_EhciPhyGetBase
                0x60046894       0xf0 ./usb/phy/usb_phy.o
                0x60046894                USB_EhciPhyGetBase
 .text.USB_EhciPhyInit
                0x60046984       0xd4 ./usb/phy/usb_phy.o
                0x60046984                USB_EhciPhyInit
 .text.USB_DeviceEhciCancelControlPipe
                0x60046a58      0x1a0 ./usb/device/source/ehci/usb_device_ehci.o
 .text.USB_DeviceEhciInterruptTokenDone
                0x60046bf8      0x458 ./usb/device/source/ehci/usb_device_ehci.o
 .text.USB_DeviceEhciTransfer
                0x60047050      0x3c4 ./usb/device/source/ehci/usb_device_ehci.o
 .text.USB_EhciGetValidEhciState
                0x60047414       0x5c ./usb/device/source/ehci/usb_device_ehci.o
 .text.USB_DeviceEhciInit
                0x60047470      0x124 ./usb/device/source/ehci/usb_device_ehci.o
                0x60047470                USB_DeviceEhciInit
 .text.USB_DeviceEhciDeinit
                0x60047594       0x8c ./usb/device/source/ehci/usb_device_ehci.o
                0x60047594                USB_DeviceEhciDeinit
 .text.USB_DeviceEhciCancel
                0x60047620      0x240 ./usb/device/source/ehci/usb_device_ehci.o
                0x60047620                USB_DeviceEhciCancel
 .text.USB_DeviceEhciControl
                0x60047860      0x2ac ./usb/device/source/ehci/usb_device_ehci.o
                0x60047860                USB_DeviceEhciControl
 .text.USB_DeviceControlCallback
                0x60047b0c      0x30c ./usb/device/source/usb_device_ch9.o
 .text.USB_DeviceControlPipeInit
                0x60047e18       0x8c ./usb/device/source/usb_device_ch9.o
                0x60047e18                USB_DeviceControlPipeInit
 .text.USB_DeviceAllocateHandle
                0x60047ea4       0xd4 ./usb/device/source/usb_device_dci.o
 .text.USB_DeviceGetControllerInterface
                0x60047f78       0x44 ./usb/device/source/usb_device_dci.o
 .text.USB_DeviceGetStatus
                0x60047fbc       0xe0 ./usb/device/source/usb_device_dci.o
                0x60047fbc                USB_DeviceGetStatus
 .text.USB_DeviceSetStatus
                0x6004809c      0x130 ./usb/device/source/usb_device_dci.o
                0x6004809c                USB_DeviceSetStatus
 .text.USB_DeviceMscAllocateHandle
                0x600481cc      0x120 ./usb/device/class/msc/usb_device_msc.o
 .text.USB_DeviceMscProcessUfiCommand
                0x600482ec      0x2f8 ./usb/device/class/msc/usb_device_msc.o
 .text.USB_DeviceMscBulkIn
                0x600485e4      0x238 ./usb/device/class/msc/usb_device_msc.o
 .text.USB_DeviceMscBulkOut
                0x6004881c      0x428 ./usb/device/class/msc/usb_device_msc.o
 .text.USB_DeviceMscEndpointsInit
                0x60048c44      0x24c ./usb/device/class/msc/usb_device_msc.o
                0x60048c44                USB_DeviceMscEndpointsInit
 .text.USB_DeviceMscEvent
                0x60048e90      0x588 ./usb/device/class/msc/usb_device_msc.o
                0x60048e90                USB_DeviceMscEvent
 .text.USB_DeviceMscUfiReadFormatCapacityCommand
                0x60049418      0x3d8 ./usb/device/class/msc/usb_device_msc_ufi.o
                0x60049418                USB_DeviceMscUfiReadFormatCapacityCommand
 .text.USB_DeviceClassAllocateHandle
                0x600497f0       0xcc ./usb/device/class/usb_device_class.o
 .text.USB_DeviceClassFreeHandle
                0x600498bc       0x90 ./usb/device/class/usb_device_class.o
 .text.USB_DeviceClassGetHandleByControllerId
                0x6004994c       0x78 ./usb/device/class/usb_device_class.o
 .text.USB_DeviceClassGetHandleByDeviceHandle
                0x600499c4       0x60 ./usb/device/class/usb_device_class.o
 .text.USB_DeviceClassGetDeviceHandle
                0x60049a24       0x78 ./usb/device/class/usb_device_class.o
                0x60049a24                USB_DeviceClassGetDeviceHandle
 .text.USB_DeviceClassEvent
                0x60049a9c      0x100 ./usb/device/class/usb_device_class.o
                0x60049a9c                USB_DeviceClassEvent
 .text.USB_DeviceClassInit
                0x60049b9c      0x144 ./usb/device/class/usb_device_class.o
                0x60049b9c                USB_DeviceClassInit
 .text.map_flexram
                0x60049ce0       0x5c ./startup/startup_mimxrt106s.o
 .text.__NVIC_DisableIRQ
                0x60049d3c       0x44 ./source/bootloader.o
 .text.__NVIC_SystemReset
                0x60049d80       0x28 ./source/bootloader.o
 .text.the_should_never_get_here_catch
                0x60049da8       0x18 ./source/bootloader.o
 .text.JumpToAddr
                0x60049dc0       0x5c ./source/bootloader.o
 .text.jumpToMainAppTask
                0x60049e1c      0x134 ./source/bootloader.o
 .text.ReRunBootloader
                0x60049f50       0x4c ./source/bootloader.o
                0x60049f50                ReRunBootloader
 .text.CheckForFwUpdate
                0x60049f9c       0xd4 ./source/bootloader.o
 .text.BootloaderMain
                0x6004a070      0x1a4 ./source/bootloader.o
                0x6004a070                BootloaderMain
 .text.__NVIC_EnableIRQ
                0x6004a214       0x34 ./source/disk.o
 .text.__NVIC_SetPriority
                0x6004a248       0x50 ./source/disk.o
 .text.USB_OTG1_IRQHandler
                0x6004a298       0x1c ./source/disk.o
                0x6004a298                USB_OTG1_IRQHandler
 .text.USB_OTG2_IRQHandler
                0x6004a2b4       0x1c ./source/disk.o
                0x6004a2b4                USB_OTG2_IRQHandler
 .text.USB_DeviceClockInit
                0x6004a2d0       0x44 ./source/disk.o
                0x6004a2d0                USB_DeviceClockInit
 .text.USB_DeviceMscCallback
                0x6004a314      0x160 ./source/disk.o
                0x6004a314                USB_DeviceMscCallback
 .text.USB_DeviceCallback
                0x6004a474      0x1ec ./source/disk.o
                0x6004a474                USB_DeviceCallback
 .text.USB_DeviceApplicationInit
                0x6004a660       0x90 ./source/disk.o
                0x6004a660                USB_DeviceApplicationInit
 .text.USB_Transfer_Monitor
                0x6004a6f0       0x70 ./source/disk.o
                0x6004a6f0                USB_Transfer_Monitor
 .text.USB_Transfer_Finalize
                0x6004a760       0x98 ./source/disk.o
                0x6004a760                USB_Transfer_Finalize
 .text.USB_DeviceTask
                0x6004a7f8       0x1c ./source/disk.o
                0x6004a7f8                USB_DeviceTask
 .text.USB_MSC_TASK
                0x6004a814       0x60 ./source/disk.o
                0x6004a814                USB_MSC_TASK
 .text.USB_MSC_Init
                0x6004a874       0x48 ./source/disk.o
                0x6004a874                USB_MSC_Init
 .text.__NVIC_SystemReset
                0x6004a8bc       0x28 ./source/flash_ica_driver.o
 .text.FICA_app_program_ext_init
                0x6004a8e4       0xf0 ./source/flash_ica_driver.o
                0x6004a8e4                FICA_app_program_ext_init
 .text.FICA_app_program_ext_finalize
                0x6004a9d4      0x128 ./source/flash_ica_driver.o
                0x6004a9d4                FICA_app_program_ext_finalize
 .text.FICA_Save_Signature
                0x6004aafc       0x68 ./source/flash_ica_driver.o
                0x6004aafc                FICA_Save_Signature
 .text.FICA_Verify_OTA_Image_Entry_Point
                0x6004ab64       0x84 ./source/flash_ica_driver.o
                0x6004ab64                FICA_Verify_OTA_Image_Entry_Point
 .text.FICA_get_new_app_img_type
                0x6004abe8       0x38 ./source/flash_ica_driver.o
                0x6004abe8                FICA_get_new_app_img_type
 .text.FICA_write_image_info
                0x6004ac20       0xc0 ./source/flash_ica_driver.o
                0x6004ac20                FICA_write_image_info
 .text.is_FICA_initialized
                0x6004ace0       0x48 ./source/flash_ica_driver.o
                0x6004ace0                is_FICA_initialized
 .text.FICA_initialize
                0x6004ad28       0xf0 ./source/flash_ica_driver.o
                0x6004ad28                FICA_initialize
 .text.FICA_verify_ext_flash
                0x6004ae18       0x4c ./source/flash_ica_driver.o
                0x6004ae18                FICA_verify_ext_flash
 .text.FICA_get_comm_flag
                0x6004ae64       0x48 ./source/flash_ica_driver.o
                0x6004ae64                FICA_get_comm_flag
 .text.FICA_set_comm_flag
                0x6004aeac       0x4c ./source/flash_ica_driver.o
                0x6004aeac                FICA_set_comm_flag
 .text.FICA_clr_comm_flag
                0x6004aef8       0x50 ./source/flash_ica_driver.o
                0x6004aef8                FICA_clr_comm_flag
 .text.FICA_read_for_debug
                0x6004af48       0x20 ./source/flash_ica_driver.o
                0x6004af48                FICA_read_for_debug
 .text.FICA_GetCurBootStartAddr
                0x6004af68       0x48 ./source/flash_ica_driver.o
                0x6004af68                FICA_GetCurBootStartAddr
 .text.FICA_GetCurAppStartType
                0x6004afb0       0x70 ./source/flash_ica_driver.o
                0x6004afb0                FICA_GetCurAppStartType
 .text.FICA_SetCurAppStartType
                0x6004b020       0x24 ./source/flash_ica_driver.o
                0x6004b020                FICA_SetCurAppStartType
 .text.FICA_GetImgTypeFromResetISRAddr
                0x6004b044       0xbc ./source/flash_ica_driver.o
                0x6004b044                FICA_GetImgTypeFromResetISRAddr
 .text.dcp_enable
                0x6004b100       0x24 ./source/fsl_dcp_ext.o
 .text.dcp_aes_init
                0x6004b124       0x4c ./source/fsl_dcp_ext.o
                0x6004b124                dcp_aes_init
 .text.dcp_aes_set_key
                0x6004b170      0x168 ./source/fsl_dcp_ext.o
                0x6004b170                dcp_aes_set_key
 .text.dcp_aes_config_key_iv
                0x6004b2d8      0x170 ./source/fsl_dcp_ext.o
 .text.dcp_wait_task_done
                0x6004b448      0x168 ./source/fsl_dcp_ext.o
 .text.dcp_entry
                0x6004b5b0       0x18 ./source/fsl_dcp_ext.o
                0x6004b5b0                dcp_entry
 .text.xLoggingTaskInitialize
                0x6004b5c8       0x74 ./source/iot_logging_task_dynamic_buffers.o
                0x6004b5c8                xLoggingTaskInitialize
 .text.prvLoggingTask
                0x6004b63c       0x38 ./source/iot_logging_task_dynamic_buffers.o
 .text.vLoggingPrintf
                0x6004b674       0xfc ./source/iot_logging_task_dynamic_buffers.o
                0x6004b674                vLoggingPrintf
 .text.main     0x6004b770       0x74 ./source/main.o
                0x6004b770                main
 .text.APP_Wifi_UX_Callback
                0x6004b7e4       0x24 ./source/network_connection.o
                0x6004b7e4                APP_Wifi_UX_Callback
 .text.wlan_connectivity_init
                0x6004b808       0x64 ./source/network_connection.o
 .text.wifi_connect_update_handler
                0x6004b86c       0x98 ./source/network_connection.o
                0x6004b86c                wifi_connect_update_handler
 .text.wifi_join
                0x6004b904       0xe0 ./source/network_connection.o
 .text.wifi_if_add
                0x6004b9e4      0x11c ./source/network_connection.o
 .text.APP_NETWORK_Wifi_Connect
                0x6004bb00      0x1a8 ./source/network_connection.o
                0x6004bb00                APP_NETWORK_Wifi_Connect
 .text.loop_delay
                0x6004bca8       0x20 ./source/nor_encrypt_bee.o
 .text.bl_nor_encrypt_region_info_load_from_offset
                0x6004bcc8      0x418 ./source/nor_encrypt_bee.o
 .text.bl_nor_encrypt_region_info_load_default
                0x6004c0e0       0x14 ./source/nor_encrypt_bee.o
 .text.setup_key
                0x6004c0f4       0x6c ./source/nor_encrypt_bee.o
 .text.bl_nor_encrypt_set_key
                0x6004c160       0x58 ./source/nor_encrypt_bee.o
                0x6004c160                bl_nor_encrypt_set_key
 .text.bl_nor_encrypt_is_enabled
                0x6004c1b8       0x8c ./source/nor_encrypt_bee.o
                0x6004c1b8                bl_nor_encrypt_is_enabled
 .text.bl_nor_encrypt_make_new_config
                0x6004c244      0x1ac ./source/nor_encrypt_bee.o
                0x6004c244                bl_nor_encrypt_make_new_config
 .text.bl_nor_in_encrypted_region
                0x6004c3f0       0x98 ./source/nor_encrypt_bee.o
                0x6004c3f0                bl_nor_in_encrypted_region
 .text.bl_nor_encrypt_get_config_block
                0x6004c488       0xe0 ./source/nor_encrypt_bee.o
                0x6004c488                bl_nor_encrypt_get_config_block
 .text.bl_nor_encrypt_data
                0x6004c568       0x24 ./source/nor_encrypt_bee.o
                0x6004c568                bl_nor_encrypt_data
 .text.bl_nor_encrypt_split_prdb
                0x6004c58c      0x220 ./source/nor_encrypt_bee.o
                0x6004c58c                bl_nor_encrypt_split_prdb
 .text.bl_nor_crypto_ctx_compare_backup
                0x6004c7ac      0x354 ./source/nor_encrypt_bee.o
                0x6004c7ac                bl_nor_crypto_ctx_compare_backup
 .text.bl_nor_encrypt_ensure_context
                0x6004cb00       0xcc ./source/nor_encrypt_bee.o
                0x6004cb00                bl_nor_encrypt_ensure_context
 .text.vApplicationStackOverflowHook
                0x6004cbcc       0x20 ./source/os_hooks.o
                0x6004cbcc                vApplicationStackOverflowHook
 .text.vApplicationMallocFailedHook
                0x6004cbec       0x14 ./source/os_hooks.o
                0x6004cbec                vApplicationMallocFailedHook
 .text.vApplicationGetIdleTaskMemory
                0x6004cc00       0x28 ./source/os_hooks.o
                0x6004cc00                vApplicationGetIdleTaskMemory
 .text.vApplicationGetTimerTaskMemory
                0x6004cc28       0x2c ./source/os_hooks.o
                0x6004cc28                vApplicationGetTimerTaskMemory
 .text.RGB_LED_SetColor
                0x6004cc54      0x158 ./source/sln_RT10xx_RGB_LED_driver_pwm.o
                0x6004cc54                RGB_LED_SetColor
 .text.RGB_LED_SetBrightnessColor
                0x6004cdac      0x210 ./source/sln_RT10xx_RGB_LED_driver_pwm.o
                0x6004cdac                RGB_LED_SetBrightnessColor
 .text.SLN_AUTH_check_context
                0x6004cfbc       0xf0 ./source/sln_auth.o
                0x6004cfbc                SLN_AUTH_check_context
 .text.SLN_AUTH_swap_context
                0x6004d0ac      0x24c ./source/sln_auth.o
                0x6004d0ac                SLN_AUTH_swap_context
 .text.SLN_AUTH_backup_context
                0x6004d2f8       0xe4 ./source/sln_auth.o
                0x6004d2f8                SLN_AUTH_backup_context
 .text.SLN_AUTH_save_context
                0x6004d3dc       0x78 ./source/sln_auth.o
                0x6004d3dc                SLN_AUTH_save_context
 .text.SLN_AUTH_full_save_context
                0x6004d454       0x7c ./source/sln_auth.o
                0x6004d454                SLN_AUTH_full_save_context
 .text.SLN_Encrypt_Attach_Key
                0x6004d4d0       0x20 ./source/sln_encrypt.o
 .text.SLN_Encrypt_Key_Loaded
                0x6004d4f0       0x40 ./source/sln_encrypt.o
 .text.SLN_Encrypt_KeySlot_Busy
                0x6004d530       0x48 ./source/sln_encrypt.o
 .text.SLN_Encrypt_Init_Slot
                0x6004d578       0x80 ./source/sln_encrypt.o
                0x6004d578                SLN_Encrypt_Init_Slot
 .text.SLN_Decrypt_AES_CBC_PKCS7
                0x6004d5f8      0x15c ./source/sln_encrypt.o
                0x6004d5f8                SLN_Decrypt_AES_CBC_PKCS7
 .text.SLN_Crc  0x6004d754       0x88 ./source/sln_encrypt.o
                0x6004d754                SLN_Crc
 .text.get_file_info_from_name
                0x6004d7dc       0xd4 ./source/sln_flash_mgmt.o
 .text.calc_crc_32
                0x6004d8b0       0x74 ./source/sln_flash_mgmt.o
 .text.get_file_data
                0x6004d924       0x7c ./source/sln_flash_mgmt.o
 .text.init_ram_crc_mirror
                0x6004d9a0      0x180 ./source/sln_flash_mgmt.o
 .text.garbage_collector
                0x6004db20      0x25c ./source/sln_flash_mgmt.o
 .text.SLN_FLASH_MGMT_Init
                0x6004dd7c      0x1b4 ./source/sln_flash_mgmt.o
                0x6004dd7c                SLN_FLASH_MGMT_Init
 .text.SLN_FLASH_MGMT_Read
                0x6004df30      0x254 ./source/sln_flash_mgmt.o
                0x6004df30                SLN_FLASH_MGMT_Read
 .text.otwAppStart
                0x6004e184       0x20 ./source/sln_fwupdate.o
                0x6004e184                otwAppStart
 .text.otaAppStart
                0x6004e1a4       0x18 ./source/sln_fwupdate.o
                0x6004e1a4                otaAppStart
 .text.MSC_VFS_Init
                0x6004e1bc       0x70 ./source/sln_msc_vfs.o
                0x6004e1bc                MSC_VFS_Init
 .text.MSC_VFS_GetTransferState
                0x6004e22c        0xc ./source/sln_msc_vfs.o
                0x6004e22c                MSC_VFS_GetTransferState
 .text.MSC_VFS_SetTransferState
                0x6004e238       0x1c ./source/sln_msc_vfs.o
                0x6004e238                MSC_VFS_SetTransferState
 .text.MSC_VFS_WriteResponse
                0x6004e254      0x280 ./source/sln_msc_vfs.o
                0x6004e254                MSC_VFS_WriteResponse
 .text.USB_DeviceGetDeviceDescriptor
                0x6004e4d4       0x20 ./source/usb_device_descriptor.o
                0x6004e4d4                USB_DeviceGetDeviceDescriptor
 .text.USB_DeviceGetConfigurationDescriptor
                0x6004e4f4       0x2c ./source/usb_device_descriptor.o
                0x6004e4f4                USB_DeviceGetConfigurationDescriptor
 .text.USB_DeviceGetStringDescriptor
                0x6004e520       0xd0 ./source/usb_device_descriptor.o
                0x6004e520                USB_DeviceGetStringDescriptor
 .text.USB_DeviceSetSpeed
                0x6004e5f0      0x150 ./source/usb_device_descriptor.o
                0x6004e5f0                USB_DeviceSetSpeed
 .text.wifi_credentials_flash_get
                0x6004e740       0x60 ./source/wifi_credentials.o
                0x6004e740                wifi_credentials_flash_get
 .text.SDIO_IO_RW_Direct
                0x6004e7a0       0xe0 ./sdmmc/src/fsl_sdio.o
                0x6004e7a0                SDIO_IO_RW_Direct
 .text.SDIO_GetCardCapability
                0x6004e880      0x30c ./sdmmc/src/fsl_sdio.o
                0x6004e880                SDIO_GetCardCapability
 .text.SDIO_SwitchToHighSpeed
                0x6004eb8c      0x128 ./sdmmc/src/fsl_sdio.o
                0x6004eb8c                SDIO_SwitchToHighSpeed
 .text.SDIO_EnableAsyncInterrupt
                0x6004ecb4       0xcc ./sdmmc/src/fsl_sdio.o
                0x6004ecb4                SDIO_EnableAsyncInterrupt
 .text.SDIO_HostInit
                0x6004ed80       0x94 ./sdmmc/src/fsl_sdio.o
                0x6004ed80                SDIO_HostInit
 .text.SDIO_PollingCardInsert
                0x6004ee14       0xcc ./sdmmc/src/fsl_sdio.o
                0x6004ee14                SDIO_PollingCardInsert
 .text.SDIO_SetCardPower
                0x6004eee0       0x54 ./sdmmc/src/fsl_sdio.o
                0x6004eee0                SDIO_SetCardPower
 .text.SDMMC_OSAEventCreate
                0x6004ef34       0x28 ./sdmmc/osa/fsl_sdmmc_osa.o
                0x6004ef34                SDMMC_OSAEventCreate
 .text.SDMMC_OSAEventWait
                0x6004ef5c       0x68 ./sdmmc/osa/fsl_sdmmc_osa.o
                0x6004ef5c                SDMMC_OSAEventWait
 .text.SDMMC_OSAEventSet
                0x6004efc4       0x2c ./sdmmc/osa/fsl_sdmmc_osa.o
                0x6004efc4                SDMMC_OSAEventSet
 .text.SDMMC_OSAEventGet
                0x6004eff0       0x40 ./sdmmc/osa/fsl_sdmmc_osa.o
                0x6004eff0                SDMMC_OSAEventGet
 .text.SDMMC_OSAEventClear
                0x6004f030       0x2c ./sdmmc/osa/fsl_sdmmc_osa.o
                0x6004f030                SDMMC_OSAEventClear
 .text.SDMMCHOST_CardIntInit
                0x6004f05c       0x2c ./sdmmc/host/fsl_sdmmc_host.o
                0x6004f05c                SDMMCHOST_CardIntInit
 .text.SDMMCHOST_CardDetectInit
                0x6004f088       0xd0 ./sdmmc/host/fsl_sdmmc_host.o
                0x6004f088                SDMMCHOST_CardDetectInit
 .text.SDMMCHOST_PollingCardDetectStatus
                0x6004f158       0xcc ./sdmmc/host/fsl_sdmmc_host.o
                0x6004f158                SDMMCHOST_PollingCardDetectStatus
 .text.SDMMCHOST_Init
                0x6004f224       0xa0 ./sdmmc/host/fsl_sdmmc_host.o
                0x6004f224                SDMMCHOST_Init
 .text.CRYPTO_InitHardware
                0x6004f2c4       0x38 ./mbedtls/port/ksdk/ksdk_mbedtls.o
                0x6004f2c4                CRYPTO_InitHardware
 .text.mbedtls_base64_decode
                0x6004f2fc      0x230 ./mbedtls/library/base64.o
                0x6004f2fc                mbedtls_base64_decode
 .text.ethernet_input
                0x6004f52c      0x16c ./lwip/src/netif/ethernet.o
                0x6004f52c                ethernet_input
 .text.ethernet_output
                0x6004f698       0x94 ./lwip/src/netif/ethernet.o
                0x6004f698                ethernet_output
 .text.acd_add  0x6004f72c       0x58 ./lwip/src/core/ipv4/acd.o
                0x6004f72c                acd_add
 .text.acd_start
                0x6004f784       0x58 ./lwip/src/core/ipv4/acd.o
                0x6004f784                acd_start
 .text.acd_tmr  0x6004f7dc      0x178 ./lwip/src/core/ipv4/acd.o
                0x6004f7dc                acd_tmr
 .text.dhcp_inc_pcb_refcount
                0x6004f954       0x94 ./lwip/src/core/ipv4/dhcp.o
 .text.dhcp_dec_pcb_refcount
                0x6004f9e8       0x44 ./lwip/src/core/ipv4/dhcp.o
 .text.dhcp_handle_nak
                0x6004fa2c       0x34 ./lwip/src/core/ipv4/dhcp.o
 .text.dhcp_conflict_callback
                0x6004fa60       0x84 ./lwip/src/core/ipv4/dhcp.o
 .text.dhcp_handle_offer
                0x6004fae4       0x4c ./lwip/src/core/ipv4/dhcp.o
 .text.dhcp_select
                0x6004fb30      0x21c ./lwip/src/core/ipv4/dhcp.o
 .text.dhcp_coarse_tmr
                0x6004fd4c       0xa8 ./lwip/src/core/ipv4/dhcp.o
                0x6004fd4c                dhcp_coarse_tmr
 .text.dhcp_fine_tmr
                0x6004fdf4       0x64 ./lwip/src/core/ipv4/dhcp.o
                0x6004fdf4                dhcp_fine_tmr
 .text.dhcp_handle_ack
                0x6004fe58      0x10c ./lwip/src/core/ipv4/dhcp.o
 .text.dhcp_start
                0x6004ff64      0x108 ./lwip/src/core/ipv4/dhcp.o
                0x6004ff64                dhcp_start
 .text.dhcp_network_changed_link_up
                0x6005006c       0x68 ./lwip/src/core/ipv4/dhcp.o
                0x6005006c                dhcp_network_changed_link_up
 .text.dhcp_decline
                0x600500d4       0xc0 ./lwip/src/core/ipv4/dhcp.o
 .text.dhcp_discover
                0x60050194      0x164 ./lwip/src/core/ipv4/dhcp.o
 .text.dhcp_bind
                0x600502f8      0x1a8 ./lwip/src/core/ipv4/dhcp.o
 .text.dhcp_renew
                0x600504a0      0x158 ./lwip/src/core/ipv4/dhcp.o
                0x600504a0                dhcp_renew
 .text.dhcp_rebind
                0x600505f8      0x158 ./lwip/src/core/ipv4/dhcp.o
 .text.dhcp_reboot
                0x60050750      0x190 ./lwip/src/core/ipv4/dhcp.o
 .text.dhcp_release_and_stop
                0x600508e0      0x138 ./lwip/src/core/ipv4/dhcp.o
                0x600508e0                dhcp_release_and_stop
 .text.dhcp_option
                0x60050a18       0x70 ./lwip/src/core/ipv4/dhcp.o
 .text.dhcp_option_byte
                0x60050a88       0x48 ./lwip/src/core/ipv4/dhcp.o
 .text.dhcp_option_short
                0x60050ad0       0x68 ./lwip/src/core/ipv4/dhcp.o
 .text.dhcp_option_long
                0x60050b38       0x8c ./lwip/src/core/ipv4/dhcp.o
 .text.dhcp_parse_reply
                0x60050bc4      0x568 ./lwip/src/core/ipv4/dhcp.o
 .text.dhcp_recv
                0x6005112c      0x1a0 ./lwip/src/core/ipv4/dhcp.o
 .text.dhcp_create_msg
                0x600512cc      0x1bc ./lwip/src/core/ipv4/dhcp.o
 .text.etharp_free_entry
                0x60051488       0xc0 ./lwip/src/core/ipv4/etharp.o
 .text.etharp_tmr
                0x60051548      0x154 ./lwip/src/core/ipv4/etharp.o
                0x60051548                etharp_tmr
 .text.etharp_find_entry
                0x6005169c      0x314 ./lwip/src/core/ipv4/etharp.o
 .text.etharp_update_arp_entry
                0x600519b0      0x140 ./lwip/src/core/ipv4/etharp.o
 .text.etharp_input
                0x60051af0      0x180 ./lwip/src/core/ipv4/etharp.o
                0x60051af0                etharp_input
 .text.etharp_output_to_arp_index
                0x60051c70      0x138 ./lwip/src/core/ipv4/etharp.o
 .text.etharp_output
                0x60051da8      0x210 ./lwip/src/core/ipv4/etharp.o
                0x60051da8                etharp_output
 .text.etharp_query
                0x60051fb8      0x2d0 ./lwip/src/core/ipv4/etharp.o
                0x60051fb8                etharp_query
 .text.etharp_raw
                0x60052288      0x120 ./lwip/src/core/ipv4/etharp.o
 .text.etharp_request_dst
                0x600523a8       0x40 ./lwip/src/core/ipv4/etharp.o
 .text.etharp_request
                0x600523e8       0x20 ./lwip/src/core/ipv4/etharp.o
                0x600523e8                etharp_request
 .text.etharp_acd_probe
                0x60052408       0x44 ./lwip/src/core/ipv4/etharp.o
                0x60052408                etharp_acd_probe
 .text.etharp_acd_announce
                0x6005244c       0x40 ./lwip/src/core/ipv4/etharp.o
                0x6005244c                etharp_acd_announce
 .text.icmp_input
                0x6005248c      0x2d8 ./lwip/src/core/ipv4/icmp.o
                0x6005248c                icmp_input
 .text.icmp_send_response
                0x60052764       0xec ./lwip/src/core/ipv4/icmp.o
 .text.ip4_route
                0x60052850       0xe8 ./lwip/src/core/ipv4/ip4.o
                0x60052850                ip4_route
 .text.ip4_input_accept
                0x60052938       0x54 ./lwip/src/core/ipv4/ip4.o
 .text.ip4_input
                0x6005298c      0x36c ./lwip/src/core/ipv4/ip4.o
                0x6005298c                ip4_input
 .text.ip4_output_if_src
                0x60052cf8      0x24c ./lwip/src/core/ipv4/ip4.o
                0x60052cf8                ip4_output_if_src
 .text.ip_reass_tmr
                0x60052f44       0x58 ./lwip/src/core/ipv4/ip4_frag.o
                0x60052f44                ip_reass_tmr
 .text.ip_reass_free_complete_datagram
                0x60052f9c      0x140 ./lwip/src/core/ipv4/ip4_frag.o
 .text.ip_reass_remove_oldest_datagram
                0x600530dc       0xc0 ./lwip/src/core/ipv4/ip4_frag.o
 .text.ip_reass_enqueue_new_datagram
                0x6005319c       0x84 ./lwip/src/core/ipv4/ip4_frag.o
 .text.ip_reass_dequeue_datagram
                0x60053220       0x48 ./lwip/src/core/ipv4/ip4_frag.o
 .text.ip_reass_chain_frag_into_datagram_and_validate
                0x60053268      0x2bc ./lwip/src/core/ipv4/ip4_frag.o
 .text.ip4_reass
                0x60053524      0x398 ./lwip/src/core/ipv4/ip4_frag.o
                0x60053524                ip4_reass
 .text.ip4_frag
                0x600538bc      0x20c ./lwip/src/core/ipv4/ip4_frag.o
                0x600538bc                ip4_frag
 .text.dns_setserver
                0x60053ac8       0x44 ./lwip/src/core/dns.o
                0x60053ac8                dns_setserver
 .text.dns_send
                0x60053b0c      0x1f4 ./lwip/src/core/dns.o
 .text.dns_call_found
                0x60053d00      0x1b0 ./lwip/src/core/dns.o
 .text.dns_create_txid
                0x60053eb0       0x70 ./lwip/src/core/dns.o
 .text.dns_backupserver_available
                0x60053f20       0x3c ./lwip/src/core/dns.o
 .text.dns_check_entry
                0x60053f5c      0x144 ./lwip/src/core/dns.o
 .text.ptr_to_mem
                0x600540a0       0x1c ./lwip/src/core/mem.o
 .text.mem_to_ptr
                0x600540bc       0x18 ./lwip/src/core/mem.o
 .text.plug_holes
                0x600540d4      0x118 ./lwip/src/core/mem.o
 .text.mem_init
                0x600541ec       0xa0 ./lwip/src/core/mem.o
                0x600541ec                mem_init
 .text.mem_link_valid
                0x6005428c       0x80 ./lwip/src/core/mem.o
 .text.mem_free
                0x6005430c      0x160 ./lwip/src/core/mem.o
                0x6005430c                mem_free
 .text.mem_trim
                0x6005446c      0x280 ./lwip/src/core/mem.o
                0x6005446c                mem_trim
 .text.mem_malloc
                0x600546ec      0x294 ./lwip/src/core/mem.o
                0x600546ec                mem_malloc
 .text.memp_init
                0x60054980       0x58 ./lwip/src/core/memp.o
                0x60054980                memp_init
 .text.do_memp_malloc_pool
                0x600549d8       0x88 ./lwip/src/core/memp.o
 .text.memp_malloc
                0x60054a60       0x4c ./lwip/src/core/memp.o
                0x60054a60                memp_malloc
 .text.do_memp_free_pool
                0x60054aac       0x54 ./lwip/src/core/memp.o
 .text.memp_free
                0x60054b00       0x50 ./lwip/src/core/memp.o
                0x60054b00                memp_free
 .text.netif_add
                0x60054b50      0x198 ./lwip/src/core/netif.o
                0x60054b50                netif_add
 .text.netif_do_set_ipaddr
                0x60054ce8       0x84 ./lwip/src/core/netif.o
 .text.netif_set_addr
                0x60054d6c       0x8c ./lwip/src/core/netif.o
                0x60054d6c                netif_set_addr
 .text.netif_set_default
                0x60054df8       0x14 ./lwip/src/core/netif.o
                0x60054df8                netif_set_default
 .text.netif_set_up
                0x60054e0c       0x50 ./lwip/src/core/netif.o
                0x60054e0c                netif_set_up
 .text.netif_issue_reports
                0x60054e5c       0x4c ./lwip/src/core/netif.o
 .text.netif_set_link_up
                0x60054ea8       0x68 ./lwip/src/core/netif.o
                0x60054ea8                netif_set_link_up
 .text.netif_set_link_down
                0x60054f10       0x60 ./lwip/src/core/netif.o
                0x60054f10                netif_set_link_down
 .text.netif_get_by_index
                0x60054f70       0x48 ./lwip/src/core/netif.o
                0x60054f70                netif_get_by_index
 .text.pbuf_alloc
                0x60054fb8      0x20c ./lwip/src/core/pbuf.o
                0x60054fb8                pbuf_alloc
 .text.pbuf_alloc_reference
                0x600551c4       0x64 ./lwip/src/core/pbuf.o
                0x600551c4                pbuf_alloc_reference
 .text.pbuf_realloc
                0x60055228      0x108 ./lwip/src/core/pbuf.o
                0x60055228                pbuf_realloc
 .text.pbuf_add_header_impl
                0x60055330       0xd0 ./lwip/src/core/pbuf.o
 .text.pbuf_remove_header
                0x60055400       0x9c ./lwip/src/core/pbuf.o
                0x60055400                pbuf_remove_header
 .text.pbuf_free
                0x6005549c      0x104 ./lwip/src/core/pbuf.o
                0x6005549c                pbuf_free
 .text.pbuf_ref
                0x600555a0       0x40 ./lwip/src/core/pbuf.o
                0x600555a0                pbuf_ref
 .text.pbuf_cat
                0x600555e0       0x94 ./lwip/src/core/pbuf.o
                0x600555e0                pbuf_cat
 .text.pbuf_copy
                0x60055674      0x184 ./lwip/src/core/pbuf.o
                0x60055674                pbuf_copy
 .text.pbuf_copy_partial
                0x600557f8      0x114 ./lwip/src/core/pbuf.o
                0x600557f8                pbuf_copy_partial
 .text.pbuf_take
                0x6005590c      0x114 ./lwip/src/core/pbuf.o
                0x6005590c                pbuf_take
 .text.pbuf_take_at
                0x60055a20       0xec ./lwip/src/core/pbuf.o
                0x60055a20                pbuf_take_at
 .text.pbuf_clone
                0x60055b0c       0x5c ./lwip/src/core/pbuf.o
                0x60055b0c                pbuf_clone
 .text.stats_init
                0x60055b68       0x14 ./lwip/src/core/stats.o
                0x60055b68                stats_init
 .text.tcp_init
                0x60055b7c       0x24 ./lwip/src/core/tcp.o
                0x60055b7c                tcp_init
 .text.tcp_free
                0x60055ba0       0x28 ./lwip/src/core/tcp.o
                0x60055ba0                tcp_free
 .text.tcp_free_listen
                0x60055bc8       0x28 ./lwip/src/core/tcp.o
 .text.tcp_tmr  0x60055bf0       0x2c ./lwip/src/core/tcp.o
                0x60055bf0                tcp_tmr
 .text.tcp_remove_listener
                0x60055c1c       0x44 ./lwip/src/core/tcp.o
 .text.tcp_listen_closed
                0x60055c60       0x5c ./lwip/src/core/tcp.o
 .text.tcp_backlog_delayed
                0x60055cbc       0x60 ./lwip/src/core/tcp.o
                0x60055cbc                tcp_backlog_delayed
 .text.tcp_backlog_accepted
                0x60055d1c       0x60 ./lwip/src/core/tcp.o
                0x60055d1c                tcp_backlog_accepted
 .text.tcp_close_shutdown
                0x60055d7c      0x1ac ./lwip/src/core/tcp.o
 .text.tcp_close_shutdown_fin
                0x60055f28       0xcc ./lwip/src/core/tcp.o
 .text.tcp_close
                0x60055ff4       0x50 ./lwip/src/core/tcp.o
                0x60055ff4                tcp_close
 .text.tcp_shutdown
                0x60056044       0xb0 ./lwip/src/core/tcp.o
                0x60056044                tcp_shutdown
 .text.tcp_abandon
                0x600560f4      0x168 ./lwip/src/core/tcp.o
                0x600560f4                tcp_abandon
 .text.tcp_bind
                0x6005625c      0x134 ./lwip/src/core/tcp.o
                0x6005625c                tcp_bind
 .text.tcp_accept_null
                0x60056390       0x30 ./lwip/src/core/tcp.o
 .text.tcp_listen_with_backlog_and_err
                0x600563c0      0x184 ./lwip/src/core/tcp.o
                0x600563c0                tcp_listen_with_backlog_and_err
 .text.tcp_update_rcv_ann_wnd
                0x60056544       0x98 ./lwip/src/core/tcp.o
                0x60056544                tcp_update_rcv_ann_wnd
 .text.tcp_recved
                0x600565dc       0xa0 ./lwip/src/core/tcp.o
                0x600565dc                tcp_recved
 .text.tcp_new_port
                0x6005667c       0x9c ./lwip/src/core/tcp.o
 .text.tcp_slowtmr
                0x60056718      0x5f4 ./lwip/src/core/tcp.o
                0x60056718                tcp_slowtmr
 .text.tcp_fasttmr
                0x60056d0c       0xc8 ./lwip/src/core/tcp.o
                0x60056d0c                tcp_fasttmr
 .text.tcp_process_refused_data
                0x60056dd4       0xfc ./lwip/src/core/tcp.o
                0x60056dd4                tcp_process_refused_data
 .text.tcp_recv_null
                0x60056ed0       0x64 ./lwip/src/core/tcp.o
                0x60056ed0                tcp_recv_null
 .text.tcp_kill_prio
                0x60056f34       0xac ./lwip/src/core/tcp.o
 .text.tcp_kill_state
                0x60056fe0       0x8c ./lwip/src/core/tcp.o
 .text.tcp_kill_timewait
                0x6005706c       0x5c ./lwip/src/core/tcp.o
 .text.tcp_handle_closepend
                0x600570c8       0x4c ./lwip/src/core/tcp.o
 .text.tcp_alloc
                0x60057114      0x160 ./lwip/src/core/tcp.o
                0x60057114                tcp_alloc
 .text.tcp_recv
                0x60057274       0x30 ./lwip/src/core/tcp.o
                0x60057274                tcp_recv
 .text.tcp_sent
                0x600572a4       0x30 ./lwip/src/core/tcp.o
                0x600572a4                tcp_sent
 .text.tcp_err  0x600572d4       0x30 ./lwip/src/core/tcp.o
                0x600572d4                tcp_err
 .text.tcp_poll
                0x60057304       0x54 ./lwip/src/core/tcp.o
                0x60057304                tcp_poll
 .text.tcp_pcb_purge
                0x60057358       0x90 ./lwip/src/core/tcp.o
                0x60057358                tcp_pcb_purge
 .text.tcp_pcb_remove
                0x600573e8       0xe4 ./lwip/src/core/tcp.o
                0x600573e8                tcp_pcb_remove
 .text.tcp_next_iss
                0x600574cc       0x38 ./lwip/src/core/tcp.o
                0x600574cc                tcp_next_iss
 .text.tcp_eff_send_mss_netif
                0x60057504       0x80 ./lwip/src/core/tcp.o
                0x60057504                tcp_eff_send_mss_netif
 .text.tcp_netif_ip_addr_changed_pcblist
                0x60057584       0x54 ./lwip/src/core/tcp.o
 .text.tcp_netif_ip_addr_changed
                0x600575d8       0x78 ./lwip/src/core/tcp.o
                0x600575d8                tcp_netif_ip_addr_changed
 .text.tcp_input
                0x60057650      0x8d4 ./lwip/src/core/tcp_in.o
                0x60057650                tcp_input
 .text.tcp_input_delayed_close
                0x60057f24       0x70 ./lwip/src/core/tcp_in.o
 .text.tcp_listen_input
                0x60057f94      0x22c ./lwip/src/core/tcp_in.o
 .text.tcp_timewait_input
                0x600581c0       0xe4 ./lwip/src/core/tcp_in.o
 .text.tcp_process
                0x600582a4      0x7c0 ./lwip/src/core/tcp_in.o
 .text.tcp_free_acked_segments
                0x60058a64       0xe4 ./lwip/src/core/tcp_in.o
 .text.tcp_receive
                0x60058b48      0x8a4 ./lwip/src/core/tcp_in.o
 .text.tcp_get_next_optbyte
                0x600593ec       0x70 ./lwip/src/core/tcp_in.o
 .text.tcp_parseopt
                0x6005945c       0xf0 ./lwip/src/core/tcp_in.o
 .text.tcp_trigger_input_pcb_close
                0x6005954c       0x18 ./lwip/src/core/tcp_in.o
                0x6005954c                tcp_trigger_input_pcb_close
 .text.tcp_create_segment
                0x60059564      0x144 ./lwip/src/core/tcp_out.o
 .text.tcp_pbuf_prealloc
                0x600596a8       0xa4 ./lwip/src/core/tcp_out.o
 .text.tcp_write_checks
                0x6005974c       0xec ./lwip/src/core/tcp_out.o
 .text.tcp_write
                0x60059838      0x63c ./lwip/src/core/tcp_out.o
                0x60059838                tcp_write
 .text.tcp_split_unsent_seg
                0x60059e74      0x2bc ./lwip/src/core/tcp_out.o
                0x60059e74                tcp_split_unsent_seg
 .text.tcp_send_fin
                0x6005a130       0x8c ./lwip/src/core/tcp_out.o
                0x6005a130                tcp_send_fin
 .text.tcp_enqueue_flags
                0x6005a1bc      0x1e4 ./lwip/src/core/tcp_out.o
                0x6005a1bc                tcp_enqueue_flags
 .text.tcp_output
                0x6005a3a0      0x3c8 ./lwip/src/core/tcp_out.o
                0x6005a3a0                tcp_output
 .text.tcp_output_segment_busy
                0x6005a768       0x30 ./lwip/src/core/tcp_out.o
 .text.tcp_output_segment
                0x6005a798      0x1d4 ./lwip/src/core/tcp_out.o
 .text.tcp_rexmit_rto_prepare
                0x6005a96c       0xe0 ./lwip/src/core/tcp_out.o
                0x6005a96c                tcp_rexmit_rto_prepare
 .text.tcp_rexmit_rto_commit
                0x6005aa4c       0x40 ./lwip/src/core/tcp_out.o
                0x6005aa4c                tcp_rexmit_rto_commit
 .text.tcp_rexmit_rto
                0x6005aa8c       0x30 ./lwip/src/core/tcp_out.o
                0x6005aa8c                tcp_rexmit_rto
 .text.tcp_rexmit
                0x6005aabc       0xc4 ./lwip/src/core/tcp_out.o
                0x6005aabc                tcp_rexmit
 .text.tcp_rexmit_fast
                0x6005ab80       0xb4 ./lwip/src/core/tcp_out.o
                0x6005ab80                tcp_rexmit_fast
 .text.tcp_output_alloc_header_common
                0x6005ac34       0xe4 ./lwip/src/core/tcp_out.o
 .text.tcp_output_alloc_header
                0x6005ad18       0x70 ./lwip/src/core/tcp_out.o
 .text.tcp_output_fill_options
                0x6005ad88       0x70 ./lwip/src/core/tcp_out.o
 .text.tcp_output_control_segment
                0x6005adf8       0xc4 ./lwip/src/core/tcp_out.o
 .text.tcp_rst  0x6005aebc       0x94 ./lwip/src/core/tcp_out.o
                0x6005aebc                tcp_rst
 .text.tcp_send_empty_ack
                0x6005af50       0xc0 ./lwip/src/core/tcp_out.o
                0x6005af50                tcp_send_empty_ack
 .text.tcp_keepalive
                0x6005b010       0x74 ./lwip/src/core/tcp_out.o
                0x6005b010                tcp_keepalive
 .text.tcp_zero_window_probe
                0x6005b084      0x14c ./lwip/src/core/tcp_out.o
                0x6005b084                tcp_zero_window_probe
 .text.tcpip_tcp_timer
                0x6005b1d0       0x48 ./lwip/src/core/timeouts.o
 .text.tcp_timer_needed
                0x6005b218       0x40 ./lwip/src/core/timeouts.o
                0x6005b218                tcp_timer_needed
 .text.sys_timeout_abs
                0x6005b258       0xcc ./lwip/src/core/timeouts.o
 .text.lwip_cyclic_timer
                0x6005b324       0x64 ./lwip/src/core/timeouts.o
 .text.sys_timeouts_init
                0x6005b388       0x40 ./lwip/src/core/timeouts.o
                0x6005b388                sys_timeouts_init
 .text.sys_timeout
                0x6005b3c8       0x3c ./lwip/src/core/timeouts.o
                0x6005b3c8                sys_timeout
 .text.sys_check_timeouts
                0x6005b404       0x70 ./lwip/src/core/timeouts.o
                0x6005b404                sys_check_timeouts
 .text.sys_timeouts_sleeptime
                0x6005b474       0x5c ./lwip/src/core/timeouts.o
                0x6005b474                sys_timeouts_sleeptime
 .text.udp_init
                0x6005b4d0       0x24 ./lwip/src/core/udp.o
                0x6005b4d0                udp_init
 .text.udp_new_port
                0x6005b4f4       0x70 ./lwip/src/core/udp.o
 .text.udp_input_local_match
                0x6005b564       0xb4 ./lwip/src/core/udp.o
 .text.udp_input
                0x6005b618      0x2ec ./lwip/src/core/udp.o
                0x6005b618                udp_input
 .text.udp_send
                0x6005b904       0x60 ./lwip/src/core/udp.o
                0x6005b904                udp_send
 .text.udp_sendto
                0x6005b964       0xc4 ./lwip/src/core/udp.o
                0x6005b964                udp_sendto
 .text.udp_sendto_if
                0x6005ba28       0xe0 ./lwip/src/core/udp.o
                0x6005ba28                udp_sendto_if
 .text.udp_sendto_if_src
                0x6005bb08      0x214 ./lwip/src/core/udp.o
                0x6005bb08                udp_sendto_if_src
 .text.udp_bind
                0x6005bd1c      0x11c ./lwip/src/core/udp.o
                0x6005bd1c                udp_bind
 .text.udp_connect
                0x6005be38       0xd8 ./lwip/src/core/udp.o
                0x6005be38                udp_connect
 .text.udp_recv
                0x6005bf10       0x38 ./lwip/src/core/udp.o
                0x6005bf10                udp_recv
 .text.udp_remove
                0x6005bf48       0x7c ./lwip/src/core/udp.o
                0x6005bf48                udp_remove
 .text.udp_netif_ip_addr_changed
                0x6005bfc4       0x54 ./lwip/src/core/udp.o
                0x6005bfc4                udp_netif_ip_addr_changed
 .text.netconn_new_with_proto_and_callback
                0x6005c018       0xc0 ./lwip/src/api/api_lib.o
                0x6005c018                netconn_new_with_proto_and_callback
 .text.netconn_prepare_delete
                0x6005c0d8       0x48 ./lwip/src/api/api_lib.o
                0x6005c0d8                netconn_prepare_delete
 .text.netconn_getaddr
                0x6005c120       0x9c ./lwip/src/api/api_lib.o
                0x6005c120                netconn_getaddr
 .text.netconn_bind
                0x6005c1bc       0x6c ./lwip/src/api/api_lib.o
                0x6005c1bc                netconn_bind
 .text.netconn_listen_with_backlog
                0x6005c228       0x58 ./lwip/src/api/api_lib.o
                0x6005c228                netconn_listen_with_backlog
 .text.netconn_accept
                0x6005c280      0x12c ./lwip/src/api/api_lib.o
                0x6005c280                netconn_accept
 .text.netconn_recv_data
                0x6005c3ac      0x198 ./lwip/src/api/api_lib.o
 .text.netconn_tcp_recvd_msg
                0x6005c544       0x58 ./lwip/src/api/api_lib.o
 .text.netconn_tcp_recvd
                0x6005c59c       0x54 ./lwip/src/api/api_lib.o
                0x6005c59c                netconn_tcp_recvd
 .text.netconn_recv_tcp_pbuf_flags
                0x6005c5f0       0x54 ./lwip/src/api/api_lib.o
                0x6005c5f0                netconn_recv_tcp_pbuf_flags
 .text.netconn_recv_udp_raw_netbuf_flags
                0x6005c644       0x54 ./lwip/src/api/api_lib.o
                0x6005c644                netconn_recv_udp_raw_netbuf_flags
 .text.netconn_send
                0x6005c698       0x50 ./lwip/src/api/api_lib.o
                0x6005c698                netconn_send
 .text.netconn_write_vectors_partly
                0x6005c6e8      0x190 ./lwip/src/api/api_lib.o
                0x6005c6e8                netconn_write_vectors_partly
 .text.netconn_close_shutdown
                0x6005c878       0x60 ./lwip/src/api/api_lib.o
 .text.lwip_netconn_err_to_msg
                0x6005c8d8       0x5c ./lwip/src/api/api_msg.o
 .text.lwip_netconn_is_err_msg
                0x6005c934       0x64 ./lwip/src/api/api_msg.o
                0x6005c934                lwip_netconn_is_err_msg
 .text.recv_udp
                0x6005c998       0xdc ./lwip/src/api/api_msg.o
 .text.recv_tcp
                0x6005ca74       0xe4 ./lwip/src/api/api_msg.o
 .text.poll_tcp
                0x6005cb58       0xa0 ./lwip/src/api/api_msg.o
 .text.sent_tcp
                0x6005cbf8       0xa0 ./lwip/src/api/api_msg.o
 .text.err_tcp  0x6005cc98      0x188 ./lwip/src/api/api_msg.o
 .text.setup_tcp
                0x6005ce20       0x50 ./lwip/src/api/api_msg.o
 .text.accept_function
                0x6005ce70      0x160 ./lwip/src/api/api_msg.o
 .text.pcb_new  0x6005cfd0       0xc4 ./lwip/src/api/api_msg.o
 .text.netconn_alloc
                0x6005d094       0xe0 ./lwip/src/api/api_msg.o
                0x6005d094                netconn_alloc
 .text.netconn_free
                0x6005d174       0x5c ./lwip/src/api/api_msg.o
                0x6005d174                netconn_free
 .text.lwip_netconn_do_close_internal
                0x6005d1d0      0x2f4 ./lwip/src/api/api_msg.o
 .text.lwip_netconn_do_delconn
                0x6005d4c4      0x19c ./lwip/src/api/api_msg.o
                0x6005d4c4                lwip_netconn_do_delconn
 .text.lwip_netconn_do_listen
                0x6005d660      0x160 ./lwip/src/api/api_msg.o
                0x6005d660                lwip_netconn_do_listen
 .text.lwip_netconn_do_writemore
                0x6005d7c0      0x404 ./lwip/src/api/api_msg.o
 .text.lwip_netconn_do_write
                0x6005dbc4       0xf8 ./lwip/src/api/api_msg.o
                0x6005dbc4                lwip_netconn_do_write
 .text.lwip_netconn_do_getaddr
                0x6005dcbc       0xf8 ./lwip/src/api/api_msg.o
                0x6005dcbc                lwip_netconn_do_getaddr
 .text.lwip_netconn_do_close
                0x6005ddb4       0xfc ./lwip/src/api/api_msg.o
                0x6005ddb4                lwip_netconn_do_close
 .text.err_to_errno
                0x6005deb0       0x34 ./lwip/src/api/err.o
                0x6005deb0                err_to_errno
 .text.netbuf_alloc
                0x6005dee4       0x8c ./lwip/src/api/netbuf.o
                0x6005dee4                netbuf_alloc
 .text.netbuf_free
                0x6005df70       0x48 ./lwip/src/api/netbuf.o
                0x6005df70                netbuf_free
 .text.tryget_socket_unconn_nouse
                0x6005dfb8       0x2c ./lwip/src/api/sockets.o
 .text.get_socket
                0x6005dfe4       0x2c ./lwip/src/api/sockets.o
 .text.alloc_socket
                0x6005e010       0xc8 ./lwip/src/api/sockets.o
 .text.lwip_accept
                0x6005e0d8      0x1f4 ./lwip/src/api/sockets.o
                0x6005e0d8                lwip_accept
 .text.lwip_bind
                0x6005e2cc       0xd4 ./lwip/src/api/sockets.o
                0x6005e2cc                lwip_bind
 .text.lwip_close
                0x6005e3a0       0xa4 ./lwip/src/api/sockets.o
                0x6005e3a0                lwip_close
 .text.lwip_listen
                0x6005e444       0x98 ./lwip/src/api/sockets.o
                0x6005e444                lwip_listen
 .text.lwip_recv_tcp
                0x6005e4dc      0x1f8 ./lwip/src/api/sockets.o
 .text.lwip_sock_make_addr
                0x6005e6d4       0xb4 ./lwip/src/api/sockets.o
 .text.lwip_recvfrom_udp_raw
                0x6005e788      0x1bc ./lwip/src/api/sockets.o
 .text.lwip_recvfrom
                0x6005e944      0x11c ./lwip/src/api/sockets.o
                0x6005e944                lwip_recvfrom
 .text.lwip_send
                0x6005ea60       0xc8 ./lwip/src/api/sockets.o
                0x6005ea60                lwip_send
 .text.lwip_sendto
                0x6005eb28      0x184 ./lwip/src/api/sockets.o
                0x6005eb28                lwip_sendto
 .text.lwip_socket
                0x6005ecac       0xb8 ./lwip/src/api/sockets.o
                0x6005ecac                lwip_socket
 .text.lwip_link_select_cb
                0x6005ed64       0x40 ./lwip/src/api/sockets.o
 .text.lwip_unlink_select_cb
                0x6005eda4       0x78 ./lwip/src/api/sockets.o
 .text.lwip_selscan
                0x6005ee1c      0x314 ./lwip/src/api/sockets.o
 .text.lwip_select
                0x6005f130      0x3e0 ./lwip/src/api/sockets.o
                0x6005f130                lwip_select
 .text.event_callback
                0x6005f510      0x16c ./lwip/src/api/sockets.o
 .text.select_check_waiters
                0x6005f67c      0x144 ./lwip/src/api/sockets.o
 .text.tcpip_timeouts_mbox_fetch
                0x6005f7c0       0x6c ./lwip/src/api/tcpip.o
 .text.tcpip_thread
                0x6005f82c       0x58 ./lwip/src/api/tcpip.o
 .text.tcpip_thread_handle_msg
                0x6005f884       0x80 ./lwip/src/api/tcpip.o
 .text.tcpip_inpkt
                0x6005f904       0x74 ./lwip/src/api/tcpip.o
                0x6005f904                tcpip_inpkt
 .text.tcpip_input
                0x6005f978       0x40 ./lwip/src/api/tcpip.o
                0x6005f978                tcpip_input
 .text.tcpip_send_msg_wait_sem
                0x6005f9b8       0x2c ./lwip/src/api/tcpip.o
                0x6005f9b8                tcpip_send_msg_wait_sem
 .text.tcpip_init
                0x6005f9e4       0x78 ./lwip/src/api/tcpip.o
                0x6005f9e4                tcpip_init
 .text.sys_assert
                0x6005fa5c       0x1c ./lwip/port/sys_arch.o
                0x6005fa5c                sys_assert
 .text.lwip_rand
                0x6005fa78       0x2c ./lwip/port/sys_arch.o
                0x6005fa78                lwip_rand
 .text.sys_mbox_new
                0x6005faa4       0x6c ./lwip/port/sys_arch.o
                0x6005faa4                sys_mbox_new
 .text.sys_mbox_free
                0x6005fb10       0x50 ./lwip/port/sys_arch.o
                0x6005fb10                sys_mbox_free
 .text.sys_mbox_trypost
                0x6005fb60       0xa0 ./lwip/port/sys_arch.o
                0x6005fb60                sys_mbox_trypost
 .text.sys_sem_new
                0x6005fc00       0xb4 ./lwip/port/sys_arch.o
                0x6005fc00                sys_sem_new
 .text.sys_mutex_new
                0x6005fcb4       0x74 ./lwip/port/sys_arch.o
                0x6005fcb4                sys_mutex_new
 .text.sys_sem_free
                0x6005fd28       0x2c ./lwip/port/sys_arch.o
                0x6005fd28                sys_sem_free
 .text.sys_thread_new
                0x6005fd54       0x60 ./lwip/port/sys_arch.o
                0x6005fd54                sys_thread_new
 .text.pvPortMalloc
                0x6005fdb4      0x13c ./freertos/freertos_kernel/portable/MemMang/heap_4.o
                0x6005fdb4                pvPortMalloc
 .text.vPortFree
                0x6005fef0       0x80 ./freertos/freertos_kernel/portable/MemMang/heap_4.o
                0x6005fef0                vPortFree
 .text.prvHeapInit
                0x6005ff70       0xbc ./freertos/freertos_kernel/portable/MemMang/heap_4.o
 .text.prvInsertBlockIntoFreeList
                0x6006002c       0xa8 ./freertos/freertos_kernel/portable/MemMang/heap_4.o
 .text.prvPortStartFirstTask
                0x600600d4       0x28 ./freertos/freertos_kernel/portable/GCC/ARM_CM4F/port.o
 .text.xPortStartScheduler
                0x600600fc       0xdc ./freertos/freertos_kernel/portable/GCC/ARM_CM4F/port.o
                0x600600fc                xPortStartScheduler
 .text.vPortEnterCritical
                0x600601d8       0x2c ./freertos/freertos_kernel/portable/GCC/ARM_CM4F/port.o
                0x600601d8                vPortEnterCritical
 .text.vPortExitCritical
                0x60060204       0x2c ./freertos/freertos_kernel/portable/GCC/ARM_CM4F/port.o
                0x60060204                vPortExitCritical
 .text.SysTick_Handler
                0x60060230       0x44 ./freertos/freertos_kernel/portable/GCC/ARM_CM4F/port.o
                0x60060230                SysTick_Handler
 .text.vPortSetupTimerInterrupt
                0x60060274       0x3c ./freertos/freertos_kernel/portable/GCC/ARM_CM4F/port.o
                0x60060274                vPortSetupTimerInterrupt
 .text.vPortEnableVFP
                0x600602b0       0x14 ./freertos/freertos_kernel/portable/GCC/ARM_CM4F/port.o
 .text.vPortValidateInterruptPriority
                0x600602c4       0x24 ./freertos/freertos_kernel/portable/GCC/ARM_CM4F/port.o
                0x600602c4                vPortValidateInterruptPriority
 .text.xEventGroupWaitBits
                0x600602e8      0x114 ./freertos/freertos_kernel/event_groups.o
                0x600602e8                xEventGroupWaitBits
 .text.xEventGroupClearBitsFromISR
                0x600603fc       0x24 ./freertos/freertos_kernel/event_groups.o
                0x600603fc                xEventGroupClearBitsFromISR
 .text.xEventGroupSetBitsFromISR
                0x60060420       0x28 ./freertos/freertos_kernel/event_groups.o
                0x60060420                xEventGroupSetBitsFromISR
 .text.xQueueGenericReset
                0x60060448       0xb4 ./freertos/freertos_kernel/queue.o
                0x60060448                xQueueGenericReset
 .text.xQueueGenericSend
                0x600604fc      0x150 ./freertos/freertos_kernel/queue.o
                0x600604fc                xQueueGenericSend
 .text.xQueueReceive
                0x6006064c      0x140 ./freertos/freertos_kernel/queue.o
                0x6006064c                xQueueReceive
 .text.xQueueSemaphoreTake
                0x6006078c      0x190 ./freertos/freertos_kernel/queue.o
                0x6006078c                xQueueSemaphoreTake
 .text.vQueueAddToRegistry
                0x6006091c       0x48 ./freertos/freertos_kernel/queue.o
                0x6006091c                vQueueAddToRegistry
 .text.vQueueUnregisterQueue
                0x60060964       0x4c ./freertos/freertos_kernel/queue.o
                0x60060964                vQueueUnregisterQueue
 .text.prvAddNewTaskToReadyList
                0x600609b0       0xdc ./freertos/freertos_kernel/tasks.o
 .text.vTaskDelete
                0x60060a8c       0xc0 ./freertos/freertos_kernel/tasks.o
                0x60060a8c                vTaskDelete
 .text.vTaskDelay
                0x60060b4c       0x44 ./freertos/freertos_kernel/tasks.o
                0x60060b4c                vTaskDelay
 .text.vTaskSuspend
                0x60060b90       0xc8 ./freertos/freertos_kernel/tasks.o
                0x60060b90                vTaskSuspend
 .text.prvTaskIsTaskSuspended
                0x60060c58       0x3c ./freertos/freertos_kernel/tasks.o
 .text.vTaskResume
                0x60060c94       0xa0 ./freertos/freertos_kernel/tasks.o
                0x60060c94                vTaskResume
 .text.vTaskStartScheduler
                0x60060d34       0xa8 ./freertos/freertos_kernel/tasks.o
                0x60060d34                vTaskStartScheduler
 .text.vTaskSuspendAll
                0x60060ddc       0x14 ./freertos/freertos_kernel/tasks.o
                0x60060ddc                vTaskSuspendAll
 .text.xTaskResumeAll
                0x60060df0      0x11c ./freertos/freertos_kernel/tasks.o
                0x60060df0                xTaskResumeAll
 .text.xTaskGetTickCount
                0x60060f0c       0x14 ./freertos/freertos_kernel/tasks.o
                0x60060f0c                xTaskGetTickCount
 .text.pcTaskGetName
                0x60060f20       0x24 ./freertos/freertos_kernel/tasks.o
                0x60060f20                pcTaskGetName
 .text.xTaskIncrementTick
                0x60060f44      0x150 ./freertos/freertos_kernel/tasks.o
                0x60060f44                xTaskIncrementTick
 .text.vTaskSwitchContext
                0x60061094       0xe8 ./freertos/freertos_kernel/tasks.o
                0x60061094                vTaskSwitchContext
 .text.vTaskPlaceOnEventList
                0x6006117c       0x2c ./freertos/freertos_kernel/tasks.o
                0x6006117c                vTaskPlaceOnEventList
 .text.vTaskPlaceOnUnorderedEventList
                0x600611a8       0x38 ./freertos/freertos_kernel/tasks.o
                0x600611a8                vTaskPlaceOnUnorderedEventList
 .text.vTaskPlaceOnEventListRestricted
                0x600611e0       0x38 ./freertos/freertos_kernel/tasks.o
                0x600611e0                vTaskPlaceOnEventListRestricted
 .text.xTaskRemoveFromEventList
                0x60061218       0xa8 ./freertos/freertos_kernel/tasks.o
                0x60061218                xTaskRemoveFromEventList
 .text.vTaskRemoveFromUnorderedEventList
                0x600612c0       0x84 ./freertos/freertos_kernel/tasks.o
                0x600612c0                vTaskRemoveFromUnorderedEventList
 .text.vTaskInternalSetTimeOutState
                0x60061344       0x24 ./freertos/freertos_kernel/tasks.o
                0x60061344                vTaskInternalSetTimeOutState
 .text.xTaskCheckForTimeOut
                0x60061368       0x8c ./freertos/freertos_kernel/tasks.o
                0x60061368                xTaskCheckForTimeOut
 .text.vTaskMissedYield
                0x600613f4       0x10 ./freertos/freertos_kernel/tasks.o
                0x600613f4                vTaskMissedYield
 .text.prvIdleTask
                0x60061404       0x2c ./freertos/freertos_kernel/tasks.o
 .text.prvInitialiseTaskLists
                0x60061430       0x7c ./freertos/freertos_kernel/tasks.o
 .text.prvCheckTasksWaitingTermination
                0x600614ac       0x58 ./freertos/freertos_kernel/tasks.o
 .text.prvResetNextTaskUnblockTime
                0x60061504       0x38 ./freertos/freertos_kernel/tasks.o
 .text.xTaskGetSchedulerState
                0x6006153c       0x34 ./freertos/freertos_kernel/tasks.o
                0x6006153c                xTaskGetSchedulerState
 .text.xTaskPriorityInherit
                0x60061570       0xd0 ./freertos/freertos_kernel/tasks.o
                0x60061570                xTaskPriorityInherit
 .text.xTaskPriorityDisinherit
                0x60061640       0x98 ./freertos/freertos_kernel/tasks.o
                0x60061640                xTaskPriorityDisinherit
 .text.vTaskPriorityDisinheritAfterTimeout
                0x600616d8       0xc0 ./freertos/freertos_kernel/tasks.o
                0x600616d8                vTaskPriorityDisinheritAfterTimeout
 .text.uxTaskResetEventItemValue
                0x60061798       0x28 ./freertos/freertos_kernel/tasks.o
                0x60061798                uxTaskResetEventItemValue
 .text.pvTaskIncrementMutexHeldCount
                0x600617c0       0x20 ./freertos/freertos_kernel/tasks.o
                0x600617c0                pvTaskIncrementMutexHeldCount
 .text.prvAddCurrentTaskToDelayedList
                0x600617e0       0xa8 ./freertos/freertos_kernel/tasks.o
 .text.xTimerCreateTimerTask
                0x60061888       0x70 ./freertos/freertos_kernel/timers.o
                0x60061888                xTimerCreateTimerTask
 .text.xTimerGenericCommand
                0x600618f8       0x78 ./freertos/freertos_kernel/timers.o
                0x600618f8                xTimerGenericCommand
 .text.prvProcessExpiredTimer
                0x60061970       0x7c ./freertos/freertos_kernel/timers.o
 .text.prvProcessTimerOrBlockTask
                0x600619ec       0x98 ./freertos/freertos_kernel/timers.o
 .text.prvGetNextExpireTime
                0x60061a84       0x3c ./freertos/freertos_kernel/timers.o
 .text.prvSampleTimeNow
                0x60061ac0       0x3c ./freertos/freertos_kernel/timers.o
 .text.prvInsertTimerInActiveList
                0x60061afc       0x84 ./freertos/freertos_kernel/timers.o
 .text.prvProcessReceivedCommands
                0x60061b80      0x16c ./freertos/freertos_kernel/timers.o
 .text.prvSwitchTimerLists
                0x60061cec       0xac ./freertos/freertos_kernel/timers.o
 .text.prvCheckForValidListAndQueue
                0x60061d98       0x80 ./freertos/freertos_kernel/timers.o
 .text.xTimerPendFunctionCallFromISR
                0x60061e18       0x3c ./freertos/freertos_kernel/timers.o
                0x60061e18                xTimerPendFunctionCallFromISR
 .text.CLOCK_GetOscFreq
                0x60061e54       0x28 ./drivers/fsl_clock.o
 .text.CLOCK_GetPeriphClkFreq
                0x60061e7c       0xe8 ./drivers/fsl_clock.o
 .text.CLOCK_InitExternalClk
                0x60061f64       0x6c ./drivers/fsl_clock.o
                0x60061f64                CLOCK_InitExternalClk
 .text.CLOCK_SwitchOsc
                0x60061fd0       0x2c ./drivers/fsl_clock.o
                0x60061fd0                CLOCK_SwitchOsc
 .text.CLOCK_InitRcOsc24M
                0x60061ffc       0x18 ./drivers/fsl_clock.o
                0x60061ffc                CLOCK_InitRcOsc24M
 .text.CLOCK_GetAhbFreq
                0x60062014       0x20 ./drivers/fsl_clock.o
                0x60062014                CLOCK_GetAhbFreq
 .text.CLOCK_GetSemcFreq
                0x60062034       0x58 ./drivers/fsl_clock.o
                0x60062034                CLOCK_GetSemcFreq
 .text.CLOCK_GetIpgFreq
                0x6006208c       0x20 ./drivers/fsl_clock.o
                0x6006208c                CLOCK_GetIpgFreq
 .text.CLOCK_GetPerClkFreq
                0x600620ac       0x40 ./drivers/fsl_clock.o
                0x600620ac                CLOCK_GetPerClkFreq
 .text.CLOCK_GetFreq
                0x600620ec      0x188 ./drivers/fsl_clock.o
                0x600620ec                CLOCK_GetFreq
 .text.CLOCK_EnableUsbhs0Clock
                0x60062274       0x74 ./drivers/fsl_clock.o
                0x60062274                CLOCK_EnableUsbhs0Clock
 .text.CLOCK_EnableUsbhs0PhyPllClock
                0x600622e8       0x70 ./drivers/fsl_clock.o
                0x600622e8                CLOCK_EnableUsbhs0PhyPllClock
 .text.CLOCK_InitArmPll
                0x60062358       0x5c ./drivers/fsl_clock.o
                0x60062358                CLOCK_InitArmPll
 .text.CLOCK_InitSysPll
                0x600623b4       0x94 ./drivers/fsl_clock.o
                0x600623b4                CLOCK_InitSysPll
 .text.CLOCK_InitUsb1Pll
                0x60062448       0x60 ./drivers/fsl_clock.o
                0x60062448                CLOCK_InitUsb1Pll
 .text.CLOCK_DeinitUsb2Pll
                0x600624a8       0x10 ./drivers/fsl_clock.o
                0x600624a8                CLOCK_DeinitUsb2Pll
 .text.CLOCK_DeinitAudioPll
                0x600624b8       0x10 ./drivers/fsl_clock.o
                0x600624b8                CLOCK_DeinitAudioPll
 .text.CLOCK_DeinitVideoPll
                0x600624c8       0x14 ./drivers/fsl_clock.o
                0x600624c8                CLOCK_DeinitVideoPll
 .text.CLOCK_InitEnetPll
                0x600624dc       0xa8 ./drivers/fsl_clock.o
                0x600624dc                CLOCK_InitEnetPll
 .text.CLOCK_GetPllFreq
                0x60062584      0x3e8 ./drivers/fsl_clock.o
                0x60062584                CLOCK_GetPllFreq
 .text.CLOCK_InitSysPfd
                0x6006296c       0x60 ./drivers/fsl_clock.o
                0x6006296c                CLOCK_InitSysPfd
 .text.CLOCK_GetSysPfdFreq
                0x600629cc       0xac ./drivers/fsl_clock.o
                0x600629cc                CLOCK_GetSysPfdFreq
 .text.CLOCK_GetUsb1PfdFreq
                0x60062a78       0xac ./drivers/fsl_clock.o
                0x60062a78                CLOCK_GetUsb1PfdFreq
 .text.SDK_DelayAtLeastUs
                0x60062b24       0x98 ./drivers/fsl_common.o
                0x60062b24                SDK_DelayAtLeastUs
 .text.CLOCK_ControlGate
                0x60062bbc       0x6c ./drivers/fsl_dcp.o
 .text.DCP_GetDefaultConfig
                0x60062c28       0x38 ./drivers/fsl_dcp.o
                0x60062c28                DCP_GetDefaultConfig
 .text.DCP_Init
                0x60062c60       0x78 ./drivers/fsl_dcp.o
                0x60062c60                DCP_Init
 .text.dcp_hash_save_running_hash
                0x60062cd8       0x80 ./drivers/fsl_dcp.o
 .text.dcp_hash_restore_running_hash
                0x60062d58       0x80 ./drivers/fsl_dcp.o
 .text.DCP_HASH_Finish
                0x60062dd8      0x108 ./drivers/fsl_dcp.o
                0x60062dd8                DCP_HASH_Finish
 .text.FLEXRAM_SetAllocateRamSrc
                0x60062ee0       0x34 ./drivers/fsl_flexram_allocate.o
 .text.FLEXRAM_SetTCMSize
                0x60062f14       0xd8 ./drivers/fsl_flexram_allocate.o
                0x60062f14                FLEXRAM_SetTCMSize
 .text.FLEXRAM_AllocateRam
                0x60062fec      0x10c ./drivers/fsl_flexram_allocate.o
                0x60062fec                FLEXRAM_AllocateRam
 .text.CLOCK_ControlGate
                0x600630f8       0x6c ./drivers/fsl_gpio.o
 .text.GPIO_GetInstance
                0x60063164       0x48 ./drivers/fsl_gpio.o
 .text.GPIO_PinInit
                0x600631ac       0xa0 ./drivers/fsl_gpio.o
                0x600631ac                GPIO_PinInit
 .text.GPIO_PinWrite
                0x6006324c       0x58 ./drivers/fsl_gpio.o
                0x6006324c                GPIO_PinWrite
 .text.GPIO_PinSetInterruptConfig
                0x600632a4       0xf8 ./drivers/fsl_gpio.o
                0x600632a4                GPIO_PinSetInterruptConfig
 .text.LPI2C_CommonIRQHandler
                0x6006339c       0x74 ./drivers/fsl_lpi2c.o
 .text.LPI2C1_DriverIRQHandler
                0x60063410       0x14 ./drivers/fsl_lpi2c.o
                0x60063410                LPI2C1_DriverIRQHandler
 .text.LPI2C2_DriverIRQHandler
                0x60063424       0x14 ./drivers/fsl_lpi2c.o
                0x60063424                LPI2C2_DriverIRQHandler
 .text.LPI2C3_DriverIRQHandler
                0x60063438       0x14 ./drivers/fsl_lpi2c.o
                0x60063438                LPI2C3_DriverIRQHandler
 .text.LPI2C4_DriverIRQHandler
                0x6006344c       0x14 ./drivers/fsl_lpi2c.o
                0x6006344c                LPI2C4_DriverIRQHandler
 .text.CLOCK_ControlGate
                0x60063460       0x6c ./drivers/fsl_lpuart.o
 .text.LPUART_GetInstance
                0x600634cc       0x48 ./drivers/fsl_lpuart.o
                0x600634cc                LPUART_GetInstance
 .text.LPUART_Init
                0x60063514      0x31c ./drivers/fsl_lpuart.o
                0x60063514                LPUART_Init
 .text.LPUART_Deinit
                0x60063830       0x70 ./drivers/fsl_lpuart.o
                0x60063830                LPUART_Deinit
 .text.LPUART_GetDefaultConfig
                0x600638a0       0x84 ./drivers/fsl_lpuart.o
                0x600638a0                LPUART_GetDefaultConfig
 .text.LPUART_GetEnabledInterrupts
                0x60063924       0x3c ./drivers/fsl_lpuart.o
                0x60063924                LPUART_GetEnabledInterrupts
 .text.LPUART_ClearStatusFlags
                0x60063960       0xa0 ./drivers/fsl_lpuart.o
                0x60063960                LPUART_ClearStatusFlags
 .text.LPUART_WriteBlocking
                0x60063a00       0x68 ./drivers/fsl_lpuart.o
                0x60063a00                LPUART_WriteBlocking
 .text.LPUART_ReadBlocking
                0x60063a68      0x168 ./drivers/fsl_lpuart.o
                0x60063a68                LPUART_ReadBlocking
 .text.CLOCK_ControlGate
                0x60063bd0       0x6c ./drivers/fsl_pwm.o
 .text.dutyCycleToReloadValue
                0x60063c3c       0x28 ./drivers/fsl_pwm.o
 .text.PWM_GetInstance
                0x60063c64       0x48 ./drivers/fsl_pwm.o
 .text.PWM_Init
                0x60063cac      0x2dc ./drivers/fsl_pwm.o
                0x60063cac                PWM_Init
 .text.PWM_GetDefaultConfig
                0x60063f88       0x64 ./drivers/fsl_pwm.o
                0x60063f88                PWM_GetDefaultConfig
 .text.PWM_SetupPwm
                0x60063fec      0x788 ./drivers/fsl_pwm.o
                0x60063fec                PWM_SetupPwm
 .text.PWM_UpdatePwmDutycycle
                0x60064774       0x74 ./drivers/fsl_pwm.o
                0x60064774                PWM_UpdatePwmDutycycle
 .text.PWM_UpdatePwmDutycycleHighAccuracy
                0x600647e8      0x3ac ./drivers/fsl_pwm.o
                0x600647e8                PWM_UpdatePwmDutycycleHighAccuracy
 .text.CLOCK_ControlGate
                0x60064b94       0x6c ./drivers/fsl_trng.o
 .text.trng_GetInstance
                0x60064c00       0x44 ./drivers/fsl_trng.o
 .text.trng_SetMonobitLimit
                0x60064c44       0x50 ./drivers/fsl_trng.o
 .text.trng_SetRunBit1Limit
                0x60064c94       0x60 ./drivers/fsl_trng.o
 .text.trng_SetRunBit2Limit
                0x60064cf4       0x60 ./drivers/fsl_trng.o
 .text.trng_SetRunBit3Limit
                0x60064d54       0x60 ./drivers/fsl_trng.o
 .text.trng_SetRunBit4Limit
                0x60064db4       0x60 ./drivers/fsl_trng.o
 .text.trng_SetRunBit5Limit
                0x60064e14       0x60 ./drivers/fsl_trng.o
 .text.trng_SetRunBit6Limit
                0x60064e74       0x60 ./drivers/fsl_trng.o
 .text.trng_SetPokerMaxLimit
                0x60064ed4       0x54 ./drivers/fsl_trng.o
 .text.trng_SetFrequencyCountMaxLimit
                0x60064f28       0x58 ./drivers/fsl_trng.o
 .text.trng_ApplyUserConfig
                0x60064f80      0x18c ./drivers/fsl_trng.o
 .text.__NVIC_EnableIRQ
                0x6006510c       0x34 ./drivers/fsl_usdhc.o
 .text.CLOCK_ControlGate
                0x60065140       0x6c ./drivers/fsl_usdhc.o
 .text.USDHC_GetInstance
                0x600651ac       0x54 ./drivers/fsl_usdhc.o
 .text.USDHC_ReceiveCommandResponse
                0x60065200       0xbc ./drivers/fsl_usdhc.o
 .text.USDHC_SendCommand
                0x600652bc      0x104 ./drivers/fsl_usdhc.o
                0x600652bc                USDHC_SendCommand
 .text.USDHC_Init
                0x600653c0      0x138 ./drivers/fsl_usdhc.o
                0x600653c0                USDHC_Init
 .text.USDHC_SetSdClock
                0x600654f8      0x194 ./drivers/fsl_usdhc.o
                0x600654f8                USDHC_SetSdClock
 .text.USDHC_SetADMA1Descriptor
                0x6006568c      0x180 ./drivers/fsl_usdhc.o
                0x6006568c                USDHC_SetADMA1Descriptor
 .text.USDHC_SetADMA2Descriptor
                0x6006580c      0x1e0 ./drivers/fsl_usdhc.o
                0x6006580c                USDHC_SetADMA2Descriptor
 .text.USDHC_SetInternalDmaConfig
                0x600659ec       0xd4 ./drivers/fsl_usdhc.o
                0x600659ec                USDHC_SetInternalDmaConfig
 .text.USDHC_SetAdmaTableConfig
                0x60065ac0      0x100 ./drivers/fsl_usdhc.o
                0x60065ac0                USDHC_SetAdmaTableConfig
 .text.USDHC_TransferNonBlocking
                0x60065bc0      0x16c ./drivers/fsl_usdhc.o
                0x60065bc0                USDHC_TransferNonBlocking
 .text.USDHC_TransferHandleCommand
                0x60065d2c       0xa4 ./drivers/fsl_usdhc.o
 .text.USDHC_TransferHandleData
                0x60065dd0      0x110 ./drivers/fsl_usdhc.o
 .text.USDHC_TransferHandleReTuning
                0x60065ee0       0x3c ./drivers/fsl_usdhc.o
 .text.USDHC_TransferCreateHandle
                0x60065f1c       0xb0 ./drivers/fsl_usdhc.o
                0x60065f1c                USDHC_TransferCreateHandle
 .text.USDHC_TransferHandleIRQ
                0x60065fcc       0xb0 ./drivers/fsl_usdhc.o
                0x60065fcc                USDHC_TransferHandleIRQ
 .text.USDHC1_DriverIRQHandler
                0x6006607c       0x28 ./drivers/fsl_usdhc.o
                0x6006607c                USDHC1_DriverIRQHandler
 .text.USDHC2_DriverIRQHandler
                0x600660a4       0x28 ./drivers/fsl_usdhc.o
                0x600660a4                USDHC2_DriverIRQHandler
 .text.CLOCK_ControlGate
                0x600660cc       0x6c ./drivers/fsl_xbara.o
 .text.XBARA_GetInstance
                0x60066138       0x44 ./drivers/fsl_xbara.o
 .text.SystemInit
                0x6006617c      0x1d4 ./device/system_MIMXRT106S.o
                0x6006617c                SystemInit
 .text.__NVIC_EnableIRQ
                0x60066350       0x34 ./component/uart/lpuart_adapter.o
 .text.__NVIC_SetPriority
                0x60066384       0x50 ./component/uart/lpuart_adapter.o
 .text.HAL_UartInterruptHandle
                0x600663d4      0x174 ./component/uart/lpuart_adapter.o
 .text.HAL_UartInit
                0x60066548      0x14c ./component/uart/lpuart_adapter.o
                0x60066548                HAL_UartInit
 .text.HAL_UartDeinit
                0x60066694       0x50 ./component/uart/lpuart_adapter.o
                0x60066694                HAL_UartDeinit
 .text.HAL_UartInstallCallback
                0x600666e4       0x34 ./component/uart/lpuart_adapter.o
                0x600666e4                HAL_UartInstallCallback
 .text.HAL_UartReceiveNonBlocking
                0x60066718       0x84 ./component/uart/lpuart_adapter.o
                0x60066718                HAL_UartReceiveNonBlocking
 .text.HAL_UartSendNonBlocking
                0x6006679c       0x84 ./component/uart/lpuart_adapter.o
                0x6006679c                HAL_UartSendNonBlocking
 .text.HAL_UartAbortReceive
                0x60066820       0x50 ./component/uart/lpuart_adapter.o
                0x60066820                HAL_UartAbortReceive
 .text.HAL_UartAbortSend
                0x60066870       0x50 ./component/uart/lpuart_adapter.o
                0x60066870                HAL_UartAbortSend
 .text.HAL_UartIsrFunction
                0x600668c0       0x30 ./component/uart/lpuart_adapter.o
                0x600668c0                HAL_UartIsrFunction
 .text.SerialManager_TxCallback
                0x600668f0       0x8c ./component/serial_manager/serial_manager.o
 .text.SerialManager_RxCallback
                0x6006697c      0x244 ./component/serial_manager/serial_manager.o
 .text.SerialManager_Write
                0x60066bc0      0x144 ./component/serial_manager/serial_manager.o
 .text.SerialManager_Read
                0x60066d04      0x218 ./component/serial_manager/serial_manager.o
 .text.SerialManager_Init
                0x60066f1c       0xf8 ./component/serial_manager/serial_manager.o
                0x60066f1c                SerialManager_Init
 .text.SerialManager_Deinit
                0x60067014       0x64 ./component/serial_manager/serial_manager.o
                0x60067014                SerialManager_Deinit
 .text.SerialManager_OpenWriteHandle
                0x60067078       0x6c ./component/serial_manager/serial_manager.o
                0x60067078                SerialManager_OpenWriteHandle
 .text.SerialManager_CloseWriteHandle
                0x600670e4       0x80 ./component/serial_manager/serial_manager.o
                0x600670e4                SerialManager_CloseWriteHandle
 .text.SerialManager_OpenReadHandle
                0x60067164       0x7c ./component/serial_manager/serial_manager.o
                0x60067164                SerialManager_OpenReadHandle
 .text.SerialManager_CloseReadHandle
                0x600671e0       0x80 ./component/serial_manager/serial_manager.o
                0x600671e0                SerialManager_CloseReadHandle
 .text.SerialManager_CancelWriting
                0x60067260       0xec ./component/serial_manager/serial_manager.o
                0x60067260                SerialManager_CancelWriting
 .text.SerialManager_CancelReading
                0x6006734c       0x98 ./component/serial_manager/serial_manager.o
                0x6006734c                SerialManager_CancelReading
 .text.SerialManager_InstallTxCallback
                0x600673e4       0x4c ./component/serial_manager/serial_manager.o
                0x600673e4                SerialManager_InstallTxCallback
 .text.SerialManager_InstallRxCallback
                0x60067430       0x4c ./component/serial_manager/serial_manager.o
                0x60067430                SerialManager_InstallRxCallback
 .text.Serial_UartInit
                0x6006747c       0xd8 ./component/serial_manager/serial_port_uart.o
                0x6006747c                Serial_UartInit
 .text.Serial_UartDeinit
                0x60067554       0x44 ./component/serial_manager/serial_port_uart.o
                0x60067554                Serial_UartDeinit
 .text.Serial_UartWrite
                0x60067598       0x8c ./component/serial_manager/serial_port_uart.o
                0x60067598                Serial_UartWrite
 .text.Serial_UartCancelWrite
                0x60067624       0x7c ./component/serial_manager/serial_port_uart.o
                0x60067624                Serial_UartCancelWrite
 .text.Serial_UartInstallTxCallback
                0x600676a0       0x34 ./component/serial_manager/serial_port_uart.o
                0x600676a0                Serial_UartInstallTxCallback
 .text.Serial_UartInstallRxCallback
                0x600676d4       0x34 ./component/serial_manager/serial_port_uart.o
                0x600676d4                Serial_UartInstallRxCallback
 .text.Serial_UartIsrFunction
                0x60067708       0x2c ./component/serial_manager/serial_port_uart.o
                0x60067708                Serial_UartIsrFunction
 .text.OSA_TimeDelay
                0x60067734       0x30 ./component/osa/fsl_os_abstraction_free_rtos.o
                0x60067734                OSA_TimeDelay
 .text.OSA_EventCreate
                0x60067764       0x4c ./component/osa/fsl_os_abstraction_free_rtos.o
                0x60067764                OSA_EventCreate
 .text.OSA_EventSet
                0x600677b0       0x8c ./component/osa/fsl_os_abstraction_free_rtos.o
                0x600677b0                OSA_EventSet
 .text.OSA_EventClear
                0x6006783c       0x5c ./component/osa/fsl_os_abstraction_free_rtos.o
                0x6006783c                OSA_EventClear
 .text.OSA_EventGet
                0x60067898       0x74 ./component/osa/fsl_os_abstraction_free_rtos.o
                0x60067898                OSA_EventGet
 .text.OSA_EventWait
                0x6006790c       0xa0 ./component/osa/fsl_os_abstraction_free_rtos.o
                0x6006790c                OSA_EventWait
 .text.OSA_MsgQCreate
                0x600679ac       0x44 ./component/osa/fsl_os_abstraction_free_rtos.o
                0x600679ac                OSA_MsgQCreate
 .text.OSA_MsgQPut
                0x600679f0       0x98 ./component/osa/fsl_os_abstraction_free_rtos.o
                0x600679f0                OSA_MsgQPut
 .text.OSA_MsgQGet
                0x60067a88       0x74 ./component/osa/fsl_os_abstraction_free_rtos.o
                0x60067a88                OSA_MsgQGet
 .text.OSA_MsgQDestroy
                0x60067afc       0x2c ./component/osa/fsl_os_abstraction_free_rtos.o
                0x60067afc                OSA_MsgQDestroy
 .text.__NVIC_SystemReset
                0x60067b28       0x28 ./common/comms_handler/comms_message_handler.o
 .text.sendErrorStatus
                0x60067b50       0x64 ./common/comms_handler/comms_message_handler.o
 .text.parseCommsMessage
                0x60067bb4       0x64 ./common/comms_handler/comms_message_handler.o
 .text.SLN_COMMS_MESSAGE_Init
                0x60067c18       0x80 ./common/comms_handler/comms_message_handler.o
                0x60067c18                SLN_COMMS_MESSAGE_Init
 .text.SLN_COMMS_MESSAGE_Send
                0x60067c98       0x80 ./common/comms_handler/comms_message_handler.o
                0x60067c98                SLN_COMMS_MESSAGE_Send
 .text.__NVIC_SystemReset
                0x60067d18       0x28 ./common/comms_handler/comms_message_handler_fwupdate_common.o
 .text.processFwUpdateCommonReq
                0x60067d40       0x98 ./common/comms_handler/comms_message_handler_fwupdate_common.o
 .text.processFwUpdateStateReq
                0x60067dd8       0x90 ./common/comms_handler/comms_message_handler_fwupdate_common.o
 .text.handleClientFwUpdateStartReq
                0x60067e68       0xac ./common/comms_handler/comms_message_handler_fwupdate_common.o
 .text.processFwUpdateStartReq
                0x60067f14      0x3b8 ./common/comms_handler/comms_message_handler_fwupdate_common.o
 .text.processFwUpdateCleanReq
                0x600682cc       0xbc ./common/comms_handler/comms_message_handler_fwupdate_common.o
 .text.getCurrentFwUpdateJob
                0x60068388        0xc ./common/comms_handler/comms_message_handler_fwupdate_common.o
                0x60068388                getCurrentFwUpdateJob
 .text.processFwUpdateReq
                0x60068394       0x88 ./common/comms_handler/comms_message_handler_fwupdate_common.o
                0x60068394                processFwUpdateReq
 .text.__NVIC_SystemReset
                0x6006841c       0x28 ./common/comms_handler/comms_message_handler_fwupdate_server.o
 .text.processFwUpdateStartSelfCheckReq
                0x60068444       0xe8 ./common/comms_handler/comms_message_handler_fwupdate_server.o
 .text.processFwUpdateStopReq
                0x6006852c       0xd4 ./common/comms_handler/comms_message_handler_fwupdate_server.o
 .text.processFwUpdateActivateImgReq
                0x60068600       0x84 ./common/comms_handler/comms_message_handler_fwupdate_server.o
 .text.processFwUpdateBlockReq
                0x60068684      0x2b0 ./common/comms_handler/comms_message_handler_fwupdate_server.o
 .text.processFwUpdateServerReq
                0x60068934       0xbc ./common/comms_handler/comms_message_handler_fwupdate_server.o
                0x60068934                processFwUpdateServerReq
 .text.handleServerFwUpdateStartReq
                0x600689f0       0x40 ./common/comms_handler/comms_message_handler_fwupdate_server.o
                0x600689f0                handleServerFwUpdateStartReq
 .text.SLN_CommonConnectionHandlerInit
                0x60068a30       0x98 ./common/comms/common_connection_handler.o
                0x60068a30                SLN_CommonConnectionHandlerInit
 .text.__NVIC_SystemReset
                0x60068ac8       0x28 ./common/comms/tcp_connection_handler.o
 .text.SLN_TCP_COMMS_ServerTask
                0x60068af0      0x300 ./common/comms/tcp_connection_handler.o
 .text.SLN_TCP_COMMS_ReadFd
                0x60068df0      0x1b8 ./common/comms/tcp_connection_handler.o
 .text.SLN_TCP_COMMS_ProcessConnection
                0x60068fa8       0x50 ./common/comms/tcp_connection_handler.o
 .text.SLN_TCP_COMMS_Init
                0x60068ff8      0x108 ./common/comms/tcp_connection_handler.o
                0x60068ff8                SLN_TCP_COMMS_Init
 .text.SLN_UART_COMMS_Init
                0x60069100       0xa8 ./common/comms/uart_connection_handler.o
                0x60069100                SLN_UART_COMMS_Init
 .text.SLN_UART_COMMS_ServerTask
                0x600691a8       0x3c ./common/comms/uart_connection_handler.o
 .text.SLN_UART_COMMS_Read
                0x600691e4      0x104 ./common/comms/uart_connection_handler.o
 .text.cJSON_InitHooks
                0x600692e8       0x80 ./cjson/src/cJSON.o
                0x600692e8                cJSON_InitHooks
 .text.cJSON_Delete
                0x60069368       0x90 ./cjson/src/cJSON.o
                0x60069368                cJSON_Delete
 .text.print_number
                0x600693f8       0xc8 ./cjson/src/cJSON.o
 .text.utf16_literal_to_utf8
                0x600694c0      0x1cc ./cjson/src/cJSON.o
 .text.parse_string
                0x6006968c      0x290 ./cjson/src/cJSON.o
 .text.print_string_ptr
                0x6006991c      0x258 ./cjson/src/cJSON.o
 .text.skip_utf8_bom
                0x60069b74       0x68 ./cjson/src/cJSON.o
 .text.cJSON_ParseWithOpts
                0x60069bdc      0x128 ./cjson/src/cJSON.o
                0x60069bdc                cJSON_ParseWithOpts
 .text.print    0x60069d04       0xfc ./cjson/src/cJSON.o
 .text.cJSON_PrintUnformatted
                0x60069e00       0x20 ./cjson/src/cJSON.o
                0x60069e00                cJSON_PrintUnformatted
 .text.parse_value
                0x60069e20      0x1d4 ./cjson/src/cJSON.o
 .text.print_value
                0x60069ff4      0x1bc ./cjson/src/cJSON.o
 .text.cJSON_AddItemToObject
                0x6006a1b0       0x28 ./cjson/src/cJSON.o
                0x6006a1b0                cJSON_AddItemToObject
 .text.cJSON_CreateBool
                0x6006a1d8       0x34 ./cjson/src/cJSON.o
                0x6006a1d8                cJSON_CreateBool
 .text.cJSON_CreateObject
                0x6006a20c       0x28 ./cjson/src/cJSON.o
                0x6006a20c                cJSON_CreateObject
 .text.ARM_MPU_Enable
                0x6006a234       0x34 ./board/board.o
 .text.ARM_MPU_Disable
                0x6006a268       0x2c ./board/board.o
 .text.CLOCK_GetMux
                0x6006a294       0x3c ./board/board.o
 .text.CLOCK_GetDiv
                0x6006a2d0       0x3c ./board/board.o
 .text.CLOCK_GetOscFreq
                0x6006a30c       0x28 ./board/board.o
 .text.GPIO_PinRead
                0x6006a334       0x30 ./board/board.o
 .text.BOARD_DebugConsoleSrcFreq
                0x6006a364       0x60 ./board/board.o
                0x6006a364                BOARD_DebugConsoleSrcFreq
 .text.BOARD_ConfigMPU
                0x6006a3c4      0x300 ./board/board.o
                0x6006a3c4                BOARD_ConfigMPU
 .text.BOARD_RelocateVectorTableToRam
                0x6006a6c4      0x1b4 ./board/board.o
                0x6006a6c4                BOARD_RelocateVectorTableToRam
 .text.BUTTON_MSDPressed
                0x6006a878       0x20 ./board/board.o
                0x6006a878                BUTTON_MSDPressed
 .text.BUTTON_OTWPressed
                0x6006a898       0x20 ./board/board.o
                0x6006a898                BUTTON_OTWPressed
 .text.CLOCK_SetMux
                0x6006a8b8       0x9c ./board/clock_config.o
 .text.CLOCK_SetDiv
                0x6006a954       0x9c ./board/clock_config.o
 .text.CLOCK_ControlGate
                0x6006a9f0       0x6c ./board/clock_config.o
 .text.CLOCK_SetXtalFreq
                0x6006aa5c       0x14 ./board/clock_config.o
 .text.CLOCK_SetRtcXtalFreq
                0x6006aa70       0x14 ./board/clock_config.o
 .text.IOMUXC_EnableMode
                0x6006aa84       0x44 ./board/clock_config.o
 .text.IOMUXC_MQSConfig
                0x6006aac8       0x44 ./board/clock_config.o
 .text.BOARD_BootClockRUN
                0x6006ab0c      0x608 ./board/clock_config.o
                0x6006ab0c                BOARD_BootClockRUN
 .text.CLOCK_ControlGate
                0x6006b114       0x6c ./board/pin_mux.o
 .text.BOARD_InitSwitches
                0x6006b180       0xc8 ./board/pin_mux.o
                0x6006b180                BOARD_InitSwitches
 .text.BOARD_InitMicrophone
                0x6006b248      0x16c ./board/pin_mux.o
                0x6006b248                BOARD_InitMicrophone
 .text.BOARD_InitEthernet
                0x6006b3b4      0x1e8 ./board/pin_mux.o
                0x6006b3b4                BOARD_InitEthernet
 .text.BOARD_InittJtag
                0x6006b59c       0xa0 ./board/pin_mux.o
                0x6006b59c                BOARD_InittJtag
 .text.BOARD_InitLPI2C
                0x6006b63c       0x80 ./board/pin_mux.o
                0x6006b63c                BOARD_InitLPI2C
 .text.BOARD_InitLPSPI
                0x6006b6bc       0xe8 ./board/pin_mux.o
                0x6006b6bc                BOARD_InitLPSPI
 .text.BOARD_InitLPUART
                0x6006b7a4       0x80 ./board/pin_mux.o
                0x6006b7a4                BOARD_InitLPUART
 .text.BOARD_InitBootConfig
                0x6006b824       0x78 ./board/pin_mux.o
                0x6006b824                BOARD_InitBootConfig
 .text.BOARD_InitWifi
                0x6006b89c      0x13c ./board/pin_mux.o
                0x6006b89c                BOARD_InitWifi
 .text.BOARD_InitBluetooth
                0x6006b9d8      0x174 ./board/pin_mux.o
                0x6006b9d8                BOARD_InitBluetooth
 .text.BOARD_InitAudioOut
                0x6006bb4c      0x184 ./board/pin_mux.o
                0x6006bb4c                BOARD_InitAudioOut
 .text.BOARD_InitLED
                0x6006bcd0       0xb0 ./board/pin_mux.o
                0x6006bcd0                BOARD_InitLED
 .text.__NVIC_EnableIRQ
                0x6006bd80       0x34 ./board/sdmmc_config.o
 .text.__NVIC_SetPriority
                0x6006bdb4       0x50 ./board/sdmmc_config.o
 .text.CLOCK_GetDiv
                0x6006be04       0x3c ./board/sdmmc_config.o
 .text.GPIO_PinRead
                0x6006be40       0x30 ./board/sdmmc_config.o
 .text.BOARD_USDHC1ClockConfiguration
                0x6006be70       0x20 ./board/sdmmc_config.o
                0x6006be70                BOARD_USDHC1ClockConfiguration
 .text.BOARD_SDCardGetDetectStatus
                0x6006be90       0x20 ./board/sdmmc_config.o
                0x6006be90                BOARD_SDCardGetDetectStatus
 .text.GPIO2_Combined_16_31_IRQHandler
                0x6006beb0       0x48 ./board/sdmmc_config.o
                0x6006beb0                GPIO2_Combined_16_31_IRQHandler
 .text.BOARD_SDCardDetectInit
                0x6006bef8       0x98 ./board/sdmmc_config.o
                0x6006bef8                BOARD_SDCardDetectInit
 .text.BOARD_SDCardPowerResetInit
                0x6006bf90       0x30 ./board/sdmmc_config.o
                0x6006bf90                BOARD_SDCardPowerResetInit
 .text.BOARD_SDCardPowerControl
                0x6006bfc0       0x34 ./board/sdmmc_config.o
                0x6006bfc0                BOARD_SDCardPowerControl
 .text.BOARD_SD_Pin_Config
                0x6006bff4      0x164 ./board/sdmmc_config.o
                0x6006bff4                BOARD_SD_Pin_Config
 .text.BOARD_SDIO_Config
                0x6006c158       0xbc ./board/sdmmc_config.o
                0x6006c158                BOARD_SDIO_Config
 .text.malloc   0x6006c214       0xc8 c:/nxp/mcuxpressoide_11.6.1_8255/ide/plugins/com.nxp.mcuxpresso.tools.win32_11.6.1.202207200623/tools/bin/../lib/gcc/arm-none-eabi/10.3.1/../../../../arm-none-eabi/lib/thumb/v7e-m+dp/hard\libcr_c.a(alloc.o)
                0x6006c214                malloc
 .text._Csys_alloc
                0x6006c2dc       0x20 c:/nxp/mcuxpressoide_11.6.1_8255/ide/plugins/com.nxp.mcuxpresso.tools.win32_11.6.1.202207200623/tools/bin/../lib/gcc/arm-none-eabi/10.3.1/../../../../arm-none-eabi/lib/thumb/v7e-m+dp/hard\libcr_c.a(alloc.o)
                0x6006c2dc                _Csys_alloc
 .text.tolower  0x6006c2fc       0x14 c:/nxp/mcuxpressoide_11.6.1_8255/ide/plugins/com.nxp.mcuxpresso.tools.win32_11.6.1.202207200623/tools/bin/../lib/gcc/arm-none-eabi/10.3.1/../../../../arm-none-eabi/lib/thumb/v7e-m+dp/hard\libcr_c.a(ctype.o)
                0x6006c2fc                tolower
 .text._initio  0x6006c310       0x78 c:/nxp/mcuxpressoide_11.6.1_8255/ide/plugins/com.nxp.mcuxpresso.tools.win32_11.6.1.202207200623/tools/bin/../lib/gcc/arm-none-eabi/10.3.1/../../../../arm-none-eabi/lib/thumb/v7e-m+dp/hard\libcr_c.a(initio.o)
                0x6006c310                _initio
 .text.__vfprintf
                0x6006c388      0xbe8 c:/nxp/mcuxpressoide_11.6.1_8255/ide/plugins/com.nxp.mcuxpresso.tools.win32_11.6.1.202207200623/tools/bin/../lib/gcc/arm-none-eabi/10.3.1/../../../../arm-none-eabi/lib/thumb/v7e-m+dp/hard\libcr_c.a(printf.o)
                0x6006c388                __vfprintf
 .text._sprintf
                0x6006cf70       0x6c c:/nxp/mcuxpressoide_11.6.1_8255/ide/plugins/com.nxp.mcuxpresso.tools.win32_11.6.1.202207200623/tools/bin/../lib/gcc/arm-none-eabi/10.3.1/../../../../arm-none-eabi/lib/thumb/v7e-m+dp/hard\libcr_c.a(printf.o)
                0x6006cf70                _sprintf
 .text._snprintf
                0x6006cfdc       0x78 c:/nxp/mcuxpressoide_11.6.1_8255/ide/plugins/com.nxp.mcuxpresso.tools.win32_11.6.1.202207200623/tools/bin/../lib/gcc/arm-none-eabi/10.3.1/../../../../arm-none-eabi/lib/thumb/v7e-m+dp/hard\libcr_c.a(printf.o)
                0x6006cfdc                _snprintf
 .text._vsnprintf
                0x6006d054       0x68 c:/nxp/mcuxpressoide_11.6.1_8255/ide/plugins/com.nxp.mcuxpresso.tools.win32_11.6.1.202207200623/tools/bin/../lib/gcc/arm-none-eabi/10.3.1/../../../../arm-none-eabi/lib/thumb/v7e-m+dp/hard\libcr_c.a(printf.o)
                0x6006d054                _vsnprintf
 .text.ch_val   0x6006d0bc       0x30 c:/nxp/mcuxpressoide_11.6.1_8255/ide/plugins/com.nxp.mcuxpresso.tools.win32_11.6.1.202207200623/tools/bin/../lib/gcc/arm-none-eabi/10.3.1/../../../../arm-none-eabi/lib/thumb/v7e-m+dp/hard\libcr_c.a(scanf.o)
 .text.cr_rd_int
                0x6006d0ec      0x1a4 c:/nxp/mcuxpressoide_11.6.1_8255/ide/plugins/com.nxp.mcuxpresso.tools.win32_11.6.1.202207200623/tools/bin/../lib/gcc/arm-none-eabi/10.3.1/../../../../arm-none-eabi/lib/thumb/v7e-m+dp/hard\libcr_c.a(scanf.o)
 .text.__filbuf
                0x6006d290      0x178 c:/nxp/mcuxpressoide_11.6.1_8255/ide/plugins/com.nxp.mcuxpresso.tools.win32_11.6.1.202207200623/tools/bin/../lib/gcc/arm-none-eabi/10.3.1/../../../../arm-none-eabi/lib/thumb/v7e-m+dp/hard\libcr_c.a(__fillbuf.o)
                0x6006d290                __filbuf
 .text._sbrk    0x6006d408       0x3c c:/nxp/mcuxpressoide_11.6.1_8255/ide/plugins/com.nxp.mcuxpresso.tools.win32_11.6.1.202207200623/tools/bin/../lib/gcc/arm-none-eabi/10.3.1/../../../../arm-none-eabi/lib/thumb/v7e-m+dp/hard\libcr_c.a(_cr_sbrk.o)
                0x6006d408                _sbrk
 .text._Cwritebuf
                0x6006d444       0x6c c:/nxp/mcuxpressoide_11.6.1_8255/ide/plugins/com.nxp.mcuxpresso.tools.win32_11.6.1.202207200623/tools/bin/../lib/gcc/arm-none-eabi/10.3.1/../../../../arm-none-eabi/lib/thumb/v7e-m+dp/hard\libcr_c.a(_writebuf.o)
                0x6006d444                _Cwritebuf
 .text.fflush   0x6006d4b0       0x3c c:/nxp/mcuxpressoide_11.6.1_8255/ide/plugins/com.nxp.mcuxpresso.tools.win32_11.6.1.202207200623/tools/bin/../lib/gcc/arm-none-eabi/10.3.1/../../../../arm-none-eabi/lib/thumb/v7e-m+dp/hard\libcr_c.a(fflush.o)
                0x6006d4b0                fflush
 .text.fseek    0x6006d4ec       0xfc c:/nxp/mcuxpressoide_11.6.1_8255/ide/plugins/com.nxp.mcuxpresso.tools.win32_11.6.1.202207200623/tools/bin/../lib/gcc/arm-none-eabi/10.3.1/../../../../arm-none-eabi/lib/thumb/v7e-m+dp/hard\libcr_c.a(fseek.o)
                0x6006d4ec                fseek
 .text.ftell    0x6006d5e8       0x44 c:/nxp/mcuxpressoide_11.6.1_8255/ide/plugins/com.nxp.mcuxpresso.tools.win32_11.6.1.202207200623/tools/bin/../lib/gcc/arm-none-eabi/10.3.1/../../../../arm-none-eabi/lib/thumb/v7e-m+dp/hard\libcr_c.a(ftell.o)
                0x6006d5e8                ftell
 .text.__check_heap_overflow
                0x6006d62c       0x18 c:/nxp/mcuxpressoide_11.6.1_8255/ide/plugins/com.nxp.mcuxpresso.tools.win32_11.6.1.202207200623/tools/bin/../lib/gcc/arm-none-eabi/10.3.1/../../../../arm-none-eabi/lib/thumb/v7e-m+dp/hard\libcr_c.a(_cr_check_heap.o)
                0x6006d62c                __check_heap_overflow
 .text.USDHC_EnableInterruptStatus
                0x6006d644       0x18 ./wiced/43xxx_Wi-Fi/WICED/platform/MCU/LPC/WWD/wwd_SDIO.o
 .text.USDHC_EnableInterruptSignal
                0x6006d65c       0x18 ./wiced/43xxx_Wi-Fi/WICED/platform/MCU/LPC/WWD/wwd_SDIO.o
 .text.USDHC_DisableInterruptSignal
                0x6006d674       0x1a ./wiced/43xxx_Wi-Fi/WICED/platform/MCU/LPC/WWD/wwd_SDIO.o
 .text.USDHC_ClearInterruptStatusFlags
                0x6006d68e       0x12 ./wiced/43xxx_Wi-Fi/WICED/platform/MCU/LPC/WWD/wwd_SDIO.o
 .text.SDMMCHOST_SetCardClock
                0x6006d6a0       0x22 ./wiced/43xxx_Wi-Fi/WICED/platform/MCU/LPC/WWD/wwd_SDIO.o
 .text.host_enable_oob_interrupt
                0x6006d6c2        0x6 ./wiced/43xxx_Wi-Fi/WICED/platform/MCU/LPC/WWD/wwd_SDIO.o
                0x6006d6c2                host_enable_oob_interrupt
 .text.host_platform_get_oob_interrupt_pin
                0x6006d6c8        0x6 ./wiced/43xxx_Wi-Fi/WICED/platform/MCU/LPC/WWD/wwd_SDIO.o
                0x6006d6c8                host_platform_get_oob_interrupt_pin
 .text.find_optimal_block_size
                0x6006d6ce       0x62 ./wiced/43xxx_Wi-Fi/WICED/platform/MCU/LPC/WWD/wwd_SDIO.o
 .text.host_platform_wifi_pwr_pin_init
                0x6006d730        0x4 ./wiced/43xxx_Wi-Fi/WICED/platform/MCU/LPC/WWD/wwd_platform.o
 .text.host_platform_wl_reg_on_set_low
                0x6006d734        0x4 ./wiced/43xxx_Wi-Fi/WICED/platform/MCU/LPC/WWD/wwd_platform.o
 .text.host_platform_wl_reg_on_set_high
                0x6006d738        0xc ./wiced/43xxx_Wi-Fi/WICED/platform/MCU/LPC/WWD/wwd_platform.o
 .text.host_platform_init
                0x6006d744       0x22 ./wiced/43xxx_Wi-Fi/WICED/platform/MCU/LPC/WWD/wwd_platform.o
                0x6006d744                host_platform_init
 .text.host_platform_power_wifi
                0x6006d766        0xe ./wiced/43xxx_Wi-Fi/WICED/platform/MCU/LPC/WWD/wwd_platform.o
                0x6006d766                host_platform_power_wifi
 .text.host_platform_init_wlan_powersave_clock
                0x6006d774        0x6 ./wiced/43xxx_Wi-Fi/WICED/platform/MCU/LPC/WWD/wwd_platform.o
                0x6006d774                host_platform_init_wlan_powersave_clock
 .text.resource_read
                0x6006d77a       0x56 ./wiced/43xxx_Wi-Fi/WICED/platform/MCU/wwd_resources.o
                0x6006d77a                resource_read
 .text.internal_host_buffer_get
                0x6006d7d0       0x74 ./wiced/43xxx_Wi-Fi/WICED/network/LwIP/WWD/wwd_buffer.o
                0x6006d7d0                internal_host_buffer_get
 .text.host_buffer_get
                0x6006d844       0x4a ./wiced/43xxx_Wi-Fi/WICED/network/LwIP/WWD/wwd_buffer.o
                0x6006d844                host_buffer_get
 .text.host_buffer_release
                0x6006d88e       0x1a ./wiced/43xxx_Wi-Fi/WICED/network/LwIP/WWD/wwd_buffer.o
                0x6006d88e                host_buffer_release
 .text.host_buffer_get_current_piece_data_pointer
                0x6006d8a8        0xe ./wiced/43xxx_Wi-Fi/WICED/network/LwIP/WWD/wwd_buffer.o
                0x6006d8a8                host_buffer_get_current_piece_data_pointer
 .text.host_buffer_get_current_piece_size
                0x6006d8b6        0xe ./wiced/43xxx_Wi-Fi/WICED/network/LwIP/WWD/wwd_buffer.o
                0x6006d8b6                host_buffer_get_current_piece_size
 .text.host_buffer_add_remove_at_front
                0x6006d8c4       0x34 ./wiced/43xxx_Wi-Fi/WICED/network/LwIP/WWD/wwd_buffer.o
                0x6006d8c4                host_buffer_add_remove_at_front
 .text.host_buffer_set_size
                0x6006d8f8       0x32 ./wiced/43xxx_Wi-Fi/WICED/network/LwIP/WWD/wwd_buffer.o
                0x6006d8f8                host_buffer_set_size
 .text.low_level_init
                0x6006d92a       0x40 ./wiced/43xxx_Wi-Fi/WICED/network/LwIP/WWD/wwd_network.o
 .text.wwd_wifi_set_ampdu_parameters
                0x6006d96a       0x14 ./wiced/43xxx_Wi-Fi/WICED/WWD/internal/chips/4343W/wwd_ap.o
                0x6006d96a                wwd_wifi_set_ampdu_parameters
 .text.wwd_wifi_set_block_ack_window_size
                0x6006d97e       0x1a ./wiced/43xxx_Wi-Fi/WICED/WWD/internal/chips/4343W/wwd_ap.o
                0x6006d97e                wwd_wifi_set_block_ack_window_size
 .text.wwd_chip_specific_init
                0x6006d998        0xc ./wiced/43xxx_Wi-Fi/WICED/WWD/internal/chips/4343W/wwd_chip_specific_functions.o
                0x6006d998                wwd_chip_specific_init
 .text.wwd_wait_for_wlan_event
                0x6006d9a4       0x8c ./wiced/43xxx_Wi-Fi/WICED/WWD/internal/bus_protocols/SDIO/wwd_bus_protocol.o
                0x6006d9a4                wwd_wait_for_wlan_event
 .text.wwd_bus_send_buffer
                0x6006da30       0x50 ./wiced/43xxx_Wi-Fi/WICED/WWD/internal/bus_protocols/SDIO/wwd_bus_protocol.o
                0x6006da30                wwd_bus_send_buffer
 .text.wwd_bus_write_backplane_value
                0x6006da80       0x80 ./wiced/43xxx_Wi-Fi/WICED/WWD/internal/bus_protocols/SDIO/wwd_bus_protocol.o
                0x6006da80                wwd_bus_write_backplane_value
 .text.wwd_bus_read_backplane_value
                0x6006db00       0x86 ./wiced/43xxx_Wi-Fi/WICED/WWD/internal/bus_protocols/SDIO/wwd_bus_protocol.o
                0x6006db00                wwd_bus_read_backplane_value
 .text.wwd_bus_write_register_value
                0x6006db86       0x3a ./wiced/43xxx_Wi-Fi/WICED/WWD/internal/bus_protocols/SDIO/wwd_bus_protocol.o
                0x6006db86                wwd_bus_write_register_value
 .text.wwd_bus_transfer_bytes
                0x6006dbc0       0x40 ./wiced/43xxx_Wi-Fi/WICED/WWD/internal/bus_protocols/SDIO/wwd_bus_protocol.o
                0x6006dbc0                wwd_bus_transfer_bytes
 .text.wwd_bus_sdio_transfer
                0x6006dc00       0x7e ./wiced/43xxx_Wi-Fi/WICED/WWD/internal/bus_protocols/SDIO/wwd_bus_protocol.o
 .text.wwd_bus_sdio_cmd52
                0x6006dc7e       0xee ./wiced/43xxx_Wi-Fi/WICED/WWD/internal/bus_protocols/SDIO/wwd_bus_protocol.o
 .text.wwd_bus_sdio_cmd53
                0x6006dd6c      0x170 ./wiced/43xxx_Wi-Fi/WICED/WWD/internal/bus_protocols/SDIO/wwd_bus_protocol.o
 .text.wwd_bus_read_register_value
                0x6006dedc       0x48 ./wiced/43xxx_Wi-Fi/WICED/WWD/internal/bus_protocols/SDIO/wwd_bus_protocol.o
                0x6006dedc                wwd_bus_read_register_value
 .text.wwd_bus_specific_sleep
                0x6006df24        0x6 ./wiced/43xxx_Wi-Fi/WICED/WWD/internal/bus_protocols/SDIO/wwd_bus_protocol.o
                0x6006df24                wwd_bus_specific_sleep
 .text.wwd_bus_init_stats
                0x6006df2a        0x4 ./wiced/43xxx_Wi-Fi/WICED/WWD/internal/bus_protocols/SDIO/wwd_bus_protocol.o
                0x6006df2a                wwd_bus_init_stats
 .text.wwd_bus_platform_mcu_power_save_deep_sleep_enabled
                0x6006df2e        0x6 ./wiced/43xxx_Wi-Fi/WICED/WWD/internal/bus_protocols/wwd_bus_common.o
                0x6006df2e                wwd_bus_platform_mcu_power_save_deep_sleep_enabled
 .text.wwd_bus_write_wifi_firmware_image
                0x6006df34       0x24 ./wiced/43xxx_Wi-Fi/WICED/WWD/internal/bus_protocols/wwd_bus_common.o
                0x6006df34                wwd_bus_write_wifi_firmware_image
 .text.wwd_bus_resume_after_deep_sleep
                0x6006df58        0x8 ./wiced/43xxx_Wi-Fi/WICED/WWD/internal/bus_protocols/wwd_bus_common.o
                0x6006df58                wwd_bus_resume_after_deep_sleep
 .text.wwd_download2dongle
                0x6006df60       0xa0 ./wiced/43xxx_Wi-Fi/WICED/WWD/internal/wwd_clm.o
 .text.wwd_init_stats
                0x6006e000        0x4 ./wiced/43xxx_Wi-Fi/WICED/WWD/internal/wwd_debug.o
                0x6006e000                wwd_init_stats
 .text.wwd_device_core_is_up
                0x6006e004       0x90 ./wiced/43xxx_Wi-Fi/WICED/WWD/internal/wwd_internal.o
                0x6006e004                wwd_device_core_is_up
 .text.wwd_disable_device_core
                0x6006e094      0x10a ./wiced/43xxx_Wi-Fi/WICED/WWD/internal/wwd_internal.o
                0x6006e094                wwd_disable_device_core
 .text.wwd_reset_device_core
                0x6006e19e      0x12a ./wiced/43xxx_Wi-Fi/WICED/WWD/internal/wwd_internal.o
                0x6006e19e                wwd_reset_device_core
 .text.wwd_sdpcm_send_iovar
                0x6006e2c8       0x4a ./wiced/43xxx_Wi-Fi/WICED/WWD/internal/wwd_sdpcm.o
                0x6006e2c8                wwd_sdpcm_send_iovar
 .text.wwd_sdpcm_get_iovar_buffer
                0x6006e312       0x8e ./wiced/43xxx_Wi-Fi/WICED/WWD/internal/wwd_sdpcm.o
                0x6006e312                wwd_sdpcm_get_iovar_buffer
 .text.wwd_sdpcm_get_ioctl_buffer
                0x6006e3a0       0x40 ./wiced/43xxx_Wi-Fi/WICED/WWD/internal/wwd_sdpcm.o
                0x6006e3a0                wwd_sdpcm_get_ioctl_buffer
 .text.wwd_sdpcm_get_next_buffer_in_queue
                0x6006e3e0       0x1a ./wiced/43xxx_Wi-Fi/WICED/WWD/internal/wwd_sdpcm.o
 .text.wwd_sdpcm_set_next_buffer_in_queue
                0x6006e3fa       0x1e ./wiced/43xxx_Wi-Fi/WICED/WWD/internal/wwd_sdpcm.o
 .text.wwd_thread_send_one_packet
                0x6006e418       0x56 ./wiced/43xxx_Wi-Fi/WICED/WWD/internal/wwd_thread.o
                0x6006e418                wwd_thread_send_one_packet
 .text.wwd_thread_receive_one_packet
                0x6006e46e       0x2e ./wiced/43xxx_Wi-Fi/WICED/WWD/internal/wwd_thread.o
                0x6006e46e                wwd_thread_receive_one_packet
 .text.wwd_wifi_is_ready_to_transceive
                0x6006e49c       0x56 ./wiced/43xxx_Wi-Fi/WICED/WWD/internal/wwd_wifi.o
                0x6006e49c                wwd_wifi_is_ready_to_transceive
 .text.wwd_wifi_set_roam_trigger
                0x6006e4f2       0x24 ./wiced/43xxx_Wi-Fi/WICED/WWD/internal/wwd_wifi.o
                0x6006e4f2                wwd_wifi_set_roam_trigger
 .text.wwd_wifi_set_roam_delta
                0x6006e516       0x24 ./wiced/43xxx_Wi-Fi/WICED/WWD/internal/wwd_wifi.o
                0x6006e516                wwd_wifi_set_roam_delta
 .text.wwd_wifi_set_roam_scan_period
                0x6006e53a       0x1a ./wiced/43xxx_Wi-Fi/WICED/WWD/internal/wwd_wifi.o
                0x6006e53a                wwd_wifi_set_roam_scan_period
 .text.wwd_wifi_set_passphrase
                0x6006e554       0x72 ./wiced/43xxx_Wi-Fi/WICED/WWD/internal/wwd_wifi.o
                0x6006e554                wwd_wifi_set_passphrase
 .text.wwd_wifi_set_ioctl_buffer
                0x6006e5c6       0x54 ./wiced/43xxx_Wi-Fi/WICED/WWD/internal/wwd_wifi.o
                0x6006e5c6                wwd_wifi_set_ioctl_buffer
 .text.wwd_wifi_set_iovar_value
                0x6006e61a       0x40 ./wiced/43xxx_Wi-Fi/WICED/WWD/internal/wwd_wifi.o
                0x6006e61a                wwd_wifi_set_iovar_value
 .text.wwd_wifi_get_iovar_value
                0x6006e65a       0x66 ./wiced/43xxx_Wi-Fi/WICED/WWD/internal/wwd_wifi.o
                0x6006e65a                wwd_wifi_get_iovar_value
 .text.wwd_wifi_get_iovar_buffer
                0x6006e6c0       0x74 ./wiced/43xxx_Wi-Fi/WICED/WWD/internal/wwd_wifi.o
                0x6006e6c0                wwd_wifi_get_iovar_buffer
 .text.wwd_wifi_set_ioctl_void
                0x6006e734       0x3a ./wiced/43xxx_Wi-Fi/WICED/WWD/internal/wwd_wifi.o
                0x6006e734                wwd_wifi_set_ioctl_void
 .text.wwd_wifi_set_ioctl_value
                0x6006e76e       0x42 ./wiced/43xxx_Wi-Fi/WICED/WWD/internal/wwd_wifi.o
                0x6006e76e                wwd_wifi_set_ioctl_value
 .text.strnlen  0x6006e7b0       0x32 ./wiced/43xxx_Wi-Fi/WICED/WWD/internal/wwd_wifi.o
                0x6006e7b0                strnlen
 .text.wwd_wlan_bus_complete_ds_wake
                0x6006e7e2       0x18 ./wiced/43xxx_Wi-Fi/WICED/WWD/internal/wwd_wifi_chip_common.o
                0x6006e7e2                wwd_wlan_bus_complete_ds_wake
 .text.host_rtos_create_thread
                0x6006e7fa       0x2e ./wiced/43xxx_Wi-Fi/WICED/RTOS/FreeRTOS/WWD/wwd_rtos.o
                0x6006e7fa                host_rtos_create_thread
 .text.host_rtos_create_thread_with_arg
                0x6006e828       0x92 ./wiced/43xxx_Wi-Fi/WICED/RTOS/FreeRTOS/WWD/wwd_rtos.o
                0x6006e828                host_rtos_create_thread_with_arg
 .text.host_rtos_finish_thread
                0x6006e8ba       0x1a ./wiced/43xxx_Wi-Fi/WICED/RTOS/FreeRTOS/WWD/wwd_rtos.o
                0x6006e8ba                host_rtos_finish_thread
 .text.host_rtos_init_semaphore
                0x6006e8d4       0x2e ./wiced/43xxx_Wi-Fi/WICED/RTOS/FreeRTOS/WWD/wwd_rtos.o
                0x6006e8d4                host_rtos_init_semaphore
 .text.host_rtos_init_binary_semaphore
                0x6006e902       0x2e ./wiced/43xxx_Wi-Fi/WICED/RTOS/FreeRTOS/WWD/wwd_rtos.o
                0x6006e902                host_rtos_init_binary_semaphore
 .text.host_rtos_get_semaphore
                0x6006e930       0x2e ./wiced/43xxx_Wi-Fi/WICED/RTOS/FreeRTOS/WWD/wwd_rtos.o
                0x6006e930                host_rtos_get_semaphore
 .text.host_rtos_deinit_semaphore
                0x6006e95e       0x26 ./wiced/43xxx_Wi-Fi/WICED/RTOS/FreeRTOS/WWD/wwd_rtos.o
                0x6006e95e                host_rtos_deinit_semaphore
 .text.host_rtos_get_time
                0x6006e984        0xc ./wiced/43xxx_Wi-Fi/WICED/RTOS/FreeRTOS/WWD/wwd_rtos.o
                0x6006e984                host_rtos_get_time
 .text.DisableGlobalIRQ
                0x6006e990       0x18 ./utilities/fsl_debug_console.o
 .text.EnableGlobalIRQ
                0x6006e9a8       0x16 ./utilities/fsl_debug_console.o
 .text.DbgConsole_SerialManagerTxCallback
                0x6006e9be       0xdc ./utilities/fsl_debug_console.o
 .text.DbgConsole_PrintCallback
                0x6006ea9a       0x68 ./utilities/fsl_debug_console.o
 .text.__sys_write
                0x6006eb02       0x3c ./utilities/fsl_debug_console.o
                0x6006eb02                __sys_write
 .text.__sys_readc
                0x6006eb3e       0x1a ./utilities/fsl_debug_console.o
                0x6006eb3e                __sys_readc
 .text.PrintGetWidth
                0x6006eb58       0x6e ./utilities/fsl_str.o
 .text.PrintGetPrecision
                0x6006ebc6       0x92 ./utilities/fsl_str.o
 .text.PrintIsobpu
                0x6006ec58       0x38 ./utilities/fsl_str.o
 .text.PrintIsdi
                0x6006ec90       0x28 ./utilities/fsl_str.o
 .text.PrintOutputdifFobpu
                0x6006ecb8       0x42 ./utilities/fsl_str.o
 .text.PrintOutputxX
                0x6006ecfa       0x42 ./utilities/fsl_str.o
 .text.PrintIsfF
                0x6006ed3c       0x28 ./utilities/fsl_str.o
 .text.PrintIsxX
                0x6006ed64       0x28 ./utilities/fsl_str.o
 .text.PrintGetRadixFromobpu
                0x6006ed8c       0x48 ./utilities/fsl_str.o
 .text.ConvertRadixNumToString
                0x6006edd4      0x10e ./utilities/fsl_str.o
 .text.StrFormatPrintf
                0x6006eee2      0x258 ./utilities/fsl_str.o
                0x6006eee2                StrFormatPrintf
 .text.USB_DeviceEhciSetDefaultState
                0x6006f13a      0x128 ./usb/device/source/ehci/usb_device_ehci.o
 .text.USB_DeviceEhciEndpointInit
                0x6006f262      0x23e ./usb/device/source/ehci/usb_device_ehci.o
 .text.USB_DeviceEhciEndpointDeinit
                0x6006f4a0      0x118 ./usb/device/source/ehci/usb_device_ehci.o
 .text.USB_DeviceEhciEndpointStall
                0x6006f5b8      0x10c ./usb/device/source/ehci/usb_device_ehci.o
 .text.USB_DeviceEhciEndpointUnstall
                0x6006f6c4       0xd4 ./usb/device/source/ehci/usb_device_ehci.o
 .text.USB_DeviceEhciFillSetupBuffer
                0x6006f798       0xb2 ./usb/device/source/ehci/usb_device_ehci.o
 .text.USB_DeviceEhciInterruptPortChange
                0x6006f84a       0x74 ./usb/device/source/ehci/usb_device_ehci.o
 .text.USB_DeviceEhciInterruptReset
                0x6006f8be       0x92 ./usb/device/source/ehci/usb_device_ehci.o
 .text.USB_DeviceEhciInterruptSof
                0x6006f950        0xa ./usb/device/source/ehci/usb_device_ehci.o
 .text.USB_DeviceEhciSend
                0x6006f95a       0x34 ./usb/device/source/ehci/usb_device_ehci.o
                0x6006f95a                USB_DeviceEhciSend
 .text.USB_DeviceEhciRecv
                0x6006f98e       0x2e ./usb/device/source/ehci/usb_device_ehci.o
                0x6006f98e                USB_DeviceEhciRecv
 .text.USB_DeviceEhciIsrFunction
                0x6006f9bc       0x82 ./usb/device/source/ehci/usb_device_ehci.o
                0x6006f9bc                USB_DeviceEhciIsrFunction
 .text.USB_DeviceCh9GetStatus
                0x6006fa3e      0x100 ./usb/device/source/usb_device_ch9.o
 .text.USB_DeviceCh9SetClearFeature
                0x6006fb3e      0x10e ./usb/device/source/usb_device_ch9.o
 .text.USB_DeviceCh9SetAddress
                0x6006fc4c       0xbc ./usb/device/source/usb_device_ch9.o
 .text.USB_DeviceCh9GetDescriptor
                0x6006fd08       0xe8 ./usb/device/source/usb_device_ch9.o
 .text.USB_DeviceCh9GetConfiguration
                0x6006fdf0       0x60 ./usb/device/source/usb_device_ch9.o
 .text.USB_DeviceCh9SetConfiguration
                0x6006fe50       0x94 ./usb/device/source/usb_device_ch9.o
 .text.USB_DeviceCh9GetInterface
                0x6006fee4       0x7c ./usb/device/source/usb_device_ch9.o
 .text.USB_DeviceCh9SetInterface
                0x6006ff60       0x70 ./usb/device/source/usb_device_ch9.o
 .text.USB_DeviceCh9SynchFrame
                0x6006ffd0       0x70 ./usb/device/source/usb_device_ch9.o
 .text.USB_DeviceControlCallbackFeedback
                0x60070040       0xc6 ./usb/device/source/usb_device_ch9.o
 .text.USB_DeviceFreeHandle
                0x60070106       0x2e ./usb/device/source/usb_device_dci.o
 .text.USB_DeviceTransfer
                0x60070134      0x126 ./usb/device/source/usb_device_dci.o
 .text.USB_DeviceControl
                0x6007025a       0x50 ./usb/device/source/usb_device_dci.o
 .text.USB_DeviceResetNotification
                0x600702aa       0xc6 ./usb/device/source/usb_device_dci.o
 .text.USB_DeviceNotification
                0x60070370      0x122 ./usb/device/source/usb_device_dci.o
 .text.USB_DeviceNotificationTrigger
                0x60070492       0x7a ./usb/device/source/usb_device_dci.o
                0x60070492                USB_DeviceNotificationTrigger
 .text.USB_DeviceInit
                0x6007050c      0x1ac ./usb/device/source/usb_device_dci.o
                0x6007050c                USB_DeviceInit
 .text.USB_DeviceRun
                0x600706b8       0x1a ./usb/device/source/usb_device_dci.o
                0x600706b8                USB_DeviceRun
 .text.USB_DeviceStop
                0x600706d2       0x1a ./usb/device/source/usb_device_dci.o
                0x600706d2                USB_DeviceStop
 .text.USB_DeviceDeinit
                0x600706ec       0x58 ./usb/device/source/usb_device_dci.o
                0x600706ec                USB_DeviceDeinit
 .text.USB_DeviceSendRequest
                0x60070744       0x34 ./usb/device/source/usb_device_dci.o
                0x60070744                USB_DeviceSendRequest
 .text.USB_DeviceRecvRequest
                0x60070778       0x2e ./usb/device/source/usb_device_dci.o
                0x60070778                USB_DeviceRecvRequest
 .text.USB_DeviceCancel
                0x600707a6       0x4e ./usb/device/source/usb_device_dci.o
                0x600707a6                USB_DeviceCancel
 .text.USB_DeviceInitEndpoint
                0x600707f4       0xce ./usb/device/source/usb_device_dci.o
                0x600707f4                USB_DeviceInitEndpoint
 .text.USB_DeviceDeinitEndpoint
                0x600708c2       0xf8 ./usb/device/source/usb_device_dci.o
                0x600708c2                USB_DeviceDeinitEndpoint
 .text.USB_DeviceStallEndpoint
                0x600709ba       0x34 ./usb/device/source/usb_device_dci.o
                0x600709ba                USB_DeviceStallEndpoint
 .text.USB_DeviceUnstallEndpoint
                0x600709ee       0x34 ./usb/device/source/usb_device_dci.o
                0x600709ee                USB_DeviceUnstallEndpoint
 .text.USB_DeviceTaskFunction
                0x60070a22       0x38 ./usb/device/source/usb_device_dci.o
                0x60070a22                USB_DeviceTaskFunction
 .text.USB_DeviceMscFreeHandle
                0x60070a5a       0x28 ./usb/device/class/msc/usb_device_msc.o
 .text.USB_DeviceMscEndpointsDeinit
                0x60070a82       0x6a ./usb/device/class/msc/usb_device_msc.o
                0x60070a82                USB_DeviceMscEndpointsDeinit
 .text.USB_DeviceMscInit
                0x60070aec       0xde ./usb/device/class/msc/usb_device_msc.o
                0x60070aec                USB_DeviceMscInit
 .text.USB_DeviceMscDeinit
                0x60070bca       0x38 ./usb/device/class/msc/usb_device_msc.o
                0x60070bca                USB_DeviceMscDeinit
 .text.USB_DeviceMscSend
                0x60070c02       0xca ./usb/device/class/msc/usb_device_msc.o
                0x60070c02                USB_DeviceMscSend
 .text.USB_DeviceMscRecv
                0x60070ccc       0xca ./usb/device/class/msc/usb_device_msc.o
                0x60070ccc                USB_DeviceMscRecv
 .text.USB_DeviceMscLbaTransfer
                0x60070d96       0x68 ./usb/device/class/msc/usb_device_msc.o
                0x60070d96                USB_DeviceMscLbaTransfer
 .text.USB_DeviceMscUfiThirteenCasesCheck
                0x60070dfe      0x4f2 ./usb/device/class/msc/usb_device_msc_ufi.o
                0x60070dfe                USB_DeviceMscUfiThirteenCasesCheck
 .text.USB_DeviceMscUfiRequestSenseCommand
                0x600712f0       0x72 ./usb/device/class/msc/usb_device_msc_ufi.o
                0x600712f0                USB_DeviceMscUfiRequestSenseCommand
 .text.USB_DeviceMscUfiInquiryCommand
                0x60071362       0x78 ./usb/device/class/msc/usb_device_msc_ufi.o
                0x60071362                USB_DeviceMscUfiInquiryCommand
 .text.USB_DeviceMscUfiReadCommand
                0x600713da      0x104 ./usb/device/class/msc/usb_device_msc_ufi.o
                0x600713da                USB_DeviceMscUfiReadCommand
 .text.USB_DeviceMscUfiWriteCommand
                0x600714de      0x104 ./usb/device/class/msc/usb_device_msc_ufi.o
                0x600714de                USB_DeviceMscUfiWriteCommand
 .text.USB_DeviceMscUfiTestUnitReadyCommand
                0x600715e2       0x70 ./usb/device/class/msc/usb_device_msc_ufi.o
                0x600715e2                USB_DeviceMscUfiTestUnitReadyCommand
 .text.USB_DeviceMscUfiVerifyCommand
                0x60071652       0x40 ./usb/device/class/msc/usb_device_msc_ufi.o
                0x60071652                USB_DeviceMscUfiVerifyCommand
 .text.USB_DeviceMscUfiModeSenseCommand
                0x60071692       0x78 ./usb/device/class/msc/usb_device_msc_ufi.o
                0x60071692                USB_DeviceMscUfiModeSenseCommand
 .text.USB_DeviceMscUfiModeSelectCommand
                0x6007170a       0x96 ./usb/device/class/msc/usb_device_msc_ufi.o
                0x6007170a                USB_DeviceMscUfiModeSelectCommand
 .text.USB_DeviceMscUfiReadCapacityCommand
                0x600717a0      0x292 ./usb/device/class/msc/usb_device_msc_ufi.o
                0x600717a0                USB_DeviceMscUfiReadCapacityCommand
 .text.USB_DeviceMscUfiFormatUnitCommand
                0x60071a32       0x7a ./usb/device/class/msc/usb_device_msc_ufi.o
                0x60071a32                USB_DeviceMscUfiFormatUnitCommand
 .text.USB_DeviceMscUfiPreventAllowMediumCommand
                0x60071aac       0x70 ./usb/device/class/msc/usb_device_msc_ufi.o
                0x60071aac                USB_DeviceMscUfiPreventAllowMediumCommand
 .text.USB_DeviceMscUfiSendDiagnosticCommand
                0x60071b1c       0x70 ./usb/device/class/msc/usb_device_msc_ufi.o
                0x60071b1c                USB_DeviceMscUfiSendDiagnosticCommand
 .text.USB_DeviceMscUfiStartStopUnitCommand
                0x60071b8c       0x7a ./usb/device/class/msc/usb_device_msc_ufi.o
                0x60071b8c                USB_DeviceMscUfiStartStopUnitCommand
 .text.USB_DeviceMscUfiUnsupportCommand
                0x60071c06       0x56 ./usb/device/class/msc/usb_device_msc_ufi.o
                0x60071c06                USB_DeviceMscUfiUnsupportCommand
 .text.USB_DeviceClassCallback
                0x60071c5c       0x64 ./usb/device/class/usb_device_class.o
                0x60071c5c                USB_DeviceClassCallback
 .text.USB_DeviceClassGetSpeed
                0x60071cc0       0x4e ./usb/device/class/usb_device_class.o
                0x60071cc0                USB_DeviceClassGetSpeed
 .text.DMA0_DMA16_IRQHandler
                0x60071d0e        0x8 ./startup/startup_mimxrt106s.o
                0x60071d0e                DMA0_DMA16_IRQHandler
 .text.DMA1_DMA17_IRQHandler
                0x60071d16        0x8 ./startup/startup_mimxrt106s.o
                0x60071d16                DMA1_DMA17_IRQHandler
 .text.DMA2_DMA18_IRQHandler
                0x60071d1e        0x8 ./startup/startup_mimxrt106s.o
                0x60071d1e                DMA2_DMA18_IRQHandler
 .text.DMA3_DMA19_IRQHandler
                0x60071d26        0x8 ./startup/startup_mimxrt106s.o
                0x60071d26                DMA3_DMA19_IRQHandler
 .text.DMA4_DMA20_IRQHandler
                0x60071d2e        0x8 ./startup/startup_mimxrt106s.o
                0x60071d2e                DMA4_DMA20_IRQHandler
 .text.DMA5_DMA21_IRQHandler
                0x60071d36        0x8 ./startup/startup_mimxrt106s.o
                0x60071d36                DMA5_DMA21_IRQHandler
 .text.DMA6_DMA22_IRQHandler
                0x60071d3e        0x8 ./startup/startup_mimxrt106s.o
                0x60071d3e                DMA6_DMA22_IRQHandler
 .text.DMA7_DMA23_IRQHandler
                0x60071d46        0x8 ./startup/startup_mimxrt106s.o
                0x60071d46                DMA7_DMA23_IRQHandler
 .text.DMA8_DMA24_IRQHandler
                0x60071d4e        0x8 ./startup/startup_mimxrt106s.o
                0x60071d4e                DMA8_DMA24_IRQHandler
 .text.DMA9_DMA25_IRQHandler
                0x60071d56        0x8 ./startup/startup_mimxrt106s.o
                0x60071d56                DMA9_DMA25_IRQHandler
 .text.DMA10_DMA26_IRQHandler
                0x60071d5e        0x8 ./startup/startup_mimxrt106s.o
                0x60071d5e                DMA10_DMA26_IRQHandler
 .text.DMA11_DMA27_IRQHandler
                0x60071d66        0x8 ./startup/startup_mimxrt106s.o
                0x60071d66                DMA11_DMA27_IRQHandler
 .text.DMA12_DMA28_IRQHandler
                0x60071d6e        0x8 ./startup/startup_mimxrt106s.o
                0x60071d6e                DMA12_DMA28_IRQHandler
 .text.DMA13_DMA29_IRQHandler
                0x60071d76        0x8 ./startup/startup_mimxrt106s.o
                0x60071d76                DMA13_DMA29_IRQHandler
 .text.DMA14_DMA30_IRQHandler
                0x60071d7e        0x8 ./startup/startup_mimxrt106s.o
                0x60071d7e                DMA14_DMA30_IRQHandler
 .text.DMA15_DMA31_IRQHandler
                0x60071d86        0x8 ./startup/startup_mimxrt106s.o
                0x60071d86                DMA15_DMA31_IRQHandler
 .text.DMA_ERROR_IRQHandler
                0x60071d8e        0x8 ./startup/startup_mimxrt106s.o
                0x60071d8e                DMA_ERROR_IRQHandler
 .text.CTI0_ERROR_IRQHandler
                0x60071d96        0x8 ./startup/startup_mimxrt106s.o
                0x60071d96                CTI0_ERROR_IRQHandler
 .text.CTI1_ERROR_IRQHandler
                0x60071d9e        0x8 ./startup/startup_mimxrt106s.o
                0x60071d9e                CTI1_ERROR_IRQHandler
 .text.CORE_IRQHandler
                0x60071da6        0x8 ./startup/startup_mimxrt106s.o
                0x60071da6                CORE_IRQHandler
 .text.LPI2C1_IRQHandler
                0x60071dae        0x8 ./startup/startup_mimxrt106s.o
                0x60071dae                LPI2C1_IRQHandler
 .text.LPI2C2_IRQHandler
                0x60071db6        0x8 ./startup/startup_mimxrt106s.o
                0x60071db6                LPI2C2_IRQHandler
 .text.LPI2C3_IRQHandler
                0x60071dbe        0x8 ./startup/startup_mimxrt106s.o
                0x60071dbe                LPI2C3_IRQHandler
 .text.LPI2C4_IRQHandler
                0x60071dc6        0x8 ./startup/startup_mimxrt106s.o
                0x60071dc6                LPI2C4_IRQHandler
 .text.LPSPI1_IRQHandler
                0x60071dce        0x8 ./startup/startup_mimxrt106s.o
                0x60071dce                LPSPI1_IRQHandler
 .text.LPSPI2_IRQHandler
                0x60071dd6        0x8 ./startup/startup_mimxrt106s.o
                0x60071dd6                LPSPI2_IRQHandler
 .text.LPSPI3_IRQHandler
                0x60071dde        0x8 ./startup/startup_mimxrt106s.o
                0x60071dde                LPSPI3_IRQHandler
 .text.LPSPI4_IRQHandler
                0x60071de6        0x8 ./startup/startup_mimxrt106s.o
                0x60071de6                LPSPI4_IRQHandler
 .text.CAN1_IRQHandler
                0x60071dee        0x8 ./startup/startup_mimxrt106s.o
                0x60071dee                CAN1_IRQHandler
 .text.CAN2_IRQHandler
                0x60071df6        0x8 ./startup/startup_mimxrt106s.o
                0x60071df6                CAN2_IRQHandler
 .text.FLEXRAM_IRQHandler
                0x60071dfe        0x8 ./startup/startup_mimxrt106s.o
                0x60071dfe                FLEXRAM_IRQHandler
 .text.KPP_IRQHandler
                0x60071e06        0x8 ./startup/startup_mimxrt106s.o
                0x60071e06                KPP_IRQHandler
 .text.TSC_DIG_IRQHandler
                0x60071e0e        0x8 ./startup/startup_mimxrt106s.o
                0x60071e0e                TSC_DIG_IRQHandler
 .text.GPR_IRQ_IRQHandler
                0x60071e16        0x8 ./startup/startup_mimxrt106s.o
                0x60071e16                GPR_IRQ_IRQHandler
 .text.LCDIF_IRQHandler
                0x60071e1e        0x8 ./startup/startup_mimxrt106s.o
                0x60071e1e                LCDIF_IRQHandler
 .text.CSI_IRQHandler
                0x60071e26        0x8 ./startup/startup_mimxrt106s.o
                0x60071e26                CSI_IRQHandler
 .text.PXP_IRQHandler
                0x60071e2e        0x8 ./startup/startup_mimxrt106s.o
                0x60071e2e                PXP_IRQHandler
 .text.WDOG2_IRQHandler
                0x60071e36        0x8 ./startup/startup_mimxrt106s.o
                0x60071e36                WDOG2_IRQHandler
 .text.SNVS_HP_WRAPPER_IRQHandler
                0x60071e3e        0x8 ./startup/startup_mimxrt106s.o
