Archive member included to satisfy reference by file (symbol)

c:/nxp/mcuxpressoide_11.6.1_8255/ide/plugins/com.nxp.mcuxpresso.tools.win32_11.6.1.202207200623/tools/bin/../lib/gcc/arm-none-eabi/10.3.1/../../../../arm-none-eabi/lib/thumb/v7e-m+dp/hard\libcr_nohost_nf.a(_cr__main.o)
                              ./startup/startup_mimxrt106s.o (__main)
c:/nxp/mcuxpressoide_11.6.1_8255/ide/plugins/com.nxp.mcuxpresso.tools.win32_11.6.1.202207200623/tools/bin/../lib/gcc/arm-none-eabi/10.3.1/../../../../arm-none-eabi/lib/thumb/v7e-m+dp/hard\libcr_c.a(memcpy.o)
                              ./utilities/fsl_str.o (memcpy)
c:/nxp/mcuxpressoide_11.6.1_8255/ide/plugins/com.nxp.mcuxpresso.tools.win32_11.6.1.202207200623/tools/bin/../lib/gcc/arm-none-eabi/10.3.1/../../../../arm-none-eabi/lib/thumb/v7e-m+dp/hard\libcr_c.a(memmove.o)
                              ./mbedtls/library/bignum.o (memmove)
c:/nxp/mcuxpressoide_11.6.1_8255/ide/plugins/com.nxp.mcuxpresso.tools.win32_11.6.1.202207200623/tools/bin/../lib/gcc/arm-none-eabi/10.3.1/../../../../arm-none-eabi/lib/thumb/v7e-m+dp/hard\libcr_c.a(memset.o)
                              ./utilities/fsl_debug_console.o (memset)
c:/nxp/mcuxpressoide_11.6.1_8255/ide/plugins/com.nxp.mcuxpresso.tools.win32_11.6.1.202207200623/tools/bin/../lib/gcc/arm-none-eabi/10.3.1/../../../../arm-none-eabi/lib/thumb/v7e-m+dp/hard\libcr_c.a(alloc.o)
                              ./drivers/fsl_common.o (malloc)
c:/nxp/mcuxpressoide_11.6.1_8255/ide/plugins/com.nxp.mcuxpresso.tools.win32_11.6.1.202207200623/tools/bin/../lib/gcc/arm-none-eabi/10.3.1/../../../../arm-none-eabi/lib/thumb/v7e-m+dp/hard\libcr_c.a(initio.o)
                              c:/nxp/mcuxpressoide_11.6.1_8255/ide/plugins/com.nxp.mcuxpresso.tools.win32_11.6.1.202207200623/tools/bin/../lib/gcc/arm-none-eabi/10.3.1/../../../../arm-none-eabi/lib/thumb/v7e-m+dp/hard\libcr_nohost_nf.a(_cr__main.o) (_initio)
c:/nxp/mcuxpressoide_11.6.1_8255/ide/plugins/com.nxp.mcuxpresso.tools.win32_11.6.1.202207200623/tools/bin/../lib/gcc/arm-none-eabi/10.3.1/../../../../arm-none-eabi/lib/thumb/v7e-m+dp/hard\libcr_c.a(memcmp.o)
                              ./source/sln_flash_mgmt.o (memcmp)
c:/nxp/mcuxpressoide_11.6.1_8255/ide/plugins/com.nxp.mcuxpresso.tools.win32_11.6.1.202207200623/tools/bin/../lib/gcc/arm-none-eabi/10.3.1/../../../../arm-none-eabi/lib/thumb/v7e-m+dp/hard\libcr_c.a(printf.o)
                              ./mbedtls/library/oid.o (_snprintf)
c:/nxp/mcuxpressoide_11.6.1_8255/ide/plugins/com.nxp.mcuxpresso.tools.win32_11.6.1.202207200623/tools/bin/../lib/gcc/arm-none-eabi/10.3.1/../../../../arm-none-eabi/lib/thumb/v7e-m+dp/hard\libcr_c.a(scanf.o)
                              ./utilities/fsl_str.o (strtoul)
c:/nxp/mcuxpressoide_11.6.1_8255/ide/plugins/com.nxp.mcuxpresso.tools.win32_11.6.1.202207200623/tools/bin/../lib/gcc/arm-none-eabi/10.3.1/../../../../arm-none-eabi/lib/thumb/v7e-m+dp/hard\libcr_c.a(setvbuf.o)
                              c:/nxp/mcuxpressoide_11.6.1_8255/ide/plugins/com.nxp.mcuxpresso.tools.win32_11.6.1.202207200623/tools/bin/../lib/gcc/arm-none-eabi/10.3.1/../../../../arm-none-eabi/lib/thumb/v7e-m+dp/hard\libcr_c.a(initio.o) (setvbuf)
c:/nxp/mcuxpressoide_11.6.1_8255/ide/plugins/com.nxp.mcuxpresso.tools.win32_11.6.1.202207200623/tools/bin/../lib/gcc/arm-none-eabi/10.3.1/../../../../arm-none-eabi/lib/thumb/v7e-m+dp/hard\libcr_c.a(stdlib.o)
                              ./mbedtls/library/rsa.o (rand)
c:/nxp/mcuxpressoide_11.6.1_8255/ide/plugins/com.nxp.mcuxpresso.tools.win32_11.6.1.202207200623/tools/bin/../lib/gcc/arm-none-eabi/10.3.1/../../../../arm-none-eabi/lib/thumb/v7e-m+dp/hard\libcr_c.a(strcmp.o)
                              ./mbedtls/library/cipher.o (strcmp)
c:/nxp/mcuxpressoide_11.6.1_8255/ide/plugins/com.nxp.mcuxpresso.tools.win32_11.6.1.202207200623/tools/bin/../lib/gcc/arm-none-eabi/10.3.1/../../../../arm-none-eabi/lib/thumb/v7e-m+dp/hard\libcr_c.a(strlen.o)
                              ./utilities/fsl_str.o (strlen)
c:/nxp/mcuxpressoide_11.6.1_8255/ide/plugins/com.nxp.mcuxpresso.tools.win32_11.6.1.202207200623/tools/bin/../lib/gcc/arm-none-eabi/10.3.1/../../../../arm-none-eabi/lib/thumb/v7e-m+dp/hard\libcr_c.a(strncmp.o)
                              ./source/sln_flash_mgmt.o (strncmp)
c:/nxp/mcuxpressoide_11.6.1_8255/ide/plugins/com.nxp.mcuxpresso.tools.win32_11.6.1.202207200623/tools/bin/../lib/gcc/arm-none-eabi/10.3.1/../../../../arm-none-eabi/lib/thumb/v7e-m+dp/hard\libcr_c.a(strstr.o)
                              ./mbedtls/library/pem.o (strstr)
c:/nxp/mcuxpressoide_11.6.1_8255/ide/plugins/com.nxp.mcuxpresso.tools.win32_11.6.1.202207200623/tools/bin/../lib/gcc/arm-none-eabi/10.3.1/../../../../arm-none-eabi/lib/thumb/v7e-m+dp/hard\libcr_c.a(ungetc.o)
                              c:/nxp/mcuxpressoide_11.6.1_8255/ide/plugins/com.nxp.mcuxpresso.tools.win32_11.6.1.202207200623/tools/bin/../lib/gcc/arm-none-eabi/10.3.1/../../../../arm-none-eabi/lib/thumb/v7e-m+dp/hard\libcr_c.a(scanf.o) (ungetc)
c:/nxp/mcuxpressoide_11.6.1_8255/ide/plugins/com.nxp.mcuxpresso.tools.win32_11.6.1.202207200623/tools/bin/../lib/gcc/arm-none-eabi/10.3.1/../../../../arm-none-eabi/lib/thumb/v7e-m+dp/hard\libcr_c.a(__fillbuf.o)
                              c:/nxp/mcuxpressoide_11.6.1_8255/ide/plugins/com.nxp.mcuxpresso.tools.win32_11.6.1.202207200623/tools/bin/../lib/gcc/arm-none-eabi/10.3.1/../../../../arm-none-eabi/lib/thumb/v7e-m+dp/hard\libcr_c.a(scanf.o) (__filbuf)
c:/nxp/mcuxpressoide_11.6.1_8255/ide/plugins/com.nxp.mcuxpresso.tools.win32_11.6.1.202207200623/tools/bin/../lib/gcc/arm-none-eabi/10.3.1/../../../../arm-none-eabi/lib/thumb/v7e-m+dp/hard\libcr_c.a(__init_alloc.o)
                              c:/nxp/mcuxpressoide_11.6.1_8255/ide/plugins/com.nxp.mcuxpresso.tools.win32_11.6.1.202207200623/tools/bin/../lib/gcc/arm-none-eabi/10.3.1/../../../../arm-none-eabi/lib/thumb/v7e-m+dp/hard\libcr_c.a(alloc.o) (__heaps)
c:/nxp/mcuxpressoide_11.6.1_8255/ide/plugins/com.nxp.mcuxpresso.tools.win32_11.6.1.202207200623/tools/bin/../lib/gcc/arm-none-eabi/10.3.1/../../../../arm-none-eabi/lib/thumb/v7e-m+dp/hard\libcr_c.a(_cr_sbrk.o)
                              c:/nxp/mcuxpressoide_11.6.1_8255/ide/plugins/com.nxp.mcuxpresso.tools.win32_11.6.1.202207200623/tools/bin/../lib/gcc/arm-none-eabi/10.3.1/../../../../arm-none-eabi/lib/thumb/v7e-m+dp/hard\libcr_c.a(alloc.o) (_sbrk)
c:/nxp/mcuxpressoide_11.6.1_8255/ide/plugins/com.nxp.mcuxpresso.tools.win32_11.6.1.202207200623/tools/bin/../lib/gcc/arm-none-eabi/10.3.1/../../../../arm-none-eabi/lib/thumb/v7e-m+dp/hard\libcr_c.a(_deferredlazyseek.o)
                              c:/nxp/mcuxpressoide_11.6.1_8255/ide/plugins/com.nxp.mcuxpresso.tools.win32_11.6.1.202207200623/tools/bin/../lib/gcc/arm-none-eabi/10.3.1/../../../../arm-none-eabi/lib/thumb/v7e-m+dp/hard\libcr_c.a(__fillbuf.o) (_deferredlazyseek)
c:/nxp/mcuxpressoide_11.6.1_8255/ide/plugins/com.nxp.mcuxpresso.tools.win32_11.6.1.202207200623/tools/bin/../lib/gcc/arm-none-eabi/10.3.1/../../../../arm-none-eabi/lib/thumb/v7e-m+dp/hard\libcr_c.a(_fdopen.o)
                              c:/nxp/mcuxpressoide_11.6.1_8255/ide/plugins/com.nxp.mcuxpresso.tools.win32_11.6.1.202207200623/tools/bin/../lib/gcc/arm-none-eabi/10.3.1/../../../../arm-none-eabi/lib/thumb/v7e-m+dp/hard\libcr_c.a(initio.o) (_fdopen)
c:/nxp/mcuxpressoide_11.6.1_8255/ide/plugins/com.nxp.mcuxpresso.tools.win32_11.6.1.202207200623/tools/bin/../lib/gcc/arm-none-eabi/10.3.1/../../../../arm-none-eabi/lib/thumb/v7e-m+dp/hard\libcr_c.a(_fflush.o)
                              c:/nxp/mcuxpressoide_11.6.1_8255/ide/plugins/com.nxp.mcuxpresso.tools.win32_11.6.1.202207200623/tools/bin/../lib/gcc/arm-none-eabi/10.3.1/../../../../arm-none-eabi/lib/thumb/v7e-m+dp/hard\libcr_c.a(__fillbuf.o) (_fflush)
c:/nxp/mcuxpressoide_11.6.1_8255/ide/plugins/com.nxp.mcuxpresso.tools.win32_11.6.1.202207200623/tools/bin/../lib/gcc/arm-none-eabi/10.3.1/../../../../arm-none-eabi/lib/thumb/v7e-m+dp/hard\libcr_c.a(_frexpl.o)
                              c:/nxp/mcuxpressoide_11.6.1_8255/ide/plugins/com.nxp.mcuxpresso.tools.win32_11.6.1.202207200623/tools/bin/../lib/gcc/arm-none-eabi/10.3.1/../../../../arm-none-eabi/lib/thumb/v7e-m+dp/hard\libcr_c.a(scanf.o) (_frexpl)
c:/nxp/mcuxpressoide_11.6.1_8255/ide/plugins/com.nxp.mcuxpresso.tools.win32_11.6.1.202207200623/tools/bin/../lib/gcc/arm-none-eabi/10.3.1/../../../../arm-none-eabi/lib/thumb/v7e-m+dp/hard\libcr_c.a(_ldexpl.o)
                              c:/nxp/mcuxpressoide_11.6.1_8255/ide/plugins/com.nxp.mcuxpresso.tools.win32_11.6.1.202207200623/tools/bin/../lib/gcc/arm-none-eabi/10.3.1/../../../../arm-none-eabi/lib/thumb/v7e-m+dp/hard\libcr_c.a(scanf.o) (_ldexpl)
c:/nxp/mcuxpressoide_11.6.1_8255/ide/plugins/com.nxp.mcuxpresso.tools.win32_11.6.1.202207200623/tools/bin/../lib/gcc/arm-none-eabi/10.3.1/../../../../arm-none-eabi/lib/thumb/v7e-m+dp/hard\libcr_c.a(_writebuf.o)
                              c:/nxp/mcuxpressoide_11.6.1_8255/ide/plugins/com.nxp.mcuxpresso.tools.win32_11.6.1.202207200623/tools/bin/../lib/gcc/arm-none-eabi/10.3.1/../../../../arm-none-eabi/lib/thumb/v7e-m+dp/hard\libcr_c.a(_deferredlazyseek.o) (_Cwritebuf)
c:/nxp/mcuxpressoide_11.6.1_8255/ide/plugins/com.nxp.mcuxpresso.tools.win32_11.6.1.202207200623/tools/bin/../lib/gcc/arm-none-eabi/10.3.1/../../../../arm-none-eabi/lib/thumb/v7e-m+dp/hard\libcr_c.a(ctype.o)
                              c:/nxp/mcuxpressoide_11.6.1_8255/ide/plugins/com.nxp.mcuxpresso.tools.win32_11.6.1.202207200623/tools/bin/../lib/gcc/arm-none-eabi/10.3.1/../../../../arm-none-eabi/lib/thumb/v7e-m+dp/hard\libcr_c.a(scanf.o) (__ctype)
c:/nxp/mcuxpressoide_11.6.1_8255/ide/plugins/com.nxp.mcuxpresso.tools.win32_11.6.1.202207200623/tools/bin/../lib/gcc/arm-none-eabi/10.3.1/../../../../arm-none-eabi/lib/thumb/v7e-m+dp/hard\libcr_c.a(errno.o)
                              c:/nxp/mcuxpressoide_11.6.1_8255/ide/plugins/com.nxp.mcuxpresso.tools.win32_11.6.1.202207200623/tools/bin/../lib/gcc/arm-none-eabi/10.3.1/../../../../arm-none-eabi/lib/thumb/v7e-m+dp/hard\libcr_c.a(scanf.o) (errno)
c:/nxp/mcuxpressoide_11.6.1_8255/ide/plugins/com.nxp.mcuxpresso.tools.win32_11.6.1.202207200623/tools/bin/../lib/gcc/arm-none-eabi/10.3.1/../../../../arm-none-eabi/lib/thumb/v7e-m+dp/hard\libcr_c.a(fclose.o)
                              c:/nxp/mcuxpressoide_11.6.1_8255/ide/plugins/com.nxp.mcuxpresso.tools.win32_11.6.1.202207200623/tools/bin/../lib/gcc/arm-none-eabi/10.3.1/../../../../arm-none-eabi/lib/thumb/v7e-m+dp/hard\libcr_c.a(initio.o) (fclose)
c:/nxp/mcuxpressoide_11.6.1_8255/ide/plugins/com.nxp.mcuxpresso.tools.win32_11.6.1.202207200623/tools/bin/../lib/gcc/arm-none-eabi/10.3.1/../../../../arm-none-eabi/lib/thumb/v7e-m+dp/hard\libcr_c.a(fflush.o)
                              c:/nxp/mcuxpressoide_11.6.1_8255/ide/plugins/com.nxp.mcuxpresso.tools.win32_11.6.1.202207200623/tools/bin/../lib/gcc/arm-none-eabi/10.3.1/../../../../arm-none-eabi/lib/thumb/v7e-m+dp/hard\libcr_c.a(fclose.o) (fflush)
c:/nxp/mcuxpressoide_11.6.1_8255/ide/plugins/com.nxp.mcuxpresso.tools.win32_11.6.1.202207200623/tools/bin/../lib/gcc/arm-none-eabi/10.3.1/../../../../arm-none-eabi/lib/thumb/v7e-m+dp/hard\libcr_c.a(fseek.o)
                              c:/nxp/mcuxpressoide_11.6.1_8255/ide/plugins/com.nxp.mcuxpresso.tools.win32_11.6.1.202207200623/tools/bin/../lib/gcc/arm-none-eabi/10.3.1/../../../../arm-none-eabi/lib/thumb/v7e-m+dp/hard\libcr_c.a(_deferredlazyseek.o) (fseek)
c:/nxp/mcuxpressoide_11.6.1_8255/ide/plugins/com.nxp.mcuxpresso.tools.win32_11.6.1.202207200623/tools/bin/../lib/gcc/arm-none-eabi/10.3.1/../../../../arm-none-eabi/lib/thumb/v7e-m+dp/hard\libcr_c.a(ftell.o)
                              c:/nxp/mcuxpressoide_11.6.1_8255/ide/plugins/com.nxp.mcuxpresso.tools.win32_11.6.1.202207200623/tools/bin/../lib/gcc/arm-none-eabi/10.3.1/../../../../arm-none-eabi/lib/thumb/v7e-m+dp/hard\libcr_c.a(fseek.o) (ftell)
c:/nxp/mcuxpressoide_11.6.1_8255/ide/plugins/com.nxp.mcuxpresso.tools.win32_11.6.1.202207200623/tools/bin/../lib/gcc/arm-none-eabi/10.3.1/../../../../arm-none-eabi/lib/thumb/v7e-m+dp/hard\libcr_c.a(raise.o)
                              c:/nxp/mcuxpressoide_11.6.1_8255/ide/plugins/com.nxp.mcuxpresso.tools.win32_11.6.1.202207200623/tools/bin/../lib/gcc/arm-none-eabi/10.3.1/../../../../arm-none-eabi/lib/thumb/v7e-m+dp/hard\libcr_c.a(stdlib.o) (raise)
c:/nxp/mcuxpressoide_11.6.1_8255/ide/plugins/com.nxp.mcuxpresso.tools.win32_11.6.1.202207200623/tools/bin/../lib/gcc/arm-none-eabi/10.3.1/../../../../arm-none-eabi/lib/thumb/v7e-m+dp/hard\libcr_c.a(remove.o)
                              c:/nxp/mcuxpressoide_11.6.1_8255/ide/plugins/com.nxp.mcuxpresso.tools.win32_11.6.1.202207200623/tools/bin/../lib/gcc/arm-none-eabi/10.3.1/../../../../arm-none-eabi/lib/thumb/v7e-m+dp/hard\libcr_c.a(fclose.o) (remove)
c:/nxp/mcuxpressoide_11.6.1_8255/ide/plugins/com.nxp.mcuxpresso.tools.win32_11.6.1.202207200623/tools/bin/../lib/gcc/arm-none-eabi/10.3.1/../../../../arm-none-eabi/lib/thumb/v7e-m+dp/hard\libcr_c.a(_cr_check_heap.o)
                              c:/nxp/mcuxpressoide_11.6.1_8255/ide/plugins/com.nxp.mcuxpresso.tools.win32_11.6.1.202207200623/tools/bin/../lib/gcc/arm-none-eabi/10.3.1/../../../../arm-none-eabi/lib/thumb/v7e-m+dp/hard\libcr_c.a(_cr_sbrk.o) (__check_heap_overflow)
c:/nxp/mcuxpressoide_11.6.1_8255/ide/plugins/com.nxp.mcuxpresso.tools.win32_11.6.1.202207200623/tools/bin/../lib/gcc/arm-none-eabi/10.3.1/../../../../arm-none-eabi/lib/thumb/v7e-m+dp/hard\libcr_c.a(_do_fflush.o)
                              c:/nxp/mcuxpressoide_11.6.1_8255/ide/plugins/com.nxp.mcuxpresso.tools.win32_11.6.1.202207200623/tools/bin/../lib/gcc/arm-none-eabi/10.3.1/../../../../arm-none-eabi/lib/thumb/v7e-m+dp/hard\libcr_c.a(fflush.o) (_do_fflush)
c:/nxp/mcuxpressoide_11.6.1_8255/ide/plugins/com.nxp.mcuxpresso.tools.win32_11.6.1.202207200623/tools/bin/../lib/gcc/arm-none-eabi/10.3.1/thumb/v7e-m+dp/hard\libcr_eabihelpers.a(division_64.o)
                              ./source/sln_RT10xx_RGB_LED_driver_pwm.o (__aeabi_uldivmod)
c:/nxp/mcuxpressoide_11.6.1_8255/ide/plugins/com.nxp.mcuxpresso.tools.win32_11.6.1.202207200623/tools/bin/../lib/gcc/arm-none-eabi/10.3.1/thumb/v7e-m+dp/hard\libcr_eabihelpers.a(division_idiv0.o)
                              c:/nxp/mcuxpressoide_11.6.1_8255/ide/plugins/com.nxp.mcuxpresso.tools.win32_11.6.1.202207200623/tools/bin/../lib/gcc/arm-none-eabi/10.3.1/thumb/v7e-m+dp/hard\libcr_eabihelpers.a(division_64.o) (__aeabi_idiv0)
c:/nxp/mcuxpressoide_11.6.1_8255/ide/plugins/com.nxp.mcuxpresso.tools.win32_11.6.1.202207200623/tools/bin/../lib/gcc/arm-none-eabi/10.3.1/thumb/v7e-m+dp/hard\libcr_eabihelpers.a(memcpy.o)
                              c:/nxp/mcuxpressoide_11.6.1_8255/ide/plugins/com.nxp.mcuxpresso.tools.win32_11.6.1.202207200623/tools/bin/../lib/gcc/arm-none-eabi/10.3.1/../../../../arm-none-eabi/lib/thumb/v7e-m+dp/hard\libcr_c.a(memcpy.o) (__aeabi_memcpy)
c:/nxp/mcuxpressoide_11.6.1_8255/ide/plugins/com.nxp.mcuxpresso.tools.win32_11.6.1.202207200623/tools/bin/../lib/gcc/arm-none-eabi/10.3.1/../../../../arm-none-eabi/lib/thumb/v7e-m+dp/hard\libcr_nohost_nf.a(__ciob.o)
                              c:/nxp/mcuxpressoide_11.6.1_8255/ide/plugins/com.nxp.mcuxpresso.tools.win32_11.6.1.202207200623/tools/bin/../lib/gcc/arm-none-eabi/10.3.1/../../../../arm-none-eabi/lib/thumb/v7e-m+dp/hard\libcr_c.a(initio.o) (__Ciob)
c:/nxp/mcuxpressoide_11.6.1_8255/ide/plugins/com.nxp.mcuxpresso.tools.win32_11.6.1.202207200623/tools/bin/../lib/gcc/arm-none-eabi/10.3.1/../../../../arm-none-eabi/lib/thumb/v7e-m+dp/hard\libcr_nohost_nf.a(__sys_appexit.o)
                              c:/nxp/mcuxpressoide_11.6.1_8255/ide/plugins/com.nxp.mcuxpresso.tools.win32_11.6.1.202207200623/tools/bin/../lib/gcc/arm-none-eabi/10.3.1/../../../../arm-none-eabi/lib/thumb/v7e-m+dp/hard\libcr_c.a(alloc.o) (__sys_appexit)
c:/nxp/mcuxpressoide_11.6.1_8255/ide/plugins/com.nxp.mcuxpresso.tools.win32_11.6.1.202207200623/tools/bin/../lib/gcc/arm-none-eabi/10.3.1/../../../../arm-none-eabi/lib/thumb/v7e-m+dp/hard\libcr_nohost_nf.a(__sys_close.o)
                              c:/nxp/mcuxpressoide_11.6.1_8255/ide/plugins/com.nxp.mcuxpresso.tools.win32_11.6.1.202207200623/tools/bin/../lib/gcc/arm-none-eabi/10.3.1/../../../../arm-none-eabi/lib/thumb/v7e-m+dp/hard\libcr_c.a(fclose.o) (__sys_close)
c:/nxp/mcuxpressoide_11.6.1_8255/ide/plugins/com.nxp.mcuxpresso.tools.win32_11.6.1.202207200623/tools/bin/../lib/gcc/arm-none-eabi/10.3.1/../../../../arm-none-eabi/lib/thumb/v7e-m+dp/hard\libcr_nohost_nf.a(__sys_flen.o)
                              c:/nxp/mcuxpressoide_11.6.1_8255/ide/plugins/com.nxp.mcuxpresso.tools.win32_11.6.1.202207200623/tools/bin/../lib/gcc/arm-none-eabi/10.3.1/../../../../arm-none-eabi/lib/thumb/v7e-m+dp/hard\libcr_c.a(_writebuf.o) (__sys_flen)
c:/nxp/mcuxpressoide_11.6.1_8255/ide/plugins/com.nxp.mcuxpresso.tools.win32_11.6.1.202207200623/tools/bin/../lib/gcc/arm-none-eabi/10.3.1/../../../../arm-none-eabi/lib/thumb/v7e-m+dp/hard\libcr_nohost_nf.a(__sys_istty.o)
                              c:/nxp/mcuxpressoide_11.6.1_8255/ide/plugins/com.nxp.mcuxpresso.tools.win32_11.6.1.202207200623/tools/bin/../lib/gcc/arm-none-eabi/10.3.1/../../../../arm-none-eabi/lib/thumb/v7e-m+dp/hard\libcr_c.a(_deferredlazyseek.o) (__sys_istty)
c:/nxp/mcuxpressoide_11.6.1_8255/ide/plugins/com.nxp.mcuxpresso.tools.win32_11.6.1.202207200623/tools/bin/../lib/gcc/arm-none-eabi/10.3.1/../../../../arm-none-eabi/lib/thumb/v7e-m+dp/hard\libcr_nohost_nf.a(__sys_read.o)
                              c:/nxp/mcuxpressoide_11.6.1_8255/ide/plugins/com.nxp.mcuxpresso.tools.win32_11.6.1.202207200623/tools/bin/../lib/gcc/arm-none-eabi/10.3.1/../../../../arm-none-eabi/lib/thumb/v7e-m+dp/hard\libcr_c.a(__fillbuf.o) (__sys_read)
c:/nxp/mcuxpressoide_11.6.1_8255/ide/plugins/com.nxp.mcuxpresso.tools.win32_11.6.1.202207200623/tools/bin/../lib/gcc/arm-none-eabi/10.3.1/../../../../arm-none-eabi/lib/thumb/v7e-m+dp/hard\libcr_nohost_nf.a(__sys_readc.o)
                              c:/nxp/mcuxpressoide_11.6.1_8255/ide/plugins/com.nxp.mcuxpresso.tools.win32_11.6.1.202207200623/tools/bin/../lib/gcc/arm-none-eabi/10.3.1/../../../../arm-none-eabi/lib/thumb/v7e-m+dp/hard\libcr_c.a(__fillbuf.o) (__sys_readc)
c:/nxp/mcuxpressoide_11.6.1_8255/ide/plugins/com.nxp.mcuxpresso.tools.win32_11.6.1.202207200623/tools/bin/../lib/gcc/arm-none-eabi/10.3.1/../../../../arm-none-eabi/lib/thumb/v7e-m+dp/hard\libcr_nohost_nf.a(__sys_remove.o)
                              c:/nxp/mcuxpressoide_11.6.1_8255/ide/plugins/com.nxp.mcuxpresso.tools.win32_11.6.1.202207200623/tools/bin/../lib/gcc/arm-none-eabi/10.3.1/../../../../arm-none-eabi/lib/thumb/v7e-m+dp/hard\libcr_c.a(remove.o) (__sys_remove)
c:/nxp/mcuxpressoide_11.6.1_8255/ide/plugins/com.nxp.mcuxpresso.tools.win32_11.6.1.202207200623/tools/bin/../lib/gcc/arm-none-eabi/10.3.1/../../../../arm-none-eabi/lib/thumb/v7e-m+dp/hard\libcr_nohost_nf.a(__sys_rename.o)
                              c:/nxp/mcuxpressoide_11.6.1_8255/ide/plugins/com.nxp.mcuxpresso.tools.win32_11.6.1.202207200623/tools/bin/../lib/gcc/arm-none-eabi/10.3.1/../../../../arm-none-eabi/lib/thumb/v7e-m+dp/hard\libcr_c.a(remove.o) (__sys_rename)
c:/nxp/mcuxpressoide_11.6.1_8255/ide/plugins/com.nxp.mcuxpresso.tools.win32_11.6.1.202207200623/tools/bin/../lib/gcc/arm-none-eabi/10.3.1/../../../../arm-none-eabi/lib/thumb/v7e-m+dp/hard\libcr_nohost_nf.a(__sys_seek.o)
                              c:/nxp/mcuxpressoide_11.6.1_8255/ide/plugins/com.nxp.mcuxpresso.tools.win32_11.6.1.202207200623/tools/bin/../lib/gcc/arm-none-eabi/10.3.1/../../../../arm-none-eabi/lib/thumb/v7e-m+dp/hard\libcr_c.a(__fillbuf.o) (__sys_seek)
c:/nxp/mcuxpressoide_11.6.1_8255/ide/plugins/com.nxp.mcuxpresso.tools.win32_11.6.1.202207200623/tools/bin/../lib/gcc/arm-none-eabi/10.3.1/../../../../arm-none-eabi/lib/thumb/v7e-m+dp/hard\libcr_nohost_nf.a(__sys_tmpnam.o)
                              c:/nxp/mcuxpressoide_11.6.1_8255/ide/plugins/com.nxp.mcuxpresso.tools.win32_11.6.1.202207200623/tools/bin/../lib/gcc/arm-none-eabi/10.3.1/../../../../arm-none-eabi/lib/thumb/v7e-m+dp/hard\libcr_c.a(fclose.o) (__sys_tmpnam)
c:/nxp/mcuxpressoide_11.6.1_8255/ide/plugins/com.nxp.mcuxpresso.tools.win32_11.6.1.202207200623/tools/bin/../lib/gcc/arm-none-eabi/10.3.1/../../../../arm-none-eabi/lib/thumb/v7e-m+dp/hard\libcr_nohost_nf.a(__sys_write.o)
                              c:/nxp/mcuxpressoide_11.6.1_8255/ide/plugins/com.nxp.mcuxpresso.tools.win32_11.6.1.202207200623/tools/bin/../lib/gcc/arm-none-eabi/10.3.1/../../../../arm-none-eabi/lib/thumb/v7e-m+dp/hard\libcr_c.a(alloc.o) (__sys_write)

Discarded input sections

 .text          0x00000000        0x0 ./xip/fsl_flexspi_nor_boot.o
 .data          0x00000000        0x0 ./xip/fsl_flexspi_nor_boot.o
 .bss           0x00000000        0x0 ./xip/fsl_flexspi_nor_boot.o
 .text          0x00000000        0x0 ./xip/sln_local2_iot_flexspi_nor_config.o
 .data          0x00000000        0x0 ./xip/sln_local2_iot_flexspi_nor_config.o
 .bss           0x00000000        0x0 ./xip/sln_local2_iot_flexspi_nor_config.o
 .text          0x00000000        0x0 ./utilities/fsl_assert.o
 .data          0x00000000        0x0 ./utilities/fsl_assert.o
 .bss           0x00000000        0x0 ./utilities/fsl_assert.o
 .text          0x00000000        0x0 ./utilities/fsl_debug_console.o
 .data          0x00000000        0x0 ./utilities/fsl_debug_console.o
 .bss           0x00000000        0x0 ./utilities/fsl_debug_console.o
 .text.DbgConsole_ReadOneCharacter
                0x00000000       0x58 ./utilities/fsl_debug_console.o
 .rodata.DbgConsole_ReadLine.str1.4
                0x00000000       0x26 ./utilities/fsl_debug_console.o
 .text.DbgConsole_ReadLine
                0x00000000      0x100 ./utilities/fsl_debug_console.o
Memory Configuration

Name             Origin             Length             Attributes
BOARD_FLASH      0x60000000         0x00040000         xr
SRAM_DTC         0x20000000         0x00040000         xrw
SRAM_ITC         0x00000000         0x00040000         xrw
SRAM_OC_NON_CACHEABLE 0x20200000         0x00080000         xrw
SRAM_OC_CACHEABLE 0x20280000         0x00000000         xrw
*default*        0x00000000         0xffffffff

Linker script and memory map

LOAD ./xip/fsl_flexspi_nor_boot.o
LOAD ./xip/sln_local2_iot_flexspi_nor_config.o
LOAD ./utilities/fsl_assert.o
LOAD ./utilities/fsl_debug_console.o
LOAD ./utilities/fsl_str.o
LOAD ./startup/startup_mimxrt106s.o
LOAD ./source/main.o
LOAD ./source/os_hooks.o
LOAD ./source/semihost_hardfault.o
LOAD ./source/sln_RT10xx_RGB_LED_driver.o
LOAD ./source/sln_RT10xx_RGB_LED_driver_pwm.o
LOAD ./source/sln_auth.o
LOAD ./source/sln_encrypt.o
LOAD ./source/sln_flash.o
LOAD ./source/sln_flash_config.o
LOAD ./source/sln_flash_mgmt.o
LOAD ./mbedtls/port/ksdk/aes_alt.o
LOAD ./mbedtls/port/ksdk/des_alt.o
LOAD ./mbedtls/port/ksdk/ecp_alt.o
LOAD ./mbedtls/port/ksdk/ecp_alt_ksdk.o
LOAD ./mbedtls/port/ksdk/ecp_curves_alt.o
LOAD ./mbedtls/port/ksdk/ksdk_mbedtls.o
LOAD ./mbedtls/library/aes.o
LOAD ./mbedtls/library/aesni.o
LOAD ./mbedtls/library/arc4.o
LOAD ./mbedtls/library/aria.o
LOAD ./mbedtls/library/asn1parse.o
LOAD ./mbedtls/library/asn1write.o
LOAD ./mbedtls/library/base64.o
LOAD ./mbedtls/library/bignum.o
LOAD ./mbedtls/library/blowfish.o
LOAD ./mbedtls/library/camellia.o
LOAD ./mbedtls/library/ccm.o
LOAD ./mbedtls/library/certs.o
LOAD ./mbedtls/library/chacha20.o
LOAD ./mbedtls/library/chachapoly.o
LOAD ./mbedtls/library/cipher.o
LOAD ./mbedtls/library/cipher_wrap.o
LOAD ./mbedtls/library/cmac.o
LOAD ./mbedtls/library/ctr_drbg.o
LOAD ./mbedtls/library/debug.o
LOAD ./mbedtls/library/des.o
LOAD ./mbedtls/library/dhm.o
LOAD ./mbedtls/library/ecdh.o
LOAD ./mbedtls/library/ecdsa.o
LOAD ./mbedtls/library/ecjpake.o
LOAD ./mbedtls/library/ecp.o
LOAD ./mbedtls/library/ecp_curves.o
LOAD ./mbedtls/library/entropy.o
LOAD ./mbedtls/library/entropy_poll.o
LOAD ./mbedtls/library/error.o
LOAD ./mbedtls/library/gcm.o
LOAD ./mbedtls/library/havege.o
LOAD ./mbedtls/library/hkdf.o
LOAD ./mbedtls/library/hmac_drbg.o
LOAD ./mbedtls/library/md.o
LOAD ./mbedtls/library/md2.o
LOAD ./mbedtls/library/md4.o
LOAD ./mbedtls/library/md5.o
LOAD ./mbedtls/library/md_wrap.o
LOAD ./mbedtls/library/memory_buffer_alloc.o
LOAD ./mbedtls/library/net_sockets.o
LOAD ./mbedtls/library/nist_kw.o
LOAD ./mbedtls/library/oid.o
LOAD ./mbedtls/library/padlock.o
LOAD ./mbedtls/library/pem.o
LOAD ./mbedtls/library/pk.o
LOAD ./mbedtls/library/pk_wrap.o
LOAD ./mbedtls/library/pkcs11.o
LOAD ./mbedtls/library/pkcs12.o
LOAD ./mbedtls/library/pkcs5.o
LOAD ./mbedtls/library/pkparse.o
LOAD ./mbedtls/library/pkwrite.o
LOAD ./mbedtls/library/platform.o
LOAD ./mbedtls/library/platform_util.o
LOAD ./mbedtls/library/poly1305.o
LOAD ./mbedtls/library/ripemd160.o
LOAD ./mbedtls/library/rsa.o
LOAD ./mbedtls/library/rsa_internal.o
LOAD ./mbedtls/library/sha1.o
LOAD ./mbedtls/library/sha256.o
LOAD ./mbedtls/library/sha512.o
LOAD ./mbedtls/library/ssl_cache.o
LOAD ./mbedtls/library/ssl_ciphersuites.o
LOAD ./mbedtls/library/ssl_cli.o
LOAD ./mbedtls/library/ssl_cookie.o
LOAD ./mbedtls/library/ssl_srv.o
LOAD ./mbedtls/library/ssl_ticket.o
LOAD ./mbedtls/library/ssl_tls.o
LOAD ./mbedtls/library/threading.o
LOAD ./mbedtls/library/timing.o
LOAD ./mbedtls/library/version.o
LOAD ./mbedtls/library/version_features.o
LOAD ./mbedtls/library/x509.o
LOAD ./mbedtls/library/x509_create.o
LOAD ./mbedtls/library/x509_crl.o
LOAD ./mbedtls/library/x509_crt.o
LOAD ./mbedtls/library/x509_csr.o
LOAD ./mbedtls/library/x509write_crt.o
LOAD ./mbedtls/library/x509write_csr.o
LOAD ./mbedtls/library/xtea.o
LOAD ./freertos/freertos_kernel/portable/MemMang/heap_4.o
LOAD ./freertos/freertos_kernel/portable/GCC/ARM_CM4F/port.o
LOAD ./freertos/freertos_kernel/croutine.o
LOAD ./freertos/freertos_kernel/event_groups.o
LOAD ./freertos/freertos_kernel/list.o
LOAD ./freertos/freertos_kernel/queue.o
LOAD ./freertos/freertos_kernel/stream_buffer.o
LOAD ./freertos/freertos_kernel/tasks.o
LOAD ./freertos/freertos_kernel/timers.o
LOAD ./drivers/flexspi_hyper_flash_ops.o
LOAD ./drivers/fsl_clock.o
LOAD ./drivers/fsl_common.o
LOAD ./drivers/fsl_dcp.o
LOAD ./drivers/fsl_flexram.o
LOAD ./drivers/fsl_flexram_allocate.o
LOAD ./drivers/fsl_flexspi.o
LOAD ./drivers/fsl_gpio.o
LOAD ./drivers/fsl_gpt.o
LOAD ./drivers/fsl_lpi2c.o
LOAD ./drivers/fsl_lpuart.o
LOAD ./drivers/fsl_pit.o
LOAD ./drivers/fsl_pwm.o
LOAD ./drivers/fsl_trng.o
LOAD ./drivers/fsl_xbara.o
LOAD ./device/system_MIMXRT106S.o
LOAD ./component/uart/lpuart_adapter.o
LOAD ./component/serial_manager/serial_manager.o
LOAD ./component/serial_manager/serial_port_uart.o
LOAD ./component/lists/generic_list.o
LOAD ./board/board.o
LOAD ./board/clock_config.o
LOAD ./board/dcd.o
LOAD ./board/pin_mux.o
START GROUP
LOAD c:/nxp/mcuxpressoide_11.6.1_8255/ide/plugins/com.nxp.mcuxpresso.tools.win32_11.6.1.202207200623/tools/bin/../lib/gcc/arm-none-eabi/10.3.1/../../../../arm-none-eabi/lib/thumb/v7e-m+dp/hard\libcr_nohost_nf.a
LOAD c:/nxp/mcuxpressoide_11.6.1_8255/ide/plugins/com.nxp.mcuxpresso.tools.win32_11.6.1.202207200623/tools/bin/../lib/gcc/arm-none-eabi/10.3.1/../../../../arm-none-eabi/lib/thumb/v7e-m+dp/hard\libcr_c.a
LOAD c:/nxp/mcuxpressoide_11.6.1_8255/ide/plugins/com.nxp.mcuxpresso.tools.win32_11.6.1.202207200623/tools/bin/../lib/gcc/arm-none-eabi/10.3.1/thumb/v7e-m+dp/hard\libcr_eabihelpers.a
LOAD c:/nxp/mcuxpressoide_11.6.1_8255/ide/plugins/com.nxp.mcuxpresso.tools.win32_11.6.1.202207200623/tools/bin/../lib/gcc/arm-none-eabi/10.3.1/thumb/v7e-m+dp/hard\libgcc.a
END GROUP
                0x60000000                __base_BOARD_FLASH = 0x60000000
                0x60000000                __base_Flash = 0x60000000
                0x60040000                __top_BOARD_FLASH = 0x60040000
                0x60040000                __top_Flash = 0x60040000
                0x20000000                __base_SRAM_DTC = 0x20000000
                0x20000000                __base_RAM = 0x20000000
                0x20040000                __top_SRAM_DTC = 0x20040000
                0x20040000                __top_RAM = 0x20040000
                0x00000000                __base_SRAM_ITC = 0x0
                0x00000000                __base_RAM2 = 0x0
                0x00040000                __top_SRAM_ITC = 0x40000
                0x00040000                __top_RAM2 = 0x40000
                0x20200000                __base_SRAM_OC_NON_CACHEABLE = 0x20200000
                0x20200000                __base_RAM3 = 0x20200000
                0x20280000                __top_SRAM_OC_NON_CACHEABLE = 0x20280000
                0x20280000                __top_RAM3 = 0x20280000
                0x20280000                __base_SRAM_OC_CACHEABLE = 0x20280000
                0x20280000                __base_RAM4 = 0x20280000
                0x20280000                __top_SRAM_OC_CACHEABLE = 0x20280000
                0x20280000                __top_RAM4 = 0x20280000

.boot_hdr       0x60000000     0x2000
 FILL mask 0xff
                0x60000000                __boot_hdr_start__ = ABSOLUTE (.)
 *(SORT_BY_ALIGNMENT(.boot_hdr.conf))
 .boot_hdr.conf
                0x60000000      0x200 ./xip/sln_local2_iot_flexspi_nor_config.o
                0x60000000                hyperflash_config
                0x00001000                . = 0x1000
 *fill*         0x60000200      0xe00 ff
 *(SORT_BY_ALIGNMENT(.boot_hdr.ivt))
 .boot_hdr.ivt  0x60001000       0x20 ./xip/fsl_flexspi_nor_boot.o
                0x60001000                image_vector_table
                0x00001020                . = 0x1020
 *(SORT_BY_ALIGNMENT(.boot_hdr.boot_data))
 .boot_hdr.boot_data
                0x60001020       0x10 ./xip/fsl_flexspi_nor_boot.o
                0x60001020                boot_data
                0x00001030                . = 0x1030
 *(SORT_BY_ALIGNMENT(.boot_hdr.dcd_data))
 .boot_hdr.dcd_data
                0x60001030      0x430 ./board/dcd.o
                0x60001030                dcd_data
                0x60001460                __boot_hdr_end__ = ABSOLUTE (.)
                0x00002000                . = 0x2000
 *fill*         0x60001460      0xba0 ff

.text           0x60002000     0xdc3c
 FILL mask 0xff
                0x60002000                __vectors_start__ = ABSOLUTE (.)
 *(SORT_BY_ALIGNMENT(.isr_vector))
 .isr_vector    0x60002000      0x400 ./startup/startup_mimxrt106s.o
                0x60002000                g_pfnVectors
                0x60002000                __Vectors
                0x60002400                . = ALIGN (0x4)
                0x60002400                __section_table_start = .
                0x60002400                __data_section_table = .
                0x60002400        0x4 LONG 0x60011034 LOADADDR (.data)
                0x60002404        0x4 LONG 0x20000000 ADDR (.data)
                0x60002408        0x4 LONG 0x170 SIZEOF (.data)
                0x6000240c        0x4 LONG 0x6000fc3c LOADADDR (.data_RAM2)
                0x60002410        0x4 LONG 0x0 ADDR (.data_RAM2)
                0x60002414        0x4 LONG 0x13f8 SIZEOF (.data_RAM2)
                0x60002418        0x4 LONG 0x60011034 LOADADDR (.data_RAM3)
                0x6000241c        0x4 LONG 0x20200000 ADDR (.data_RAM3)
                0x60002420        0x4 LONG 0x0 SIZEOF (.data_RAM3)
                0x60002424        0x4 LONG 0x60011034 LOADADDR (.data_RAM4)
                0x60002428        0x4 LONG 0x20280000 ADDR (.data_RAM4)
                0x6000242c        0x4 LONG 0x0 SIZEOF (.data_RAM4)
                0x60002430                __data_section_table_end = .
                0x60002430                __bss_section_table = .
                0x60002430        0x4 LONG 0x20000170 ADDR (.bss)
                0x60002434        0x4 LONG 0x11734 SIZEOF (.bss)
                0x60002438        0x4 LONG 0x13f8 ADDR (.bss_RAM2)
                0x6000243c        0x4 LONG 0x0 SIZEOF (.bss_RAM2)
                0x60002440        0x4 LONG 0x20200000 ADDR (.bss_RAM3)
                0x60002444        0x4 LONG 0x40000 SIZEOF (.bss_RAM3)
                0x60002448        0x4 LONG 0x20280000 ADDR (.bss_RAM4)
                0x6000244c        0x4 LONG 0x0 SIZEOF (.bss_RAM4)
                0x60002450                __bss_section_table_end = .
                0x60002450                __section_table_end = .
 *(SORT_BY_ALIGNMENT(.after_vectors*))
 .after_vectors.reset
                0x60002450       0xcc ./startup/startup_mimxrt106s.o
                0x60002450                ResetISR
 .after_vectors.init_data
                0x6000251c       0x1e ./startup/startup_mimxrt106s.o
                0x6000251c                data_init
 .after_vectors.init_bss
                0x6000253a       0x12 ./startup/startup_mimxrt106s.o
                0x6000253a                bss_init
 .after_vectors
                0x6000254c       0x14 ./startup/startup_mimxrt106s.o
                0x6000254c                NMI_Handler
                0x60002550                MemManage_Handler
                0x60002552                BusFault_Handler
                0x60002554                UsageFault_Handler
                0x60002558                DebugMon_Handler
                0x6000255e                LPSPI2_DriverIRQHandler
                0x6000255e                LCDIF_DriverIRQHandler
                0x6000255e                SAI3_RX_DriverIRQHandler
                0x6000255e                CCM_2_DriverIRQHandler
                0x6000255e                PIT_DriverIRQHandler
                0x6000255e                PMU_EVENT_DriverIRQHandler
                0x6000255e                PWM4_FAULT_DriverIRQHandler
                0x6000255e                DMA13_DMA29_DriverIRQHandler
                0x6000255e                FLEXRAM_DriverIRQHandler
                0x6000255e                LPSPI4_DriverIRQHandler
                0x6000255e                SEMC_DriverIRQHandler
                0x6000255e                SPDIF_DriverIRQHandler
                0x6000255e                PWM4_3_DriverIRQHandler
                0x6000255e                ENET2_DriverIRQHandler
                0x6000255e                KPP_DriverIRQHandler
                0x6000255e                USB_PHY1_DriverIRQHandler
                0x6000255e                GPIO3_Combined_0_15_DriverIRQHandler
                0x6000255e                CAN3_DriverIRQHandler
                0x6000255e                Reserved171_DriverIRQHandler
                0x6000255e                DMA7_DMA23_DriverIRQHandler
                0x6000255e                BEE_DriverIRQHandler
                0x6000255e                GPR_IRQ_DriverIRQHandler
                0x6000255e                PWM2_FAULT_DriverIRQHandler
                0x6000255e                PWM3_1_DriverIRQHandler
                0x6000255e                DMA14_DMA30_DriverIRQHandler
                0x6000255e                TMR1_DriverIRQHandler
                0x6000255e                TRNG_DriverIRQHandler
                0x6000255e                PWM3_2_DriverIRQHandler
                0x6000255e                ENET_1588_Timer_DriverIRQHandler
                0x6000255e                FLEXIO2_DriverIRQHandler
                0x6000255e                GPIO2_Combined_16_31_DriverIRQHandler
                0x6000255e                Reserved143_DriverIRQHandler
                0x6000255e                FLEXSPI2_DriverIRQHandler
                0x6000255e                PWM4_1_DriverIRQHandler
                0x6000255e                PWM3_3_DriverIRQHandler
                0x6000255e                DMA0_DMA16_DriverIRQHandler
                0x6000255e                IntDefaultHandler
                0x6000255e                DMA2_DMA18_DriverIRQHandler
                0x6000255e                SRC_DriverIRQHandler
                0x6000255e                GPIO1_INT4_DriverIRQHandler
                0x6000255e                Reserved144_DriverIRQHandler
                0x6000255e                USDHC1_DriverIRQHandler
                0x6000255e                ENC3_DriverIRQHandler
                0x6000255e                PWM3_FAULT_DriverIRQHandler
                0x6000255e                Reserved87_DriverIRQHandler
                0x6000255e                TSC_DIG_DriverIRQHandler
                0x6000255e                WDOG1_DriverIRQHandler
                0x6000255e                FLEXIO1_DriverIRQHandler
                0x6000255e                ENET_DriverIRQHandler
                0x6000255e                Reserved78_DriverIRQHandler
                0x6000255e                TMR4_DriverIRQHandler
                0x6000255e                ENC2_DriverIRQHandler
                0x6000255e                ADC_ETC_IRQ2_DriverIRQHandler
                0x6000255e                GPIO1_Combined_16_31_DriverIRQHandler
                0x6000255e                GPIO1_INT7_DriverIRQHandler
                0x6000255e                SAI1_DriverIRQHandler
                0x6000255e                DCDC_DriverIRQHandler
                0x6000255e                DMA12_DMA28_DriverIRQHandler
                0x6000255e                PWM4_0_DriverIRQHandler
                0x6000255e                ADC_ETC_ERROR_IRQ_DriverIRQHandler
                0x6000255e                ACMP2_DriverIRQHandler
                0x6000255e                GPIO5_Combined_0_15_DriverIRQHandler
                0x6000255e                GPIO1_INT0_DriverIRQHandler
                0x6000255e                GPIO1_INT2_DriverIRQHandler
                0x6000255e                RTWDOG_DriverIRQHandler
                0x6000255e                GPT2_DriverIRQHandler
                0x6000255e                USB_PHY2_DriverIRQHandler
                0x6000255e                DMA10_DMA26_DriverIRQHandler
                0x6000255e                PWM2_1_DriverIRQHandler
                0x6000255e                PWM1_1_DriverIRQHandler
                0x6000255e                PXP_DriverIRQHandler
                0x6000255e                ADC1_DriverIRQHandler
                0x6000255e                PWM1_0_DriverIRQHandler
                0x6000255e                SJC_DriverIRQHandler
                0x6000255e                DMA1_DMA17_DriverIRQHandler
                0x6000255e                ENC1_DriverIRQHandler
                0x6000255e                ENC4_DriverIRQHandler
                0x6000255e                CAN2_DriverIRQHandler
                0x6000255e                DCP_DriverIRQHandler
                0x6000255e                CTI0_ERROR_DriverIRQHandler
                0x6000255e                DMA8_DMA24_DriverIRQHandler
                0x6000255e                GPT1_DriverIRQHandler
                0x6000255e                ACMP3_DriverIRQHandler
                0x6000255e                DMA6_DMA22_DriverIRQHandler
                0x6000255e                CSU_DriverIRQHandler
                0x6000255e                GPIO1_INT5_DriverIRQHandler
                0x6000255e                TMR3_DriverIRQHandler
                0x6000255e                TMR2_DriverIRQHandler
                0x6000255e                CTI1_ERROR_DriverIRQHandler
                0x6000255e                GPIO1_Combined_0_15_DriverIRQHandler
                0x6000255e                USDHC2_DriverIRQHandler
                0x6000255e                PWM4_2_DriverIRQHandler
                0x6000255e                EWM_DriverIRQHandler
                0x6000255e                SAI2_DriverIRQHandler
                0x6000255e                CORE_DriverIRQHandler
                0x6000255e                DMA11_DMA27_DriverIRQHandler
                0x6000255e                CSI_DriverIRQHandler
                0x6000255e                PWM2_3_DriverIRQHandler
                0x6000255e                XBAR1_IRQ_2_3_DriverIRQHandler
                0x6000255e                SNVS_HP_WRAPPER_TZ_DriverIRQHandler
                0x6000255e                GPIO3_Combined_16_31_DriverIRQHandler
                0x6000255e                PWM1_FAULT_DriverIRQHandler
                0x6000255e                ENET2_1588_Timer_DriverIRQHandler
                0x6000255e                PWM2_2_DriverIRQHandler
                0x6000255e                DMA4_DMA20_DriverIRQHandler
                0x6000255e                DMA9_DMA25_DriverIRQHandler
                0x6000255e                SNVS_HP_WRAPPER_DriverIRQHandler
                0x6000255e                XBAR1_IRQ_0_1_DriverIRQHandler
                0x6000255e                ADC_ETC_IRQ1_DriverIRQHandler
                0x6000255e                LPSPI1_DriverIRQHandler
                0x6000255e                DMA3_DMA19_DriverIRQHandler
                0x6000255e                GPIO1_INT3_DriverIRQHandler
                0x6000255e                DCP_VMI_DriverIRQHandler
                0x6000255e                GPC_DriverIRQHandler
                0x6000255e                GPIO2_Combined_0_15_DriverIRQHandler
                0x6000255e                PWM1_2_DriverIRQHandler
                0x6000255e                USB_OTG1_DriverIRQHandler
                0x6000255e                TEMP_LOW_HIGH_DriverIRQHandler
                0x6000255e                SAI3_TX_DriverIRQHandler
                0x6000255e                FLEXIO3_DriverIRQHandler
                0x6000255e                WDOG2_DriverIRQHandler
                0x6000255e                Reserved68_DriverIRQHandler
                0x6000255e                PWM3_0_DriverIRQHandler
                0x6000255e                GPIO4_Combined_0_15_DriverIRQHandler
                0x6000255e                GPIO4_Combined_16_31_DriverIRQHandler
                0x6000255e                GPIO6_7_8_9_DriverIRQHandler
                0x6000255e                GPIO5_Combined_16_31_DriverIRQHandler
                0x6000255e                DMA5_DMA21_DriverIRQHandler
                0x6000255e                CCM_1_DriverIRQHandler
                0x6000255e                ADC2_DriverIRQHandler
                0x6000255e                Reserved115_DriverIRQHandler
                0x6000255e                TEMP_PANIC_DriverIRQHandler
                0x6000255e                ACMP4_DriverIRQHandler
                0x6000255e                DMA15_DMA31_DriverIRQHandler
                0x6000255e                LPSPI3_DriverIRQHandler
                0x6000255e                PWM1_3_DriverIRQHandler
                0x6000255e                ACMP1_DriverIRQHandler
                0x6000255e                Reserved86_DriverIRQHandler
                0x6000255e                DMA_ERROR_DriverIRQHandler
                0x6000255e                ADC_ETC_IRQ0_DriverIRQHandler
                0x6000255e                CAN1_DriverIRQHandler
                0x6000255e                GPIO1_INT6_DriverIRQHandler
                0x6000255e                GPIO1_INT1_DriverIRQHandler
                0x6000255e                PWM2_0_DriverIRQHandler
                0x6000255e                SNVS_LP_WRAPPER_DriverIRQHandler
                0x6000255e                USB_OTG2_DriverIRQHandler
 *(SORT_BY_ALIGNMENT(EXCLUDE_FILE(*sln_flash.o *fsl_flexspi.o *flexspi_hyper_flash_ops.o) .text*))
 .text.SVC_Handler
                0x60002560       0x28 ./freertos/freertos_kernel/portable/GCC/ARM_CM4F/port.o
                0x60002560                SVC_Handler
 *fill*         0x60002588        0x8 ff
 .text.PendSV_Handler
                0x60002590       0x68 ./freertos/freertos_kernel/portable/GCC/ARM_CM4F/port.o
                0x60002590                PendSV_Handler
 .text.__assertion_failed
                0x600025f8       0x18 ./utilities/fsl_assert.o
                0x600025f8                __assertion_failed
 .text.DbgConsole_SerialManagerRxCallback
                0x60002610       0x48 ./utilities/fsl_debug_console.o
 .text.DbgConsole_SendData
                0x60002658      0x160 ./utilities/fsl_debug_console.o
                0x60002658                DbgConsole_SendData
 .text.DbgConsole_SendDataReliable
                0x600027b8      0x104 ./utilities/fsl_debug_console.o
                0x600027b8                DbgConsole_SendDataReliable
 .text.DbgConsole_Init
                0x600028bc      0x1a8 ./utilities/fsl_debug_console.o
                0x600028bc                DbgConsole_Init
 .text.DbgConsole_Deinit
                0x60002a64       0x9c ./utilities/fsl_debug_console.o
                0x60002a64                DbgConsole_Deinit
 .text.DbgConsole_Flush
                0x60002b00       0x48 ./utilities/fsl_debug_console.o
                0x60002b00                DbgConsole_Flush
 .text.DbgConsole_Printf
                0x60002b48       0x5c ./utilities/fsl_debug_console.o
                0x60002b48                DbgConsole_Printf
 .text.map_flexram
                0x60002ba4       0x5c ./startup/startup_mimxrt106s.o
 .text.__NVIC_DisableIRQ
                0x60002c00       0x44 ./source/main.o
 .text.__NVIC_SystemReset
                0x60002c44       0x28 ./source/main.o
 .text.print_security_violation
                0x60002c6c       0xd8 ./source/main.o
 .text.the_should_never_get_here_catch
                0x60002d44       0x28 ./source/main.o
 .text.jump_to_application
                0x60002d6c       0xdc ./source/main.o
 .text.check_prdb
                0x60002e48       0xe8 ./source/main.o
 .text.restore_prdb
                0x60002f30      0x270 ./source/main.o
 .text.bootstrap_task
                0x600031a0      0x12c ./source/main.o
                0x600031a0                bootstrap_task
 .text.main     0x600032cc       0xa8 ./source/main.o
                0x600032cc                main
 .text.vApplicationMallocFailedHook
                0x60003374       0x20 ./source/os_hooks.o
                0x60003374                vApplicationMallocFailedHook
 .text.vApplicationGetIdleTaskMemory
                0x60003394       0x28 ./source/os_hooks.o
                0x60003394                vApplicationGetIdleTaskMemory
 .text.vApplicationGetTimerTaskMemory
                0x600033bc       0x2c ./source/os_hooks.o
                0x600033bc                vApplicationGetTimerTaskMemory
 .text.SLN_AUTH_check_context
                0x600033e8      0x10c ./source/sln_auth.o
                0x600033e8                SLN_AUTH_check_context
 .text.SLN_AUTH_swap_context
                0x600034f4      0x24c ./source/sln_auth.o
                0x600034f4                SLN_AUTH_swap_context
 .text.SLN_Encrypt_KeySlot_Busy
                0x60003740       0x48 ./source/sln_encrypt.o
 .text.SLN_Encrypt_Init_Slot
                0x60003788       0x80 ./source/sln_encrypt.o
                0x60003788                SLN_Encrypt_Init_Slot
 .text.SLN_Crc  0x60003808       0x88 ./source/sln_encrypt.o
                0x60003808                SLN_Crc
 .text.calc_crc_32
                0x60003890       0x74 ./source/sln_flash_mgmt.o
 .text.init_ram_crc_mirror
                0x60003904      0x180 ./source/sln_flash_mgmt.o
 .text.garbage_collector
                0x60003a84      0x25c ./source/sln_flash_mgmt.o
 .text.SLN_FLASH_MGMT_Init
                0x60003ce0      0x1b4 ./source/sln_flash_mgmt.o
                0x60003ce0                SLN_FLASH_MGMT_Init
 .text.CRYPTO_InitHardware
                0x60003e94       0x38 ./mbedtls/port/ksdk/ksdk_mbedtls.o
                0x60003e94                CRYPTO_InitHardware
 .text.pvPortMalloc
                0x60003ecc      0x1a0 ./freertos/freertos_kernel/portable/MemMang/heap_4.o
                0x60003ecc                pvPortMalloc
 .text.vPortFree
                0x6000406c       0xc0 ./freertos/freertos_kernel/portable/MemMang/heap_4.o
                0x6000406c                vPortFree
 .text.prvHeapInit
                0x6000412c       0xbc ./freertos/freertos_kernel/portable/MemMang/heap_4.o
 .text.prvInsertBlockIntoFreeList
                0x600041e8       0xa8 ./freertos/freertos_kernel/portable/MemMang/heap_4.o
 .text.prvTaskExitError
                0x60004290       0x50 ./freertos/freertos_kernel/portable/GCC/ARM_CM4F/port.o
 .text.prvPortStartFirstTask
                0x600042e0       0x28 ./freertos/freertos_kernel/portable/GCC/ARM_CM4F/port.o
 .text.xPortStartScheduler
                0x60004308      0x14c ./freertos/freertos_kernel/portable/GCC/ARM_CM4F/port.o
                0x60004308                xPortStartScheduler
 .text.vPortEnterCritical
                0x60004454       0x58 ./freertos/freertos_kernel/portable/GCC/ARM_CM4F/port.o
                0x60004454                vPortEnterCritical
 .text.vPortExitCritical
                0x600044ac       0x48 ./freertos/freertos_kernel/portable/GCC/ARM_CM4F/port.o
                0x600044ac                vPortExitCritical
 .text.SysTick_Handler
                0x600044f4       0x44 ./freertos/freertos_kernel/portable/GCC/ARM_CM4F/port.o
                0x600044f4                SysTick_Handler
 .text.vPortSetupTimerInterrupt
                0x60004538       0x3c ./freertos/freertos_kernel/portable/GCC/ARM_CM4F/port.o
                0x60004538                vPortSetupTimerInterrupt
 .text.vPortEnableVFP
                0x60004574       0x14 ./freertos/freertos_kernel/portable/GCC/ARM_CM4F/port.o
 .text.vPortValidateInterruptPriority
                0x60004588       0x78 ./freertos/freertos_kernel/portable/GCC/ARM_CM4F/port.o
                0x60004588                vPortValidateInterruptPriority
 .text.xQueueGenericReset
                0x60004600       0xd0 ./freertos/freertos_kernel/queue.o
                0x60004600                xQueueGenericReset
 .text.xQueueGenericSend
                0x600046d0      0x1f8 ./freertos/freertos_kernel/queue.o
                0x600046d0                xQueueGenericSend
 .text.xQueueReceive
                0x600048c8      0x1b8 ./freertos/freertos_kernel/queue.o
                0x600048c8                xQueueReceive
 .text.xQueueSemaphoreTake
                0x60004a80      0x214 ./freertos/freertos_kernel/queue.o
                0x60004a80                xQueueSemaphoreTake
 .text.vQueueAddToRegistry
                0x60004c94       0x48 ./freertos/freertos_kernel/queue.o
                0x60004c94                vQueueAddToRegistry
 .text.vQueueUnregisterQueue
                0x60004cdc       0x4c ./freertos/freertos_kernel/queue.o
                0x60004cdc                vQueueUnregisterQueue
 .text.prvAddNewTaskToReadyList
                0x60004d28       0xdc ./freertos/freertos_kernel/tasks.o
 .text.vTaskDelay
                0x60004e04       0x68 ./freertos/freertos_kernel/tasks.o
                0x60004e04                vTaskDelay
 .text.vTaskStartScheduler
                0x60004e6c       0xc8 ./freertos/freertos_kernel/tasks.o
                0x60004e6c                vTaskStartScheduler
 .text.vTaskSuspendAll
                0x60004f34       0x14 ./freertos/freertos_kernel/tasks.o
                0x60004f34                vTaskSuspendAll
 .text.xTaskResumeAll
                0x60004f48      0x138 ./freertos/freertos_kernel/tasks.o
                0x60004f48                xTaskResumeAll
 .text.xTaskGetTickCount
                0x60005080       0x14 ./freertos/freertos_kernel/tasks.o
                0x60005080                xTaskGetTickCount
 .text.xTaskIncrementTick
                0x60005094      0x170 ./freertos/freertos_kernel/tasks.o
                0x60005094                xTaskIncrementTick
 .text.vTaskSwitchContext
                0x60005204      0x104 ./freertos/freertos_kernel/tasks.o
                0x60005204                vTaskSwitchContext
 .text.vTaskPlaceOnEventList
                0x60005308       0x48 ./freertos/freertos_kernel/tasks.o
                0x60005308                vTaskPlaceOnEventList
 .text.vTaskPlaceOnEventListRestricted
                0x60005350       0x54 ./freertos/freertos_kernel/tasks.o
                0x60005350                vTaskPlaceOnEventListRestricted
 .text.xTaskRemoveFromEventList
                0x600053a4       0xc4 ./freertos/freertos_kernel/tasks.o
                0x600053a4                xTaskRemoveFromEventList
 .text.vTaskInternalSetTimeOutState
                0x60005468       0x24 ./freertos/freertos_kernel/tasks.o
                0x60005468                vTaskInternalSetTimeOutState
 .text.xTaskCheckForTimeOut
                0x6000548c       0xc4 ./freertos/freertos_kernel/tasks.o
                0x6000548c                xTaskCheckForTimeOut
 .text.vTaskMissedYield
                0x60005550       0x10 ./freertos/freertos_kernel/tasks.o
                0x60005550                vTaskMissedYield
 .text.prvIdleTask
                0x60005560       0x2c ./freertos/freertos_kernel/tasks.o
 .text.prvInitialiseTaskLists
                0x6000558c       0x7c ./freertos/freertos_kernel/tasks.o
 .text.prvCheckTasksWaitingTermination
                0x60005608       0x58 ./freertos/freertos_kernel/tasks.o
 .text.prvResetNextTaskUnblockTime
                0x60005660       0x38 ./freertos/freertos_kernel/tasks.o
 .text.xTaskGetSchedulerState
                0x60005698       0x34 ./freertos/freertos_kernel/tasks.o
                0x60005698                xTaskGetSchedulerState
 .text.xTaskPriorityInherit
                0x600056cc       0xd0 ./freertos/freertos_kernel/tasks.o
                0x600056cc                xTaskPriorityInherit
 .text.xTaskPriorityDisinherit
                0x6000579c       0xd8 ./freertos/freertos_kernel/tasks.o
                0x6000579c                xTaskPriorityDisinherit
 .text.vTaskPriorityDisinheritAfterTimeout
                0x60005874      0x100 ./freertos/freertos_kernel/tasks.o
                0x60005874                vTaskPriorityDisinheritAfterTimeout
 .text.pvTaskIncrementMutexHeldCount
                0x60005974       0x20 ./freertos/freertos_kernel/tasks.o
                0x60005974                pvTaskIncrementMutexHeldCount
 .text.prvAddCurrentTaskToDelayedList
                0x60005994       0xa8 ./freertos/freertos_kernel/tasks.o
 .text.xTimerCreateTimerTask
                0x60005a3c       0x8c ./freertos/freertos_kernel/timers.o
                0x60005a3c                xTimerCreateTimerTask
 .text.xTimerGenericCommand
                0x60005ac8       0x94 ./freertos/freertos_kernel/timers.o
                0x60005ac8                xTimerGenericCommand
 .text.prvProcessExpiredTimer
                0x60005b5c       0x98 ./freertos/freertos_kernel/timers.o
 .text.prvProcessTimerOrBlockTask
                0x60005bf4       0x98 ./freertos/freertos_kernel/timers.o
 .text.prvGetNextExpireTime
                0x60005c8c       0x3c ./freertos/freertos_kernel/timers.o
 .text.prvSampleTimeNow
                0x60005cc8       0x3c ./freertos/freertos_kernel/timers.o
 .text.prvInsertTimerInActiveList
                0x60005d04       0x84 ./freertos/freertos_kernel/timers.o
 .text.prvProcessReceivedCommands
                0x60005d88      0x1c0 ./freertos/freertos_kernel/timers.o
 .text.prvSwitchTimerLists
                0x60005f48       0xc8 ./freertos/freertos_kernel/timers.o
 .text.prvCheckForValidListAndQueue
                0x60006010       0x80 ./freertos/freertos_kernel/timers.o
 .text.CLOCK_GetOscFreq
                0x60006090       0x28 ./drivers/fsl_clock.o
 .text.CLOCK_InitExternalClk
                0x600060b8       0x6c ./drivers/fsl_clock.o
                0x600060b8                CLOCK_InitExternalClk
 .text.CLOCK_SwitchOsc
                0x60006124       0x2c ./drivers/fsl_clock.o
                0x60006124                CLOCK_SwitchOsc
 .text.CLOCK_InitRcOsc24M
                0x60006150       0x18 ./drivers/fsl_clock.o
                0x60006150                CLOCK_InitRcOsc24M
 .text.CLOCK_InitArmPll
                0x60006168       0x5c ./drivers/fsl_clock.o
                0x60006168                CLOCK_InitArmPll
 .text.CLOCK_InitSysPll
                0x600061c4       0x94 ./drivers/fsl_clock.o
                0x600061c4                CLOCK_InitSysPll
 .text.CLOCK_DeinitUsb2Pll
                0x60006258       0x10 ./drivers/fsl_clock.o
                0x60006258                CLOCK_DeinitUsb2Pll
 .text.CLOCK_DeinitAudioPll
                0x60006268       0x10 ./drivers/fsl_clock.o
                0x60006268                CLOCK_DeinitAudioPll
 .text.CLOCK_DeinitVideoPll
                0x60006278       0x14 ./drivers/fsl_clock.o
                0x60006278                CLOCK_DeinitVideoPll
 .text.CLOCK_InitEnetPll
                0x6000628c       0xa8 ./drivers/fsl_clock.o
                0x6000628c                CLOCK_InitEnetPll
 .text.CLOCK_GetPllFreq
                0x60006334      0x3e8 ./drivers/fsl_clock.o
                0x60006334                CLOCK_GetPllFreq
 .text.CLOCK_InitSysPfd
                0x6000671c       0x60 ./drivers/fsl_clock.o
                0x6000671c                CLOCK_InitSysPfd
 .text.CLOCK_ControlGate
                0x6000677c       0x6c ./drivers/fsl_dcp.o
 .text.DCP_GetDefaultConfig
                0x600067e8       0x38 ./drivers/fsl_dcp.o
                0x600067e8                DCP_GetDefaultConfig
 .text.DCP_Init
                0x60006820       0x78 ./drivers/fsl_dcp.o
                0x60006820                DCP_Init
 .text.dcp_hash_save_running_hash
                0x60006898       0x80 ./drivers/fsl_dcp.o
 .text.dcp_hash_restore_running_hash
                0x60006918       0x80 ./drivers/fsl_dcp.o
 .text.DCP_HASH_Finish
                0x60006998      0x108 ./drivers/fsl_dcp.o
                0x60006998                DCP_HASH_Finish
 .text.FLEXRAM_SetAllocateRamSrc
                0x60006aa0       0x34 ./drivers/fsl_flexram_allocate.o
 .text.FLEXRAM_SetTCMSize
                0x60006ad4       0xd8 ./drivers/fsl_flexram_allocate.o
                0x60006ad4                FLEXRAM_SetTCMSize
 .text.FLEXRAM_AllocateRam
                0x60006bac      0x10c ./drivers/fsl_flexram_allocate.o
                0x60006bac                FLEXRAM_AllocateRam
 .text.CLOCK_ControlGate
                0x60006cb8       0x6c ./drivers/fsl_gpio.o
 .text.GPIO_GetInstance
                0x60006d24       0x48 ./drivers/fsl_gpio.o
 .text.GPIO_PinInit
                0x60006d6c       0xa0 ./drivers/fsl_gpio.o
                0x60006d6c                GPIO_PinInit
 .text.GPIO_PinWrite
                0x60006e0c       0x58 ./drivers/fsl_gpio.o
                0x60006e0c                GPIO_PinWrite
 .text.GPIO_PinSetInterruptConfig
                0x60006e64       0xf8 ./drivers/fsl_gpio.o
                0x60006e64                GPIO_PinSetInterruptConfig
 .text.LPI2C_CommonIRQHandler
                0x60006f5c       0x74 ./drivers/fsl_lpi2c.o
 .text.LPI2C1_DriverIRQHandler
                0x60006fd0       0x14 ./drivers/fsl_lpi2c.o
                0x60006fd0                LPI2C1_DriverIRQHandler
 .text.LPI2C2_DriverIRQHandler
                0x60006fe4       0x14 ./drivers/fsl_lpi2c.o
                0x60006fe4                LPI2C2_DriverIRQHandler
 .text.LPI2C3_DriverIRQHandler
                0x60006ff8       0x14 ./drivers/fsl_lpi2c.o
                0x60006ff8                LPI2C3_DriverIRQHandler
 .text.LPI2C4_DriverIRQHandler
                0x6000700c       0x14 ./drivers/fsl_lpi2c.o
                0x6000700c                LPI2C4_DriverIRQHandler
 .text.CLOCK_ControlGate
                0x60007020       0x6c ./drivers/fsl_lpuart.o
 .text.LPUART_GetInstance
                0x6000708c       0x48 ./drivers/fsl_lpuart.o
                0x6000708c                LPUART_GetInstance
 .text.LPUART_Init
                0x600070d4      0x31c ./drivers/fsl_lpuart.o
                0x600070d4                LPUART_Init
 .text.LPUART_Deinit
                0x600073f0       0x70 ./drivers/fsl_lpuart.o
                0x600073f0                LPUART_Deinit
 .text.LPUART_GetDefaultConfig
                0x60007460       0x84 ./drivers/fsl_lpuart.o
                0x60007460                LPUART_GetDefaultConfig
 .text.LPUART_GetEnabledInterrupts
                0x600074e4       0x3c ./drivers/fsl_lpuart.o
                0x600074e4                LPUART_GetEnabledInterrupts
 .text.LPUART_ClearStatusFlags
                0x60007520       0xa0 ./drivers/fsl_lpuart.o
                0x60007520                LPUART_ClearStatusFlags
 .text.CLOCK_ControlGate
                0x600075c0       0x6c ./drivers/fsl_trng.o
 .text.trng_GetInstance
                0x6000762c       0x44 ./drivers/fsl_trng.o
 .text.trng_SetMonobitLimit
                0x60007670       0x50 ./drivers/fsl_trng.o
 .text.trng_SetRunBit1Limit
                0x600076c0       0x60 ./drivers/fsl_trng.o
 .text.trng_SetRunBit2Limit
                0x60007720       0x60 ./drivers/fsl_trng.o
 .text.trng_SetRunBit3Limit
                0x60007780       0x60 ./drivers/fsl_trng.o
 .text.trng_SetRunBit4Limit
                0x600077e0       0x60 ./drivers/fsl_trng.o
 .text.trng_SetRunBit5Limit
                0x60007840       0x60 ./drivers/fsl_trng.o
 .text.trng_SetRunBit6Limit
                0x600078a0       0x60 ./drivers/fsl_trng.o
 .text.trng_SetPokerMaxLimit
                0x60007900       0x54 ./drivers/fsl_trng.o
 .text.trng_SetFrequencyCountMaxLimit
                0x60007954       0x58 ./drivers/fsl_trng.o
 .text.trng_ApplyUserConfig
                0x600079ac      0x18c ./drivers/fsl_trng.o
 .text.SystemInit
                0x60007b38      0x1d4 ./device/system_MIMXRT106S.o
                0x60007b38                SystemInit
 .text.__NVIC_EnableIRQ
                0x60007d0c       0x34 ./component/uart/lpuart_adapter.o
 .text.__NVIC_SetPriority
                0x60007d40       0x50 ./component/uart/lpuart_adapter.o
 .text.HAL_UartInterruptHandle
                0x60007d90      0x174 ./component/uart/lpuart_adapter.o
 .text.HAL_UartInit
                0x60007f04      0x14c ./component/uart/lpuart_adapter.o
                0x60007f04                HAL_UartInit
 .text.HAL_UartDeinit
                0x60008050       0x50 ./component/uart/lpuart_adapter.o
                0x60008050                HAL_UartDeinit
 .text.HAL_UartInstallCallback
                0x600080a0       0x34 ./component/uart/lpuart_adapter.o
                0x600080a0                HAL_UartInstallCallback
 .text.HAL_UartReceiveNonBlocking
                0x600080d4       0x84 ./component/uart/lpuart_adapter.o
                0x600080d4                HAL_UartReceiveNonBlocking
 .text.HAL_UartSendNonBlocking
                0x60008158       0x84 ./component/uart/lpuart_adapter.o
                0x60008158                HAL_UartSendNonBlocking
 .text.HAL_UartAbortReceive
                0x600081dc       0x50 ./component/uart/lpuart_adapter.o
                0x600081dc                HAL_UartAbortReceive
 .text.HAL_UartAbortSend
                0x6000822c       0x50 ./component/uart/lpuart_adapter.o
                0x6000822c                HAL_UartAbortSend
 .text.HAL_UartIsrFunction
                0x6000827c       0x30 ./component/uart/lpuart_adapter.o
                0x6000827c                HAL_UartIsrFunction
 .text.SerialManager_TxCallback
                0x600082ac       0x8c ./component/serial_manager/serial_manager.o
 .text.SerialManager_RxCallback
                0x60008338      0x244 ./component/serial_manager/serial_manager.o
 .text.SerialManager_Write
                0x6000857c      0x144 ./component/serial_manager/serial_manager.o
 .text.SerialManager_Init
                0x600086c0       0xf8 ./component/serial_manager/serial_manager.o
                0x600086c0                SerialManager_Init
 .text.SerialManager_Deinit
                0x600087b8       0x64 ./component/serial_manager/serial_manager.o
                0x600087b8                SerialManager_Deinit
 .text.SerialManager_OpenWriteHandle
                0x6000881c       0x6c ./component/serial_manager/serial_manager.o
                0x6000881c                SerialManager_OpenWriteHandle
 .text.SerialManager_CloseWriteHandle
                0x60008888       0x80 ./component/serial_manager/serial_manager.o
                0x60008888                SerialManager_CloseWriteHandle
 .text.SerialManager_OpenReadHandle
                0x60008908       0x7c ./component/serial_manager/serial_manager.o
                0x60008908                SerialManager_OpenReadHandle
 .text.SerialManager_CloseReadHandle
                0x60008984       0x80 ./component/serial_manager/serial_manager.o
                0x60008984                SerialManager_CloseReadHandle
 .text.SerialManager_CancelWriting
                0x60008a04       0xec ./component/serial_manager/serial_manager.o
                0x60008a04                SerialManager_CancelWriting
 .text.SerialManager_CancelReading
                0x60008af0       0x98 ./component/serial_manager/serial_manager.o
                0x60008af0                SerialManager_CancelReading
 .text.SerialManager_InstallTxCallback
                0x60008b88       0x4c ./component/serial_manager/serial_manager.o
                0x60008b88                SerialManager_InstallTxCallback
 .text.SerialManager_InstallRxCallback
                0x60008bd4       0x4c ./component/serial_manager/serial_manager.o
                0x60008bd4                SerialManager_InstallRxCallback
 .text.Serial_UartInit
                0x60008c20       0xd8 ./component/serial_manager/serial_port_uart.o
                0x60008c20                Serial_UartInit
 .text.Serial_UartDeinit
                0x60008cf8       0x44 ./component/serial_manager/serial_port_uart.o
                0x60008cf8                Serial_UartDeinit
 .text.Serial_UartWrite
                0x60008d3c       0x8c ./component/serial_manager/serial_port_uart.o
                0x60008d3c                Serial_UartWrite
 .text.Serial_UartCancelWrite
                0x60008dc8       0x7c ./component/serial_manager/serial_port_uart.o
                0x60008dc8                Serial_UartCancelWrite
 .text.Serial_UartInstallTxCallback
                0x60008e44       0x34 ./component/serial_manager/serial_port_uart.o
                0x60008e44                Serial_UartInstallTxCallback
 .text.Serial_UartInstallRxCallback
                0x60008e78       0x34 ./component/serial_manager/serial_port_uart.o
                0x60008e78                Serial_UartInstallRxCallback
 .text.Serial_UartIsrFunction
                0x60008eac       0x2c ./component/serial_manager/serial_port_uart.o
                0x60008eac                Serial_UartIsrFunction
 .text.ARM_MPU_Enable
                0x60008ed8       0x34 ./board/board.o
 .text.ARM_MPU_Disable
                0x60008f0c       0x2c ./board/board.o
 .text.CLOCK_GetMux
                0x60008f38       0x3c ./board/board.o
 .text.CLOCK_GetDiv
                0x60008f74       0x3c ./board/board.o
 .text.CLOCK_GetOscFreq
                0x60008fb0       0x28 ./board/board.o
 .text.BOARD_DebugConsoleSrcFreq
                0x60008fd8       0x60 ./board/board.o
                0x60008fd8                BOARD_DebugConsoleSrcFreq
 .text.BOARD_ConfigMPU
                0x60009038      0x300 ./board/board.o
                0x60009038                BOARD_ConfigMPU
 .text.BOARD_RelocateVectorTableToRam
                0x60009338      0x1b4 ./board/board.o
                0x60009338                BOARD_RelocateVectorTableToRam
 .text.CLOCK_SetMux
                0x600094ec       0x9c ./board/clock_config.o
 .text.CLOCK_SetDiv
                0x60009588       0x9c ./board/clock_config.o
 .text.CLOCK_ControlGate
                0x60009624       0x6c ./board/clock_config.o
 .text.CLOCK_SetXtalFreq
                0x60009690       0x14 ./board/clock_config.o
 .text.CLOCK_SetRtcXtalFreq
                0x600096a4       0x14 ./board/clock_config.o
 .text.IOMUXC_EnableMode
                0x600096b8       0x44 ./board/clock_config.o
 .text.IOMUXC_MQSConfig
                0x600096fc       0x44 ./board/clock_config.o
 .text.BOARD_BootClockRUN
                0x60009740      0x608 ./board/clock_config.o
                0x60009740                BOARD_BootClockRUN
 .text.CLOCK_ControlGate
                0x60009d48       0x6c ./board/pin_mux.o
 .text.BOARD_InitSwitches
                0x60009db4       0xc8 ./board/pin_mux.o
                0x60009db4                BOARD_InitSwitches
 .text.BOARD_InitMicrophone
                0x60009e7c      0x16c ./board/pin_mux.o
                0x60009e7c                BOARD_InitMicrophone
 .text.BOARD_InitEthernet
                0x60009fe8      0x1e8 ./board/pin_mux.o
                0x60009fe8                BOARD_InitEthernet
 .text.BOARD_InittJtag
                0x6000a1d0       0xa0 ./board/pin_mux.o
                0x6000a1d0                BOARD_InittJtag
 .text.BOARD_InitLPI2C
                0x6000a270       0x80 ./board/pin_mux.o
                0x6000a270                BOARD_InitLPI2C
 .text.BOARD_InitLPSPI
                0x6000a2f0       0xe8 ./board/pin_mux.o
                0x6000a2f0                BOARD_InitLPSPI
 .text.BOARD_InitLPUART
                0x6000a3d8       0x80 ./board/pin_mux.o
                0x6000a3d8                BOARD_InitLPUART
 .text.BOARD_InitBootConfig
                0x6000a458       0x78 ./board/pin_mux.o
                0x6000a458                BOARD_InitBootConfig
 .text.BOARD_InitWifi
                0x6000a4d0      0x13c ./board/pin_mux.o
                0x6000a4d0                BOARD_InitWifi
 .text.BOARD_InitBluetooth
                0x6000a60c      0x174 ./board/pin_mux.o
                0x6000a60c                BOARD_InitBluetooth
 .text.BOARD_InitAudioOut
                0x6000a780      0x184 ./board/pin_mux.o
                0x6000a780                BOARD_InitAudioOut
 .text.BOARD_InitLED
                0x6000a904       0xb0 ./board/pin_mux.o
                0x6000a904                BOARD_InitLED
 .text._initio  0x6000a9b4       0x78 c:/nxp/mcuxpressoide_11.6.1_8255/ide/plugins/com.nxp.mcuxpresso.tools.win32_11.6.1.202207200623/tools/bin/../lib/gcc/arm-none-eabi/10.3.1/../../../../arm-none-eabi/lib/thumb/v7e-m+dp/hard\libcr_c.a(initio.o)
                0x6000a9b4                _initio
 .text._Cwritebuf
                0x6000aa2c       0x6c c:/nxp/mcuxpressoide_11.6.1_8255/ide/plugins/com.nxp.mcuxpresso.tools.win32_11.6.1.202207200623/tools/bin/../lib/gcc/arm-none-eabi/10.3.1/../../../../arm-none-eabi/lib/thumb/v7e-m+dp/hard\libcr_c.a(_writebuf.o)
                0x6000aa2c                _Cwritebuf
 .text.fflush   0x6000aa98       0x3c c:/nxp/mcuxpressoide_11.6.1_8255/ide/plugins/com.nxp.mcuxpresso.tools.win32_11.6.1.202207200623/tools/bin/../lib/gcc/arm-none-eabi/10.3.1/../../../../arm-none-eabi/lib/thumb/v7e-m+dp/hard\libcr_c.a(fflush.o)
                0x6000aa98                fflush
 .text.fseek    0x6000aad4       0xfc c:/nxp/mcuxpressoide_11.6.1_8255/ide/plugins/com.nxp.mcuxpresso.tools.win32_11.6.1.202207200623/tools/bin/../lib/gcc/arm-none-eabi/10.3.1/../../../../arm-none-eabi/lib/thumb/v7e-m+dp/hard\libcr_c.a(fseek.o)
                0x6000aad4                fseek
 .text.ftell    0x6000abd0       0x44 c:/nxp/mcuxpressoide_11.6.1_8255/ide/plugins/com.nxp.mcuxpresso.tools.win32_11.6.1.202207200623/tools/bin/../lib/gcc/arm-none-eabi/10.3.1/../../../../arm-none-eabi/lib/thumb/v7e-m+dp/hard\libcr_c.a(ftell.o)
                0x6000abd0                ftell
 .text.DisableGlobalIRQ
                0x6000ac14       0x18 ./utilities/fsl_debug_console.o
 .text.EnableGlobalIRQ
                0x6000ac2c       0x16 ./utilities/fsl_debug_console.o
 .text.DbgConsole_SerialManagerTxCallback
                0x6000ac42       0xd8 ./utilities/fsl_debug_console.o
 .text.DbgConsole_PrintCallback
                0x6000ad1a       0x68 ./utilities/fsl_debug_console.o
 .text.PrintGetWidth
                0x6000ad82       0x6e ./utilities/fsl_str.o
 .text.PrintGetPrecision
                0x6000adf0       0x92 ./utilities/fsl_str.o
 .text.PrintIsobpu
                0x6000ae82       0x38 ./utilities/fsl_str.o
 .text.PrintIsdi
                0x6000aeba       0x28 ./utilities/fsl_str.o
 .text.PrintOutputdifFobpu
                0x6000aee2       0x42 ./utilities/fsl_str.o
 .text.PrintOutputxX
                0x6000af24       0x42 ./utilities/fsl_str.o
 .text.PrintIsfF
                0x6000af66       0x28 ./utilities/fsl_str.o
 .text.PrintIsxX
                0x6000af8e       0x28 ./utilities/fsl_str.o
 .text.PrintGetRadixFromobpu
                0x6000afb6       0x48 ./utilities/fsl_str.o
 .text.ConvertRadixNumToString
                0x6000affe      0x10e ./utilities/fsl_str.o
 .text.StrFormatPrintf
                0x6000b10c      0x258 ./utilities/fsl_str.o
                0x6000b10c                StrFormatPrintf
 .text.DMA0_DMA16_IRQHandler
                0x6000b364        0x8 ./startup/startup_mimxrt106s.o
                0x6000b364                DMA0_DMA16_IRQHandler
 .text.DMA1_DMA17_IRQHandler
                0x6000b36c        0x8 ./startup/startup_mimxrt106s.o
                0x6000b36c                DMA1_DMA17_IRQHandler
 .text.DMA2_DMA18_IRQHandler
                0x6000b374        0x8 ./startup/startup_mimxrt106s.o
                0x6000b374                DMA2_DMA18_IRQHandler
 .text.DMA3_DMA19_IRQHandler
                0x6000b37c        0x8 ./startup/startup_mimxrt106s.o
                0x6000b37c                DMA3_DMA19_IRQHandler
 .text.DMA4_DMA20_IRQHandler
                0x6000b384        0x8 ./startup/startup_mimxrt106s.o
                0x6000b384                DMA4_DMA20_IRQHandler
 .text.DMA5_DMA21_IRQHandler
                0x6000b38c        0x8 ./startup/startup_mimxrt106s.o
                0x6000b38c                DMA5_DMA21_IRQHandler
 .text.DMA6_DMA22_IRQHandler
                0x6000b394        0x8 ./startup/startup_mimxrt106s.o
                0x6000b394                DMA6_DMA22_IRQHandler
 .text.DMA7_DMA23_IRQHandler
                0x6000b39c        0x8 ./startup/startup_mimxrt106s.o
                0x6000b39c                DMA7_DMA23_IRQHandler
 .text.DMA8_DMA24_IRQHandler
                0x6000b3a4        0x8 ./startup/startup_mimxrt106s.o
                0x6000b3a4                DMA8_DMA24_IRQHandler
 .text.DMA9_DMA25_IRQHandler
                0x6000b3ac        0x8 ./startup/startup_mimxrt106s.o
                0x6000b3ac                DMA9_DMA25_IRQHandler
 .text.DMA10_DMA26_IRQHandler
                0x6000b3b4        0x8 ./startup/startup_mimxrt106s.o
                0x6000b3b4                DMA10_DMA26_IRQHandler
 .text.DMA11_DMA27_IRQHandler
                0x6000b3bc        0x8 ./startup/startup_mimxrt106s.o
                0x6000b3bc                DMA11_DMA27_IRQHandler
 .text.DMA12_DMA28_IRQHandler
                0x6000b3c4        0x8 ./startup/startup_mimxrt106s.o
                0x6000b3c4                DMA12_DMA28_IRQHandler
 .text.DMA13_DMA29_IRQHandler
                0x6000b3cc        0x8 ./startup/startup_mimxrt106s.o
                0x6000b3cc                DMA13_DMA29_IRQHandler
 .text.DMA14_DMA30_IRQHandler
                0x6000b3d4        0x8 ./startup/startup_mimxrt106s.o
                0x6000b3d4                DMA14_DMA30_IRQHandler
 .text.DMA15_DMA31_IRQHandler
                0x6000b3dc        0x8 ./startup/startup_mimxrt106s.o
                0x6000b3dc                DMA15_DMA31_IRQHandler
 .text.DMA_ERROR_IRQHandler
                0x6000b3e4        0x8 ./startup/startup_mimxrt106s.o
                0x6000b3e4                DMA_ERROR_IRQHandler
 .text.CTI0_ERROR_IRQHandler
                0x6000b3ec        0x8 ./startup/startup_mimxrt106s.o
                0x6000b3ec                CTI0_ERROR_IRQHandler
 .text.CTI1_ERROR_IRQHandler
                0x6000b3f4        0x8 ./startup/startup_mimxrt106s.o
                0x6000b3f4                CTI1_ERROR_IRQHandler
 .text.CORE_IRQHandler
                0x6000b3fc        0x8 ./startup/startup_mimxrt106s.o
                0x6000b3fc                CORE_IRQHandler
 .text.LPI2C1_IRQHandler
                0x6000b404        0x8 ./startup/startup_mimxrt106s.o
                0x6000b404                LPI2C1_IRQHandler
 .text.LPI2C2_IRQHandler
                0x6000b40c        0x8 ./startup/startup_mimxrt106s.o
                0x6000b40c                LPI2C2_IRQHandler
 .text.LPI2C3_IRQHandler
                0x6000b414        0x8 ./startup/startup_mimxrt106s.o
                0x6000b414                LPI2C3_IRQHandler
 .text.LPI2C4_IRQHandler
                0x6000b41c        0x8 ./startup/startup_mimxrt106s.o
                0x6000b41c                LPI2C4_IRQHandler
 .text.LPSPI1_IRQHandler
                0x6000b424        0x8 ./startup/startup_mimxrt106s.o
                0x6000b424                LPSPI1_IRQHandler
 .text.LPSPI2_IRQHandler
                0x6000b42c        0x8 ./startup/startup_mimxrt106s.o
                0x6000b42c                LPSPI2_IRQHandler
 .text.LPSPI3_IRQHandler
                0x6000b434        0x8 ./startup/startup_mimxrt106s.o
                0x6000b434                LPSPI3_IRQHandler
 .text.LPSPI4_IRQHandler
                0x6000b43c        0x8 ./startup/startup_mimxrt106s.o
                0x6000b43c                LPSPI4_IRQHandler
 .text.CAN1_IRQHandler
                0x6000b444        0x8 ./startup/startup_mimxrt106s.o
                0x6000b444                CAN1_IRQHandler
 .text.CAN2_IRQHandler
                0x6000b44c        0x8 ./startup/startup_mimxrt106s.o
                0x6000b44c                CAN2_IRQHandler
 .text.FLEXRAM_IRQHandler
                0x6000b454        0x8 ./startup/startup_mimxrt106s.o
                0x6000b454                FLEXRAM_IRQHandler
 .text.KPP_IRQHandler
                0x6000b45c        0x8 ./startup/startup_mimxrt106s.o
                0x6000b45c                KPP_IRQHandler
 .text.TSC_DIG_IRQHandler
                0x6000b464        0x8 ./startup/startup_mimxrt106s.o
                0x6000b464                TSC_DIG_IRQHandler
 .text.GPR_IRQ_IRQHandler
                0x6000b46c        0x8 ./startup/startup_mimxrt106s.o
                0x6000b46c                GPR_IRQ_IRQHandler
 .text.LCDIF_IRQHandler
                0x6000b474        0x8 ./startup/startup_mimxrt106s.o
                0x6000b474                LCDIF_IRQHandler
 .text.CSI_IRQHandler
                0x6000b47c        0x8 ./startup/startup_mimxrt106s.o
                0x6000b47c                CSI_IRQHandler
 .text.PXP_IRQHandler
                0x6000b484        0x8 ./startup/startup_mimxrt106s.o
                0x6000b484                PXP_IRQHandler
 .text.WDOG2_IRQHandler
                0x6000b48c        0x8 ./startup/startup_mimxrt106s.o
                0x6000b48c                WDOG2_IRQHandler
 .text.SNVS_HP_WRAPPER_IRQHandler
                0x6000b494        0x8 ./startup/startup_mimxrt106s.o
                0x6000b494                SNVS_HP_WRAPPER_IRQHandler
 .text.SNVS_HP_WRAPPER_TZ_IRQHandler
                0x6000b49c        0x8 ./startup/startup_mimxrt106s.o
                0x6000b49c                SNVS_HP_WRAPPER_TZ_IRQHandler
 .text.SNVS_LP_WRAPPER_IRQHandler
                0x6000b4a4        0x8 ./startup/startup_mimxrt106s.o
                0x6000b4a4                SNVS_LP_WRAPPER_IRQHandler
 .text.CSU_IRQHandler
                0x6000b4ac        0x8 ./startup/startup_mimxrt106s.o
                0x6000b4ac                CSU_IRQHandler
 .text.DCP_IRQHandler
                0x6000b4b4        0x8 ./startup/startup_mimxrt106s.o
                0x6000b4b4                DCP_IRQHandler
 .text.DCP_VMI_IRQHandler
                0x6000b4bc        0x8 ./startup/startup_mimxrt106s.o
                0x6000b4bc                DCP_VMI_IRQHandler
 .text.Reserved68_IRQHandler
                0x6000b4c4        0x8 ./startup/startup_mimxrt106s.o
                0x6000b4c4                Reserved68_IRQHandler
 .text.TRNG_IRQHandler
                0x6000b4cc        0x8 ./startup/startup_mimxrt106s.o
                0x6000b4cc                TRNG_IRQHandler
 .text.SJC_IRQHandler
                0x6000b4d4        0x8 ./startup/startup_mimxrt106s.o
                0x6000b4d4                SJC_IRQHandler
 .text.BEE_IRQHandler
                0x6000b4dc        0x8 ./startup/startup_mimxrt106s.o
                0x6000b4dc                BEE_IRQHandler
 .text.SAI1_IRQHandler
                0x6000b4e4        0x8 ./startup/startup_mimxrt106s.o
                0x6000b4e4                SAI1_IRQHandler
 .text.SAI2_IRQHandler
                0x6000b4ec        0x8 ./startup/startup_mimxrt106s.o
                0x6000b4ec                SAI2_IRQHandler
 .text.SAI3_RX_IRQHandler
                0x6000b4f4        0x8 ./startup/startup_mimxrt106s.o
                0x6000b4f4                SAI3_RX_IRQHandler
 .text.SAI3_TX_IRQHandler
                0x6000b4fc        0x8 ./startup/startup_mimxrt106s.o
                0x6000b4fc                SAI3_TX_IRQHandler
 .text.SPDIF_IRQHandler
                0x6000b504        0x8 ./startup/startup_mimxrt106s.o
                0x6000b504                SPDIF_IRQHandler
 .text.PMU_EVENT_IRQHandler
                0x6000b50c        0x8 ./startup/startup_mimxrt106s.o
                0x6000b50c                PMU_EVENT_IRQHandler
 .text.Reserved78_IRQHandler
                0x6000b514        0x8 ./startup/startup_mimxrt106s.o
                0x6000b514                Reserved78_IRQHandler
 .text.TEMP_LOW_HIGH_IRQHandler
                0x6000b51c        0x8 ./startup/startup_mimxrt106s.o
                0x6000b51c                TEMP_LOW_HIGH_IRQHandler
 .text.TEMP_PANIC_IRQHandler
                0x6000b524        0x8 ./startup/startup_mimxrt106s.o
                0x6000b524                TEMP_PANIC_IRQHandler
 .text.USB_PHY1_IRQHandler
                0x6000b52c        0x8 ./startup/startup_mimxrt106s.o
                0x6000b52c                USB_PHY1_IRQHandler
 .text.USB_PHY2_IRQHandler
                0x6000b534        0x8 ./startup/startup_mimxrt106s.o
                0x6000b534                USB_PHY2_IRQHandler
 .text.ADC1_IRQHandler
                0x6000b53c        0x8 ./startup/startup_mimxrt106s.o
                0x6000b53c                ADC1_IRQHandler
 .text.ADC2_IRQHandler
                0x6000b544        0x8 ./startup/startup_mimxrt106s.o
                0x6000b544                ADC2_IRQHandler
 .text.DCDC_IRQHandler
                0x6000b54c        0x8 ./startup/startup_mimxrt106s.o
                0x6000b54c                DCDC_IRQHandler
 .text.Reserved86_IRQHandler
                0x6000b554        0x8 ./startup/startup_mimxrt106s.o
                0x6000b554                Reserved86_IRQHandler
 .text.Reserved87_IRQHandler
                0x6000b55c        0x8 ./startup/startup_mimxrt106s.o
                0x6000b55c                Reserved87_IRQHandler
 .text.GPIO1_INT0_IRQHandler
                0x6000b564        0x8 ./startup/startup_mimxrt106s.o
                0x6000b564                GPIO1_INT0_IRQHandler
 .text.GPIO1_INT1_IRQHandler
                0x6000b56c        0x8 ./startup/startup_mimxrt106s.o
                0x6000b56c                GPIO1_INT1_IRQHandler
 .text.GPIO1_INT2_IRQHandler
                0x6000b574        0x8 ./startup/startup_mimxrt106s.o
                0x6000b574                GPIO1_INT2_IRQHandler
 .text.GPIO1_INT3_IRQHandler
                0x6000b57c        0x8 ./startup/startup_mimxrt106s.o
                0x6000b57c                GPIO1_INT3_IRQHandler
 .text.GPIO1_INT4_IRQHandler
                0x6000b584        0x8 ./startup/startup_mimxrt106s.o
                0x6000b584                GPIO1_INT4_IRQHandler
 .text.GPIO1_INT5_IRQHandler
                0x6000b58c        0x8 ./startup/startup_mimxrt106s.o
                0x6000b58c                GPIO1_INT5_IRQHandler
 .text.GPIO1_INT6_IRQHandler
                0x6000b594        0x8 ./startup/startup_mimxrt106s.o
                0x6000b594                GPIO1_INT6_IRQHandler
 .text.GPIO1_INT7_IRQHandler
                0x6000b59c        0x8 ./startup/startup_mimxrt106s.o
                0x6000b59c                GPIO1_INT7_IRQHandler
 .text.GPIO1_Combined_0_15_IRQHandler
                0x6000b5a4        0x8 ./startup/startup_mimxrt106s.o
                0x6000b5a4                GPIO1_Combined_0_15_IRQHandler
 .text.GPIO1_Combined_16_31_IRQHandler
                0x6000b5ac        0x8 ./startup/startup_mimxrt106s.o
                0x6000b5ac                GPIO1_Combined_16_31_IRQHandler
 .text.GPIO2_Combined_0_15_IRQHandler
                0x6000b5b4        0x8 ./startup/startup_mimxrt106s.o
                0x6000b5b4                GPIO2_Combined_0_15_IRQHandler
 .text.GPIO2_Combined_16_31_IRQHandler
                0x6000b5bc        0x8 ./startup/startup_mimxrt106s.o
                0x6000b5bc                GPIO2_Combined_16_31_IRQHandler
 .text.GPIO3_Combined_0_15_IRQHandler
                0x6000b5c4        0x8 ./startup/startup_mimxrt106s.o
                0x6000b5c4                GPIO3_Combined_0_15_IRQHandler
 .text.GPIO3_Combined_16_31_IRQHandler
                0x6000b5cc        0x8 ./startup/startup_mimxrt106s.o
                0x6000b5cc                GPIO3_Combined_16_31_IRQHandler
 .text.GPIO4_Combined_0_15_IRQHandler
                0x6000b5d4        0x8 ./startup/startup_mimxrt106s.o
                0x6000b5d4                GPIO4_Combined_0_15_IRQHandler
 .text.GPIO4_Combined_16_31_IRQHandler
                0x6000b5dc        0x8 ./startup/startup_mimxrt106s.o
                0x6000b5dc                GPIO4_Combined_16_31_IRQHandler
 .text.GPIO5_Combined_0_15_IRQHandler
                0x6000b5e4        0x8 ./startup/startup_mimxrt106s.o
                0x6000b5e4                GPIO5_Combined_0_15_IRQHandler
 .text.GPIO5_Combined_16_31_IRQHandler
                0x6000b5ec        0x8 ./startup/startup_mimxrt106s.o
                0x6000b5ec                GPIO5_Combined_16_31_IRQHandler
 .text.FLEXIO1_IRQHandler
                0x6000b5f4        0x8 ./startup/startup_mimxrt106s.o
                0x6000b5f4                FLEXIO1_IRQHandler
 .text.FLEXIO2_IRQHandler
                0x6000b5fc        0x8 ./startup/startup_mimxrt106s.o
                0x6000b5fc                FLEXIO2_IRQHandler
 .text.WDOG1_IRQHandler
                0x6000b604        0x8 ./startup/startup_mimxrt106s.o
                0x6000b604                WDOG1_IRQHandler
 .text.RTWDOG_IRQHandler
                0x6000b60c        0x8 ./startup/startup_mimxrt106s.o
                0x6000b60c                RTWDOG_IRQHandler
 .text.EWM_IRQHandler
                0x6000b614        0x8 ./startup/startup_mimxrt106s.o
                0x6000b614                EWM_IRQHandler
 .text.CCM_1_IRQHandler
                0x6000b61c        0x8 ./startup/startup_mimxrt106s.o
                0x6000b61c                CCM_1_IRQHandler
 .text.CCM_2_IRQHandler
                0x6000b624        0x8 ./startup/startup_mimxrt106s.o
                0x6000b624                CCM_2_IRQHandler
 .text.GPC_IRQHandler
                0x6000b62c        0x8 ./startup/startup_mimxrt106s.o
                0x6000b62c                GPC_IRQHandler
 .text.SRC_IRQHandler
                0x6000b634        0x8 ./startup/startup_mimxrt106s.o
                0x6000b634                SRC_IRQHandler
 .text.Reserved115_IRQHandler
                0x6000b63c        0x8 ./startup/startup_mimxrt106s.o
                0x6000b63c                Reserved115_IRQHandler
 .text.GPT1_IRQHandler
                0x6000b644        0x8 ./startup/startup_mimxrt106s.o
                0x6000b644                GPT1_IRQHandler
 .text.GPT2_IRQHandler
                0x6000b64c        0x8 ./startup/startup_mimxrt106s.o
                0x6000b64c                GPT2_IRQHandler
 .text.PWM1_0_IRQHandler
                0x6000b654        0x8 ./startup/startup_mimxrt106s.o
                0x6000b654                PWM1_0_IRQHandler
 .text.PWM1_1_IRQHandler
                0x6000b65c        0x8 ./startup/startup_mimxrt106s.o
                0x6000b65c                PWM1_1_IRQHandler
 .text.PWM1_2_IRQHandler
                0x6000b664        0x8 ./startup/startup_mimxrt106s.o
                0x6000b664                PWM1_2_IRQHandler
 .text.PWM1_3_IRQHandler
                0x6000b66c        0x8 ./startup/startup_mimxrt106s.o
                0x6000b66c                PWM1_3_IRQHandler
 .text.PWM1_FAULT_IRQHandler
                0x6000b674        0x8 ./startup/startup_mimxrt106s.o
                0x6000b674                PWM1_FAULT_IRQHandler
 .text.FLEXSPI2_IRQHandler
                0x6000b67c        0x8 ./startup/startup_mimxrt106s.o
                0x6000b67c                FLEXSPI2_IRQHandler
 .text.FLEXSPI_IRQHandler
                0x6000b684        0x8 ./startup/startup_mimxrt106s.o
                0x6000b684                FLEXSPI_IRQHandler
 .text.SEMC_IRQHandler
                0x6000b68c        0x8 ./startup/startup_mimxrt106s.o
                0x6000b68c                SEMC_IRQHandler
 .text.USDHC1_IRQHandler
                0x6000b694        0x8 ./startup/startup_mimxrt106s.o
                0x6000b694                USDHC1_IRQHandler
 .text.USDHC2_IRQHandler
                0x6000b69c        0x8 ./startup/startup_mimxrt106s.o
                0x6000b69c                USDHC2_IRQHandler
 .text.USB_OTG2_IRQHandler
                0x6000b6a4        0x8 ./startup/startup_mimxrt106s.o
                0x6000b6a4                USB_OTG2_IRQHandler
 .text.USB_OTG1_IRQHandler
                0x6000b6ac        0x8 ./startup/startup_mimxrt106s.o
                0x6000b6ac                USB_OTG1_IRQHandler
 .text.ENET_IRQHandler
                0x6000b6b4        0x8 ./startup/startup_mimxrt106s.o
                0x6000b6b4                ENET_IRQHandler
 .text.ENET_1588_Timer_IRQHandler
                0x6000b6bc        0x8 ./startup/startup_mimxrt106s.o
                0x6000b6bc                ENET_1588_Timer_IRQHandler
 .text.XBAR1_IRQ_0_1_IRQHandler
                0x6000b6c4        0x8 ./startup/startup_mimxrt106s.o
                0x6000b6c4                XBAR1_IRQ_0_1_IRQHandler
 .text.XBAR1_IRQ_2_3_IRQHandler
                0x6000b6cc        0x8 ./startup/startup_mimxrt106s.o
                0x6000b6cc                XBAR1_IRQ_2_3_IRQHandler
 .text.ADC_ETC_IRQ0_IRQHandler
                0x6000b6d4        0x8 ./startup/startup_mimxrt106s.o
                0x6000b6d4                ADC_ETC_IRQ0_IRQHandler
 .text.ADC_ETC_IRQ1_IRQHandler
                0x6000b6dc        0x8 ./startup/startup_mimxrt106s.o
                0x6000b6dc                ADC_ETC_IRQ1_IRQHandler
 .text.ADC_ETC_IRQ2_IRQHandler
                0x6000b6e4        0x8 ./startup/startup_mimxrt106s.o
                0x6000b6e4                ADC_ETC_IRQ2_IRQHandler
 .text.ADC_ETC_ERROR_IRQ_IRQHandler
                0x6000b6ec        0x8 ./startup/startup_mimxrt106s.o
                0x6000b6ec                ADC_ETC_ERROR_IRQ_IRQHandler
 .text.PIT_IRQHandler
                0x6000b6f4        0x8 ./startup/startup_mimxrt106s.o
                0x6000b6f4                PIT_IRQHandler
 .text.ACMP1_IRQHandler
                0x6000b6fc        0x8 ./startup/startup_mimxrt106s.o
                0x6000b6fc                ACMP1_IRQHandler
 .text.ACMP2_IRQHandler
                0x6000b704        0x8 ./startup/startup_mimxrt106s.o
                0x6000b704                ACMP2_IRQHandler
 .text.ACMP3_IRQHandler
                0x6000b70c        0x8 ./startup/startup_mimxrt106s.o
                0x6000b70c                ACMP3_IRQHandler
 .text.ACMP4_IRQHandler
                0x6000b714        0x8 ./startup/startup_mimxrt106s.o
                0x6000b714                ACMP4_IRQHandler
 .text.Reserved143_IRQHandler
                0x6000b71c        0x8 ./startup/startup_mimxrt106s.o
                0x6000b71c                Reserved143_IRQHandler
 .text.Reserved144_IRQHandler
                0x6000b724        0x8 ./startup/startup_mimxrt106s.o
                0x6000b724                Reserved144_IRQHandler
 .text.ENC1_IRQHandler
                0x6000b72c        0x8 ./startup/startup_mimxrt106s.o
                0x6000b72c                ENC1_IRQHandler
 .text.ENC2_IRQHandler
                0x6000b734        0x8 ./startup/startup_mimxrt106s.o
                0x6000b734                ENC2_IRQHandler
 .text.ENC3_IRQHandler
                0x6000b73c        0x8 ./startup/startup_mimxrt106s.o
                0x6000b73c                ENC3_IRQHandler
 .text.ENC4_IRQHandler
                0x6000b744        0x8 ./startup/startup_mimxrt106s.o
                0x6000b744                ENC4_IRQHandler
 .text.TMR1_IRQHandler
                0x6000b74c        0x8 ./startup/startup_mimxrt106s.o
                0x6000b74c                TMR1_IRQHandler
 .text.TMR2_IRQHandler
                0x6000b754        0x8 ./startup/startup_mimxrt106s.o
                0x6000b754                TMR2_IRQHandler
 .text.TMR3_IRQHandler
                0x6000b75c        0x8 ./startup/startup_mimxrt106s.o
                0x6000b75c                TMR3_IRQHandler
 .text.TMR4_IRQHandler
                0x6000b764        0x8 ./startup/startup_mimxrt106s.o
                0x6000b764                TMR4_IRQHandler
 .text.PWM2_0_IRQHandler
                0x6000b76c        0x8 ./startup/startup_mimxrt106s.o
                0x6000b76c                PWM2_0_IRQHandler
 .text.PWM2_1_IRQHandler
                0x6000b774        0x8 ./startup/startup_mimxrt106s.o
                0x6000b774                PWM2_1_IRQHandler
 .text.PWM2_2_IRQHandler
                0x6000b77c        0x8 ./startup/startup_mimxrt106s.o
                0x6000b77c                PWM2_2_IRQHandler
 .text.PWM2_3_IRQHandler
                0x6000b784        0x8 ./startup/startup_mimxrt106s.o
                0x6000b784                PWM2_3_IRQHandler
 .text.PWM2_FAULT_IRQHandler
                0x6000b78c        0x8 ./startup/startup_mimxrt106s.o
                0x6000b78c                PWM2_FAULT_IRQHandler
 .text.PWM3_0_IRQHandler
                0x6000b794        0x8 ./startup/startup_mimxrt106s.o
                0x6000b794                PWM3_0_IRQHandler
 .text.PWM3_1_IRQHandler
                0x6000b79c        0x8 ./startup/startup_mimxrt106s.o
                0x6000b79c                PWM3_1_IRQHandler
 .text.PWM3_2_IRQHandler
                0x6000b7a4        0x8 ./startup/startup_mimxrt106s.o
                0x6000b7a4                PWM3_2_IRQHandler
 .text.PWM3_3_IRQHandler
                0x6000b7ac        0x8 ./startup/startup_mimxrt106s.o
                0x6000b7ac                PWM3_3_IRQHandler
 .text.PWM3_FAULT_IRQHandler
                0x6000b7b4        0x8 ./startup/startup_mimxrt106s.o
                0x6000b7b4                PWM3_FAULT_IRQHandler
 .text.PWM4_0_IRQHandler
                0x6000b7bc        0x8 ./startup/startup_mimxrt106s.o
                0x6000b7bc                PWM4_0_IRQHandler
 .text.PWM4_1_IRQHandler
                0x6000b7c4        0x8 ./startup/startup_mimxrt106s.o
                0x6000b7c4                PWM4_1_IRQHandler
 .text.PWM4_2_IRQHandler
                0x6000b7cc        0x8 ./startup/startup_mimxrt106s.o
                0x6000b7cc                PWM4_2_IRQHandler
 .text.PWM4_3_IRQHandler
                0x6000b7d4        0x8 ./startup/startup_mimxrt106s.o
                0x6000b7d4                PWM4_3_IRQHandler
 .text.PWM4_FAULT_IRQHandler
                0x6000b7dc        0x8 ./startup/startup_mimxrt106s.o
                0x6000b7dc                PWM4_FAULT_IRQHandler
 .text.ENET2_IRQHandler
                0x6000b7e4        0x8 ./startup/startup_mimxrt106s.o
                0x6000b7e4                ENET2_IRQHandler
 .text.ENET2_1588_Timer_IRQHandler
                0x6000b7ec        0x8 ./startup/startup_mimxrt106s.o
                0x6000b7ec                ENET2_1588_Timer_IRQHandler
 .text.CAN3_IRQHandler
                0x6000b7f4        0x8 ./startup/startup_mimxrt106s.o
                0x6000b7f4                CAN3_IRQHandler
 .text.Reserved171_IRQHandler
                0x6000b7fc        0x8 ./startup/startup_mimxrt106s.o
                0x6000b7fc                Reserved171_IRQHandler
 .text.FLEXIO3_IRQHandler
                0x6000b804        0x8 ./startup/startup_mimxrt106s.o
                0x6000b804                FLEXIO3_IRQHandler
 .text.GPIO6_7_8_9_IRQHandler
                0x6000b80c        0x8 ./startup/startup_mimxrt106s.o
                0x6000b80c                GPIO6_7_8_9_IRQHandler
 .text.HardFault_Handler
                0x6000b814        0x4 ./source/main.o
                0x6000b814                HardFault_Handler
 .text.vApplicationStackOverflowHook
                0x6000b818       0x1c ./source/os_hooks.o
                0x6000b818                vApplicationStackOverflowHook
 .text.vApplicationDaemonTaskStartupHook
                0x6000b834        0x4 ./source/os_hooks.o
                0x6000b834                vApplicationDaemonTaskStartupHook
 .text.is_buffer_empty
                0x6000b838       0x6e ./source/sln_auth.o
 .text.get_sector_file_map
                0x6000b8a6       0xae ./source/sln_flash_mgmt.o
 .text.get_entry_file_size
                0x6000b954       0x3a ./source/sln_flash_mgmt.o
 .text.pxPortInitialiseStack
                0x6000b98e       0x5a ./freertos/freertos_kernel/portable/GCC/ARM_CM4F/port.o
                0x6000b98e                pxPortInitialiseStack
 .text.vListInitialise
                0x6000b9e8       0x36 ./freertos/freertos_kernel/list.o
                0x6000b9e8                vListInitialise
 .text.vListInitialiseItem
                0x6000ba1e       0x10 ./freertos/freertos_kernel/list.o
                0x6000ba1e                vListInitialiseItem
 .text.vListInsertEnd
                0x6000ba2e       0x3e ./freertos/freertos_kernel/list.o
                0x6000ba2e                vListInsertEnd
 .text.vListInsert
                0x6000ba6c       0x68 ./freertos/freertos_kernel/list.o
                0x6000ba6c                vListInsert
 .text.uxListRemove
                0x6000bad4       0x4a ./freertos/freertos_kernel/list.o
                0x6000bad4                uxListRemove
 .text.xQueueGenericCreateStatic
                0x6000bb1e       0xee ./freertos/freertos_kernel/queue.o
                0x6000bb1e                xQueueGenericCreateStatic
 .text.xQueueGenericCreate
                0x6000bc0c       0x76 ./freertos/freertos_kernel/queue.o
                0x6000bc0c                xQueueGenericCreate
 .text.prvInitialiseNewQueue
                0x6000bc82       0x48 ./freertos/freertos_kernel/queue.o
 .text.prvInitialiseMutex
                0x6000bcca       0x32 ./freertos/freertos_kernel/queue.o
 .text.xQueueCreateMutex
                0x6000bcfc       0x32 ./freertos/freertos_kernel/queue.o
                0x6000bcfc                xQueueCreateMutex
 .text.xQueueGenericSendFromISR
                0x6000bd2e      0x134 ./freertos/freertos_kernel/queue.o
                0x6000bd2e                xQueueGenericSendFromISR
 .text.xQueueGiveFromISR
                0x6000be62      0x118 ./freertos/freertos_kernel/queue.o
                0x6000be62                xQueueGiveFromISR
 .text.vQueueDelete
                0x6000bf7a       0x44 ./freertos/freertos_kernel/queue.o
                0x6000bf7a                vQueueDelete
 .text.prvGetDisinheritPriorityAfterTimeout
                0x6000bfbe       0x26 ./freertos/freertos_kernel/queue.o
 .text.prvCopyDataToQueue
                0x6000bfe4       0xd2 ./freertos/freertos_kernel/queue.o
 .text.prvCopyDataFromQueue
                0x6000c0b6       0x4a ./freertos/freertos_kernel/queue.o
 .text.prvUnlockQueue
                0x6000c100       0xae ./freertos/freertos_kernel/queue.o
 .text.prvIsQueueEmpty
                0x6000c1ae       0x2a ./freertos/freertos_kernel/queue.o
 .text.prvIsQueueFull
                0x6000c1d8       0x2e ./freertos/freertos_kernel/queue.o
 .text.vQueueWaitForMessageRestricted
                0x6000c206       0x66 ./freertos/freertos_kernel/queue.o
                0x6000c206                vQueueWaitForMessageRestricted
 .text.xTaskCreateStatic
                0x6000c26c       0xb6 ./freertos/freertos_kernel/tasks.o
                0x6000c26c                xTaskCreateStatic
 .text.xTaskCreate
                0x6000c322       0x8e ./freertos/freertos_kernel/tasks.o
                0x6000c322                xTaskCreate
 .text.prvInitialiseNewTask
                0x6000c3b0      0x122 ./freertos/freertos_kernel/tasks.o
 .text.prvDeleteTCB
                0x6000c4d2       0x5c ./freertos/freertos_kernel/tasks.o
 .text.prvTimerTask
                0x6000c52e       0x24 ./freertos/freertos_kernel/timers.o
 .text.CLOCK_IsPllBypassed
                0x6000c552       0x28 ./drivers/fsl_clock.o
 .text.CLOCK_IsPllEnabled
                0x6000c57a       0x32 ./drivers/fsl_clock.o
 .text.CLOCK_GetPllBypassRefClk
                0x6000c5ac       0x32 ./drivers/fsl_clock.o
 .text.CLOCK_EnableClock
                0x6000c5de       0x1e ./drivers/fsl_dcp.o
 .text.DisableGlobalIRQ
                0x6000c5fc       0x18 ./drivers/fsl_dcp.o
 .text.EnableGlobalIRQ
                0x6000c614       0x16 ./drivers/fsl_dcp.o
 .text.dcp_reverse_and_copy
                0x6000c62a       0x3a ./drivers/fsl_dcp.o
 .text.dcp_get_channel_status
                0x6000c664       0xae ./drivers/fsl_dcp.o
 .text.dcp_clear_status
                0x6000c712       0x26 ./drivers/fsl_dcp.o
 .text.dcp_clear_channel_status
                0x6000c738       0x6c ./drivers/fsl_dcp.o
 .text.dcp_schedule_work
                0x6000c7a4       0xf4 ./drivers/fsl_dcp.o
 .text.DCP_WaitForChannelComplete
                0x6000c898       0x54 ./drivers/fsl_dcp.o
                0x6000c898                DCP_WaitForChannelComplete
 .text.dcp_hash_check_input_alg
                0x6000c8ec       0x2c ./drivers/fsl_dcp.o
 .text.dcp_hash_check_input_args
                0x6000c918       0x3c ./drivers/fsl_dcp.o
 .text.dcp_hash_check_context
                0x6000c954       0x34 ./drivers/fsl_dcp.o
 .text.dcp_hash_engine_init
                0x6000c988       0x3e ./drivers/fsl_dcp.o
 .text.dcp_hash_update_non_blocking
                0x6000c9c6       0xbe ./drivers/fsl_dcp.o
 .text.dcp_hash_update
                0x6000ca84       0x5e ./drivers/fsl_dcp.o
 .text.dcp_hash_process_message_data
                0x6000cae2       0xb6 ./drivers/fsl_dcp.o
 .text.dcp_hash_finalize
                0x6000cb98       0x34 ./drivers/fsl_dcp.o
 .text.DCP_HASH_Init
                0x6000cbcc       0x82 ./drivers/fsl_dcp.o
                0x6000cbcc                DCP_HASH_Init
 .text.DCP_HASH_Update
                0x6000cc4e       0xdc ./drivers/fsl_dcp.o
                0x6000cc4e                DCP_HASH_Update
 .text.DCP_HASH
                0x6000cd2a       0xaa ./drivers/fsl_dcp.o
                0x6000cd2a                DCP_HASH
 .text.FLEXRAM_MapTcmSizeToRegister
                0x6000cdd4       0x74 ./drivers/fsl_flexram_allocate.o
 .text.CLOCK_EnableClock
                0x6000ce48       0x1e ./drivers/fsl_gpio.o
 .text.GPIO_SetPinInterruptConfig
                0x6000ce66       0x24 ./drivers/fsl_gpio.o
 .text.CLOCK_EnableClock
                0x6000ce8a       0x1e ./drivers/fsl_lpuart.o
 .text.CLOCK_DisableClock
                0x6000cea8       0x1e ./drivers/fsl_lpuart.o
 .text.LPUART_SoftwareReset
                0x6000cec6       0x22 ./drivers/fsl_lpuart.o
 .text.LPUART_EnableInterrupts
                0x6000cee8       0x48 ./drivers/fsl_lpuart.o
                0x6000cee8                LPUART_EnableInterrupts
 .text.LPUART_DisableInterrupts
                0x6000cf30       0x4e ./drivers/fsl_lpuart.o
                0x6000cf30                LPUART_DisableInterrupts
 .text.LPUART_GetStatusFlags
                0x6000cf7e       0x22 ./drivers/fsl_lpuart.o
                0x6000cf7e                LPUART_GetStatusFlags
 .text.CLOCK_EnableClock
                0x6000cfa0       0x1e ./drivers/fsl_trng.o
 .text.TRNG_GetDefaultConfig
                0x6000cfbe       0xd0 ./drivers/fsl_trng.o
                0x6000cfbe                TRNG_GetDefaultConfig
 .text.trng_SetRetryCount
                0x6000d08e       0x44 ./drivers/fsl_trng.o
 .text.trng_SetStatisticalCheckLimit
                0x6000d0d2      0x12c ./drivers/fsl_trng.o
 .text.trng_ReadEntropy
                0x6000d1fe       0x2e ./drivers/fsl_trng.o
 .text.TRNG_Init
                0x6000d22c       0x94 ./drivers/fsl_trng.o
                0x6000d22c                TRNG_Init
 .text.SystemInitHook
                0x6000d2c0        0x4 ./device/system_MIMXRT106S.o
                0x6000d2c0                SystemInitHook
 .text.EnableIRQ
                0x6000d2c4       0x2c ./component/uart/lpuart_adapter.o
 .text.LPUART_WriteByte
                0x6000d2f0       0x18 ./component/uart/lpuart_adapter.o
 .text.LPUART_ReadByte
                0x6000d308       0x72 ./component/uart/lpuart_adapter.o
 .text.HAL_UartGetStatus
                0x6000d37a       0x18 ./component/uart/lpuart_adapter.o
 .text.LPUART1_IRQHandler
                0x6000d392       0x12 ./component/uart/lpuart_adapter.o
                0x6000d392                LPUART1_IRQHandler
 .text.LPUART2_IRQHandler
                0x6000d3a4       0x12 ./component/uart/lpuart_adapter.o
                0x6000d3a4                LPUART2_IRQHandler
 .text.LPUART3_IRQHandler
                0x6000d3b6       0x12 ./component/uart/lpuart_adapter.o
                0x6000d3b6                LPUART3_IRQHandler
 .text.LPUART4_IRQHandler
                0x6000d3c8       0x12 ./component/uart/lpuart_adapter.o
                0x6000d3c8                LPUART4_IRQHandler
 .text.LPUART5_IRQHandler
                0x6000d3da       0x12 ./component/uart/lpuart_adapter.o
                0x6000d3da                LPUART5_IRQHandler
 .text.LPUART6_IRQHandler
                0x6000d3ec       0x12 ./component/uart/lpuart_adapter.o
                0x6000d3ec                LPUART6_IRQHandler
 .text.LPUART7_IRQHandler
                0x6000d3fe       0x12 ./component/uart/lpuart_adapter.o
                0x6000d3fe                LPUART7_IRQHandler
 .text.LPUART8_IRQHandler
                0x6000d410       0x12 ./component/uart/lpuart_adapter.o
                0x6000d410                LPUART8_IRQHandler
 .text.DisableGlobalIRQ
                0x6000d422       0x18 ./component/serial_manager/serial_manager.o
 .text.EnableGlobalIRQ
                0x6000d43a       0x16 ./component/serial_manager/serial_manager.o
 .text.SerialManager_AddTail
                0x6000d450       0x1a ./component/serial_manager/serial_manager.o
 .text.SerialManager_RemoveHead
                0x6000d46a       0x14 ./component/serial_manager/serial_manager.o
 .text.SerialManager_StartWriting
                0x6000d47e       0x5c ./component/serial_manager/serial_manager.o
 .text.SerialManager_StartReading
                0x6000d4da       0x1c ./component/serial_manager/serial_manager.o
 .text.SerialManager_IsrFunction
                0x6000d4f6       0x32 ./component/serial_manager/serial_manager.o
 .text.SerialManager_Task
                0x6000d528       0xc2 ./component/serial_manager/serial_manager.o
 .text.SerialManager_WriteNonBlocking
                0x6000d5ea       0x20 ./component/serial_manager/serial_manager.o
                0x6000d5ea                SerialManager_WriteNonBlocking
 .text.DisableGlobalIRQ
                0x6000d60a       0x18 ./component/serial_manager/serial_port_uart.o
 .text.EnableGlobalIRQ
                0x6000d622       0x16 ./component/serial_manager/serial_port_uart.o
 .text.Serial_UartCallback
                0x6000d638       0xb4 ./component/serial_manager/serial_port_uart.o
 .text.DisableGlobalIRQ
                0x6000d6ec       0x18 ./component/lists/generic_list.o
 .text.EnableGlobalIRQ
                0x6000d704       0x16 ./component/lists/generic_list.o
 .text.LIST_Error_Check
                0x6000d71a       0x58 ./component/lists/generic_list.o
 .text.LIST_AddTail
                0x6000d772       0x7a ./component/lists/generic_list.o
                0x6000d772                LIST_AddTail
 .text.LIST_RemoveHead
                0x6000d7ec       0x68 ./component/lists/generic_list.o
                0x6000d7ec                LIST_RemoveHead
 .text.LIST_GetHead
                0x6000d854        0xe ./component/lists/generic_list.o
                0x6000d854                LIST_GetHead
 .text.LIST_RemoveElement
                0x6000d862       0x90 ./component/lists/generic_list.o
                0x6000d862                LIST_RemoveElement
 .text.DisableGlobalIRQ
                0x6000d8f2       0x18 ./board/board.o
 .text.EnableGlobalIRQ
                0x6000d90a       0x16 ./board/board.o
 .text.get_mpu_size
                0x6000d920       0x68 ./board/board.o
 .text.BOARD_InitDebugConsole
                0x6000d988       0x20 ./board/board.o
                0x6000d988                BOARD_InitDebugConsole
 .text.CLOCK_DisableClock
                0x6000d9a8       0x1e ./board/clock_config.o
 .text.CLOCK_SetPllBypass
                0x6000d9c6       0x48 ./board/clock_config.o
 .text.IOMUXC_SetSaiMClkClockSource
                0x6000da0e       0x74 ./board/clock_config.o
 .text.CLOCK_EnableClock
                0x6000da82       0x1e ./board/pin_mux.o
 .text.IOMUXC_SetPinMux
                0x6000daa0       0x30 ./board/pin_mux.o
 .text.IOMUXC_SetPinConfig
                0x6000dad0       0x1c ./board/pin_mux.o
 .text.BOARD_InitBootPins
                0x6000daec       0x36 ./board/pin_mux.o
                0x6000daec                BOARD_InitBootPins
 .text.__main   0x6000db22        0xe c:/nxp/mcuxpressoide_11.6.1_8255/ide/plugins/com.nxp.mcuxpresso.tools.win32_11.6.1.202207200623/tools/bin/../lib/gcc/arm-none-eabi/10.3.1/../../../../arm-none-eabi/lib/thumb/v7e-m+dp/hard\libcr_nohost_nf.a(_cr__main.o)
                0x6000db22                __main
 .text.memcpy   0x6000db30        0x4 c:/nxp/mcuxpressoide_11.6.1_8255/ide/plugins/com.nxp.mcuxpresso.tools.win32_11.6.1.202207200623/tools/bin/../lib/gcc/arm-none-eabi/10.3.1/../../../../arm-none-eabi/lib/thumb/v7e-m+dp/hard\libcr_c.a(memcpy.o)
                0x6000db30                memcpy
 .text.memset   0x6000db34        0x4 c:/nxp/mcuxpressoide_11.6.1_8255/ide/plugins/com.nxp.mcuxpresso.tools.win32_11.6.1.202207200623/tools/bin/../lib/gcc/arm-none-eabi/10.3.1/../../../../arm-none-eabi/lib/thumb/v7e-m+dp/hard\libcr_c.a(memset.o)
                0x6000db34                memset
 .text.free     0x6000db38       0x30 c:/nxp/mcuxpressoide_11.6.1_8255/ide/plugins/com.nxp.mcuxpresso.tools.win32_11.6.1.202207200623/tools/bin/../lib/gcc/arm-none-eabi/10.3.1/../../../../arm-none-eabi/lib/thumb/v7e-m+dp/hard\libcr_c.a(alloc.o)
                0x6000db38                free
 .text.setvbuf  0x6000db68       0x3e c:/nxp/mcuxpressoide_11.6.1_8255/ide/plugins/com.nxp.mcuxpresso.tools.win32_11.6.1.202207200623/tools/bin/../lib/gcc/arm-none-eabi/10.3.1/../../../../arm-none-eabi/lib/thumb/v7e-m+dp/hard\libcr_c.a(setvbuf.o)
                0x6000db68                setvbuf
 .text.strlen   0x6000dba6       0x48 c:/nxp/mcuxpressoide_11.6.1_8255/ide/plugins/com.nxp.mcuxpresso.tools.win32_11.6.1.202207200623/tools/bin/../lib/gcc/arm-none-eabi/10.3.1/../../../../arm-none-eabi/lib/thumb/v7e-m+dp/hard\libcr_c.a(strlen.o)
                0x6000dba6                strlen
 .text.strncmp  0x6000dbee       0x56 c:/nxp/mcuxpressoide_11.6.1_8255/ide/plugins/com.nxp.mcuxpresso.tools.win32_11.6.1.202207200623/tools/bin/../lib/gcc/arm-none-eabi/10.3.1/../../../../arm-none-eabi/lib/thumb/v7e-m+dp/hard\libcr_c.a(strncmp.o)
                0x6000dbee                strncmp
 .text._deferredlazyseek
                0x6000dc44       0x40 c:/nxp/mcuxpressoide_11.6.1_8255/ide/plugins/com.nxp.mcuxpresso.tools.win32_11.6.1.202207200623/tools/bin/../lib/gcc/arm-none-eabi/10.3.1/../../../../arm-none-eabi/lib/thumb/v7e-m+dp/hard\libcr_c.a(_deferredlazyseek.o)
                0x6000dc44                _deferredlazyseek
 .text._fdopen  0x6000dc84       0x68 c:/nxp/mcuxpressoide_11.6.1_8255/ide/plugins/com.nxp.mcuxpresso.tools.win32_11.6.1.202207200623/tools/bin/../lib/gcc/arm-none-eabi/10.3.1/../../../../arm-none-eabi/lib/thumb/v7e-m+dp/hard\libcr_c.a(_fdopen.o)
                0x6000dc84                _fdopen
 .text._fflush  0x6000dcec       0x52 c:/nxp/mcuxpressoide_11.6.1_8255/ide/plugins/com.nxp.mcuxpresso.tools.win32_11.6.1.202207200623/tools/bin/../lib/gcc/arm-none-eabi/10.3.1/../../../../arm-none-eabi/lib/thumb/v7e-m+dp/hard\libcr_c.a(_fflush.o)
                0x6000dcec                _fflush
 .text.fclose   0x6000dd3e       0x58 c:/nxp/mcuxpressoide_11.6.1_8255/ide/plugins/com.nxp.mcuxpresso.tools.win32_11.6.1.202207200623/tools/bin/../lib/gcc/arm-none-eabi/10.3.1/../../../../arm-none-eabi/lib/thumb/v7e-m+dp/hard\libcr_c.a(fclose.o)
                0x6000dd3e                fclose
 .text.remove   0x6000dd96       0x14 c:/nxp/mcuxpressoide_11.6.1_8255/ide/plugins/com.nxp.mcuxpresso.tools.win32_11.6.1.202207200623/tools/bin/../lib/gcc/arm-none-eabi/10.3.1/../../../../arm-none-eabi/lib/thumb/v7e-m+dp/hard\libcr_c.a(remove.o)
                0x6000dd96                remove
 .text._do_fflush
                0x6000ddaa       0x40 c:/nxp/mcuxpressoide_11.6.1_8255/ide/plugins/com.nxp.mcuxpresso.tools.win32_11.6.1.202207200623/tools/bin/../lib/gcc/arm-none-eabi/10.3.1/../../../../arm-none-eabi/lib/thumb/v7e-m+dp/hard\libcr_c.a(_do_fflush.o)
                0x6000ddaa                _do_fflush
 .text.__aeabi_memcpy
                0x6000ddea       0x34 c:/nxp/mcuxpressoide_11.6.1_8255/ide/plugins/com.nxp.mcuxpresso.tools.win32_11.6.1.202207200623/tools/bin/../lib/gcc/arm-none-eabi/10.3.1/thumb/v7e-m+dp/hard\libcr_eabihelpers.a(memcpy.o)
                0x6000ddea                __aeabi_memcpy
                0x6000ddf4                __aeabi_memcpy8
                0x6000ddf4                __aeabi_memcpy4
 .text.__aeabi_memset_lowlevel
                0x6000de1e       0x32 c:/nxp/mcuxpressoide_11.6.1_8255/ide/plugins/com.nxp.mcuxpresso.tools.win32_11.6.1.202207200623/tools/bin/../lib/gcc/arm-none-eabi/10.3.1/thumb/v7e-m+dp/hard\libcr_eabihelpers.a(memcpy.o)
                0x6000de1e                __aeabi_lowlevel_memset
 .text.__sys_close
                0x6000de50        0x6 c:/nxp/mcuxpressoide_11.6.1_8255/ide/plugins/com.nxp.mcuxpresso.tools.win32_11.6.1.202207200623/tools/bin/../lib/gcc/arm-none-eabi/10.3.1/../../../../arm-none-eabi/lib/thumb/v7e-m+dp/hard\libcr_nohost_nf.a(__sys_close.o)
                0x6000de50                __sys_close
 .text.__sys_flen
                0x6000de56        0x6 c:/nxp/mcuxpressoide_11.6.1_8255/ide/plugins/com.nxp.mcuxpresso.tools.win32_11.6.1.202207200623/tools/bin/../lib/gcc/arm-none-eabi/10.3.1/../../../../arm-none-eabi/lib/thumb/v7e-m+dp/hard\libcr_nohost_nf.a(__sys_flen.o)
                0x6000de56                __sys_flen
 .text.__sys_istty
                0x6000de5c        0x6 c:/nxp/mcuxpressoide_11.6.1_8255/ide/plugins/com.nxp.mcuxpresso.tools.win32_11.6.1.202207200623/tools/bin/../lib/gcc/arm-none-eabi/10.3.1/../../../../arm-none-eabi/lib/thumb/v7e-m+dp/hard\libcr_nohost_nf.a(__sys_istty.o)
                0x6000de5c                __sys_istty
 .text.__sys_remove
                0x6000de62        0x6 c:/nxp/mcuxpressoide_11.6.1_8255/ide/plugins/com.nxp.mcuxpresso.tools.win32_11.6.1.202207200623/tools/bin/../lib/gcc/arm-none-eabi/10.3.1/../../../../arm-none-eabi/lib/thumb/v7e-m+dp/hard\libcr_nohost_nf.a(__sys_remove.o)
                0x6000de62                __sys_remove
 .text.__sys_seek
                0x6000de68        0x6 c:/nxp/mcuxpressoide_11.6.1_8255/ide/plugins/com.nxp.mcuxpresso.tools.win32_11.6.1.202207200623/tools/bin/../lib/gcc/arm-none-eabi/10.3.1/../../../../arm-none-eabi/lib/thumb/v7e-m+dp/hard\libcr_nohost_nf.a(__sys_seek.o)
                0x6000de68                __sys_seek
 .text.__sys_tmpnam
                0x6000de6e        0x6 c:/nxp/mcuxpressoide_11.6.1_8255/ide/plugins/com.nxp.mcuxpresso.tools.win32_11.6.1.202207200623/tools/bin/../lib/gcc/arm-none-eabi/10.3.1/../../../../arm-none-eabi/lib/thumb/v7e-m+dp/hard\libcr_nohost_nf.a(__sys_tmpnam.o)
                0x6000de6e                __sys_tmpnam
 .text.__sys_write
                0x6000de74        0x4 c:/nxp/mcuxpressoide_11.6.1_8255/ide/plugins/com.nxp.mcuxpresso.tools.win32_11.6.1.202207200623/tools/bin/../lib/gcc/arm-none-eabi/10.3.1/../../../../arm-none-eabi/lib/thumb/v7e-m+dp/hard\libcr_nohost_nf.a(__sys_write.o)
                0x6000de74                __sys_write
 .text.__sys_write.__stub
                0x6000de78       0x50 linker stubs
 *freertos*/tasks.o(SORT_BY_ALIGNMENT(.rodata*))
 .rodata.vTaskStartScheduler.str1.4
                0x6000dec8        0x5 ./freertos/freertos_kernel/tasks.o
 *fill*         0x6000decd        0x3 ff
 .rodata        0x6000ded0       0x1c ./freertos/freertos_kernel/tasks.o
                0x6000ded0                portArch_Name
                0x6000ded4                FreeRTOSDebugConfig
 *(SORT_BY_ALIGNMENT(.rodata) SORT_BY_ALIGNMENT(.rodata.*) SORT_BY_ALIGNMENT(.constdata) SORT_BY_ALIGNMENT(.constdata.*))
 .rodata.__assertion_failed.str1.4
                0x6000deec       0x14 ./utilities/fsl_assert.o
 .rodata.DbgConsole_SendData.str1.4
                0x6000df00       0x4d ./utilities/fsl_debug_console.o
 *fill*         0x6000df4d        0x3 ff
 .rodata.DbgConsole_SendDataReliable.str1.4
                0x6000df50       0x4d ./utilities/fsl_debug_console.o
 *fill*         0x6000df9d        0x3 ff
 .rodata.DbgConsole_Init.str1.4
                0x6000dfa0       0xca ./utilities/fsl_debug_console.o
 *fill*         0x6000e06a        0x2 ff
 .rodata.g_fileTable
                0x6000e06c      0x528 ./source/main.o
                0x6000e06c                g_fileTable
 .rodata.str1.4
                0x6000e594       0x92 ./source/main.o
 *fill*         0x6000e626        0x2 ff
 .rodata.print_security_violation.str1.4
                0x6000e628       0x1d ./source/main.o
 *fill*         0x6000e645        0x3 ff
 .rodata.the_should_never_get_here_catch.str1.4
                0x6000e648       0x27 ./source/main.o
 *fill*         0x6000e66f        0x1 ff
 .rodata.jump_to_application.str1.4
                0x6000e670       0x20 ./source/main.o
 .rodata.check_prdb.str1.4
                0x6000e690       0x3d ./source/main.o
 *fill*         0x6000e6cd        0x3 ff
 .rodata.restore_prdb.str1.4
                0x6000e6d0      0x17d ./source/main.o
 *fill*         0x6000e84d        0x3 ff
 .rodata.bootstrap_task.str1.4
                0x6000e850       0xcb ./source/main.o
 *fill*         0x6000e91b        0x1 ff
 .rodata.main.str1.4
                0x6000e91c       0x4a ./source/main.o
                                 0x4e (size before relaxing)
 *fill*         0x6000e966        0x2 ff
 .rodata.vApplicationMallocFailedHook.str1.4
                0x6000e968       0x2a ./source/os_hooks.o
                                 0x42 (size before relaxing)
 *fill*         0x6000e992        0x2 ff
 .rodata.SLN_AUTH_check_context.str1.4
                0x6000e994       0x31 ./source/sln_auth.o
                                 0x49 (size before relaxing)
 *fill*         0x6000e9c5        0x3 ff
 .rodata.customLUT
                0x6000e9c8      0x100 ./source/sln_flash_config.o
                0x6000e9c8                customLUT
 .rodata        0x6000eac8       0x73 ./source/sln_flash_mgmt.o
 *fill*         0x6000eb3b        0x1 ff
 .rodata.xTimerCreateTimerTask.str1.4
                0x6000eb3c        0x8 ./freertos/freertos_kernel/timers.o
 .rodata.prvCheckForValidListAndQueue.str1.4
                0x6000eb44        0x5 ./freertos/freertos_kernel/timers.o
 *fill*         0x6000eb49        0x3 ff
 .rodata.CLOCK_InitExternalClk.str1.4
                0x6000eb4c       0x21 ./drivers/fsl_clock.o
 *fill*         0x6000eb6d        0x3 ff
 .rodata.CLOCK_GetPllFreq.str1.4
                0x6000eb70       0x65 ./drivers/fsl_clock.o
 *fill*         0x6000ebd5        0x3 ff
 .rodata        0x6000ebd8       0x10 ./drivers/fsl_clock.o
 .rodata        0x6000ebe8       0x25 ./drivers/fsl_dcp.o
 *fill*         0x6000ec0d        0x3 ff
 .rodata.FLEXRAM_SetTCMSize.str1.4
                0x6000ec10       0xbf ./drivers/fsl_flexram_allocate.o
 *fill*         0x6000eccf        0x1 ff
 .rodata.FLEXRAM_AllocateRam.str1.4
                0x6000ecd0       0x2c ./drivers/fsl_flexram_allocate.o
 .rodata.FLEXSPI_CheckAndClearError.str1.4
                0x6000ecfc       0x1a ./drivers/fsl_flexspi.o
 *fill*         0x6000ed16        0x2 ff
 .rodata.FLEXSPI_UpdateLUT.str1.4
                0x6000ed18       0x20 ./drivers/fsl_flexspi.o
 .rodata.CLOCK_ControlGate.str1.4
                0x6000ed38       0x20 ./drivers/fsl_gpio.o
 .rodata.s_gpioBases
                0x6000ed58       0x28 ./drivers/fsl_gpio.o
 .rodata.s_gpioClock
                0x6000ed80        0xc ./drivers/fsl_gpio.o
 .rodata.GPIO_GetInstance.str1.4
                0x6000ed8c       0x33 ./drivers/fsl_gpio.o
 *fill*         0x6000edbf        0x1 ff
 .rodata.GPIO_PinWrite.str1.4
                0x6000edc0       0x1b ./drivers/fsl_gpio.o
 .rodata.CLOCK_ControlGate.str1.4
                0x6000eddb       0x20 ./drivers/fsl_lpuart.o
 *fill*         0x6000eddb        0x1 ff
 .rodata.s_lpuartBases
                0x6000eddc       0x24 ./drivers/fsl_lpuart.o
 .rodata.s_lpuartClock
                0x6000ee00       0x12 ./drivers/fsl_lpuart.o
 *fill*         0x6000ee12        0x2 ff
 .rodata.LPUART_GetInstance.str1.4
                0x6000ee14       0x38 ./drivers/fsl_lpuart.o
 .rodata.LPUART_Init.str1.4
                0x6000ee4c      0x10b ./drivers/fsl_lpuart.o
 *fill*         0x6000ef57        0x1 ff
 .rodata.LPUART_GetDefaultConfig.str1.4
                0x6000ef58       0x22 ./drivers/fsl_lpuart.o
 .rodata.CLOCK_ControlGate.str1.4
                0x6000ef7a       0x20 ./drivers/fsl_trng.o
 *fill*         0x6000ef7a        0x2 ff
 .rodata.trng_GetInstance.str1.4
                0x6000ef7c       0x35 ./drivers/fsl_trng.o
 *fill*         0x6000efb1        0x3 ff
 .rodata.s_LpuartAdapterBase
                0x6000efb4       0x24 ./component/uart/lpuart_adapter.o
 .rodata.s_LpuartIRQ
                0x6000efd8       0x12 ./component/uart/lpuart_adapter.o
 *fill*         0x6000efea        0x2 ff
 .rodata.HAL_UartInit.str1.4
                0x6000efec       0xdd ./component/uart/lpuart_adapter.o
 *fill*         0x6000f0c9        0x3 ff
 .rodata.HAL_UartDeinit.str1.4
                0x6000f0cc       0x1e ./component/uart/lpuart_adapter.o
 *fill*         0x6000f0ea        0x2 ff
 .rodata.HAL_UartInstallCallback.str1.4
                0x6000f0ec       0x1e ./component/uart/lpuart_adapter.o
 *fill*         0x6000f10a        0x2 ff
 .rodata.HAL_UartReceiveNonBlocking.str1.4
                0x6000f10c       0x5a ./component/uart/lpuart_adapter.o
 *fill*         0x6000f166        0x2 ff
 .rodata.HAL_UartSendNonBlocking.str1.4
                0x6000f168       0x5a ./component/uart/lpuart_adapter.o
 *fill*         0x6000f1c2        0x2 ff
 .rodata.HAL_UartAbortReceive.str1.4
                0x6000f1c4       0x1e ./component/uart/lpuart_adapter.o
 *fill*         0x6000f1e2        0x2 ff
 .rodata.HAL_UartAbortSend.str1.4
                0x6000f1e4       0x1e ./component/uart/lpuart_adapter.o
 *fill*         0x6000f202        0x2 ff
 .rodata.HAL_UartIsrFunction.str1.4
                0x6000f204       0x1e ./component/uart/lpuart_adapter.o
 *fill*         0x6000f222        0x2 ff
 .rodata.SerialManager_TxCallback.str1.4
                0x6000f224       0x47 ./component/serial_manager/serial_manager.o
 *fill*         0x6000f26b        0x1 ff
 .rodata.SerialManager_RxCallback.str1.4
                0x6000f26c       0x47 ./component/serial_manager/serial_manager.o
 *fill*         0x6000f2b3        0x1 ff
 .rodata.SerialManager_Write.str1.4
                0x6000f2b4      0x144 ./component/serial_manager/serial_manager.o
 .rodata.SerialManager_Init.str1.4
                0x6000f3f8       0xa0 ./component/serial_manager/serial_manager.o
 .rodata.SerialManager_Deinit.str1.4
                0x6000f498       0x24 ./component/serial_manager/serial_manager.o
 .rodata.SerialManager_OpenWriteHandle.str1.4
                0x6000f4bc       0x4c ./component/serial_manager/serial_manager.o
 .rodata.SerialManager_CloseWriteHandle.str1.4
                0x6000f508       0x8f ./component/serial_manager/serial_manager.o
 *fill*         0x6000f597        0x1 ff
 .rodata.SerialManager_OpenReadHandle.str1.4
                0x6000f598       0x4b ./component/serial_manager/serial_manager.o
 *fill*         0x6000f5e3        0x1 ff
 .rodata.SerialManager_CloseReadHandle.str1.4
                0x6000f5e4       0xcd ./component/serial_manager/serial_manager.o
 *fill*         0x6000f6b1        0x3 ff
 .rodata.SerialManager_CancelWriting.str1.4
                0x6000f6b4       0xaf ./component/serial_manager/serial_manager.o
 *fill*         0x6000f763        0x1 ff
 .rodata.SerialManager_CancelReading.str1.4
                0x6000f764       0x6d ./component/serial_manager/serial_manager.o
 *fill*         0x6000f7d1        0x3 ff
 .rodata.SerialManager_InstallTxCallback.str1.4
                0x6000f7d4       0x6f ./component/serial_manager/serial_manager.o
 *fill*         0x6000f843        0x1 ff
 .rodata.SerialManager_InstallRxCallback.str1.4
                0x6000f844       0x6d ./component/serial_manager/serial_manager.o
 *fill*         0x6000f8b1        0x3 ff
 .rodata.Serial_UartInit.str1.4
                0x6000f8b4       0x4e ./component/serial_manager/serial_port_uart.o
 *fill*         0x6000f902        0x2 ff
 .rodata.Serial_UartDeinit.str1.4
                0x6000f904       0x26 ./component/serial_manager/serial_port_uart.o
 *fill*         0x6000f92a        0x2 ff
 .rodata.Serial_UartWrite.str1.4
                0x6000f92c       0x68 ./component/serial_manager/serial_port_uart.o
 .rodata.Serial_UartCancelWrite.str1.4
                0x6000f994       0x26 ./component/serial_manager/serial_port_uart.o
 *fill*         0x6000f9ba        0x2 ff
 .rodata.Serial_UartInstallTxCallback.str1.4
                0x6000f9bc       0x26 ./component/serial_manager/serial_port_uart.o
 *fill*         0x6000f9e2        0x2 ff
 .rodata.Serial_UartInstallRxCallback.str1.4
                0x6000f9e4       0x26 ./component/serial_manager/serial_port_uart.o
 *fill*         0x6000fa0a        0x2 ff
 .rodata.Serial_UartIsrFunction.str1.4
                0x6000fa0c       0x26 ./component/serial_manager/serial_port_uart.o
 *fill*         0x6000fa32        0x2 ff
 .rodata.CLOCK_SetMux.str1.4
                0x6000fa34       0xa3 ./board/clock_config.o
 *fill*         0x6000fad7        0x1 ff
 .rodata.CLOCK_SetDiv.str1.4
                0x6000fad8       0xa4 ./board/clock_config.o
 .rodata.CLOCK_ControlGate.str1.4
                0x6000fb7c       0x93 ./board/clock_config.o
 *fill*         0x6000fc0f        0x1 ff
 .rodata.armPllConfig_BOARD_BootClockRUN
                0x6000fc10        0x8 ./board/clock_config.o
                0x6000fc10                armPllConfig_BOARD_BootClockRUN
 .rodata.sysPllConfig_BOARD_BootClockRUN
                0x6000fc18       0x14 ./board/clock_config.o
                0x6000fc18                sysPllConfig_BOARD_BootClockRUN
 .rodata.enetPllConfig_BOARD_BootClockRUN
                0x6000fc2c        0x6 ./board/clock_config.o
                0x6000fc2c                enetPllConfig_BOARD_BootClockRUN
 .rodata.CLOCK_ControlGate.str1.4
                0x6000fc32       0x93 ./board/pin_mux.o
 *fill*         0x6000fc32        0x2 ff
 .rodata.__num_Ciob_streams
                0x6000fc34        0x4 c:/nxp/mcuxpressoide_11.6.1_8255/ide/plugins/com.nxp.mcuxpresso.tools.win32_11.6.1.202207200623/tools/bin/../lib/gcc/arm-none-eabi/10.3.1/../../../../arm-none-eabi/lib/thumb/v7e-m+dp/hard\libcr_nohost_nf.a(__ciob.o)
                0x6000fc34                __num_Ciob_streams
 .rodata._initio.str1.1
                0x6000fc38        0x4 c:/nxp/mcuxpressoide_11.6.1_8255/ide/plugins/com.nxp.mcuxpresso.tools.win32_11.6.1.202207200623/tools/bin/../lib/gcc/arm-none-eabi/10.3.1/../../../../arm-none-eabi/lib/thumb/v7e-m+dp/hard\libcr_c.a(initio.o)
                0x6000fc3c                . = ALIGN (0x4)
                0x6000fc3c                _etext = .

.glue_7         0x6000fc3c        0x0
 .glue_7        0x6000fc3c        0x0 linker stubs

.glue_7t        0x6000fc3c        0x0
 .glue_7t       0x6000fc3c        0x0 linker stubs

.vfp11_veneer   0x6000fc3c        0x0
 .vfp11_veneer  0x6000fc3c        0x0 linker stubs

.v4_bx          0x6000fc3c        0x0
 .v4_bx         0x6000fc3c        0x0 linker stubs

.iplt           0x6000fc3c        0x0
 .iplt          0x6000fc3c        0x0 ./xip/fsl_flexspi_nor_boot.o

.rel.dyn        0x6000fc3c        0x0
 .rel.iplt      0x6000fc3c        0x0 ./xip/fsl_flexspi_nor_boot.o

.data_RAM2      0x00000000     0x13f8 load address 0x6000fc3c
 FILL mask 0xff
                [!provide]                PROVIDE (__start_data_RAM2 = .)
                [!provide]                PROVIDE (__start_data_SRAM_ITC = .)
 *(SORT_BY_ALIGNMENT(.ramfunc.$RAM2))
 *(SORT_BY_ALIGNMENT(.ramfunc.$SRAM_ITC))
 .ramfunc.$SRAM_ITC
                0x00000000       0x16 ./source/main.o
 .ramfunc.$SRAM_ITC
                0x00000016       0x24 ./source/sln_auth.o
 *(SORT_BY_ALIGNMENT(.vectorTableRam))
 *fill*         0x0000003a      0x3c6 ff
 .vectorTableRam
                0x00000400      0x400 ./board/board.o
                0x00000400                g_vectorTable
 *flexspi_hyper_flash_ops.o(SORT_BY_ALIGNMENT(.text*))
 .text.flexspi_nor_write_enable
                0x00000800       0x3a ./drivers/flexspi_hyper_flash_ops.o
                0x00000800                flexspi_nor_write_enable
 .text.flexspi_nor_wait_bus_busy
                0x0000083a       0x7a ./drivers/flexspi_hyper_flash_ops.o
                0x0000083a                flexspi_nor_wait_bus_busy
 .text.flexspi_nor_flash_erase_sector
                0x000008b4       0x60 ./drivers/flexspi_hyper_flash_ops.o
                0x000008b4                flexspi_nor_flash_erase_sector
 .text.flexspi_nor_flash_page_program_with_buffer_seq2
                0x00000914       0x4a ./drivers/flexspi_hyper_flash_ops.o
 .text.flexspi_nor_flash_page_program_with_buffer_seq3
                0x0000095e       0x4a ./drivers/flexspi_hyper_flash_ops.o
 .text.flexspi_nor_flash_page_program_with_buffer_seq4
                0x000009a8       0x4e ./drivers/flexspi_hyper_flash_ops.o
 .text.flexspi_nor_flash_page_program_with_buffer_seq5
                0x000009f6       0x4a ./drivers/flexspi_hyper_flash_ops.o
 .text.flexspi_nor_flash_page_program_with_buffer
                0x00000a40       0xaa ./drivers/flexspi_hyper_flash_ops.o
                0x00000a40                flexspi_nor_flash_page_program_with_buffer
 *fsl_flexspi.o(SORT_BY_ALIGNMENT(.text*))
 *fill*         0x00000aea        0x2 ff
 .text.FLEXSPI_CheckAndClearError
                0x00000aec       0x90 ./drivers/fsl_flexspi.o
                0x00000aec                FLEXSPI_CheckAndClearError
 .text.FLEXSPI_UpdateLUT
                0x00000b7c       0x88 ./drivers/fsl_flexspi.o
                0x00000b7c                FLEXSPI_UpdateLUT
 .text.FLEXSPI_DriverIRQHandler
                0x00000c04       0x28 ./drivers/fsl_flexspi.o
                0x00000c04                FLEXSPI_DriverIRQHandler
 .text.FLEXSPI_ClearInterruptStatusFlags
                0x00000c2c       0x18 ./drivers/fsl_flexspi.o
 .text.FLEXSPI_GetBusIdleStatus
                0x00000c44       0x32 ./drivers/fsl_flexspi.o
 .text.FLEXSPI_WriteBlocking
                0x00000c76       0xd2 ./drivers/fsl_flexspi.o
                0x00000c76                FLEXSPI_WriteBlocking
 .text.FLEXSPI_ReadBlocking
                0x00000d48      0x138 ./drivers/fsl_flexspi.o
                0x00000d48                FLEXSPI_ReadBlocking
 .text.FLEXSPI_TransferBlocking
                0x00000e80      0x12c ./drivers/fsl_flexspi.o
                0x00000e80                FLEXSPI_TransferBlocking
 *sln_flash.o(SORT_BY_ALIGNMENT(.text*))
 .text.SLN_ram_disable_d_cache
                0x00000fac       0x64 ./source/sln_flash.o
                0x00000fac                SLN_ram_disable_d_cache
 .text.SLN_ram_enable_d_cache
                0x00001010       0x78 ./source/sln_flash.o
                0x00001010                SLN_ram_enable_d_cache
 .text.SLN_Flash_Init
                0x00001088       0x40 ./source/sln_flash.o
                0x00001088                SLN_Flash_Init
 .text.SLN_Write_Flash_Page
                0x000010c8       0x80 ./source/sln_flash.o
                0x000010c8                SLN_Write_Flash_Page
 .text.SLN_Write_Flash_Page2
                0x00001148       0x68 ./source/sln_flash.o
 .text.SLN_Erase_Sector2
                0x000011b0       0x28 ./source/sln_flash.o
 .text.SLN_Erase_Sector
                0x000011d8       0x40 ./source/sln_flash.o
                0x000011d8                SLN_Erase_Sector
 .text.FLEXSPI_SoftwareReset
                0x00001218       0x26 ./source/sln_flash.o
 .text.safe_strlen
                0x0000123e       0x32 ./source/sln_flash.o
                0x0000123e                safe_strlen
 .text.SLN_ram_memset
                0x00001270       0x32 ./source/sln_flash.o
                0x00001270                SLN_ram_memset
 .text.SLN_ram_memcpy
                0x000012a2       0x36 ./source/sln_flash.o
                0x000012a2                SLN_ram_memcpy
 .text.SLN_ram_disable_irq
                0x000012d8       0x16 ./source/sln_flash.o
                0x000012d8                SLN_ram_disable_irq
 .text.SLN_ram_enable_irq
                0x000012ee       0x10 ./source/sln_flash.o
                0x000012ee                SLN_ram_enable_irq
 .text.SLN_Write_Sector
                0x000012fe       0xba ./source/sln_flash.o
                0x000012fe                SLN_Write_Sector
 .text.SLN_Read_Flash_At_Address
                0x000013b8       0x24 ./source/sln_flash.o
                0x000013b8                SLN_Read_Flash_At_Address
 .text.SLN_Flash_Get_Read_Address
                0x000013dc       0x10 ./source/sln_flash.o
                0x000013dc                SLN_Flash_Get_Read_Address
 *fill*         0x000013ec        0x4 ff
 .text.SLN_Flash_Get_Read_Address.__stub
                0x000013f0        0x8 linker stubs
                0x000013f8                . = ALIGN (0x4)
                [!provide]                PROVIDE (__end_data_RAM2 = .)
                [!provide]                PROVIDE (__end_data_SRAM_ITC = .)

.data_RAM3      0x20200000        0x0 load address 0x60011034
 FILL mask 0xff
                [!provide]                PROVIDE (__start_data_RAM3 = .)
                [!provide]                PROVIDE (__start_data_SRAM_OC_NON_CACHEABLE = .)
 *(SORT_BY_ALIGNMENT(.ramfunc.$RAM3))
 *(SORT_BY_ALIGNMENT(.ramfunc.$SRAM_OC_NON_CACHEABLE))
 *(SORT_BY_ALIGNMENT(.ocram_non_cacheable_data))
                0x20200000                . = ALIGN (0x4)
                [!provide]                PROVIDE (__end_data_RAM3 = .)
                [!provide]                PROVIDE (__end_data_SRAM_OC_NON_CACHEABLE = .)

.data_RAM4      0x20280000        0x0 load address 0x60011034
 FILL mask 0xff
                [!provide]                PROVIDE (__start_data_RAM4 = .)
                [!provide]                PROVIDE (__start_data_SRAM_OC_CACHEABLE = .)
 *(SORT_BY_ALIGNMENT(.ramfunc.$RAM4))
 *(SORT_BY_ALIGNMENT(.ramfunc.$SRAM_OC_CACHEABLE))
 *(SORT_BY_ALIGNMENT(.ocram_cacheable_data))
                0x20280000                . = ALIGN (0x4)
                [!provide]                PROVIDE (__end_data_RAM4 = .)
                [!provide]                PROVIDE (__end_data_SRAM_OC_CACHEABLE = .)

.uninit_RESERVED
                0x20000000        0x0
                0x20000000                _start_uninit_RESERVED = .
 *(SORT_BY_ALIGNMENT(.bss.$RESERVED*))
                0x20000000                . = ALIGN (0x4)
                0x20000000                _end_uninit_RESERVED = .

.data           0x20000000      0x170 load address 0x60011034
 FILL mask 0xff
                0x20000000                _data = .
                [!provide]                PROVIDE (__start_data_RAM = .)
                [!provide]                PROVIDE (__start_data_SRAM_DTC = .)
 *(SORT_BY_ALIGNMENT(vtable))
 *(SORT_BY_ALIGNMENT(.ramfunc*))
 *(SORT_BY_ALIGNMENT(CodeQuickAccess))
 *(SORT_BY_ALIGNMENT(DataQuickAccess))
 *(SORT_BY_ALIGNMENT(RamFunction))
 *(SORT_BY_ALIGNMENT(NonCacheable.init))
 NonCacheable.init
                0x20000000       0xd0 ./drivers/fsl_dcp.o
 *(SORT_BY_ALIGNMENT(.data*))
 .data.s_flashMgmtEncCtx
                0x200000d0       0x50 ./source/sln_flash_mgmt.o
 .data.kViolationStr
                0x20000120       0x14 ./source/main.o
                0x20000120                kViolationStr
 .data.uxCriticalNesting
                0x20000134        0x4 ./freertos/freertos_kernel/portable/GCC/ARM_CM4F/port.o
 .data.s_nullSha1
                0x20000138       0x14 ./drivers/fsl_dcp.o
 .data.s_nullSha256
                0x2000014c       0x20 ./drivers/fsl_dcp.o
 .data.SystemCoreClock
                0x2000016c        0x4 ./device/system_MIMXRT106S.o
                0x2000016c                SystemCoreClock
                0x20000170                . = ALIGN (0x4)
                0x20000170                _edata = .
                [!provide]                PROVIDE (__end_data_RAM = .)
                [!provide]                PROVIDE (__end_data_SRAM_DTC = .)

.igot.plt       0x20000170        0x0 load address 0x600111a4
 .igot.plt      0x20000170        0x0 ./xip/fsl_flexspi_nor_boot.o

.bss_RAM2       0x000013f8        0x0
                [!provide]                PROVIDE (__start_bss_RAM2 = .)
                [!provide]                PROVIDE (__start_bss_SRAM_ITC = .)
 *(SORT_BY_ALIGNMENT(.bss.$RAM2))
 *(SORT_BY_ALIGNMENT(.bss.$SRAM_ITC))
 *(SORT_BY_ALIGNMENT(.bss.$RAM2.*))
 *(SORT_BY_ALIGNMENT(.bss.$SRAM_ITC.*))
                0x000013f8                . = ALIGN ((. != 0x0)?0x4:0x1)
                [!provide]                PROVIDE (__end_bss_RAM2 = .)
                [!provide]                PROVIDE (__end_bss_SRAM_ITC = .)

.bss_RAM3       0x20200000    0x40000
                [!provide]                PROVIDE (__start_bss_RAM3 = .)
                [!provide]                PROVIDE (__start_bss_SRAM_OC_NON_CACHEABLE = .)
 *(SORT_BY_ALIGNMENT(.ocram_non_cacheable_bss))
 *(SORT_BY_ALIGNMENT(.bss.$RAM3))
 *(SORT_BY_ALIGNMENT(.bss.$SRAM_OC_NON_CACHEABLE))
 .bss.$SRAM_OC_NON_CACHEABLE
                0x20200000    0x40000 ./source/sln_auth.o
                0x20200000                s_tempBuffer
 *(SORT_BY_ALIGNMENT(.bss.$RAM3.*))
 *(SORT_BY_ALIGNMENT(.bss.$SRAM_OC_NON_CACHEABLE.*))
                0x20240000                . = ALIGN ((. != 0x0)?0x4:0x1)
                [!provide]                PROVIDE (__end_bss_RAM3 = .)
                [!provide]                PROVIDE (__end_bss_SRAM_OC_NON_CACHEABLE = .)

.bss_RAM4       0x20280000        0x0
                [!provide]                PROVIDE (__start_bss_RAM4 = .)
                [!provide]                PROVIDE (__start_bss_SRAM_OC_CACHEABLE = .)
 *(SORT_BY_ALIGNMENT(.bss.$RAM4))
 *(SORT_BY_ALIGNMENT(.bss.$SRAM_OC_CACHEABLE))
 *(SORT_BY_ALIGNMENT(.bss.$RAM4.*))
 *(SORT_BY_ALIGNMENT(.bss.$SRAM_OC_CACHEABLE.*))
                0x20280000                . = ALIGN ((. != 0x0)?0x4:0x1)
                [!provide]                PROVIDE (__end_bss_RAM4 = .)
                [!provide]                PROVIDE (__end_bss_SRAM_OC_CACHEABLE = .)

.bss            0x20000170    0x11734
                0x20000170                _bss = .
                [!provide]                PROVIDE (__start_bss_RAM = .)
                [!provide]                PROVIDE (__start_bss_SRAM_DTC = .)
 *(SORT_BY_ALIGNMENT(NonCacheable))
 *(SORT_BY_ALIGNMENT(.bss*))
 .bss.s_debugConsoleReadSemaphore
                0x20000170        0x4 ./utilities/fsl_debug_console.o
 .bss.s_debugConsoleReadWaitSemaphore
                0x20000174        0x4 ./utilities/fsl_debug_console.o
 .bss.s_debugConsoleState
                0x20000178      0x788 ./utilities/fsl_debug_console.o
 .bss.g_serialHandle
                0x20000900        0x4 ./utilities/fsl_debug_console.o
                0x20000900                g_serialHandle
 .bss.appEntry  0x20000904        0x4 ./source/main.o
                0x20000904                appEntry
 .bss.s_thisFica
                0x20000908      0x3b4 ./source/main.o
 .bss.xIdleTaskTCB.3
                0x20000cbc       0x64 ./source/os_hooks.o
 .bss.uxIdleTaskStack.2
                0x20000d20      0x168 ./source/os_hooks.o
 .bss.xTimerTaskTCB.1
                0x20000e88       0x64 ./source/os_hooks.o
 .bss.uxTimerTaskStack.0
                0x20000eec      0x5a0 ./source/os_hooks.o
 .bss.s_SNL_EncryptCtx
                0x2000148c       0x10 ./source/sln_encrypt.o
 .bss.s_fileLock
                0x2000149c        0x4 ./source/sln_flash_mgmt.o
 .bss.s_flashEntries
                0x200014a0        0x4 ./source/sln_flash_mgmt.o
 .bss.s_fileCount
                0x200014a4        0x4 ./source/sln_flash_mgmt.o
 .bss.s_flashCrcList
                0x200014a8        0x4 ./source/sln_flash_mgmt.o
 .bss.ucHeap    0x200014ac    0x10000 ./freertos/freertos_kernel/portable/MemMang/heap_4.o
 .bss.xStart    0x200114ac        0x8 ./freertos/freertos_kernel/portable/MemMang/heap_4.o
 .bss.pxEnd     0x200114b4        0x4 ./freertos/freertos_kernel/portable/MemMang/heap_4.o
 .bss.xFreeBytesRemaining
                0x200114b8        0x4 ./freertos/freertos_kernel/portable/MemMang/heap_4.o
 .bss.xMinimumEverFreeBytesRemaining
                0x200114bc        0x4 ./freertos/freertos_kernel/portable/MemMang/heap_4.o
 .bss.xNumberOfSuccessfulAllocations
                0x200114c0        0x4 ./freertos/freertos_kernel/portable/MemMang/heap_4.o
 .bss.xNumberOfSuccessfulFrees
                0x200114c4        0x4 ./freertos/freertos_kernel/portable/MemMang/heap_4.o
 .bss.xBlockAllocatedBit
                0x200114c8        0x4 ./freertos/freertos_kernel/portable/MemMang/heap_4.o
 .bss.ulMaxPRIGROUPValue
                0x200114cc        0x4 ./freertos/freertos_kernel/portable/GCC/ARM_CM4F/port.o
 .bss.xQueueRegistry
                0x200114d0       0x40 ./freertos/freertos_kernel/queue.o
                0x200114d0                xQueueRegistry
 .bss.pxCurrentTCB
                0x20011510        0x4 ./freertos/freertos_kernel/tasks.o
                0x20011510                pxCurrentTCB
 .bss.pxReadyTasksLists
                0x20011514       0xa0 ./freertos/freertos_kernel/tasks.o
 .bss.xDelayedTaskList1
                0x200115b4       0x14 ./freertos/freertos_kernel/tasks.o
 .bss.xDelayedTaskList2
                0x200115c8       0x14 ./freertos/freertos_kernel/tasks.o
 .bss.pxDelayedTaskList
                0x200115dc        0x4 ./freertos/freertos_kernel/tasks.o
 .bss.pxOverflowDelayedTaskList
                0x200115e0        0x4 ./freertos/freertos_kernel/tasks.o
 .bss.xPendingReadyList
                0x200115e4       0x14 ./freertos/freertos_kernel/tasks.o
 .bss.xTasksWaitingTermination
                0x200115f8       0x14 ./freertos/freertos_kernel/tasks.o
 .bss.uxDeletedTasksWaitingCleanUp
                0x2001160c        0x4 ./freertos/freertos_kernel/tasks.o
 .bss.xSuspendedTaskList
                0x20011610       0x14 ./freertos/freertos_kernel/tasks.o
 .bss.uxCurrentNumberOfTasks
                0x20011624        0x4 ./freertos/freertos_kernel/tasks.o
 .bss.xTickCount
                0x20011628        0x4 ./freertos/freertos_kernel/tasks.o
 .bss.uxTopReadyPriority
                0x2001162c        0x4 ./freertos/freertos_kernel/tasks.o
 .bss.xSchedulerRunning
                0x20011630        0x4 ./freertos/freertos_kernel/tasks.o
 .bss.xPendedTicks
                0x20011634        0x4 ./freertos/freertos_kernel/tasks.o
 .bss.xYieldPending
                0x20011638        0x4 ./freertos/freertos_kernel/tasks.o
 .bss.xNumOfOverflows
                0x2001163c        0x4 ./freertos/freertos_kernel/tasks.o
 .bss.uxTaskNumber
                0x20011640        0x4 ./freertos/freertos_kernel/tasks.o
 .bss.xNextTaskUnblockTime
                0x20011644        0x4 ./freertos/freertos_kernel/tasks.o
 .bss.xIdleTaskHandle
                0x20011648        0x4 ./freertos/freertos_kernel/tasks.o
 .bss.uxSchedulerSuspended
                0x2001164c        0x4 ./freertos/freertos_kernel/tasks.o
 .bss.xActiveTimerList1
                0x20011650       0x14 ./freertos/freertos_kernel/timers.o
 .bss.xActiveTimerList2
                0x20011664       0x14 ./freertos/freertos_kernel/timers.o
 .bss.pxCurrentTimerList
                0x20011678        0x4 ./freertos/freertos_kernel/timers.o
 .bss.pxOverflowTimerList
                0x2001167c        0x4 ./freertos/freertos_kernel/timers.o
 .bss.xTimerQueue
                0x20011680        0x4 ./freertos/freertos_kernel/timers.o
 .bss.xTimerTaskHandle
                0x20011684        0x4 ./freertos/freertos_kernel/timers.o
 .bss.xLastTime.2
                0x20011688        0x4 ./freertos/freertos_kernel/timers.o
 .bss.ucStaticTimerQueueStorage.1
                0x2001168c       0xa0 ./freertos/freertos_kernel/timers.o
 .bss.xStaticTimerQueue.0
                0x2001172c       0x50 ./freertos/freertos_kernel/timers.o
 .bss.g_xtalFreq
                0x2001177c        0x4 ./drivers/fsl_clock.o
                0x2001177c                g_xtalFreq
 .bss.g_rtcXtalFreq
                0x20011780        0x4 ./drivers/fsl_clock.o
                0x20011780                g_rtcXtalFreq
 .bss.s_flexspiHandle
                0x20011784        0xc ./drivers/fsl_flexspi.o
 .bss.s_flexspiIsr
                0x20011790        0x4 ./drivers/fsl_flexspi.o
 .bss.s_lpi2cMasterIsr
                0x20011794        0x4 ./drivers/fsl_lpi2c.o
 .bss.s_lpi2cMasterHandle
                0x20011798       0x14 ./drivers/fsl_lpi2c.o
 .bss.s_lpi2cSlaveIsr
                0x200117ac        0x4 ./drivers/fsl_lpi2c.o
 .bss.s_lpi2cSlaveHandle
                0x200117b0       0x14 ./drivers/fsl_lpi2c.o
 .bss.s_UartState
                0x200117c4       0x24 ./component/uart/lpuart_adapter.o
 .bss.errno     0x200117e8        0x4 c:/nxp/mcuxpressoide_11.6.1_8255/ide/plugins/com.nxp.mcuxpresso.tools.win32_11.6.1.202207200623/tools/bin/../lib/gcc/arm-none-eabi/10.3.1/../../../../arm-none-eabi/lib/thumb/v7e-m+dp/hard\libcr_c.a(errno.o)
                0x200117e8                errno
 .bss.__Ciob    0x200117ec       0xb4 c:/nxp/mcuxpressoide_11.6.1_8255/ide/plugins/com.nxp.mcuxpresso.tools.win32_11.6.1.202207200623/tools/bin/../lib/gcc/arm-none-eabi/10.3.1/../../../../arm-none-eabi/lib/thumb/v7e-m+dp/hard\libcr_nohost_nf.a(__ciob.o)
                0x200117ec                __Ciob
 .bss.s_dcpUsers
                0x200118a0        0x2 ./source/sln_encrypt.o
 .bss.ucMaxSysCallPriority
                0x200118a2        0x1 ./freertos/freertos_kernel/portable/GCC/ARM_CM4F/port.o
 *(SORT_BY_ALIGNMENT(COMMON))
                0x200118a4                . = ALIGN (0x4)
 *fill*         0x200118a3        0x1 
                0x200118a4                _ebss = .
                [!provide]                PROVIDE (__end_bss_RAM = .)
                [!provide]                PROVIDE (__end_bss_SRAM_DTC = .)
                [!provide]                PROVIDE (end = .)

.noinit_RAM2    0x000013f8        0x0
                [!provide]                PROVIDE (__start_noinit_RAM2 = .)
                [!provide]                PROVIDE (__start_noinit_SRAM_ITC = .)
 *(SORT_BY_ALIGNMENT(.noinit.$RAM2))
 *(SORT_BY_ALIGNMENT(.noinit.$SRAM_ITC))
 *(SORT_BY_ALIGNMENT(.noinit.$RAM2.*))
 *(SORT_BY_ALIGNMENT(.noinit.$SRAM_ITC.*))
                0x000013f8                . = ALIGN (0x4)
                [!provide]                PROVIDE (__end_noinit_RAM2 = .)
                [!provide]                PROVIDE (__end_noinit_SRAM_ITC = .)

.noinit_RAM3    0x20240000        0x0
                [!provide]                PROVIDE (__start_noinit_RAM3 = .)
                [!provide]                PROVIDE (__start_noinit_SRAM_OC_NON_CACHEABLE = .)
 *(SORT_BY_ALIGNMENT(.noinit.$RAM3))
 *(SORT_BY_ALIGNMENT(.noinit.$SRAM_OC_NON_CACHEABLE))
 *(SORT_BY_ALIGNMENT(.noinit.$RAM3.*))
 *(SORT_BY_ALIGNMENT(.noinit.$SRAM_OC_NON_CACHEABLE.*))
                0x20240000                . = ALIGN (0x4)
                [!provide]                PROVIDE (__end_noinit_RAM3 = .)
                [!provide]                PROVIDE (__end_noinit_SRAM_OC_NON_CACHEABLE = .)

.noinit_RAM4    0x20280000        0x0
                [!provide]                PROVIDE (__start_noinit_RAM4 = .)
                [!provide]                PROVIDE (__start_noinit_SRAM_OC_CACHEABLE = .)
 *(SORT_BY_ALIGNMENT(.noinit.$RAM4))
 *(SORT_BY_ALIGNMENT(.noinit.$SRAM_OC_CACHEABLE))
 *(SORT_BY_ALIGNMENT(.noinit.$RAM4.*))
 *(SORT_BY_ALIGNMENT(.noinit.$SRAM_OC_CACHEABLE.*))
                0x20280000                . = ALIGN (0x4)
                [!provide]                PROVIDE (__end_noinit_RAM4 = .)
                [!provide]                PROVIDE (__end_noinit_SRAM_OC_CACHEABLE = .)

.noinit         0x200118a4        0x0
                0x200118a4                _noinit = .
                [!provide]                PROVIDE (__start_noinit_RAM = .)
                [!provide]                PROVIDE (__start_noinit_SRAM_DTC = .)
 *(SORT_BY_ALIGNMENT(.noinit*))
                0x200118a4                . = ALIGN (0x4)
                0x200118a4                _end_noinit = .
                [!provide]                PROVIDE (__end_noinit_RAM = .)
                [!provide]                PROVIDE (__end_noinit_SRAM_DTC = .)

.ARM.extab
 *(SORT_BY_ALIGNMENT(.ARM.extab*) SORT_BY_ALIGNMENT(.gnu.linkonce.armextab.*))

.ARM.exidx      0x600111a4        0x0
                0x600111a4                __exidx_start = .
 *(SORT_BY_ALIGNMENT(.ARM.exidx*) SORT_BY_ALIGNMENT(.gnu.linkonce.armexidx.*))
                0x600111a4                __exidx_end = .
                0x00001000                _HeapSize = 0x1000

.heap           0x200118a4     0x1000
                0x200118a4                _pvHeapStart = .
                0x200128a4                . = (. + _HeapSize)
 *fill*         0x200118a4     0x1000 
                0x200128a4                . = ALIGN (0x4)
                0x200128a4                _pvHeapLimit = .
                0x00001000                _StackSize = 0x1000

.heap2stackfill
                0x200128a4     0x1000
                0x200138a4                . = (. + _StackSize)
 *fill*         0x200128a4     0x1000 

.stack          0x2003f000        0x0
                0x2003f000                _vStackBase = .
                0x2003f000                . = ALIGN (0x4)
                0x20040000                _vStackTop = (. + _StackSize)
                0x60002000                _image_start = LOADADDR (.text)
                0x600111a4                _image_end = (LOADADDR (.data) + SIZEOF (.data))
                0x0000f1a4                _image_size = (_image_end - _image_start)
OUTPUT(sln_local2_iot_bootstrap.axf elf32-littlearm)
LOAD linker stubs

.debug_info     0x00000000    0x27436
 .debug_info    0x00000000      0x436 ./xip/fsl_flexspi_nor_boot.o
 .debug_info    0x00000436      0x7b3 ./xip/sln_local2_iot_flexspi_nor_config.o
 .debug_info    0x00000be9       0xad ./utilities/fsl_assert.o
 .debug_info    0x00000c96      0xef7 ./utilities/fsl_debug_console.o
 .debug_info    0x00001b8d      0xa87 ./utilities/fsl_str.o
 .debug_info    0x00002614     0x140f ./startup/startup_mimxrt106s.o
 .debug_info    0x00003a23     0x164d ./source/main.o
 .debug_info    0x00005070      0x3ee ./source/os_hooks.o
 .debug_info    0x0000545e      0xf19 ./source/sln_auth.o
 .debug_info    0x00006377      0xf97 ./source/sln_encrypt.o
 .debug_info    0x0000730e      0xc81 ./source/sln_flash.o
 .debug_info    0x00007f8f      0x5a4 ./source/sln_flash_config.o
 .debug_info    0x00008533     0x1213 ./source/sln_flash_mgmt.o
 .debug_info    0x00009746     0x19f3 ./mbedtls/port/ksdk/ksdk_mbedtls.o
 .debug_info    0x0000b139      0x4d3 ./freertos/freertos_kernel/portable/MemMang/heap_4.o
 .debug_info    0x0000b60c      0x4d5 ./freertos/freertos_kernel/portable/GCC/ARM_CM4F/port.o
 .debug_info    0x0000bae1      0x2ba ./freertos/freertos_kernel/list.o
 .debug_info    0x0000bd9b     0x1a50 ./freertos/freertos_kernel/queue.o
 .debug_info    0x0000d7eb     0x22ac ./freertos/freertos_kernel/tasks.o
 .debug_info    0x0000fa97     0x1354 ./freertos/freertos_kernel/timers.o
 .debug_info    0x00010deb      0xab1 ./drivers/flexspi_hyper_flash_ops.o
 .debug_info    0x0001189c     0x1dda ./drivers/fsl_clock.o
 .debug_info    0x00013676     0x23cc ./drivers/fsl_dcp.o
 .debug_info    0x00015a42      0x4a2 ./drivers/fsl_flexram_allocate.o
 .debug_info    0x00015ee4     0x20ca ./drivers/fsl_flexspi.o
 .debug_info    0x00017fae      0xc7f ./drivers/fsl_gpio.o
 .debug_info    0x00018c2d     0x2cd5 ./drivers/fsl_lpi2c.o
 .debug_info    0x0001b902     0x226a ./drivers/fsl_lpuart.o
 .debug_info    0x0001db6c     0x15f0 ./drivers/fsl_trng.o
 .debug_info    0x0001f15c      0xcee ./device/system_MIMXRT106S.o
 .debug_info    0x0001fe4a     0x1985 ./component/uart/lpuart_adapter.o
 .debug_info    0x000217cf     0x1020 ./component/serial_manager/serial_manager.o
 .debug_info    0x000227ef      0x88a ./component/serial_manager/serial_port_uart.o
 .debug_info    0x00023079      0x57e ./component/lists/generic_list.o
 .debug_info    0x000235f7     0x17f6 ./board/board.o
 .debug_info    0x00024ded     0x18e5 ./board/clock_config.o
 .debug_info    0x000266d2       0x9d ./board/dcd.o
 .debug_info    0x0002676f      0xcc7 ./board/pin_mux.o

.debug_abbrev   0x00000000     0x572f
 .debug_abbrev  0x00000000       0xd0 ./xip/fsl_flexspi_nor_boot.o
 .debug_abbrev  0x000000d0       0xe7 ./xip/sln_local2_iot_flexspi_nor_config.o
 .debug_abbrev  0x000001b7       0x63 ./utilities/fsl_assert.o
 .debug_abbrev  0x0000021a      0x2d8 ./utilities/fsl_debug_console.o
 .debug_abbrev  0x000004f2      0x211 ./utilities/fsl_str.o
 .debug_abbrev  0x00000703      0x28f ./startup/startup_mimxrt106s.o
 .debug_abbrev  0x00000992      0x379 ./source/main.o
 .debug_abbrev  0x00000d0b      0x166 ./source/os_hooks.o
 .debug_abbrev  0x00000e71      0x261 ./source/sln_auth.o
 .debug_abbrev  0x000010d2      0x2aa ./source/sln_encrypt.o
 .debug_abbrev  0x0000137c      0x24d ./source/sln_flash.o
 .debug_abbrev  0x000015c9       0xc3 ./source/sln_flash_config.o
 .debug_abbrev  0x0000168c      0x2ee ./source/sln_flash_mgmt.o
 .debug_abbrev  0x0000197a      0x2c0 ./mbedtls/port/ksdk/ksdk_mbedtls.o
 .debug_abbrev  0x00001c3a      0x1f2 ./freertos/freertos_kernel/portable/MemMang/heap_4.o
 .debug_abbrev  0x00001e2c      0x22e ./freertos/freertos_kernel/portable/GCC/ARM_CM4F/port.o
 .debug_abbrev  0x0000205a       0xef ./freertos/freertos_kernel/list.o
 .debug_abbrev  0x00002149      0x304 ./freertos/freertos_kernel/queue.o
 .debug_abbrev  0x0000244d      0x31f ./freertos/freertos_kernel/tasks.o
 .debug_abbrev  0x0000276c      0x2be ./freertos/freertos_kernel/timers.o
 .debug_abbrev  0x00002a2a      0x1e9 ./drivers/flexspi_hyper_flash_ops.o
 .debug_abbrev  0x00002c13      0x369 ./drivers/fsl_clock.o
 .debug_abbrev  0x00002f7c      0x3db ./drivers/fsl_dcp.o
 .debug_abbrev  0x00003357      0x184 ./drivers/fsl_flexram_allocate.o
 .debug_abbrev  0x000034db      0x33f ./drivers/fsl_flexspi.o
 .debug_abbrev  0x0000381a      0x220 ./drivers/fsl_gpio.o
 .debug_abbrev  0x00003a3a      0x332 ./drivers/fsl_lpi2c.o
 .debug_abbrev  0x00003d6c      0x31f ./drivers/fsl_lpuart.o
 .debug_abbrev  0x0000408b      0x227 ./drivers/fsl_trng.o
 .debug_abbrev  0x000042b2      0x198 ./device/system_MIMXRT106S.o
 .debug_abbrev  0x0000444a      0x2d6 ./component/uart/lpuart_adapter.o
 .debug_abbrev  0x00004720      0x2e5 ./component/serial_manager/serial_manager.o
 .debug_abbrev  0x00004a05      0x287 ./component/serial_manager/serial_port_uart.o
 .debug_abbrev  0x00004c8c      0x275 ./component/lists/generic_list.o
 .debug_abbrev  0x00004f01      0x3ea ./board/board.o
 .debug_abbrev  0x000052eb      0x1f6 ./board/clock_config.o
 .debug_abbrev  0x000054e1       0x61 ./board/dcd.o
 .debug_abbrev  0x00005542      0x1ed ./board/pin_mux.o

.debug_aranges  0x00000000     0x1e60
 .debug_aranges
                0x00000000       0x18 ./xip/fsl_flexspi_nor_boot.o
 .debug_aranges
                0x00000018       0x18 ./xip/sln_local2_iot_flexspi_nor_config.o
 .debug_aranges
                0x00000030       0x20 ./utilities/fsl_assert.o
 .debug_aranges
                0x00000050       0xb0 ./utilities/fsl_debug_console.o
 .debug_aranges
                0x00000100       0xb0 ./utilities/fsl_str.o
 .debug_aranges
                0x000001b0      0x578 ./startup/startup_mimxrt106s.o
 .debug_aranges
                0x00000728       0x70 ./source/main.o
 .debug_aranges
                0x00000798       0x48 ./source/os_hooks.o
 .debug_aranges
                0x000007e0       0x68 ./source/sln_auth.o
 .debug_aranges
                0x00000848       0x60 ./source/sln_encrypt.o
 .debug_aranges
                0x000008a8       0xa0 ./source/sln_flash.o
 .debug_aranges
                0x00000948       0x18 ./source/sln_flash_config.o
 .debug_aranges
                0x00000960       0xb8 ./source/sln_flash_mgmt.o
 .debug_aranges
                0x00000a18      0x120 ./mbedtls/port/ksdk/ksdk_mbedtls.o
 .debug_aranges
                0x00000b38       0x58 ./freertos/freertos_kernel/portable/MemMang/heap_4.o
 .debug_aranges
                0x00000b90       0x80 ./freertos/freertos_kernel/portable/GCC/ARM_CM4F/port.o
 .debug_aranges
                0x00000c10       0x40 ./freertos/freertos_kernel/list.o
 .debug_aranges
                0x00000c50      0x148 ./freertos/freertos_kernel/queue.o
 .debug_aranges
                0x00000d98      0x208 ./freertos/freertos_kernel/tasks.o
 .debug_aranges
                0x00000fa0       0xf0 ./freertos/freertos_kernel/timers.o
 .debug_aranges
                0x00001090       0x88 ./drivers/flexspi_hyper_flash_ops.o
 .debug_aranges
                0x00001118      0x170 ./drivers/fsl_clock.o
 .debug_aranges
                0x00001288      0x148 ./drivers/fsl_dcp.o
 .debug_aranges
                0x000013d0       0x38 ./drivers/fsl_flexram_allocate.o
 .debug_aranges
                0x00001408       0xf0 ./drivers/fsl_flexspi.o
 .debug_aranges
                0x000014f8       0x50 ./drivers/fsl_gpio.o
 .debug_aranges
                0x00001548      0x1e0 ./drivers/fsl_lpi2c.o
 .debug_aranges
                0x00001728      0x160 ./drivers/fsl_lpuart.o
 .debug_aranges
                0x00001888       0xc0 ./drivers/fsl_trng.o
 .debug_aranges
                0x00001948       0x30 ./device/system_MIMXRT106S.o
 .debug_aranges
                0x00001978      0x100 ./component/uart/lpuart_adapter.o
 .debug_aranges
                0x00001a78      0x100 ./component/serial_manager/serial_manager.o
 .debug_aranges
                0x00001b78       0x78 ./component/serial_manager/serial_port_uart.o
 .debug_aranges
                0x00001bf0       0x90 ./component/lists/generic_list.o
 .debug_aranges
                0x00001c80       0xa8 ./board/board.o
 .debug_aranges
                0x00001d28       0x78 ./board/clock_config.o
 .debug_aranges
                0x00001da0       0x18 ./board/dcd.o
 .debug_aranges
                0x00001db8       0xa8 ./board/pin_mux.o

.debug_line     0x00000000    0x143d1
 .debug_line    0x00000000      0x15c ./xip/fsl_flexspi_nor_boot.o
 .debug_line    0x0000015c      0x176 ./xip/sln_local2_iot_flexspi_nor_config.o
 .debug_line    0x000002d2       0xd6 ./utilities/fsl_assert.o
 .debug_line    0x000003a8      0xb3c ./utilities/fsl_debug_console.o
 .debug_line    0x00000ee4      0x7f4 ./utilities/fsl_str.o
 .debug_line    0x000016d8     0x12a1 ./startup/startup_mimxrt106s.o
 .debug_line    0x00002979      0x71b ./source/main.o
 .debug_line    0x00003094      0x341 ./source/os_hooks.o
 .debug_line    0x000033d5      0x6f6 ./source/sln_auth.o
 .debug_line    0x00003acb      0x55c ./source/sln_encrypt.o
 .debug_line    0x00004027      0x63d ./source/sln_flash.o
 .debug_line    0x00004664      0x152 ./source/sln_flash_config.o
 .debug_line    0x000047b6      0xee5 ./source/sln_flash_mgmt.o
 .debug_line    0x0000569b      0x7b7 ./mbedtls/port/ksdk/ksdk_mbedtls.o
 .debug_line    0x00005e52      0x5d1 ./freertos/freertos_kernel/portable/MemMang/heap_4.o
 .debug_line    0x00006423      0x5ce ./freertos/freertos_kernel/portable/GCC/ARM_CM4F/port.o
 .debug_line    0x000069f1      0x31a ./freertos/freertos_kernel/list.o
 .debug_line    0x00006d0b     0x12e8 ./freertos/freertos_kernel/queue.o
 .debug_line    0x00007ff3     0x1a30 ./freertos/freertos_kernel/tasks.o
 .debug_line    0x00009a23      0xa25 ./freertos/freertos_kernel/timers.o
 .debug_line    0x0000a448      0x606 ./drivers/flexspi_hyper_flash_ops.o
 .debug_line    0x0000aa4e      0xd48 ./drivers/fsl_clock.o
 .debug_line    0x0000b796      0xdd4 ./drivers/fsl_dcp.o
 .debug_line    0x0000c56a      0x2bc ./drivers/fsl_flexram_allocate.o
 .debug_line    0x0000c826      0xede ./drivers/fsl_flexspi.o
 .debug_line    0x0000d704      0x354 ./drivers/fsl_gpio.o
 .debug_line    0x0000da58     0x14d3 ./drivers/fsl_lpi2c.o
 .debug_line    0x0000ef2b     0x11c8 ./drivers/fsl_lpuart.o
 .debug_line    0x000100f3      0x6f4 ./drivers/fsl_trng.o
 .debug_line    0x000107e7      0x474 ./device/system_MIMXRT106S.o
 .debug_line    0x00010c5b      0x9aa ./component/uart/lpuart_adapter.o
 .debug_line    0x00011605      0xc96 ./component/serial_manager/serial_manager.o
 .debug_line    0x0001229b      0x5aa ./component/serial_manager/serial_port_uart.o
 .debug_line    0x00012845      0x506 ./component/lists/generic_list.o
 .debug_line    0x00012d4b      0xb0b ./board/board.o
 .debug_line    0x00013856      0x569 ./board/clock_config.o
 .debug_line    0x00013dbf       0xb0 ./board/dcd.o
 .debug_line    0x00013e6f      0x562 ./board/pin_mux.o

.debug_str      0x00000000     0xf9c5
 .debug_str     0x00000000      0xa9d ./xip/fsl_flexspi_nor_boot.o
                                0xad0 (size before relaxing)
 .debug_str     0x00000a9d      0x693 ./xip/sln_local2_iot_flexspi_nor_config.o
                               0x10bb (size before relaxing)
 .debug_str     0x00001130       0x38 ./utilities/fsl_assert.o
                                0x242 (size before relaxing)
 .debug_str     0x00001168      0x910 ./utilities/fsl_debug_console.o
                               0x1397 (size before relaxing)
 .debug_str     0x00001a78      0x310 ./utilities/fsl_str.o
                                0x55a (size before relaxing)
 .debug_str     0x00001d88      0xf85 ./startup/startup_mimxrt106s.o
                               0x19b0 (size before relaxing)
 .debug_str     0x00002d0d     0x119e ./source/main.o
                               0x1d11 (size before relaxing)
 .debug_str     0x00003eab      0x28f ./source/os_hooks.o
                                0x4d6 (size before relaxing)
 .debug_str     0x0000413a      0x555 ./source/sln_auth.o
                               0x1200 (size before relaxing)
 .debug_str     0x0000468f      0x77d ./source/sln_encrypt.o
                               0x12e3 (size before relaxing)
 .debug_str     0x00004e0c      0x27d ./source/sln_flash.o
                                0x6f6 (size before relaxing)
 .debug_str     0x00005089      0x64f ./source/sln_flash_config.o
                               0x1084 (size before relaxing)
 .debug_str     0x000056d8      0x60a ./source/sln_flash_mgmt.o
                               0x1364 (size before relaxing)
 .debug_str     0x00005ce2      0x7b1 ./mbedtls/port/ksdk/ksdk_mbedtls.o
                               0x1852 (size before relaxing)
 .debug_str     0x00006493      0x2d5 ./freertos/freertos_kernel/portable/MemMang/heap_4.o
                                0x54c (size before relaxing)
 .debug_str     0x00006768      0x22e ./freertos/freertos_kernel/portable/GCC/ARM_CM4F/port.o
                                0x4bb (size before relaxing)
 .debug_str     0x00006996      0x11f ./freertos/freertos_kernel/list.o
                                0x36a (size before relaxing)
 .debug_str     0x00006ab5      0x788 ./freertos/freertos_kernel/queue.o
                                0xb58 (size before relaxing)
 .debug_str     0x0000723d      0xcd4 ./freertos/freertos_kernel/tasks.o
                               0x126f (size before relaxing)
 .debug_str     0x00007f11      0x5ba ./freertos/freertos_kernel/timers.o
                                0xb5e (size before relaxing)
 .debug_str     0x000084cb      0x358 ./drivers/flexspi_hyper_flash_ops.o
                                0x755 (size before relaxing)
 .debug_str     0x00008823     0x10a5 ./drivers/fsl_clock.o
                               0x1b70 (size before relaxing)
 .debug_str     0x000098c8      0xf00 ./drivers/fsl_dcp.o
                               0x20fe (size before relaxing)
 .debug_str     0x0000a7c8      0x24b ./drivers/fsl_flexram_allocate.o
                                0x551 (size before relaxing)
 .debug_str     0x0000aa13      0xa0b ./drivers/fsl_flexspi.o
                               0x2c28 (size before relaxing)
 .debug_str     0x0000b41e      0x219 ./drivers/fsl_gpio.o
                               0x143f (size before relaxing)
 .debug_str     0x0000b637     0x1573 ./drivers/fsl_lpi2c.o
                               0x336f (size before relaxing)
 .debug_str     0x0000cbaa      0xfeb ./drivers/fsl_lpuart.o
                               0x2d7f (size before relaxing)
 .debug_str     0x0000db95      0x38b ./drivers/fsl_trng.o
                               0x1a40 (size before relaxing)
 .debug_str     0x0000df20       0xce ./device/system_MIMXRT106S.o
                                0x7fe (size before relaxing)
 .debug_str     0x0000dfee      0x486 ./component/uart/lpuart_adapter.o
                               0x21ae (size before relaxing)
 .debug_str     0x0000e474      0x606 ./component/serial_manager/serial_manager.o
                                0xba4 (size before relaxing)
 .debug_str     0x0000ea7a      0x1c6 ./component/serial_manager/serial_port_uart.o
                                0x9f0 (size before relaxing)
 .debug_str     0x0000ec40      0x19c ./component/lists/generic_list.o
                                0x448 (size before relaxing)
 .debug_str     0x0000eddc      0x600 ./board/board.o
                               0x16aa (size before relaxing)
 .debug_str     0x0000f3dc      0x3c5 ./board/clock_config.o
                               0x20e5 (size before relaxing)
 .debug_str     0x0000f7a1        0xf ./board/dcd.o
                                0x20d (size before relaxing)
 .debug_str     0x0000f7b0      0x215 ./board/pin_mux.o
                                0xe62 (size before relaxing)

.comment        0x00000000       0x49
 .comment       0x00000000       0x49 ./xip/fsl_flexspi_nor_boot.o
                                 0x4a (size before relaxing)
 .comment       0x00000049       0x4a ./xip/sln_local2_iot_flexspi_nor_config.o
 .comment       0x00000049       0x4a ./utilities/fsl_assert.o
 .comment       0x00000049       0x4a ./utilities/fsl_debug_console.o
 .comment       0x00000049       0x4a ./utilities/fsl_str.o
 .comment       0x00000049       0x4a ./startup/startup_mimxrt106s.o
 .comment       0x00000049       0x4a ./source/main.o
 .comment       0x00000049       0x4a ./source/os_hooks.o
 .comment       0x00000049       0x4a ./source/sln_auth.o
 .comment       0x00000049       0x4a ./source/sln_encrypt.o
 .comment       0x00000049       0x4a ./source/sln_flash.o
 .comment       0x00000049       0x4a ./source/sln_flash_config.o
 .comment       0x00000049       0x4a ./source/sln_flash_mgmt.o
 .comment       0x00000049       0x4a ./mbedtls/port/ksdk/ksdk_mbedtls.o
 .comment       0x00000049       0x4a ./freertos/freertos_kernel/portable/MemMang/heap_4.o
 .comment       0x00000049       0x4a ./freertos/freertos_kernel/portable/GCC/ARM_CM4F/port.o
 .comment       0x00000049       0x4a ./freertos/freertos_kernel/list.o
 .comment       0x00000049       0x4a ./freertos/freertos_kernel/queue.o
 .comment       0x00000049       0x4a ./freertos/freertos_kernel/tasks.o
 .comment       0x00000049       0x4a ./freertos/freertos_kernel/timers.o
 .comment       0x00000049       0x4a ./drivers/flexspi_hyper_flash_ops.o
 .comment       0x00000049       0x4a ./drivers/fsl_clock.o
 .comment       0x00000049       0x4a ./drivers/fsl_dcp.o
 .comment       0x00000049       0x4a ./drivers/fsl_flexram_allocate.o
 .comment       0x00000049       0x4a ./drivers/fsl_flexspi.o
 .comment       0x00000049       0x4a ./drivers/fsl_gpio.o
 .comment       0x00000049       0x4a ./drivers/fsl_lpi2c.o
 .comment       0x00000049       0x4a ./drivers/fsl_lpuart.o
 .comment       0x00000049       0x4a ./drivers/fsl_trng.o
 .comment       0x00000049       0x4a ./device/system_MIMXRT106S.o
 .comment       0x00000049       0x4a ./component/uart/lpuart_adapter.o
 .comment       0x00000049       0x4a ./component/serial_manager/serial_manager.o
 .comment       0x00000049       0x4a ./component/serial_manager/serial_port_uart.o
 .comment       0x00000049       0x4a ./component/lists/generic_list.o
 .comment       0x00000049       0x4a ./board/board.o
 .comment       0x00000049       0x4a ./board/clock_config.o
 .comment       0x00000049       0x4a ./board/dcd.o
 .comment       0x00000049       0x4a ./board/pin_mux.o
 .comment       0x00000049       0x4a c:/nxp/mcuxpressoide_11.6.1_8255/ide/plugins/com.nxp.mcuxpresso.tools.win32_11.6.1.202207200623/tools/bin/../lib/gcc/arm-none-eabi/10.3.1/../../../../arm-none-eabi/lib/thumb/v7e-m+dp/hard\libcr_nohost_nf.a(_cr__main.o)
 .comment       0x00000049       0x4a c:/nxp/mcuxpressoide_11.6.1_8255/ide/plugins/com.nxp.mcuxpresso.tools.win32_11.6.1.202207200623/tools/bin/../lib/gcc/arm-none-eabi/10.3.1/../../../../arm-none-eabi/lib/thumb/v7e-m+dp/hard\libcr_c.a(memcpy.o)
 .comment       0x00000049       0x4a c:/nxp/mcuxpressoide_11.6.1_8255/ide/plugins/com.nxp.mcuxpresso.tools.win32_11.6.1.202207200623/tools/bin/../lib/gcc/arm-none-eabi/10.3.1/../../../../arm-none-eabi/lib/thumb/v7e-m+dp/hard\libcr_c.a(memset.o)
 .comment       0x00000049       0x4a c:/nxp/mcuxpressoide_11.6.1_8255/ide/plugins/com.nxp.mcuxpresso.tools.win32_11.6.1.202207200623/tools/bin/../lib/gcc/arm-none-eabi/10.3.1/../../../../arm-none-eabi/lib/thumb/v7e-m+dp/hard\libcr_c.a(alloc.o)
 .comment       0x00000049       0x4a c:/nxp/mcuxpressoide_11.6.1_8255/ide/plugins/com.nxp.mcuxpresso.tools.win32_11.6.1.202207200623/tools/bin/../lib/gcc/arm-none-eabi/10.3.1/../../../../arm-none-eabi/lib/thumb/v7e-m+dp/hard\libcr_c.a(initio.o)
 .comment       0x00000049       0x4a c:/nxp/mcuxpressoide_11.6.1_8255/ide/plugins/com.nxp.mcuxpresso.tools.win32_11.6.1.202207200623/tools/bin/../lib/gcc/arm-none-eabi/10.3.1/../../../../arm-none-eabi/lib/thumb/v7e-m+dp/hard\libcr_c.a(setvbuf.o)
 .comment       0x00000049       0x4a c:/nxp/mcuxpressoide_11.6.1_8255/ide/plugins/com.nxp.mcuxpresso.tools.win32_11.6.1.202207200623/tools/bin/../lib/gcc/arm-none-eabi/10.3.1/../../../../arm-none-eabi/lib/thumb/v7e-m+dp/hard\libcr_c.a(strlen.o)
 .comment       0x00000049       0x4a c:/nxp/mcuxpressoide_11.6.1_8255/ide/plugins/com.nxp.mcuxpresso.tools.win32_11.6.1.202207200623/tools/bin/../lib/gcc/arm-none-eabi/10.3.1/../../../../arm-none-eabi/lib/thumb/v7e-m+dp/hard\libcr_c.a(strncmp.o)
 .comment       0x00000049       0x4a c:/nxp/mcuxpressoide_11.6.1_8255/ide/plugins/com.nxp.mcuxpresso.tools.win32_11.6.1.202207200623/tools/bin/../lib/gcc/arm-none-eabi/10.3.1/../../../../arm-none-eabi/lib/thumb/v7e-m+dp/hard\libcr_c.a(_deferredlazyseek.o)
 .comment       0x00000049       0x4a c:/nxp/mcuxpressoide_11.6.1_8255/ide/plugins/com.nxp.mcuxpresso.tools.win32_11.6.1.202207200623/tools/bin/../lib/gcc/arm-none-eabi/10.3.1/../../../../arm-none-eabi/lib/thumb/v7e-m+dp/hard\libcr_c.a(_fdopen.o)
 .comment       0x00000049       0x4a c:/nxp/mcuxpressoide_11.6.1_8255/ide/plugins/com.nxp.mcuxpresso.tools.win32_11.6.1.202207200623/tools/bin/../lib/gcc/arm-none-eabi/10.3.1/../../../../arm-none-eabi/lib/thumb/v7e-m+dp/hard\libcr_c.a(_fflush.o)
 .comment       0x00000049       0x4a c:/nxp/mcuxpressoide_11.6.1_8255/ide/plugins/com.nxp.mcuxpresso.tools.win32_11.6.1.202207200623/tools/bin/../lib/gcc/arm-none-eabi/10.3.1/../../../../arm-none-eabi/lib/thumb/v7e-m+dp/hard\libcr_c.a(_writebuf.o)
 .comment       0x00000049       0x4a c:/nxp/mcuxpressoide_11.6.1_8255/ide/plugins/com.nxp.mcuxpresso.tools.win32_11.6.1.202207200623/tools/bin/../lib/gcc/arm-none-eabi/10.3.1/../../../../arm-none-eabi/lib/thumb/v7e-m+dp/hard\libcr_c.a(errno.o)
 .comment       0x00000049       0x4a c:/nxp/mcuxpressoide_11.6.1_8255/ide/plugins/com.nxp.mcuxpresso.tools.win32_11.6.1.202207200623/tools/bin/../lib/gcc/arm-none-eabi/10.3.1/../../../../arm-none-eabi/lib/thumb/v7e-m+dp/hard\libcr_c.a(fclose.o)
 .comment       0x00000049       0x4a c:/nxp/mcuxpressoide_11.6.1_8255/ide/plugins/com.nxp.mcuxpresso.tools.win32_11.6.1.202207200623/tools/bin/../lib/gcc/arm-none-eabi/10.3.1/../../../../arm-none-eabi/lib/thumb/v7e-m+dp/hard\libcr_c.a(fflush.o)
 .comment       0x00000049       0x4a c:/nxp/mcuxpressoide_11.6.1_8255/ide/plugins/com.nxp.mcuxpresso.tools.win32_11.6.1.202207200623/tools/bin/../lib/gcc/arm-none-eabi/10.3.1/../../../../arm-none-eabi/lib/thumb/v7e-m+dp/hard\libcr_c.a(fseek.o)
 .comment       0x00000049       0x4a c:/nxp/mcuxpressoide_11.6.1_8255/ide/plugins/com.nxp.mcuxpresso.tools.win32_11.6.1.202207200623/tools/bin/../lib/gcc/arm-none-eabi/10.3.1/../../../../arm-none-eabi/lib/thumb/v7e-m+dp/hard\libcr_c.a(ftell.o)
 .comment       0x00000049       0x4a c:/nxp/mcuxpressoide_11.6.1_8255/ide/plugins/com.nxp.mcuxpresso.tools.win32_11.6.1.202207200623/tools/bin/../lib/gcc/arm-none-eabi/10.3.1/../../../../arm-none-eabi/lib/thumb/v7e-m+dp/hard\libcr_c.a(remove.o)
 .comment       0x00000049       0x4a c:/nxp/mcuxpressoide_11.6.1_8255/ide/plugins/com.nxp.mcuxpresso.tools.win32_11.6.1.202207200623/tools/bin/../lib/gcc/arm-none-eabi/10.3.1/../../../../arm-none-eabi/lib/thumb/v7e-m+dp/hard\libcr_c.a(_do_fflush.o)
 .comment       0x00000049       0x4a c:/nxp/mcuxpressoide_11.6.1_8255/ide/plugins/com.nxp.mcuxpresso.tools.win32_11.6.1.202207200623/tools/bin/../lib/gcc/arm-none-eabi/10.3.1/../../../../arm-none-eabi/lib/thumb/v7e-m+dp/hard\libcr_nohost_nf.a(__ciob.o)
 .comment       0x00000049       0x4a c:/nxp/mcuxpressoide_11.6.1_8255/ide/plugins/com.nxp.mcuxpresso.tools.win32_11.6.1.202207200623/tools/bin/../lib/gcc/arm-none-eabi/10.3.1/../../../../arm-none-eabi/lib/thumb/v7e-m+dp/hard\libcr_nohost_nf.a(__sys_close.o)
 .comment       0x00000049       0x4a c:/nxp/mcuxpressoide_11.6.1_8255/ide/plugins/com.nxp.mcuxpresso.tools.win32_11.6.1.202207200623/tools/bin/../lib/gcc/arm-none-eabi/10.3.1/../../../../arm-none-eabi/lib/thumb/v7e-m+dp/hard\libcr_nohost_nf.a(__sys_flen.o)
 .comment       0x00000049       0x4a c:/nxp/mcuxpressoide_11.6.1_8255/ide/plugins/com.nxp.mcuxpresso.tools.win32_11.6.1.202207200623/tools/bin/../lib/gcc/arm-none-eabi/10.3.1/../../../../arm-none-eabi/lib/thumb/v7e-m+dp/hard\libcr_nohost_nf.a(__sys_istty.o)
 .comment       0x00000049       0x4a c:/nxp/mcuxpressoide_11.6.1_8255/ide/plugins/com.nxp.mcuxpresso.tools.win32_11.6.1.202207200623/tools/bin/../lib/gcc/arm-none-eabi/10.3.1/../../../../arm-none-eabi/lib/thumb/v7e-m+dp/hard\libcr_nohost_nf.a(__sys_remove.o)
 .comment       0x00000049       0x4a c:/nxp/mcuxpressoide_11.6.1_8255/ide/plugins/com.nxp.mcuxpresso.tools.win32_11.6.1.202207200623/tools/bin/../lib/gcc/arm-none-eabi/10.3.1/../../../../arm-none-eabi/lib/thumb/v7e-m+dp/hard\libcr_nohost_nf.a(__sys_seek.o)
 .comment       0x00000049       0x4a c:/nxp/mcuxpressoide_11.6.1_8255/ide/plugins/com.nxp.mcuxpresso.tools.win32_11.6.1.202207200623/tools/bin/../lib/gcc/arm-none-eabi/10.3.1/../../../../arm-none-eabi/lib/thumb/v7e-m+dp/hard\libcr_nohost_nf.a(__sys_tmpnam.o)
 .comment       0x00000049       0x4a c:/nxp/mcuxpressoide_11.6.1_8255/ide/plugins/com.nxp.mcuxpresso.tools.win32_11.6.1.202207200623/tools/bin/../lib/gcc/arm-none-eabi/10.3.1/../../../../arm-none-eabi/lib/thumb/v7e-m+dp/hard\libcr_nohost_nf.a(__sys_write.o)

.ARM.attributes
                0x00000000       0x30
 .ARM.attributes
                0x00000000       0x32 ./xip/fsl_flexspi_nor_boot.o
 .ARM.attributes
                0x00000032       0x32 ./xip/sln_local2_iot_flexspi_nor_config.o
 .ARM.attributes
                0x00000064       0x32 ./utilities/fsl_assert.o
 .ARM.attributes
                0x00000096       0x32 ./utilities/fsl_debug_console.o
 .ARM.attributes
                0x000000c8       0x32 ./utilities/fsl_str.o
 .ARM.attributes
                0x000000fa       0x32 ./startup/startup_mimxrt106s.o
 .ARM.attributes
                0x0000012c       0x32 ./source/main.o
 .ARM.attributes
                0x0000015e       0x32 ./source/os_hooks.o
 .ARM.attributes
                0x00000190       0x32 ./source/sln_auth.o
 .ARM.attributes
                0x000001c2       0x32 ./source/sln_encrypt.o
 .ARM.attributes
                0x000001f4       0x32 ./source/sln_flash.o
 .ARM.attributes
                0x00000226       0x32 ./source/sln_flash_config.o
 .ARM.attributes
                0x00000258       0x32 ./source/sln_flash_mgmt.o
 .ARM.attributes
                0x0000028a       0x32 ./mbedtls/port/ksdk/ksdk_mbedtls.o
 .ARM.attributes
                0x000002bc       0x32 ./freertos/freertos_kernel/portable/MemMang/heap_4.o
 .ARM.attributes
                0x000002ee       0x32 ./freertos/freertos_kernel/portable/GCC/ARM_CM4F/port.o
 .ARM.attributes
                0x00000320       0x32 ./freertos/freertos_kernel/list.o
 .ARM.attributes
                0x00000352       0x32 ./freertos/freertos_kernel/queue.o
 .ARM.attributes
                0x00000384       0x32 ./freertos/freertos_kernel/tasks.o
 .ARM.attributes
                0x000003b6       0x32 ./freertos/freertos_kernel/timers.o
 .ARM.attributes
                0x000003e8       0x32 ./drivers/flexspi_hyper_flash_ops.o
 .ARM.attributes
                0x0000041a       0x32 ./drivers/fsl_clock.o
 .ARM.attributes
                0x0000044c       0x32 ./drivers/fsl_dcp.o
 .ARM.attributes
                0x0000047e       0x32 ./drivers/fsl_flexram_allocate.o
 .ARM.attributes
                0x000004b0       0x32 ./drivers/fsl_flexspi.o
 .ARM.attributes
                0x000004e2       0x32 ./drivers/fsl_gpio.o
 .ARM.attributes
                0x00000514       0x32 ./drivers/fsl_lpi2c.o
 .ARM.attributes
                0x00000546       0x32 ./drivers/fsl_lpuart.o
 .ARM.attributes
                0x00000578       0x32 ./drivers/fsl_trng.o
 .ARM.attributes
                0x000005aa       0x32 ./device/system_MIMXRT106S.o
 .ARM.attributes
                0x000005dc       0x32 ./component/uart/lpuart_adapter.o
 .ARM.attributes
                0x0000060e       0x32 ./component/serial_manager/serial_manager.o
 .ARM.attributes
                0x00000640       0x32 ./component/serial_manager/serial_port_uart.o
 .ARM.attributes
                0x00000672       0x32 ./component/lists/generic_list.o
 .ARM.attributes
                0x000006a4       0x32 ./board/board.o
 .ARM.attributes
                0x000006d6       0x32 ./board/clock_config.o
 .ARM.attributes
                0x00000708       0x32 ./board/dcd.o
 .ARM.attributes
                0x0000073a       0x32 ./board/pin_mux.o
 .ARM.attributes
                0x0000076c       0x32 c:/nxp/mcuxpressoide_11.6.1_8255/ide/plugins/com.nxp.mcuxpresso.tools.win32_11.6.1.202207200623/tools/bin/../lib/gcc/arm-none-eabi/10.3.1/../../../../arm-none-eabi/lib/thumb/v7e-m+dp/hard\libcr_nohost_nf.a(_cr__main.o)
 .ARM.attributes
                0x0000079e       0x32 c:/nxp/mcuxpressoide_11.6.1_8255/ide/plugins/com.nxp.mcuxpresso.tools.win32_11.6.1.202207200623/tools/bin/../lib/gcc/arm-none-eabi/10.3.1/../../../../arm-none-eabi/lib/thumb/v7e-m+dp/hard\libcr_c.a(memcpy.o)
 .ARM.attributes
                0x000007d0       0x32 c:/nxp/mcuxpressoide_11.6.1_8255/ide/plugins/com.nxp.mcuxpresso.tools.win32_11.6.1.202207200623/tools/bin/../lib/gcc/arm-none-eabi/10.3.1/../../../../arm-none-eabi/lib/thumb/v7e-m+dp/hard\libcr_c.a(memset.o)
 .ARM.attributes
                0x00000802       0x32 c:/nxp/mcuxpressoide_11.6.1_8255/ide/plugins/com.nxp.mcuxpresso.tools.win32_11.6.1.202207200623/tools/bin/../lib/gcc/arm-none-eabi/10.3.1/../../../../arm-none-eabi/lib/thumb/v7e-m+dp/hard\libcr_c.a(alloc.o)
 .ARM.attributes
                0x00000834       0x32 c:/nxp/mcuxpressoide_11.6.1_8255/ide/plugins/com.nxp.mcuxpresso.tools.win32_11.6.1.202207200623/tools/bin/../lib/gcc/arm-none-eabi/10.3.1/../../../../arm-none-eabi/lib/thumb/v7e-m+dp/hard\libcr_c.a(initio.o)
 .ARM.attributes
                0x00000866       0x32 c:/nxp/mcuxpressoide_11.6.1_8255/ide/plugins/com.nxp.mcuxpresso.tools.win32_11.6.1.202207200623/tools/bin/../lib/gcc/arm-none-eabi/10.3.1/../../../../arm-none-eabi/lib/thumb/v7e-m+dp/hard\libcr_c.a(setvbuf.o)
 .ARM.attributes
                0x00000898       0x32 c:/nxp/mcuxpressoide_11.6.1_8255/ide/plugins/com.nxp.mcuxpresso.tools.win32_11.6.1.202207200623/tools/bin/../lib/gcc/arm-none-eabi/10.3.1/../../../../arm-none-eabi/lib/thumb/v7e-m+dp/hard\libcr_c.a(strlen.o)
 .ARM.attributes
                0x000008ca       0x32 c:/nxp/mcuxpressoide_11.6.1_8255/ide/plugins/com.nxp.mcuxpresso.tools.win32_11.6.1.202207200623/tools/bin/../lib/gcc/arm-none-eabi/10.3.1/../../../../arm-none-eabi/lib/thumb/v7e-m+dp/hard\libcr_c.a(strncmp.o)
 .ARM.attributes
                0x000008fc       0x32 c:/nxp/mcuxpressoide_11.6.1_8255/ide/plugins/com.nxp.mcuxpresso.tools.win32_11.6.1.202207200623/tools/bin/../lib/gcc/arm-none-eabi/10.3.1/../../../../arm-none-eabi/lib/thumb/v7e-m+dp/hard\libcr_c.a(_deferredlazyseek.o)
 .ARM.attributes
                0x0000092e       0x32 c:/nxp/mcuxpressoide_11.6.1_8255/ide/plugins/com.nxp.mcuxpresso.tools.win32_11.6.1.202207200623/tools/bin/../lib/gcc/arm-none-eabi/10.3.1/../../../../arm-none-eabi/lib/thumb/v7e-m+dp/hard\libcr_c.a(_fdopen.o)
 .ARM.attributes
                0x00000960       0x32 c:/nxp/mcuxpressoide_11.6.1_8255/ide/plugins/com.nxp.mcuxpresso.tools.win32_11.6.1.202207200623/tools/bin/../lib/gcc/arm-none-eabi/10.3.1/../../../../arm-none-eabi/lib/thumb/v7e-m+dp/hard\libcr_c.a(_fflush.o)
 .ARM.attributes
                0x00000992       0x32 c:/nxp/mcuxpressoide_11.6.1_8255/ide/plugins/com.nxp.mcuxpresso.tools.win32_11.6.1.202207200623/tools/bin/../lib/gcc/arm-none-eabi/10.3.1/../../../../arm-none-eabi/lib/thumb/v7e-m+dp/hard\libcr_c.a(_writebuf.o)
 .ARM.attributes
                0x000009c4       0x32 c:/nxp/mcuxpressoide_11.6.1_8255/ide/plugins/com.nxp.mcuxpresso.tools.win32_11.6.1.202207200623/tools/bin/../lib/gcc/arm-none-eabi/10.3.1/../../../../arm-none-eabi/lib/thumb/v7e-m+dp/hard\libcr_c.a(errno.o)
 .ARM.attributes
                0x000009f6       0x32 c:/nxp/mcuxpressoide_11.6.1_8255/ide/plugins/com.nxp.mcuxpresso.tools.win32_11.6.1.202207200623/tools/bin/../lib/gcc/arm-none-eabi/10.3.1/../../../../arm-none-eabi/lib/thumb/v7e-m+dp/hard\libcr_c.a(fclose.o)
 .ARM.attributes
                0x00000a28       0x32 c:/nxp/mcuxpressoide_11.6.1_8255/ide/plugins/com.nxp.mcuxpresso.tools.win32_11.6.1.202207200623/tools/bin/../lib/gcc/arm-none-eabi/10.3.1/../../../../arm-none-eabi/lib/thumb/v7e-m+dp/hard\libcr_c.a(fflush.o)
 .ARM.attributes
                0x00000a5a       0x32 c:/nxp/mcuxpressoide_11.6.1_8255/ide/plugins/com.nxp.mcuxpresso.tools.win32_11.6.1.202207200623/tools/bin/../lib/gcc/arm-none-eabi/10.3.1/../../../../arm-none-eabi/lib/thumb/v7e-m+dp/hard\libcr_c.a(fseek.o)
 .ARM.attributes
                0x00000a8c       0x32 c:/nxp/mcuxpressoide_11.6.1_8255/ide/plugins/com.nxp.mcuxpresso.tools.win32_11.6.1.202207200623/tools/bin/../lib/gcc/arm-none-eabi/10.3.1/../../../../arm-none-eabi/lib/thumb/v7e-m+dp/hard\libcr_c.a(ftell.o)
 .ARM.attributes
                0x00000abe       0x32 c:/nxp/mcuxpressoide_11.6.1_8255/ide/plugins/com.nxp.mcuxpresso.tools.win32_11.6.1.202207200623/tools/bin/../lib/gcc/arm-none-eabi/10.3.1/../../../../arm-none-eabi/lib/thumb/v7e-m+dp/hard\libcr_c.a(remove.o)
 .ARM.attributes
                0x00000af0       0x32 c:/nxp/mcuxpressoide_11.6.1_8255/ide/plugins/com.nxp.mcuxpresso.tools.win32_11.6.1.202207200623/tools/bin/../lib/gcc/arm-none-eabi/10.3.1/../../../../arm-none-eabi/lib/thumb/v7e-m+dp/hard\libcr_c.a(_do_fflush.o)
 .ARM.attributes
                0x00000b22       0x1e c:/nxp/mcuxpressoide_11.6.1_8255/ide/plugins/com.nxp.mcuxpresso.tools.win32_11.6.1.202207200623/tools/bin/../lib/gcc/arm-none-eabi/10.3.1/thumb/v7e-m+dp/hard\libcr_eabihelpers.a(memcpy.o)
 .ARM.attributes
                0x00000b40       0x32 c:/nxp/mcuxpressoide_11.6.1_8255/ide/plugins/com.nxp.mcuxpresso.tools.win32_11.6.1.202207200623/tools/bin/../lib/gcc/arm-none-eabi/10.3.1/../../../../arm-none-eabi/lib/thumb/v7e-m+dp/hard\libcr_nohost_nf.a(__ciob.o)
 .ARM.attributes
                0x00000b72       0x32 c:/nxp/mcuxpressoide_11.6.1_8255/ide/plugins/com.nxp.mcuxpresso.tools.win32_11.6.1.202207200623/tools/bin/../lib/gcc/arm-none-eabi/10.3.1/../../../../arm-none-eabi/lib/thumb/v7e-m+dp/hard\libcr_nohost_nf.a(__sys_close.o)
 .ARM.attributes
                0x00000ba4       0x32 c:/nxp/mcuxpressoide_11.6.1_8255/ide/plugins/com.nxp.mcuxpresso.tools.win32_11.6.1.202207200623/tools/bin/../lib/gcc/arm-none-eabi/10.3.1/../../../../arm-none-eabi/lib/thumb/v7e-m+dp/hard\libcr_nohost_nf.a(__sys_flen.o)
 .ARM.attributes
                0x00000bd6       0x32 c:/nxp/mcuxpressoide_11.6.1_8255/ide/plugins/com.nxp.mcuxpresso.tools.win32_11.6.1.202207200623/tools/bin/../lib/gcc/arm-none-eabi/10.3.1/../../../../arm-none-eabi/lib/thumb/v7e-m+dp/hard\libcr_nohost_nf.a(__sys_istty.o)
 .ARM.attributes
                0x00000c08       0x32 c:/nxp/mcuxpressoide_11.6.1_8255/ide/plugins/com.nxp.mcuxpresso.tools.win32_11.6.1.202207200623/tools/bin/../lib/gcc/arm-none-eabi/10.3.1/../../../../arm-none-eabi/lib/thumb/v7e-m+dp/hard\libcr_nohost_nf.a(__sys_remove.o)
 .ARM.attributes
                0x00000c3a       0x32 c:/nxp/mcuxpressoide_11.6.1_8255/ide/plugins/com.nxp.mcuxpresso.tools.win32_11.6.1.202207200623/tools/bin/../lib/gcc/arm-none-eabi/10.3.1/../../../../arm-none-eabi/lib/thumb/v7e-m+dp/hard\libcr_nohost_nf.a(__sys_seek.o)
 .ARM.attributes
                0x00000c6c       0x32 c:/nxp/mcuxpressoide_11.6.1_8255/ide/plugins/com.nxp.mcuxpresso.tools.win32_11.6.1.202207200623/tools/bin/../lib/gcc/arm-none-eabi/10.3.1/../../../../arm-none-eabi/lib/thumb/v7e-m+dp/hard\libcr_nohost_nf.a(__sys_tmpnam.o)
 .ARM.attributes
                0x00000c9e       0x32 c:/nxp/mcuxpressoide_11.6.1_8255/ide/plugins/com.nxp.mcuxpresso.tools.win32_11.6.1.202207200623/tools/bin/../lib/gcc/arm-none-eabi/10.3.1/../../../../arm-none-eabi/lib/thumb/v7e-m+dp/hard\libcr_nohost_nf.a(__sys_write.o)

.debug_ranges   0x00000000     0x1c40
 .debug_ranges  0x00000000       0x10 ./utilities/fsl_assert.o
 .debug_ranges  0x00000010       0xb8 ./utilities/fsl_debug_console.o
 .debug_ranges  0x000000c8       0xa0 ./utilities/fsl_str.o
 .debug_ranges  0x00000168      0x580 ./startup/startup_mimxrt106s.o
 .debug_ranges  0x000006e8       0x78 ./source/main.o
 .debug_ranges  0x00000760       0x38 ./source/os_hooks.o
 .debug_ranges  0x00000798       0x58 ./source/sln_auth.o
 .debug_ranges  0x000007f0       0x50 ./source/sln_encrypt.o
 .debug_ranges  0x00000840       0x90 ./source/sln_flash.o
 .debug_ranges  0x000008d0       0xc0 ./source/sln_flash_mgmt.o
 .debug_ranges  0x00000990      0x110 ./mbedtls/port/ksdk/ksdk_mbedtls.o
 .debug_ranges  0x00000aa0       0x48 ./freertos/freertos_kernel/portable/MemMang/heap_4.o
 .debug_ranges  0x00000ae8       0x70 ./freertos/freertos_kernel/portable/GCC/ARM_CM4F/port.o
 .debug_ranges  0x00000b58       0x30 ./freertos/freertos_kernel/list.o
 .debug_ranges  0x00000b88      0x138 ./freertos/freertos_kernel/queue.o
 .debug_ranges  0x00000cc0      0x1f8 ./freertos/freertos_kernel/tasks.o
 .debug_ranges  0x00000eb8       0xe0 ./freertos/freertos_kernel/timers.o
 .debug_ranges  0x00000f98       0x78 ./drivers/flexspi_hyper_flash_ops.o
 .debug_ranges  0x00001010      0x160 ./drivers/fsl_clock.o
 .debug_ranges  0x00001170      0x138 ./drivers/fsl_dcp.o
 .debug_ranges  0x000012a8       0x28 ./drivers/fsl_flexram_allocate.o
 .debug_ranges  0x000012d0       0xe0 ./drivers/fsl_flexspi.o
 .debug_ranges  0x000013b0       0x40 ./drivers/fsl_gpio.o
 .debug_ranges  0x000013f0      0x1d0 ./drivers/fsl_lpi2c.o
 .debug_ranges  0x000015c0      0x150 ./drivers/fsl_lpuart.o
 .debug_ranges  0x00001710       0xb0 ./drivers/fsl_trng.o
 .debug_ranges  0x000017c0       0x20 ./device/system_MIMXRT106S.o
 .debug_ranges  0x000017e0       0xf0 ./component/uart/lpuart_adapter.o
 .debug_ranges  0x000018d0       0xf0 ./component/serial_manager/serial_manager.o
 .debug_ranges  0x000019c0       0x68 ./component/serial_manager/serial_port_uart.o
 .debug_ranges  0x00001a28       0x80 ./component/lists/generic_list.o
 .debug_ranges  0x00001aa8       0x98 ./board/board.o
 .debug_ranges  0x00001b40       0x68 ./board/clock_config.o
 .debug_ranges  0x00001ba8       0x98 ./board/pin_mux.o

.debug_frame    0x00000000     0x5910
 .debug_frame   0x00000000       0x28 ./utilities/fsl_assert.o
 .debug_frame   0x00000028      0x260 ./utilities/fsl_debug_console.o
 .debug_frame   0x00000288      0x200 ./utilities/fsl_str.o
 .debug_frame   0x00000488      0xfec ./startup/startup_mimxrt106s.o
 .debug_frame   0x00001474      0x124 ./source/main.o
 .debug_frame   0x00001598       0x98 ./source/os_hooks.o
 .debug_frame   0x00001630      0x134 ./source/sln_auth.o
 .debug_frame   0x00001764       0xfc ./source/sln_encrypt.o
 .debug_frame   0x00001860      0x1d0 ./source/sln_flash.o
 .debug_frame   0x00001a30      0x254 ./source/sln_flash_mgmt.o
 .debug_frame   0x00001c84      0x39c ./mbedtls/port/ksdk/ksdk_mbedtls.o
 .debug_frame   0x00002020       0xc4 ./freertos/freertos_kernel/portable/MemMang/heap_4.o
 .debug_frame   0x000020e4      0x128 ./freertos/freertos_kernel/portable/GCC/ARM_CM4F/port.o
 .debug_frame   0x0000220c       0x88 ./freertos/freertos_kernel/list.o
 .debug_frame   0x00002294      0x41c ./freertos/freertos_kernel/queue.o
 .debug_frame   0x000026b0      0x678 ./freertos/freertos_kernel/tasks.o
 .debug_frame   0x00002d28      0x2e4 ./freertos/freertos_kernel/timers.o
 .debug_frame   0x0000300c      0x1a0 ./drivers/flexspi_hyper_flash_ops.o
 .debug_frame   0x000031ac      0x3d8 ./drivers/fsl_clock.o
 .debug_frame   0x00003584      0x420 ./drivers/fsl_dcp.o
 .debug_frame   0x000039a4       0x78 ./drivers/fsl_flexram_allocate.o
 .debug_frame   0x00003a1c      0x2f4 ./drivers/fsl_flexspi.o
 .debug_frame   0x00003d10       0xd0 ./drivers/fsl_gpio.o
 .debug_frame   0x00003de0      0x60c ./drivers/fsl_lpi2c.o
 .debug_frame   0x000043ec      0x45c ./drivers/fsl_lpuart.o
 .debug_frame   0x00004848      0x22c ./drivers/fsl_trng.o
 .debug_frame   0x00004a74       0x60 ./device/system_MIMXRT106S.o
 .debug_frame   0x00004ad4      0x308 ./component/uart/lpuart_adapter.o
 .debug_frame   0x00004ddc      0x334 ./component/serial_manager/serial_manager.o
 .debug_frame   0x00005110      0x158 ./component/serial_manager/serial_port_uart.o
 .debug_frame   0x00005268      0x18c ./component/lists/generic_list.o
 .debug_frame   0x000053f4      0x1dc ./board/board.o
 .debug_frame   0x000055d0      0x140 ./board/clock_config.o
 .debug_frame   0x00005710      0x200 ./board/pin_mux.o

Cross Reference Table

Symbol                                            File
ACMP1_DriverIRQHandler                            ./startup/startup_mimxrt106s.o
ACMP1_IRQHandler                                  ./startup/startup_mimxrt106s.o
ACMP2_DriverIRQHandler                            ./startup/startup_mimxrt106s.o
ACMP2_IRQHandler                                  ./startup/startup_mimxrt106s.o
ACMP3_DriverIRQHandler                            ./startup/startup_mimxrt106s.o
ACMP3_IRQHandler                                  ./startup/startup_mimxrt106s.o
ACMP4_DriverIRQHandler                            ./startup/startup_mimxrt106s.o
ACMP4_IRQHandler                                  ./startup/startup_mimxrt106s.o
ADC1_DriverIRQHandler                             ./startup/startup_mimxrt106s.o
ADC1_IRQHandler                                   ./startup/startup_mimxrt106s.o
ADC2_DriverIRQHandler                             ./startup/startup_mimxrt106s.o
ADC2_IRQHandler                                   ./startup/startup_mimxrt106s.o
ADC_ETC_ERROR_IRQ_DriverIRQHandler                ./startup/startup_mimxrt106s.o
ADC_ETC_ERROR_IRQ_IRQHandler                      ./startup/startup_mimxrt106s.o
ADC_ETC_IRQ0_DriverIRQHandler                     ./startup/startup_mimxrt106s.o
ADC_ETC_IRQ0_IRQHandler                           ./startup/startup_mimxrt106s.o
ADC_ETC_IRQ1_DriverIRQHandler                     ./startup/startup_mimxrt106s.o
ADC_ETC_IRQ1_IRQHandler                           ./startup/startup_mimxrt106s.o
ADC_ETC_IRQ2_DriverIRQHandler                     ./startup/startup_mimxrt106s.o
ADC_ETC_IRQ2_IRQHandler                           ./startup/startup_mimxrt106s.o
BEE_DriverIRQHandler                              ./startup/startup_mimxrt106s.o
BEE_IRQHandler                                    ./startup/startup_mimxrt106s.o
BOARD_BoostClock                                  ./board/board.o
BOARD_BootClockRUN                                ./board/clock_config.o
                                                  ./source/main.o
BOARD_ConfigMPU                                   ./board/board.o
                                                  ./source/main.o
BOARD_DebugConsoleSrcFreq                         ./board/board.o
BOARD_InitAudioOut                                ./board/pin_mux.o
BOARD_InitBluetooth                               ./board/pin_mux.o
BOARD_InitBootClocks                              ./board/clock_config.o
BOARD_InitBootConfig                              ./board/pin_mux.o
BOARD_InitBootPins                                ./board/pin_mux.o
                                                  ./source/main.o
BOARD_InitDebugConsole                            ./board/board.o
                                                  ./source/main.o
BOARD_InitEthernet                                ./board/pin_mux.o
BOARD_InitFlash                                   ./board/pin_mux.o
BOARD_InitLED                                     ./board/pin_mux.o
BOARD_InitLPI2C                                   ./board/pin_mux.o
BOARD_InitLPSPI                                   ./board/pin_mux.o
BOARD_InitLPUART                                  ./board/pin_mux.o
BOARD_InitMicrophone                              ./board/pin_mux.o
BOARD_InitSwitches                                ./board/pin_mux.o
BOARD_InitWifi                                    ./board/pin_mux.o
BOARD_InittJtag                                   ./board/pin_mux.o
BOARD_RelocateVectorTableToRam                    ./board/board.o
                                                  ./source/main.o
BOARD_RevertClock                                 ./board/board.o
BUTTON_MSDPressed                                 ./board/board.o
BUTTON_OTWPressed                                 ./board/board.o
BusFault_Handler                                  ./startup/startup_mimxrt106s.o
CAN1_DriverIRQHandler                             ./startup/startup_mimxrt106s.o
CAN1_IRQHandler                                   ./startup/startup_mimxrt106s.o
CAN2_DriverIRQHandler                             ./startup/startup_mimxrt106s.o
CAN2_IRQHandler                                   ./startup/startup_mimxrt106s.o
CAN3_DriverIRQHandler                             ./startup/startup_mimxrt106s.o
CAN3_IRQHandler                                   ./startup/startup_mimxrt106s.o
CCM_1_DriverIRQHandler                            ./startup/startup_mimxrt106s.o
CCM_1_IRQHandler                                  ./startup/startup_mimxrt106s.o
